{
  "_format": "hh-sol-artifact-1",
  "contractName": "NumberJackToken",
  "sourceName": "contracts/NumberJackToken.sol",
  "abi": [
    {
      "inputs": [],
      "stateMutability": "nonpayable",
      "type": "constructor"
    },
    {
      "inputs": [
        {
          "internalType": "address",
          "name": "spender",
          "type": "address"
        },
        {
          "internalType": "uint256",
          "name": "allowance",
          "type": "uint256"
        },
        {
          "internalType": "uint256",
          "name": "needed",
          "type": "uint256"
        }
      ],
      "name": "ERC20InsufficientAllowance",
      "type": "error"
    },
    {
      "inputs": [
        {
          "internalType": "address",
          "name": "sender",
          "type": "address"
        },
        {
          "internalType": "uint256",
          "name": "balance",
          "type": "uint256"
        },
        {
          "internalType": "uint256",
          "name": "needed",
          "type": "uint256"
        }
      ],
      "name": "ERC20InsufficientBalance",
      "type": "error"
    },
    {
      "inputs": [
        {
          "internalType": "address",
          "name": "approver",
          "type": "address"
        }
      ],
      "name": "ERC20InvalidApprover",
      "type": "error"
    },
    {
      "inputs": [
        {
          "internalType": "address",
          "name": "receiver",
          "type": "address"
        }
      ],
      "name": "ERC20InvalidReceiver",
      "type": "error"
    },
    {
      "inputs": [
        {
          "internalType": "address",
          "name": "sender",
          "type": "address"
        }
      ],
      "name": "ERC20InvalidSender",
      "type": "error"
    },
    {
      "inputs": [
        {
          "internalType": "address",
          "name": "spender",
          "type": "address"
        }
      ],
      "name": "ERC20InvalidSpender",
      "type": "error"
    },
    {
      "inputs": [],
      "name": "NumberJackToken__NotOwner",
      "type": "error"
    },
    {
      "anonymous": false,
      "inputs": [
        {
          "indexed": true,
          "internalType": "address",
          "name": "owner",
          "type": "address"
        },
        {
          "indexed": true,
          "internalType": "address",
          "name": "spender",
          "type": "address"
        },
        {
          "indexed": false,
          "internalType": "uint256",
          "name": "value",
          "type": "uint256"
        }
      ],
      "name": "Approval",
      "type": "event"
    },
    {
      "anonymous": false,
      "inputs": [
        {
          "indexed": true,
          "internalType": "address",
          "name": "from",
          "type": "address"
        },
        {
          "indexed": true,
          "internalType": "address",
          "name": "to",
          "type": "address"
        },
        {
          "indexed": false,
          "internalType": "uint256",
          "name": "value",
          "type": "uint256"
        }
      ],
      "name": "Transfer",
      "type": "event"
    },
    {
      "inputs": [
        {
          "internalType": "address",
          "name": "owner",
          "type": "address"
        },
        {
          "internalType": "address",
          "name": "spender",
          "type": "address"
        }
      ],
      "name": "allowance",
      "outputs": [
        {
          "internalType": "uint256",
          "name": "",
          "type": "uint256"
        }
      ],
      "stateMutability": "view",
      "type": "function"
    },
    {
      "inputs": [
        {
          "internalType": "address",
          "name": "spender",
          "type": "address"
        },
        {
          "internalType": "uint256",
          "name": "value",
          "type": "uint256"
        }
      ],
      "name": "approve",
      "outputs": [
        {
          "internalType": "bool",
          "name": "",
          "type": "bool"
        }
      ],
      "stateMutability": "nonpayable",
      "type": "function"
    },
    {
      "inputs": [
        {
          "internalType": "address",
          "name": "account",
          "type": "address"
        }
      ],
      "name": "balanceOf",
      "outputs": [
        {
          "internalType": "uint256",
          "name": "",
          "type": "uint256"
        }
      ],
      "stateMutability": "view",
      "type": "function"
    },
    {
      "inputs": [],
      "name": "decimals",
      "outputs": [
        {
          "internalType": "uint8",
          "name": "",
          "type": "uint8"
        }
      ],
      "stateMutability": "view",
      "type": "function"
    },
    {
      "inputs": [],
      "name": "i_owner",
      "outputs": [
        {
          "internalType": "address",
          "name": "",
          "type": "address"
        }
      ],
      "stateMutability": "view",
      "type": "function"
    },
    {
      "inputs": [
        {
          "internalType": "address",
          "name": "gameAddress",
          "type": "address"
        }
      ],
      "name": "mint",
      "outputs": [],
      "stateMutability": "nonpayable",
      "type": "function"
    },
    {
      "inputs": [],
      "name": "name",
      "outputs": [
        {
          "internalType": "string",
          "name": "",
          "type": "string"
        }
      ],
      "stateMutability": "view",
      "type": "function"
    },
    {
      "inputs": [],
      "name": "symbol",
      "outputs": [
        {
          "internalType": "string",
          "name": "",
          "type": "string"
        }
      ],
      "stateMutability": "view",
      "type": "function"
    },
    {
      "inputs": [],
      "name": "totalSupply",
      "outputs": [
        {
          "internalType": "uint256",
          "name": "",
          "type": "uint256"
        }
      ],
      "stateMutability": "view",
      "type": "function"
    },
    {
      "inputs": [
        {
          "internalType": "address",
          "name": "to",
          "type": "address"
        },
        {
          "internalType": "uint256",
          "name": "value",
          "type": "uint256"
        }
      ],
      "name": "transfer",
      "outputs": [
        {
          "internalType": "bool",
          "name": "",
          "type": "bool"
        }
      ],
      "stateMutability": "nonpayable",
      "type": "function"
    },
    {
      "inputs": [
        {
          "internalType": "address",
          "name": "from",
          "type": "address"
        },
        {
          "internalType": "address",
          "name": "to",
          "type": "address"
        },
        {
          "internalType": "uint256",
          "name": "value",
          "type": "uint256"
        }
      ],
      "name": "transferFrom",
      "outputs": [
        {
          "internalType": "bool",
          "name": "",
          "type": "bool"
        }
      ],
      "stateMutability": "nonpayable",
      "type": "function"
    }
  ],
  "bytecode": "0x60a06040523461034057604080519081016001600160401b0381118282101761024b576040908152600f82526e273ab6b132b92530b1b5aa37b5b2b760891b602083015280519081016001600160401b0381118282101761024b57604052600381526213929560ea1b602082015281516001600160401b03811161024b57600354600181811c91168015610336575b602082101461022b57601f81116102d1575b50602092601f821160011461026c5792819293600092610261575b50508160011b916000199060031b1c1916176003555b80516001600160401b03811161024b57600454600181811c91168015610241575b602082101461022b57601f81116101c6575b50602091601f821160011461016257918192600092610157575b50508160011b916000199060031b1c1916176004555b3360805260405161079e9081610346823960805181818161010401526102db0152f35b01519050388061011e565b601f198216926004600052806000209160005b8581106101ae57508360019510610195575b505050811b01600455610134565b015160001960f88460031b161c19169055388080610187565b91926020600181928685015181550194019201610175565b60046000527f8a35acfbc15ff81a39ae7d344fd709f28e8600b4aa8c65c6b64bfe7fe36bd19b601f830160051c81019160208410610221575b601f0160051c01905b8181106102155750610104565b60008155600101610208565b90915081906101ff565b634e487b7160e01b600052602260045260246000fd5b90607f16906100f2565b634e487b7160e01b600052604160045260246000fd5b0151905038806100bb565b601f198216936003600052806000209160005b8681106102b957508360019596106102a0575b505050811b016003556100d1565b015160001960f88460031b161c19169055388080610292565b9192602060018192868501518155019401920161027f565b60036000527fc2575a0e9e593c00f959f8c92f12db2869c3395a3b0502d05e2516446f71f85b601f830160051c8101916020841061032c575b601f0160051c01905b81811061032057506100a0565b60008155600101610313565b909150819061030a565b90607f169061008e565b600080fdfe608080604052600436101561001357600080fd5b60003560e01c90816306fdde031461057157508063095ea7b3146104eb57806318160ddd146104cd57806323b872dd146103e0578063313ce567146103c45780636a627842146102bf57806370a082311461028557806395d89b4114610164578063a9059cbb14610133578063dba6335f146100ee5763dd62ed3e1461009857600080fd5b346100e95760403660031901126100e9576100b161068d565b6100b96106a3565b6001600160a01b039182166000908152600160209081526040808320949093168252928352819020549051908152f35b600080fd5b346100e95760003660031901126100e9576040517f00000000000000000000000000000000000000000000000000000000000000006001600160a01b03168152602090f35b346100e95760403660031901126100e95761015961014f61068d565b60243590336106b9565b602060405160018152f35b346100e95760003660031901126100e95760405160006004548060011c9060018116801561027b575b6020831081146102675782855290811561024b57506001146101f4575b50819003601f01601f191681019067ffffffffffffffff8211818310176101de576101da82918260405282610644565b0390f35b634e487b7160e01b600052604160045260246000fd5b600460009081529091507f8a35acfbc15ff81a39ae7d344fd709f28e8600b4aa8c65c6b64bfe7fe36bd19b5b828210610235575060209150820101826101aa565b6001816020925483858801015201910190610220565b90506020925060ff191682840152151560051b820101826101aa565b634e487b7160e01b84526022600452602484fd5b91607f169161018d565b346100e95760203660031901126100e9576001600160a01b036102a661068d565b1660005260006020526020604060002054604051908152f35b346100e95760203660031901126100e9576102d861068d565b337f00000000000000000000000000000000000000000000000000000000000000006001600160a01b0316036103b3576001600160a01b0316801561039d5760025469152d02c7e14af6800000810180911161038757600255600090808252816020526040822069152d02c7e14af68000008154019055817fddf252ad1be2c89b69c2b068fc378daa952ba7f163c4a11628f55a4df523b3ef602060405169152d02c7e14af68000008152a380f35b634e487b7160e01b600052601160045260246000fd5b63ec442f0560e01b600052600060045260246000fd5b63a600c6a360e01b60005260046000fd5b346100e95760003660031901126100e957602060405160128152f35b346100e95760603660031901126100e9576103f961068d565b6104016106a3565b6001600160a01b0382166000818152600160209081526040808320338452909152902054909260443592916000198110610441575b5061015993506106b9565b8381106104b057841561049a57331561048457610159946000526001602052604060002060018060a01b0333166000526020528360406000209103905584610436565b634a1406b160e11b600052600060045260246000fd5b63e602df0560e01b600052600060045260246000fd5b8390637dc7a0d960e11b6000523360045260245260445260646000fd5b346100e95760003660031901126100e9576020600254604051908152f35b346100e95760403660031901126100e95761050461068d565b60243590331561049a576001600160a01b031690811561048457336000526001602052604060002082600052602052806040600020556040519081527f8c5be1e5ebec7d5bd14f71427d1e84f3dd0314c0f7b2291e5b200ac8c7c3b92560203392a3602060405160018152f35b346100e95760003660031901126100e95760006003548060011c9060018116801561063a575b6020831081146102675782855290811561024b57506001146105e35750819003601f01601f191681019067ffffffffffffffff8211818310176101de576101da82918260405282610644565b600360009081529091507fc2575a0e9e593c00f959f8c92f12db2869c3395a3b0502d05e2516446f71f85b5b828210610624575060209150820101826101aa565b600181602092548385880101520191019061060f565b91607f1691610597565b91909160208152825180602083015260005b818110610677575060409293506000838284010152601f8019910116010190565b8060208092870101516040828601015201610656565b600435906001600160a01b03821682036100e957565b602435906001600160a01b03821682036100e957565b6001600160a01b0316908115610752576001600160a01b031691821561039d5760008281528060205260408120548281106107385791604082827fddf252ad1be2c89b69c2b068fc378daa952ba7f163c4a11628f55a4df523b3ef958760209652828652038282205586815280845220818154019055604051908152a3565b916064928463391434e360e21b8452600452602452604452fd5b634b637e8f60e11b600052600060045260246000fdfea2646970667358221220bba190e33a1801584959cb6f20bf847127917b071c125c29a121e22b4aa8d1f464736f6c634300081b0033",
  "linkReferences": {},
  "deployedLinkReferences": {}
}