{
  "_format": "hh-sol-artifact-1",
  "contractName": "NumberJackGame",
  "sourceName": "contracts/Numberjack.sol",
  "abi": [
    {
      "inputs": [
        {
          "internalType": "address",
          "name": "gameTokenAddress",
          "type": "address"
        }
      ],
      "stateMutability": "nonpayable",
      "type": "constructor"
    },
    {
      "anonymous": false,
      "inputs": [
        {
          "indexed": false,
          "internalType": "uint256",
          "name": "roomId",
          "type": "uint256"
        },
        {
          "indexed": false,
          "internalType": "address",
          "name": "creator",
          "type": "address"
        }
      ],
      "name": "GameEnded",
      "type": "event"
    },
    {
      "anonymous": false,
      "inputs": [
        {
          "indexed": false,
          "internalType": "uint256",
          "name": "roomId",
          "type": "uint256"
        },
        {
          "indexed": false,
          "internalType": "address",
          "name": "creator",
          "type": "address"
        },
        {
          "indexed": false,
          "internalType": "uint256",
          "name": "maxNumber",
          "type": "uint256"
        },
        {
          "indexed": false,
          "internalType": "uint256",
          "name": "entryFee",
          "type": "uint256"
        },
        {
          "indexed": false,
          "internalType": "enum NumberJackGame.GameMode",
          "name": "mode",
          "type": "uint8"
        }
      ],
      "name": "GameRoomCreated",
      "type": "event"
    },
    {
      "anonymous": false,
      "inputs": [
        {
          "indexed": false,
          "internalType": "uint256",
          "name": "_roomId",
          "type": "uint256"
        },
        {
          "indexed": false,
          "internalType": "uint256",
          "name": "timeStarted",
          "type": "uint256"
        }
      ],
      "name": "GameStarted",
      "type": "event"
    },
    {
      "anonymous": false,
      "inputs": [
        {
          "indexed": false,
          "internalType": "uint256",
          "name": "roomId",
          "type": "uint256"
        },
        {
          "indexed": false,
          "internalType": "uint256",
          "name": "prizeTransferredToOwner",
          "type": "uint256"
        }
      ],
      "name": "NoWinner",
      "type": "event"
    },
    {
      "anonymous": false,
      "inputs": [
        {
          "indexed": false,
          "internalType": "uint256",
          "name": "roomId",
          "type": "uint256"
        },
        {
          "indexed": false,
          "internalType": "address",
          "name": "player",
          "type": "address"
        }
      ],
      "name": "PlayerEliminated",
      "type": "event"
    },
    {
      "anonymous": false,
      "inputs": [
        {
          "indexed": false,
          "internalType": "uint256",
          "name": "roomId",
          "type": "uint256"
        },
        {
          "indexed": false,
          "internalType": "address",
          "name": "player",
          "type": "address"
        }
      ],
      "name": "PlayerJoined",
      "type": "event"
    },
    {
      "anonymous": false,
      "inputs": [
        {
          "indexed": false,
          "internalType": "uint256",
          "name": "_roomId",
          "type": "uint256"
        },
        {
          "indexed": false,
          "internalType": "address",
          "name": "player",
          "type": "address"
        }
      ],
      "name": "PlayerPlayed",
      "type": "event"
    },
    {
      "anonymous": false,
      "inputs": [
        {
          "indexed": false,
          "internalType": "uint256",
          "name": "roomId",
          "type": "uint256"
        },
        {
          "indexed": false,
          "internalType": "address",
          "name": "newPlayer",
          "type": "address"
        },
        {
          "indexed": false,
          "internalType": "uint256",
          "name": "currentRound",
          "type": "uint256"
        },
        {
          "indexed": false,
          "internalType": "uint256",
          "name": "turnStartTime",
          "type": "uint256"
        }
      ],
      "name": "TurnAdvanced",
      "type": "event"
    },
    {
      "anonymous": false,
      "inputs": [
        {
          "indexed": false,
          "internalType": "uint256",
          "name": "roomId",
          "type": "uint256"
        },
        {
          "indexed": false,
          "internalType": "address",
          "name": "player",
          "type": "address"
        }
      ],
      "name": "TurnSkipped",
      "type": "event"
    },
    {
      "anonymous": false,
      "inputs": [
        {
          "indexed": false,
          "internalType": "uint256",
          "name": "roomId",
          "type": "uint256"
        },
        {
          "indexed": false,
          "internalType": "address",
          "name": "timedOutPlayer",
          "type": "address"
        }
      ],
      "name": "TurnTimedOut",
      "type": "event"
    },
    {
      "anonymous": false,
      "inputs": [
        {
          "indexed": false,
          "internalType": "uint256",
          "name": "roomId",
          "type": "uint256"
        },
        {
          "indexed": false,
          "internalType": "address",
          "name": "winner",
          "type": "address"
        },
        {
          "indexed": false,
          "internalType": "uint256",
          "name": "prize",
          "type": "uint256"
        }
      ],
      "name": "WinnerDeclared",
      "type": "event"
    },
    {
      "inputs": [
        {
          "internalType": "uint256",
          "name": "_roomId",
          "type": "uint256"
        }
      ],
      "name": "checkWinner",
      "outputs": [],
      "stateMutability": "nonpayable",
      "type": "function"
    },
    {
      "inputs": [
        {
          "internalType": "uint256",
          "name": "_maxNumber",
          "type": "uint256"
        },
        {
          "internalType": "enum NumberJackGame.GameMode",
          "name": "_mode",
          "type": "uint8"
        },
        {
          "internalType": "uint256",
          "name": "_durationOrRounds",
          "type": "uint256"
        },
        {
          "internalType": "uint256",
          "name": "_turnTimeout",
          "type": "uint256"
        }
      ],
      "name": "createGameRoom",
      "outputs": [],
      "stateMutability": "payable",
      "type": "function"
    },
    {
      "inputs": [
        {
          "internalType": "uint256",
          "name": "_roomId",
          "type": "uint256"
        }
      ],
      "name": "endGame",
      "outputs": [],
      "stateMutability": "nonpayable",
      "type": "function"
    },
    {
      "inputs": [
        {
          "internalType": "uint256",
          "name": "_roomId",
          "type": "uint256"
        }
      ],
      "name": "forceAdvance",
      "outputs": [],
      "stateMutability": "nonpayable",
      "type": "function"
    },
    {
      "inputs": [
        {
          "internalType": "uint256",
          "name": "",
          "type": "uint256"
        }
      ],
      "name": "gameRooms",
      "outputs": [
        {
          "internalType": "address",
          "name": "creator",
          "type": "address"
        },
        {
          "internalType": "uint256",
          "name": "id",
          "type": "uint256"
        },
        {
          "internalType": "uint256",
          "name": "maxNumber",
          "type": "uint256"
        },
        {
          "internalType": "uint256",
          "name": "entryFee",
          "type": "uint256"
        },
        {
          "internalType": "bool",
          "name": "isActive",
          "type": "bool"
        },
        {
          "internalType": "enum NumberJackGame.GameStatus",
          "name": "status",
          "type": "uint8"
        },
        {
          "internalType": "enum NumberJackGame.GameMode",
          "name": "mode",
          "type": "uint8"
        },
        {
          "internalType": "uint256",
          "name": "startTime",
          "type": "uint256"
        },
        {
          "internalType": "uint256",
          "name": "duration",
          "type": "uint256"
        },
        {
          "internalType": "uint256",
          "name": "roundValue",
          "type": "uint256"
        },
        {
          "internalType": "uint256",
          "name": "roundCurrentValue",
          "type": "uint256"
        },
        {
          "internalType": "uint256",
          "name": "currentPlayerIndex",
          "type": "uint256"
        },
        {
          "internalType": "uint256",
          "name": "lastTurnTimestamp",
          "type": "uint256"
        },
        {
          "internalType": "uint256",
          "name": "turnTimeout",
          "type": "uint256"
        }
      ],
      "stateMutability": "view",
      "type": "function"
    },
    {
      "inputs": [],
      "name": "gameToken",
      "outputs": [
        {
          "internalType": "contract IERC20",
          "name": "",
          "type": "address"
        }
      ],
      "stateMutability": "view",
      "type": "function"
    },
    {
      "inputs": [],
      "name": "getAllGameRooms",
      "outputs": [
        {
          "components": [
            {
              "internalType": "address",
              "name": "creator",
              "type": "address"
            },
            {
              "internalType": "uint256",
              "name": "id",
              "type": "uint256"
            },
            {
              "internalType": "uint256",
              "name": "maxNumber",
              "type": "uint256"
            },
            {
              "internalType": "uint256",
              "name": "entryFee",
              "type": "uint256"
            },
            {
              "internalType": "address[]",
              "name": "players",
              "type": "address[]"
            },
            {
              "internalType": "bool",
              "name": "isActive",
              "type": "bool"
            },
            {
              "internalType": "enum NumberJackGame.GameStatus",
              "name": "status",
              "type": "uint8"
            },
            {
              "internalType": "enum NumberJackGame.GameMode",
              "name": "mode",
              "type": "uint8"
            },
            {
              "internalType": "uint256",
              "name": "startTime",
              "type": "uint256"
            },
            {
              "internalType": "uint256",
              "name": "duration",
              "type": "uint256"
            },
            {
              "internalType": "uint256",
              "name": "roundValue",
              "type": "uint256"
            },
            {
              "internalType": "uint256",
              "name": "roundCurrentValue",
              "type": "uint256"
            },
            {
              "internalType": "uint256",
              "name": "currentPlayerIndex",
              "type": "uint256"
            },
            {
              "internalType": "uint256",
              "name": "lastTurnTimestamp",
              "type": "uint256"
            },
            {
              "internalType": "uint256",
              "name": "turnTimeout",
              "type": "uint256"
            }
          ],
          "internalType": "struct NumberJackGame.GameRoom[]",
          "name": "",
          "type": "tuple[]"
        }
      ],
      "stateMutability": "view",
      "type": "function"
    },
    {
      "inputs": [],
      "name": "getAvailableRooms",
      "outputs": [
        {
          "components": [
            {
              "internalType": "address",
              "name": "creator",
              "type": "address"
            },
            {
              "internalType": "uint256",
              "name": "id",
              "type": "uint256"
            },
            {
              "internalType": "uint256",
              "name": "maxNumber",
              "type": "uint256"
            },
            {
              "internalType": "uint256",
              "name": "entryFee",
              "type": "uint256"
            },
            {
              "internalType": "address[]",
              "name": "players",
              "type": "address[]"
            },
            {
              "internalType": "bool",
              "name": "isActive",
              "type": "bool"
            },
            {
              "internalType": "enum NumberJackGame.GameStatus",
              "name": "status",
              "type": "uint8"
            },
            {
              "internalType": "enum NumberJackGame.GameMode",
              "name": "mode",
              "type": "uint8"
            },
            {
              "internalType": "uint256",
              "name": "startTime",
              "type": "uint256"
            },
            {
              "internalType": "uint256",
              "name": "duration",
              "type": "uint256"
            },
            {
              "internalType": "uint256",
              "name": "roundValue",
              "type": "uint256"
            },
            {
              "internalType": "uint256",
              "name": "roundCurrentValue",
              "type": "uint256"
            },
            {
              "internalType": "uint256",
              "name": "currentPlayerIndex",
              "type": "uint256"
            },
            {
              "internalType": "uint256",
              "name": "lastTurnTimestamp",
              "type": "uint256"
            },
            {
              "internalType": "uint256",
              "name": "turnTimeout",
              "type": "uint256"
            }
          ],
          "internalType": "struct NumberJackGame.GameRoom[]",
          "name": "",
          "type": "tuple[]"
        }
      ],
      "stateMutability": "view",
      "type": "function"
    },
    {
      "inputs": [
        {
          "internalType": "uint256",
          "name": "_gameRoomId",
          "type": "uint256"
        }
      ],
      "name": "getGameRoomById",
      "outputs": [
        {
          "components": [
            {
              "internalType": "address",
              "name": "creator",
              "type": "address"
            },
            {
              "internalType": "uint256",
              "name": "id",
              "type": "uint256"
            },
            {
              "internalType": "uint256",
              "name": "maxNumber",
              "type": "uint256"
            },
            {
              "internalType": "uint256",
              "name": "entryFee",
              "type": "uint256"
            },
            {
              "internalType": "address[]",
              "name": "players",
              "type": "address[]"
            },
            {
              "internalType": "bool",
              "name": "isActive",
              "type": "bool"
            },
            {
              "internalType": "enum NumberJackGame.GameStatus",
              "name": "status",
              "type": "uint8"
            },
            {
              "internalType": "enum NumberJackGame.GameMode",
              "name": "mode",
              "type": "uint8"
            },
            {
              "internalType": "uint256",
              "name": "startTime",
              "type": "uint256"
            },
            {
              "internalType": "uint256",
              "name": "duration",
              "type": "uint256"
            },
            {
              "internalType": "uint256",
              "name": "roundValue",
              "type": "uint256"
            },
            {
              "internalType": "uint256",
              "name": "roundCurrentValue",
              "type": "uint256"
            },
            {
              "internalType": "uint256",
              "name": "currentPlayerIndex",
              "type": "uint256"
            },
            {
              "internalType": "uint256",
              "name": "lastTurnTimestamp",
              "type": "uint256"
            },
            {
              "internalType": "uint256",
              "name": "turnTimeout",
              "type": "uint256"
            }
          ],
          "internalType": "struct NumberJackGame.GameRoom",
          "name": "",
          "type": "tuple"
        }
      ],
      "stateMutability": "view",
      "type": "function"
    },
    {
      "inputs": [
        {
          "internalType": "uint256",
          "name": "_roomId",
          "type": "uint256"
        },
        {
          "internalType": "address",
          "name": "_player",
          "type": "address"
        }
      ],
      "name": "getIsPlayerEliminatedByRoomId",
      "outputs": [
        {
          "internalType": "bool",
          "name": "",
          "type": "bool"
        }
      ],
      "stateMutability": "view",
      "type": "function"
    },
    {
      "inputs": [
        {
          "internalType": "uint256",
          "name": "_roomId",
          "type": "uint256"
        },
        {
          "internalType": "address",
          "name": "_player",
          "type": "address"
        }
      ],
      "name": "getPlayerDrawsForGameRoom",
      "outputs": [
        {
          "internalType": "uint256[]",
          "name": "",
          "type": "uint256[]"
        }
      ],
      "stateMutability": "view",
      "type": "function"
    },
    {
      "inputs": [
        {
          "internalType": "uint256",
          "name": "_roomId",
          "type": "uint256"
        },
        {
          "internalType": "address",
          "name": "userAddress",
          "type": "address"
        }
      ],
      "name": "getPlayerObject",
      "outputs": [
        {
          "internalType": "bool",
          "name": "",
          "type": "bool"
        },
        {
          "internalType": "uint256[]",
          "name": "",
          "type": "uint256[]"
        },
        {
          "internalType": "bool",
          "name": "",
          "type": "bool"
        }
      ],
      "stateMutability": "view",
      "type": "function"
    },
    {
      "inputs": [],
      "name": "getTotalRoomsCreated",
      "outputs": [
        {
          "internalType": "uint256",
          "name": "",
          "type": "uint256"
        }
      ],
      "stateMutability": "view",
      "type": "function"
    },
    {
      "inputs": [
        {
          "internalType": "uint256",
          "name": "",
          "type": "uint256"
        },
        {
          "internalType": "address",
          "name": "",
          "type": "address"
        }
      ],
      "name": "hasSkipped",
      "outputs": [
        {
          "internalType": "bool",
          "name": "",
          "type": "bool"
        }
      ],
      "stateMutability": "view",
      "type": "function"
    },
    {
      "inputs": [
        {
          "internalType": "uint256",
          "name": "",
          "type": "uint256"
        },
        {
          "internalType": "address",
          "name": "",
          "type": "address"
        }
      ],
      "name": "isEliminated",
      "outputs": [
        {
          "internalType": "bool",
          "name": "",
          "type": "bool"
        }
      ],
      "stateMutability": "view",
      "type": "function"
    },
    {
      "inputs": [
        {
          "internalType": "uint256",
          "name": "_roomId",
          "type": "uint256"
        }
      ],
      "name": "joinGameRoom",
      "outputs": [],
      "stateMutability": "payable",
      "type": "function"
    },
    {
      "inputs": [],
      "name": "owner",
      "outputs": [
        {
          "internalType": "address",
          "name": "",
          "type": "address"
        }
      ],
      "stateMutability": "view",
      "type": "function"
    },
    {
      "inputs": [
        {
          "internalType": "uint256",
          "name": "_roomId",
          "type": "uint256"
        }
      ],
      "name": "playTurn",
      "outputs": [
        {
          "internalType": "uint256",
          "name": "",
          "type": "uint256"
        },
        {
          "internalType": "uint256",
          "name": "",
          "type": "uint256"
        }
      ],
      "stateMutability": "nonpayable",
      "type": "function"
    },
    {
      "inputs": [
        {
          "internalType": "uint256",
          "name": "",
          "type": "uint256"
        },
        {
          "internalType": "address",
          "name": "",
          "type": "address"
        },
        {
          "internalType": "uint256",
          "name": "",
          "type": "uint256"
        }
      ],
      "name": "playerDraws",
      "outputs": [
        {
          "internalType": "uint256",
          "name": "",
          "type": "uint256"
        }
      ],
      "stateMutability": "view",
      "type": "function"
    },
    {
      "inputs": [],
      "name": "roomCounter",
      "outputs": [
        {
          "internalType": "uint256",
          "name": "",
          "type": "uint256"
        }
      ],
      "stateMutability": "view",
      "type": "function"
    },
    {
      "inputs": [],
      "name": "skipFee",
      "outputs": [
        {
          "internalType": "uint256",
          "name": "",
          "type": "uint256"
        }
      ],
      "stateMutability": "view",
      "type": "function"
    },
    {
      "inputs": [
        {
          "internalType": "uint256",
          "name": "_roomId",
          "type": "uint256"
        }
      ],
      "name": "skipTurn",
      "outputs": [],
      "stateMutability": "nonpayable",
      "type": "function"
    },
    {
      "inputs": [
        {
          "internalType": "uint256",
          "name": "_roomId",
          "type": "uint256"
        }
      ],
      "name": "startGame",
      "outputs": [],
      "stateMutability": "nonpayable",
      "type": "function"
    }
  ],
  "bytecode": "0x608034608357601f611ef238819003918201601f19168301916001600160401b03831184841017608857808492602094604052833981010312608357516001600160a01b03811690819003608357600a600255600080546001600160a01b0319908116331790915560018054909116919091179055604051611e53908161009f8239f35b600080fd5b634e487b7160e01b600052604160045260246000fdfe6080604052600436101561001257600080fd5b60003560e01c80630e5a2ebe14610d1357806318854939146111ce5780631ab9121514610ccc5780633dc290d3146111b0578063426c4641146110d3578063575951001461102d57806361099b1714610fe45780637098bc3d14610f7f5780637ae6042c14610d605780637e32eb9a14610d135780638da5cb5b14610cea578063921c45ca14610ccc5780639fe6315314610bb4578063a0fc6cff14610933578063b710c545146108a5578063c3dfdae61461087c578063c791350114610820578063ce371cbd146105e9578063d014459514610480578063d0399bb8146103a8578063d83f72ec1461035b578063e5ed1d591461026d5763eca0a4411461011957600080fd5b6020366003190112610268576004358060005260036020526040600020600581015460ff8116156102335760081c60ff16600381101561021d5761015d9015611c41565b600381015434036101e2576101753360048301611b09565b6000198201918083116101cc576101b96101c7926101b37f87969bc7faf902221a147b95ceba76e011c5efb0339a0a8ee7a2bb82d9cfbbd6956116e2565b906117de565b604051918291339083611b4a565b0390a1005b634e487b7160e01b600052601160045260246000fd5b60405162461bcd60e51b8152602060048201526013602482015272496e636f727265637420656e7472792066656560681b6044820152606490fd5b634e487b7160e01b600052602160045260246000fd5b60405162461bcd60e51b815260206004820152600d60248201526c526f6f6d20696e61637469766560981b6044820152606490fd5b600080fd5b3461026857602036600319011261026857600435600081815260036020526040902080546001600160a01b0316330361031d576005810160ff815460081c16600381101561021d576102bf9015611c41565b805461ff00191661010017905542600b8201556000198201918083116101cc5761030f6040926101b37fa2dfaa3573b86004ec9d4d4abe5068d942579c59da4da8cd0d9e45e71a393bc1956116e2565b8151908152426020820152a1005b60405162461bcd60e51b815260206004820152601660248201527513db9b1e4818dc99585d1bdc8818d85b881cdd185c9d60521b6044820152606490fd5b346102685760403660031901126102685761037461147f565b600435600052600660205260406000209060018060a01b0316600052602052602060ff604060002054166040519015158152f35b3461026857602036600319011261026857600435806000526003602052604060002090600582019160ff835460081c16600381101561021d5760016103ed9114611670565b600080808061040560048601546003870154906116cf565b85546001600160a01b0316828215610477575bf11561046b57825461ffff19166102001790925590546040517f3d5fcd8fa3235aeb3897f25c8ea49989174981afcb01b9d03189d1056a16775b92909182916101c7916001600160a01b03169083611b4a565b6040513d6000823e3d90fd5b506108fc610418565b34610268576000366003190112610268576008546000805b82811061058d57506104a981611c15565b906104b7604051928361190b565b8082526104c6601f1991611c15565b0160005b81811061057657505060009160005b8181106104f257604051806104ee8582611610565b0390f35b60ff60056104ff836116e2565b5001541680610552575b610516575b6001016104d9565b9261054a60019161052f610529876116e2565b506119e9565b6105398287611c2d565b526105448186611c2d565b506116b3565b93905061050e565b5060ff6005610560836116e2565b50015460081c16600381101561021d5715610509565b60209061058161197a565b828286010152016104ca565b60ff600561059a836116e2565b50015416806105c5575b6105b1575b600101610498565b906105bd6001916116b3565b9190506105a9565b5060ff60056105d3836116e2565b50015460081c16600381101561021d57156105a4565b3461026857602036600319011261026857600435806000526003602052604060002060ff600582015460081c16600381101561021d576106599161063260016106409314611670565b6004600a82015491016115e2565b90543360039290921b1c6001600160a01b031614611b63565b60008181526005602090815260408083203384529091529020546106809060ff1615611b9f565b600081815260066020908152604080832033845290915290205460ff166107e457600154600080546002546040516323b872dd60e01b81523360048201526001600160a01b0392831660248201526044810191909152926020928492606492849291165af190811561046b576000916107a2575b50156107655780610763916000526006602052604060002060018060a01b0333166000526020526040600020600160ff198254161790557f78d563416c0d6c2454e9c81222ee1e58f6c3ff4dfcfa798d85d391e57023ecc96040518061075b338583611b4a565b0390a1611c84565b005b60405162461bcd60e51b8152602060048201526015602482015274151bdad95b881d1c985b9cd9995c8819985a5b1959605a1b6044820152606490fd5b6020813d6020116107dc575b816107bb6020938361190b565b810103126107d857519081151582036107d55750826106f4565b80fd5b5080fd5b3d91506107ae565b60405162461bcd60e51b815260206004820152601460248201527320b63932b0b23c9039b5b4b83832b2103a3ab93760611b6044820152606490fd5b346102685760403660031901126102685761083961147f565b600435600052600460205260406000209060018060a01b03166000526020526104ee610868604060002061192d565b6040519182916020835260208301906114af565b34610268576000366003190112610268576001546040516001600160a01b039091168152602090f35b34610268576000366003190112610268576008546108c281611c15565b906108d0604051928361190b565b808252600860009081527ff3f7a9fe364faab93b216da50a3214154f22a0a2b415b23a84c8169e8b636ee3602084015b83831061091557604051806104ee8782611610565b600d6020600192610925856119e9565b815201920192019190610900565b3461026857602036600319011261026857600435806000526003602052604060002060ff600582015460081c16600381101561021d5760016109759114611670565b6109be600a82015461098d61064082600486016115e2565b60008481526005602090815260408083203384529091529020546109b49060ff1615611b9f565b60098301546116c2565b90606460405160208101906109e8816109da8733444288611dee565b03601f19810183528261190b565b5190200691600183018093116101cc57600181018091116101cc57606490604051610a1e816109da602082019433444288611dee565b5190200690600182018092116101cc57836000526004602052604060002060018060a01b033316600052602052610a59836040600020611be0565b836000526004602052604060002060018060a01b033316600052602052610a84826040600020611be0565b60008481526004602090815260408083203384529091528120805491929183915b818310610b8b575050506040947f159625897a04b71f4e46d7111a412afacd7a15723596ccc828d247ee50e85d67926002610b1a93015410610b29575b610aeb81611c84565b60008181526006602090815287822033808452915290879020805460ff19169055865192839290919083611b4a565b0390a182519182526020820152f35b8060005260056020528560002060018060a01b03331660005260205285600020600160ff198254161790557f638a014c19f58a705adfdf3c8350f6eecbcab57edc63f1112fef5828840730eb865180610b83338583611b4a565b0390a1610ae2565b909193610bab600191610b9e87856115e2565b90549060031b1c906116c2565b94019190610aa5565b346102685760203660031901126102685760043580600052600360205260406000209060ff600583015460081c16600381101561021d576001610bf79114611670565b610c0a600b830154600c840154906116c2565b421115610c8e577e32e633d34e1ad18fdfb5054de555825496a862d3dbb13071d8b6d213bb9d7161075b610c49846004600a61076397015491016115e2565b9054600085815260056020908152604080832060039590951b9390931c6001600160a01b0316808352939052819020805460ff19166001179055519182918583611b4a565b60405162461bcd60e51b8152602060048201526016602482015275151d5c9b881b9bdd081d1a5b5959081bdd5d081e595d60521b6044820152606490fd5b34610268576000366003190112610268576020600754604051908152f35b34610268576000366003190112610268576000546040516001600160a01b039091168152602090f35b3461026857604036600319011261026857610d2c61147f565b600435600052600560205260406000209060018060a01b0316600052602052602060ff604060002054166040519015158152f35b608036600319011261026857600435602435600281101561026857604435918015610f41573415610ef057610d966007546116b3565b6007818155600091825260036020819052604090922080546001600160a01b03191633178155905460018083019190915560028201849055349282019290925560058101805461ffff1916909217825590610df29084906117bd565b60009383610ee65760088201555b6001600982015583600a820155606435600c82015583600b820155610e283360048301611b09565b600854600160401b811015610ed25760a0610ecc93610e947f87969bc7faf902221a147b95ceba76e011c5efb0339a0a8ee7a2bb82d9cfbbd696946101b38560017fe46206ee37763f491432fdb2213a587a271991a7df76de6ef1fc9589b46d8dfb97016008556116e2565b610ebd6007549460405192868452336020850152604084015234606084015260808301906114a2565ba1604051918291339083611b4a565b0390a180f35b634e487b7160e01b85526041600452602485fd5b6007820155610e00565b60405162461bcd60e51b815260206004820152602360248201527f456e74727920666565206d7573742062652067726561746572207468616e207a60448201526265726f60e81b6064820152608490fd5b60405162461bcd60e51b815260206004820152601660248201527504d6178206e756d626572206d757374206265203e20360541b6044820152606490fd5b3461026857606036600319011261026857610f9861147f565b60443590600435600052600460205260406000209060018060a01b03166000526020526040600020805482101561026857602091610fd5916115e2565b90549060031b1c604051908152f35b3461026857602036600319011261026857610ffd61197a565b5060043560005260036020526104ee61101960406000206119e9565b6040519182916020835260208301906114e3565b346102685760403660031901126102685760043561104961147f565b60008281526005602090815260408083206001600160a01b039490941680845293825280832054858452600483528184208585528352818420958452600683528184209484529390915290205460ff908116929116906110a89061192d565b916110c7604051938493151584526060602085015260608401906114af565b90151560408301520390f35b346102685760203660031901126102685760043560005260036020526101c0604060002060018060a01b03815416906001810154906002810154600382015460058301546006840154600785015490611185600887015493600988015495600a89015497600c600b8b01549a01549a6040519c8d5260208d015260408c015260608b015260ff8116151560808b015261117560a08b0160ff8360081c16611495565b60ff60c08b019160101c166114a2565b60e08801526101008701526101208601526101408501526101608401526101808301526101a0820152f35b34610268576000366003190112610268576020600254604051908152f35b346102685760203660031901126102685760043580600052600360205260406000206005810160ff815460081c16600381101561021d5760016112119114611670565b6000806000198290600486018054925b838110611389575050506003850154611239916116cf565b91600181148015611378575b156112d657506001600160a01b0316906000818381156112cc575b600092839283928392f11561046b577f7ed5face07afb2b0e99df53523951350d2a3d4f5d105a0dd2110703efe399537916060916040519187835260208301526040820152a15b805461ffff191661020017905560001982019182116101cc576101b3610763926116e2565b6108fc9250611260565b1515905061133a5760008080808460018060a01b03825416828215611331575bf11561046b5760407f66a8c5b89438eb03696fbf4fae05d99dcfa81867a18c352b258b5de0aea1c246918151908682526020820152a16112a7565b506108fc6112f6565b60405162461bcd60e51b815260206004820152601660248201527511d85b59481b9bdd081e595d0818dbdb98db1d59195960521b6044820152606490fd5b506009850154600886015410611245565b88600052600560205260ff6040806000206113a484866115e2565b905460039190911b1c6001600160a01b03166000908152602091909152205416156113d2575b600101611221565b9350936113de906116b3565b936113e984826115e2565b60018060a01b0391549060031b1c1693600089815260046020526040812061141183856115e2565b905460039190911b1c6001600160a01b031682526020526040812080548291905b8083106114635750505083811061144a575b506113ca565b925060019061145981846115e2565b5090919050611444565b909192611476600191610b9e86866115e2565b93019190611432565b602435906001600160a01b038216820361026857565b90600382101561021d5752565b90600282101561021d5752565b906020808351928381520192019060005b8181106114cd5750505090565b82518452602093840193909201916001016114c0565b906101e081019160018060a01b0381511682526020810151602083015260408101516040830152606081015160608301526080810151926101e0608084015283518091526020610200840194019060005b8181106115c3575050506101c08160a082930151151560a085015261156160c082015160c0860190611495565b61157360e082015160e08601906114a2565b6101008101516101008501526101208101516101208501526101408101516101408501526101608101516101608501526101808101516101808501526101a08101516101a0850152015191015290565b82516001600160a01b0316865260209586019590920191600101611534565b80548210156115fa5760005260206000200190600090565b634e487b7160e01b600052603260045260246000fd5b602081016020825282518091526040820191602060408360051b8301019401926000915b83831061164357505050505090565b9091929394602080611661600193603f1986820301875289516114e3565b97019301930191939290611634565b1561167757565b60405162461bcd60e51b815260206004820152601460248201527347616d65206e6f7420696e2070726f677265737360601b6044820152606490fd5b60001981146101cc5760010190565b919082018092116101cc57565b818102929181159184041417156101cc57565b6008548110156115fa576008600052600d602060002091020190600090565b8181146117b95781549167ffffffffffffffff83116117a357600160401b83116117a357815483835580841061177a575b5060005260206000209060005260206000208154916000925b848410611759575050505050565b600191820180546001600160a01b039092168486015593909101929061174b565b8260005283602060002091820191015b8181106117975750611732565b6000815560010161178a565b634e487b7160e01b600052604160045260246000fd5b5050565b90600281101561021d5762ff000082549160101b169062ff00001916179055565b91906118d8578082036117ef575050565b805482546001600160a01b0319166001600160a01b039190911617825560018181015490830155600280820154908301556003808201549083015561183a6004808301908401611701565b6005820190600581019060ff825416151560ff80198554169116178355815491600360ff8460081c16101561021d578360ff61189592600c969561ff00808998549285191616169061ff0019161783555460101c16906117bd565b60068101546006850155600781015460078501556008810154600885015560098101546009850155600a810154600a850155600b810154600b8501550154910155565b634e487b7160e01b600052600060045260246000fd5b6101e0810190811067ffffffffffffffff8211176117a357604052565b90601f8019910116810190811067ffffffffffffffff8211176117a357604052565b906040519182815491828252602082019060005260206000209260005b81811061196157505061195f9250038361190b565b565b845483526001948501948794506020909301920161194a565b60405190611987826118ee565b60006101c083828152826020820152826040820152826060820152606060808201528260a08201528260c08201528260e08201528261010082015282610120820152826101408201528261016082015282610180820152826101a08201520152565b906040516119f6816118ee565b809260018060a01b038154168252600181015460208301526002810154604083015260038101546060830152600481016040518082602082945493848152019060005260206000209260005b818110611ae7575050611a579250038261190b565b6080830152600581015460ff8116151560a084015260ff8160081c1690600382101561021d5760ff9160c085015260101c16600281101561021d576101c091600c9160e08501526006810154610100850152600781015461012085015260088101546101408501526009810154610160850152600a810154610180850152600b8101546101a08501520154910152565b84546001600160a01b0316835260019485019486945060209093019201611a42565b8054600160401b8110156117a357611b26916001820181556115e2565b81546001600160a01b0393841660039290921b91821b9390911b1916919091179055565b9081526001600160a01b03909116602082015260400190565b15611b6a57565b60405162461bcd60e51b815260206004820152600d60248201526c2737ba103cb7bab9103a3ab93760991b6044820152606490fd5b15611ba657565b60405162461bcd60e51b8152602060048201526012602482015271165bdd48185c9948195b1a5b5a5b985d195960721b6044820152606490fd5b8054600160401b8110156117a357611bfd916001820181556115e2565b819291549060031b91821b91600019901b1916179055565b67ffffffffffffffff81116117a35760051b60200190565b80518210156115fa5760209160051b010190565b15611c4857565b60405162461bcd60e51b815260206004820152601460248201527311d85b5948185b1c9958591e481cdd185c9d195960621b6044820152606490fd5b80600052600360205260406000206004810191825491600a8101928354600b83019142835560018115905b15611d7c575b6000875460018101809111611d685782611d545783859106808a558015611d3f575b03611caf57505050506009611d127f5e29cb4c5e826275cb8cf9f76f97caadac08d231cda0b6aeade3c9de8a7ef146966080965b54906115e2565b60018060a01b0391549060031b1c16920154905491604051938452602084015260408301526060820152a1565b60098801611d4d81546116b3565b9055611cd7565b634e487b7160e01b82526012600452602482fd5b634e487b7160e01b82526011600452602482fd5b85600052600560205260ff604080600020611d988a548c6115e2565b905460039190911b1c6001600160a01b03166000908152602091909152205416611cb5575050506009611d127f5e29cb4c5e826275cb8cf9f76f97caadac08d231cda0b6aeade3c9de8a7ef14696608096611d0b565b92909160749492845260208401526bffffffffffffffffffffffff199060601b1660408301526054820152019056fea26469706673582212203fc426615238620e5f2dfe04fcf4ceeff027ffc167189fd08ab615c1fe12540264736f6c634300081b0033",
  "linkReferences": {},
  "deployedLinkReferences": {}
}