{
  "_format": "hh-sol-artifact-1",
  "contractName": "NumberJackGame",
  "sourceName": "contracts/Numberjack.sol",
  "abi": [
    {
      "inputs": [
        {
          "internalType": "address",
          "name": "gameTokenAddress",
          "type": "address"
        }
      ],
      "stateMutability": "nonpayable",
      "type": "constructor"
    },
    {
      "anonymous": false,
      "inputs": [
        {
          "indexed": false,
          "internalType": "uint256",
          "name": "roomId",
          "type": "uint256"
        },
        {
          "indexed": false,
          "internalType": "address",
          "name": "creator",
          "type": "address"
        },
        {
          "indexed": false,
          "internalType": "uint256",
          "name": "maxNumber",
          "type": "uint256"
        },
        {
          "indexed": false,
          "internalType": "uint256",
          "name": "entryFee",
          "type": "uint256"
        },
        {
          "indexed": false,
          "internalType": "uint256",
          "name": "rounds",
          "type": "uint256"
        }
      ],
      "name": "GameRoomCreated",
      "type": "event"
    },
    {
      "anonymous": false,
      "inputs": [
        {
          "indexed": false,
          "internalType": "uint256",
          "name": "_roomId",
          "type": "uint256"
        }
      ],
      "name": "GameStarted",
      "type": "event"
    },
    {
      "anonymous": false,
      "inputs": [
        {
          "indexed": false,
          "internalType": "uint256",
          "name": "roomId",
          "type": "uint256"
        },
        {
          "indexed": false,
          "internalType": "uint256",
          "name": "prizeTransferredToOwner",
          "type": "uint256"
        }
      ],
      "name": "NoWinner",
      "type": "event"
    },
    {
      "anonymous": false,
      "inputs": [
        {
          "indexed": false,
          "internalType": "uint256",
          "name": "roomId",
          "type": "uint256"
        },
        {
          "indexed": false,
          "internalType": "address",
          "name": "player",
          "type": "address"
        }
      ],
      "name": "PlayerEliminated",
      "type": "event"
    },
    {
      "anonymous": false,
      "inputs": [
        {
          "indexed": false,
          "internalType": "uint256",
          "name": "roomId",
          "type": "uint256"
        },
        {
          "indexed": false,
          "internalType": "address",
          "name": "player",
          "type": "address"
        }
      ],
      "name": "PlayerJoined",
      "type": "event"
    },
    {
      "anonymous": false,
      "inputs": [
        {
          "indexed": false,
          "internalType": "uint256",
          "name": "_roomId",
          "type": "uint256"
        },
        {
          "indexed": false,
          "internalType": "address",
          "name": "player",
          "type": "address"
        }
      ],
      "name": "PlayerPlayed",
      "type": "event"
    },
    {
      "anonymous": false,
      "inputs": [
        {
          "indexed": false,
          "internalType": "uint256",
          "name": "roomId",
          "type": "uint256"
        },
        {
          "indexed": false,
          "internalType": "address",
          "name": "newPlayer",
          "type": "address"
        },
        {
          "indexed": false,
          "internalType": "uint256",
          "name": "currentRound",
          "type": "uint256"
        },
        {
          "indexed": false,
          "internalType": "uint256",
          "name": "turnStartTime",
          "type": "uint256"
        }
      ],
      "name": "TurnAdvanced",
      "type": "event"
    },
    {
      "anonymous": false,
      "inputs": [
        {
          "indexed": false,
          "internalType": "uint256",
          "name": "roomId",
          "type": "uint256"
        },
        {
          "indexed": false,
          "internalType": "address",
          "name": "player",
          "type": "address"
        }
      ],
      "name": "TurnSkipped",
      "type": "event"
    },
    {
      "anonymous": false,
      "inputs": [
        {
          "indexed": false,
          "internalType": "uint256",
          "name": "roomId",
          "type": "uint256"
        },
        {
          "indexed": false,
          "internalType": "address",
          "name": "timedOutPlayer",
          "type": "address"
        }
      ],
      "name": "TurnTimedOut",
      "type": "event"
    },
    {
      "anonymous": false,
      "inputs": [
        {
          "indexed": false,
          "internalType": "uint256",
          "name": "roomId",
          "type": "uint256"
        },
        {
          "indexed": false,
          "internalType": "address",
          "name": "winner",
          "type": "address"
        },
        {
          "indexed": false,
          "internalType": "uint256",
          "name": "prize",
          "type": "uint256"
        }
      ],
      "name": "WinnerDeclared",
      "type": "event"
    },
    {
      "inputs": [
        {
          "internalType": "uint256",
          "name": "_roomId",
          "type": "uint256"
        }
      ],
      "name": "checkWinner",
      "outputs": [],
      "stateMutability": "nonpayable",
      "type": "function"
    },
    {
      "inputs": [
        {
          "internalType": "uint256",
          "name": "_maxNumber",
          "type": "uint256"
        },
        {
          "internalType": "uint256",
          "name": "_entryFee",
          "type": "uint256"
        },
        {
          "internalType": "uint256",
          "name": "_rounds",
          "type": "uint256"
        },
        {
          "internalType": "uint256",
          "name": "_turnTimeout",
          "type": "uint256"
        }
      ],
      "name": "createGameRoom",
      "outputs": [],
      "stateMutability": "payable",
      "type": "function"
    },
    {
      "inputs": [
        {
          "internalType": "uint256",
          "name": "_roomId",
          "type": "uint256"
        }
      ],
      "name": "forceAdvance",
      "outputs": [],
      "stateMutability": "nonpayable",
      "type": "function"
    },
    {
      "inputs": [
        {
          "internalType": "uint256",
          "name": "",
          "type": "uint256"
        }
      ],
      "name": "gameRooms",
      "outputs": [
        {
          "internalType": "address",
          "name": "creator",
          "type": "address"
        },
        {
          "internalType": "uint256",
          "name": "gameId",
          "type": "uint256"
        },
        {
          "internalType": "uint256",
          "name": "maxNumber",
          "type": "uint256"
        },
        {
          "internalType": "uint256",
          "name": "entryFee",
          "type": "uint256"
        },
        {
          "internalType": "bool",
          "name": "isActive",
          "type": "bool"
        },
        {
          "internalType": "enum NumberJackGame.GameStatus",
          "name": "status",
          "type": "uint8"
        },
        {
          "internalType": "uint256",
          "name": "rounds",
          "type": "uint256"
        },
        {
          "internalType": "uint256",
          "name": "currentRound",
          "type": "uint256"
        },
        {
          "internalType": "uint256",
          "name": "currentPlayerIndex",
          "type": "uint256"
        },
        {
          "internalType": "uint256",
          "name": "lastTurnTimestamp",
          "type": "uint256"
        },
        {
          "internalType": "uint256",
          "name": "turnTimeout",
          "type": "uint256"
        }
      ],
      "stateMutability": "view",
      "type": "function"
    },
    {
      "inputs": [],
      "name": "gameToken",
      "outputs": [
        {
          "internalType": "contract IERC20",
          "name": "",
          "type": "address"
        }
      ],
      "stateMutability": "view",
      "type": "function"
    },
    {
      "inputs": [],
      "name": "getALlGameRooms",
      "outputs": [
        {
          "components": [
            {
              "internalType": "address",
              "name": "creator",
              "type": "address"
            },
            {
              "internalType": "uint256",
              "name": "gameId",
              "type": "uint256"
            },
            {
              "internalType": "uint256",
              "name": "maxNumber",
              "type": "uint256"
            },
            {
              "internalType": "uint256",
              "name": "entryFee",
              "type": "uint256"
            },
            {
              "internalType": "address[]",
              "name": "players",
              "type": "address[]"
            },
            {
              "internalType": "bool",
              "name": "isActive",
              "type": "bool"
            },
            {
              "internalType": "enum NumberJackGame.GameStatus",
              "name": "status",
              "type": "uint8"
            },
            {
              "internalType": "uint256",
              "name": "rounds",
              "type": "uint256"
            },
            {
              "internalType": "uint256",
              "name": "currentRound",
              "type": "uint256"
            },
            {
              "internalType": "uint256",
              "name": "currentPlayerIndex",
              "type": "uint256"
            },
            {
              "internalType": "uint256",
              "name": "lastTurnTimestamp",
              "type": "uint256"
            },
            {
              "internalType": "uint256",
              "name": "turnTimeout",
              "type": "uint256"
            }
          ],
          "internalType": "struct NumberJackGame.GameRoom[]",
          "name": "",
          "type": "tuple[]"
        }
      ],
      "stateMutability": "view",
      "type": "function"
    },
    {
      "inputs": [
        {
          "internalType": "uint256",
          "name": "_gameRoomId",
          "type": "uint256"
        }
      ],
      "name": "getGameRoomById",
      "outputs": [
        {
          "components": [
            {
              "internalType": "address",
              "name": "creator",
              "type": "address"
            },
            {
              "internalType": "uint256",
              "name": "gameId",
              "type": "uint256"
            },
            {
              "internalType": "uint256",
              "name": "maxNumber",
              "type": "uint256"
            },
            {
              "internalType": "uint256",
              "name": "entryFee",
              "type": "uint256"
            },
            {
              "internalType": "address[]",
              "name": "players",
              "type": "address[]"
            },
            {
              "internalType": "bool",
              "name": "isActive",
              "type": "bool"
            },
            {
              "internalType": "enum NumberJackGame.GameStatus",
              "name": "status",
              "type": "uint8"
            },
            {
              "internalType": "uint256",
              "name": "rounds",
              "type": "uint256"
            },
            {
              "internalType": "uint256",
              "name": "currentRound",
              "type": "uint256"
            },
            {
              "internalType": "uint256",
              "name": "currentPlayerIndex",
              "type": "uint256"
            },
            {
              "internalType": "uint256",
              "name": "lastTurnTimestamp",
              "type": "uint256"
            },
            {
              "internalType": "uint256",
              "name": "turnTimeout",
              "type": "uint256"
            }
          ],
          "internalType": "struct NumberJackGame.GameRoom",
          "name": "",
          "type": "tuple"
        }
      ],
      "stateMutability": "view",
      "type": "function"
    },
    {
      "inputs": [
        {
          "internalType": "uint256",
          "name": "_roomId",
          "type": "uint256"
        },
        {
          "internalType": "address",
          "name": "_player",
          "type": "address"
        }
      ],
      "name": "getIsPlayerEliminatedByRoomId",
      "outputs": [
        {
          "internalType": "bool",
          "name": "",
          "type": "bool"
        }
      ],
      "stateMutability": "view",
      "type": "function"
    },
    {
      "inputs": [
        {
          "internalType": "uint256",
          "name": "_roomId",
          "type": "uint256"
        },
        {
          "internalType": "address",
          "name": "_player",
          "type": "address"
        }
      ],
      "name": "getPlayerScoresForEachGameRoom",
      "outputs": [
        {
          "internalType": "uint256",
          "name": "",
          "type": "uint256"
        }
      ],
      "stateMutability": "view",
      "type": "function"
    },
    {
      "inputs": [],
      "name": "getTotalRoomsCreated",
      "outputs": [
        {
          "internalType": "uint256",
          "name": "",
          "type": "uint256"
        }
      ],
      "stateMutability": "view",
      "type": "function"
    },
    {
      "inputs": [
        {
          "internalType": "uint256",
          "name": "",
          "type": "uint256"
        },
        {
          "internalType": "address",
          "name": "",
          "type": "address"
        }
      ],
      "name": "isEliminated",
      "outputs": [
        {
          "internalType": "bool",
          "name": "",
          "type": "bool"
        }
      ],
      "stateMutability": "view",
      "type": "function"
    },
    {
      "inputs": [
        {
          "internalType": "uint256",
          "name": "_roomId",
          "type": "uint256"
        }
      ],
      "name": "joinGameRoom",
      "outputs": [],
      "stateMutability": "payable",
      "type": "function"
    },
    {
      "inputs": [],
      "name": "owner",
      "outputs": [
        {
          "internalType": "address",
          "name": "",
          "type": "address"
        }
      ],
      "stateMutability": "view",
      "type": "function"
    },
    {
      "inputs": [
        {
          "internalType": "uint256",
          "name": "_roomId",
          "type": "uint256"
        }
      ],
      "name": "playTurn",
      "outputs": [
        {
          "internalType": "uint256",
          "name": "",
          "type": "uint256"
        },
        {
          "internalType": "uint256",
          "name": "",
          "type": "uint256"
        }
      ],
      "stateMutability": "nonpayable",
      "type": "function"
    },
    {
      "inputs": [
        {
          "internalType": "uint256",
          "name": "",
          "type": "uint256"
        },
        {
          "internalType": "address",
          "name": "",
          "type": "address"
        }
      ],
      "name": "playerScores",
      "outputs": [
        {
          "internalType": "uint256",
          "name": "",
          "type": "uint256"
        }
      ],
      "stateMutability": "view",
      "type": "function"
    },
    {
      "inputs": [],
      "name": "roomCounter",
      "outputs": [
        {
          "internalType": "uint256",
          "name": "",
          "type": "uint256"
        }
      ],
      "stateMutability": "view",
      "type": "function"
    },
    {
      "inputs": [],
      "name": "skipFee",
      "outputs": [
        {
          "internalType": "uint256",
          "name": "",
          "type": "uint256"
        }
      ],
      "stateMutability": "view",
      "type": "function"
    },
    {
      "inputs": [
        {
          "internalType": "uint256",
          "name": "_roomId",
          "type": "uint256"
        }
      ],
      "name": "skipTurn",
      "outputs": [],
      "stateMutability": "nonpayable",
      "type": "function"
    },
    {
      "inputs": [
        {
          "internalType": "uint256",
          "name": "_roomId",
          "type": "uint256"
        }
      ],
      "name": "startGame",
      "outputs": [],
      "stateMutability": "nonpayable",
      "type": "function"
    }
  ],
  "bytecode": "0x608034608357601f6117ef38819003918201601f19168301916001600160401b03831184841017608857808492602094604052833981010312608357516001600160a01b03811690819003608357600a600255600080546001600160a01b0319908116331790915560018054909116919091179055604051611750908161009f8239f35b600080fd5b634e487b7160e01b600052604160045260246000fdfe6080604052600436101561001257600080fd5b60003560e01c8062200e27146102f25780630e5a2ebe14610b445780631885493914610cee5780631ab9121514610afd5780633dc290d314610cd0578063426c464114610c1e57806361099b1714610b845780637e32eb9a14610b445780638da5cb5b14610b1b578063921c45ca14610afd5780639e43d97d146109335780639fe631531461081b578063a0e1746f1461070f578063a0fc6cff1461050f578063c3dfdae6146104e6578063ce371cbd1461032d578063dbed0391146102f2578063e5ed1d59146102095763eca0a441146100ec57600080fd5b6020366003190112610204576004358060005260036020526040600020600581015460ff8116156101cf5760081c60ff1660038110156101b957610130901561153e565b61013f60038201543414611418565b61014c336004830161145a565b6000198201918083116101a35761019061019e9261018a7f87969bc7faf902221a147b95ceba76e011c5efb0339a0a8ee7a2bb82d9cfbbd695611139565b906111fe565b60405191829133908361149b565b0390a1005b634e487b7160e01b600052601160045260246000fd5b634e487b7160e01b600052602160045260246000fd5b60405162461bcd60e51b815260206004820152600d60248201526c526f6f6d20696e61637469766560981b6044820152606490fd5b600080fd5b3461020457602036600319011261020457600435600081815260036020526040902080546001600160a01b031633036102b4576005810160ff815460081c1660038110156101b95761025b901561153e565b805461ff0019166101001790554260098201556000198201918083116101a3576102ab60209261018a7f50ad08f58a27f2851d7e3a1b3a6a46b290f2ce677e99642d30ff639721e7779095611139565b604051908152a1005b60405162461bcd60e51b815260206004820152601660248201527513db9b1e4818dc99585d1bdc8818d85b881cdd185c9d60521b6044820152606490fd5b346102045761030036610fb3565b90600052600460205260406000209060018060a01b03166000526020526020604060002054604051908152f35b3461020457602036600319011261020457600435806000526003602052604060002060ff600582015460081c1660038110156101b95761039d91610376600161038493146110b9565b6004600882015491016110fc565b90543360039290921b1c6001600160a01b0316146114c1565b60008181526005602090815260408083203384529091529020546103c49060ff16156114fd565b600154600080546002546040516323b872dd60e01b81523360048201526001600160a01b0392831660248201526044810191909152926020928492606492849291165af19081156104da57600091610498575b501561045b57610459907f78d563416c0d6c2454e9c81222ee1e58f6c3ff4dfcfa798d85d391e57023ecc96040518061045133858361149b565b0390a1611581565b005b60405162461bcd60e51b8152602060048201526015602482015274151bdad95b881d1c985b9cd9995c8819985a5b1959605a1b6044820152606490fd5b6020813d6020116104d2575b816104b160209383611305565b810103126104ce57519081151582036104cb575082610417565b80fd5b5080fd5b3d91506104a4565b6040513d6000823e3d90fd5b34610204576000366003190112610204576001546040516001600160a01b039091168152602090f35b346102045760203660031901126102045760043580600052600360205260406000209060ff600583015460081c1660038110156101b957600161055291146110b9565b61059b600883015461056a61038482600487016110fc565b60008381526005602090815260408083203384529091529020546105919060ff16156114fd565b60078401546114b4565b90606460405160208101906105c5816105b787334442886116eb565b03601f198101835282611305565b5190200691600183018093116101a357600181018091116101a3576064906040516105fb816105b76020820194334442886116eb565b5190200690600182018092116101a35761069e7f159625897a04b71f4e46d7111a412afacd7a15723596ccc828d247ee50e85d679160409561063d85876114b4565b600083815260046020908152898220338352905288902080549091610661916114b4565b905560008281526004602090815288822033835290528790205460029190910154106106ad575b61069181611581565b855191829133908361149b565b0390a182519182526020820152f35b8060005260056020528560002060018060a01b03331660005260205285600020600160ff198254161790557f638a014c19f58a705adfdf3c8350f6eecbcab57edc63f1112fef5828840730eb86518061070733858361149b565b0390a1610688565b346102045760003660031901126102045760075467ffffffffffffffff8111610805576040519061074660208260051b0183611305565b808252600760009081526020830191907fa66cc928b5edb82af9bd49922954155ab7b0942694bea4ce44661d9a8736c688835b8383106107e757848660405191829160208301906020845251809152604083019060408160051b85010192916000905b8282106107b857505050500390f35b919360019193955060206107d78192603f198a82030186528851610fe6565b96019201920185949391926107a9565b600b60206001926107f785611327565b815201920192019190610779565b634e487b7160e01b600052604160045260246000fd5b346102045760203660031901126102045760043580600052600360205260406000209060ff600583015460081c1660038110156101b957600161085e91146110b9565b6108716009830154600a840154906114b4565b4211156108f5577e32e633d34e1ad18fdfb5054de555825496a862d3dbb13071d8b6d213bb9d716104516108b0846004600861045997015491016110fc565b9054600085815260056020908152604080832060039590951b9390931c6001600160a01b0316808352939052819020805460ff1916600117905551918291858361149b565b60405162461bcd60e51b8152602060048201526016602482015275151d5c9b881b9bdd081d1a5b5959081bdd5d081e595d60521b6044820152606490fd5b6080366003190112610204576004356044356024358215610abf578015610a825761095f813414611418565b61096a60065461112a565b806006556000526003602052604060002060018060a01b03331660018060a01b031982541617815583600282015581600382015560058101600160ff1982541617815561ff001981541690558260068201556001600782015560006008820155606435600a820155600060098201556109e6336004830161145a565b60075490600160401b821015610805577f87969bc7faf902221a147b95ceba76e011c5efb0339a0a8ee7a2bb82d9cfbbd69461019e94610a5360a09361018a8660017f1edf9a86c33fed6210d8c78ee787814f0977b94d4e47167aa29231d4f7a565cb9801600755611139565b6006549460405192868452336020850152604084015260608301526080820152a160405191829133908361149b565b60405162461bcd60e51b81526020600482015260156024820152740456e74727920666565206d757374206265203e203605c1b6044820152606490fd5b60405162461bcd60e51b815260206004820152601660248201527504d6178206e756d626572206d757374206265203e20360541b6044820152606490fd5b34610204576000366003190112610204576020600654604051908152f35b34610204576000366003190112610204576000546040516001600160a01b039091168152602090f35b3461020457610b5236610fb3565b90600052600560205260406000209060018060a01b0316600052602052602060ff604060002054166040519015158152f35b34610204576020366003190112610204576000610160604051610ba6816112e8565b828152826020820152826040820152826060820152606060808201528260a08201528260c08201528260e082015282610100820152826101208201528261014082015201526004356000526003602052610c1a610c066040600020611327565b604051918291602083526020830190610fe6565b0390f35b34610204576020366003190112610204576004356000526003602052610160604060002060018060a01b0381541690600181015490600281015460038201546005830154610cb2600685015491600786015493600887015495600a6009890154980154986040519a8b5260208b015260408a0152606089015260ff81161515608089015260ff60a089019160081c16610fd9565b60c086015260e0850152610100840152610120830152610140820152f35b34610204576000366003190112610204576020600254604051908152f35b346102045760203660031901126102045760043580600052600360205260406000206005810160ff815460081c1660038110156101b9576001610d3191146110b9565b600080600019918092600486018054945b858110610eb1575050506003850154928381029381850414901517156101a357600181148015610ea0575b15610dfe57506001600160a01b031690600081838115610df4575b600092839283928392f1156104da577f7ed5face07afb2b0e99df53523951350d2a3d4f5d105a0dd2110703efe399537916060916040519187835260208301526040820152a15b805461ffff191661020017905560001982019182116101a35761018a61045992611139565b6108fc9250610d88565b15159050610e625760008080808460018060a01b03825416828215610e59575bf1156104da5760407f66a8c5b89438eb03696fbf4fae05d99dcfa81867a18c352b258b5de0aea1c246918151908682526020820152a1610dcf565b506108fc610e1e565b60405162461bcd60e51b815260206004820152601660248201527511d85b59481b9bdd081e595d0818dbdb98db1d59195960521b6044820152606490fd5b506007850154600686015410610d6d565b88600052600560205260ff604080600020610ecc84866110fc565b905460039190911b1c6001600160a01b0316600090815260209190915220541615610efa575b600101610d42565b935091610f069061112a565b91610f1184826110fc565b60018060a01b0391549060031b1c169388600052600460205282604080600020610f3b84866110fc565b905460039190911b1c6001600160a01b0316600090815260209190915220541015610ef25791508760005260046020526001604080600020610f7d85856110fc565b848060a01b0391549060031b1c1690600091848060a01b03168252602052205492610fa881846110fc565b50909150610ef29050565b604090600319011261020457600435906024356001600160a01b03811681036102045790565b9060038210156101b95752565b9061018081019160018060a01b0381511682526020810151602083015260408101516040830152606081015160608301526080810151926101806080840152835180915260206101a0840194019060005b81811061109a575050506101608160a082930151151560a085015261106460c082015160c0860190610fd9565b60e081015160e0850152610100810151610100850152610120810151610120850152610140810151610140850152015191015290565b82516001600160a01b0316865260209586019590920191600101611037565b156110c057565b60405162461bcd60e51b815260206004820152601460248201527347616d65206e6f7420696e2070726f677265737360601b6044820152606490fd5b80548210156111145760005260206000200190600090565b634e487b7160e01b600052603260045260246000fd5b60001981146101a35760010190565b600754811015611114576007600052600b602060002091020190600090565b8181146111fa5781549167ffffffffffffffff831161080557600160401b83116108055781548383558084106111d1575b5060005260206000209060005260206000208154916000925b8484106111b0575050505050565b600191820180546001600160a01b03909216848601559390910192906111a2565b8260005283602060002091820191015b8181106111ee5750611189565b600081556001016111e1565b5050565b91906112d25780820361120f575050565b805482546001600160a01b0319166001600160a01b039190911617825560018181015490830155600280820154908301556003808201549083015561125a6004808301908401611158565b60058201906005810160ff815416151560ff801985541691161783555490600360ff8360081c1610156101b95782600a939261ff00808695549260ff191616169061ff001916179055600681015460068501556007810154600785015560088101546008850155600981015460098501550154910155565b634e487b7160e01b600052600060045260246000fd5b610180810190811067ffffffffffffffff82111761080557604052565b90601f8019910116810190811067ffffffffffffffff82111761080557604052565b90604051611334816112e8565b809260018060a01b038154168252600181015460208301526002810154604083015260038101546060830152600481016040518082602082945493848152019060005260206000209260005b8181106113f657505061139592500382611305565b608083015260ff6005820154818116151560a085015260081c1660038110156101b95761016091600a9160c0850152600681015460e08501526007810154610100850152600881015461012085015260098101546101408501520154910152565b84546001600160a01b0316835260019485019486945060209093019201611380565b1561141f57565b60405162461bcd60e51b8152602060048201526013602482015272496e636f727265637420656e7472792066656560681b6044820152606490fd5b8054600160401b81101561080557611477916001820181556110fc565b81546001600160a01b0393841660039290921b91821b9390911b1916919091179055565b9081526001600160a01b03909116602082015260400190565b919082018092116101a357565b156114c857565b60405162461bcd60e51b815260206004820152600d60248201526c2737ba103cb7bab9103a3ab93760991b6044820152606490fd5b1561150457565b60405162461bcd60e51b8152602060048201526012602482015271165bdd48185c9948195b1a5b5a5b985d195960721b6044820152606490fd5b1561154557565b60405162461bcd60e51b815260206004820152601460248201527311d85b5948185b1c9958591e481cdd185c9d195960621b6044820152606490fd5b8060005260036020526040600020600481019182549160088101928354600983019142835560018115905b15611679575b600087546001810180911161166557826116515783859106808a55801561163c575b036115ac5750505050600761160f7f5e29cb4c5e826275cb8cf9f76f97caadac08d231cda0b6aeade3c9de8a7ef146966080965b54906110fc565b60018060a01b0391549060031b1c16920154905491604051938452602084015260408301526060820152a1565b6007880161164a815461112a565b90556115d4565b634e487b7160e01b82526012600452602482fd5b634e487b7160e01b82526011600452602482fd5b85600052600560205260ff6040806000206116958a548c6110fc565b905460039190911b1c6001600160a01b031660009081526020919091522054166115b257505050600761160f7f5e29cb4c5e826275cb8cf9f76f97caadac08d231cda0b6aeade3c9de8a7ef14696608096611608565b92909160749492845260208401526bffffffffffffffffffffffff199060601b1660408301526054820152019056fea264697066735822122056d057d79970f02c24d1989fa052cac27176948f3a45bdb332de29348bbbb35e64736f6c634300081b0033",
  "linkReferences": {},
  "deployedLinkReferences": {}
}