{
    "_format": "hh-sol-artifact-1",
    "contractName": "MultiplayerGame",
    "sourceName": "contracts/Numberjack.sol",
    "abi": [
        {
            "inputs": [
                {
                    "internalType": "address",
                    "name": "_gameTokenAddress",
                    "type": "address"
                }
            ],
            "stateMutability": "nonpayable",
            "type": "constructor"
        },
        {
            "anonymous": false,
            "inputs": [
                {
                    "indexed": false,
                    "internalType": "uint256",
                    "name": "roomId",
                    "type": "uint256"
                },
                {
                    "indexed": false,
                    "internalType": "address",
                    "name": "creator",
                    "type": "address"
                },
                {
                    "indexed": false,
                    "internalType": "uint256",
                    "name": "maxNumber",
                    "type": "uint256"
                },
                {
                    "indexed": false,
                    "internalType": "uint256",
                    "name": "entryFee",
                    "type": "uint256"
                },
                {
                    "indexed": false,
                    "internalType": "enum MultiplayerGame.GameMode",
                    "name": "mode",
                    "type": "uint8"
                }
            ],
            "name": "GameRoomCreated",
            "type": "event"
        },
        {
            "anonymous": false,
            "inputs": [
                {
                    "indexed": false,
                    "internalType": "uint256",
                    "name": "roomId",
                    "type": "uint256"
                },
                {
                    "indexed": false,
                    "internalType": "uint256",
                    "name": "prizeTransferredToOwner",
                    "type": "uint256"
                }
            ],
            "name": "NoWinner",
            "type": "event"
        },
        {
            "anonymous": false,
            "inputs": [
                {
                    "indexed": false,
                    "internalType": "uint256",
                    "name": "roomId",
                    "type": "uint256"
                },
                {
                    "indexed": false,
                    "internalType": "address",
                    "name": "player",
                    "type": "address"
                }
            ],
            "name": "PlayerEliminated",
            "type": "event"
        },
        {
            "anonymous": false,
            "inputs": [
                {
                    "indexed": false,
                    "internalType": "uint256",
                    "name": "roomId",
                    "type": "uint256"
                },
                {
                    "indexed": false,
                    "internalType": "address",
                    "name": "player",
                    "type": "address"
                }
            ],
            "name": "PlayerJoined",
            "type": "event"
        },
        {
            "anonymous": false,
            "inputs": [
                {
                    "indexed": false,
                    "internalType": "uint256",
                    "name": "roomId",
                    "type": "uint256"
                },
                {
                    "indexed": false,
                    "internalType": "address",
                    "name": "player",
                    "type": "address"
                }
            ],
            "name": "TurnSkipped",
            "type": "event"
        },
        {
            "anonymous": false,
            "inputs": [
                {
                    "indexed": false,
                    "internalType": "uint256",
                    "name": "roomId",
                    "type": "uint256"
                },
                {
                    "indexed": false,
                    "internalType": "address",
                    "name": "timedOutPlayer",
                    "type": "address"
                }
            ],
            "name": "TurnTimedOut",
            "type": "event"
        },
        {
            "anonymous": false,
            "inputs": [
                {
                    "indexed": false,
                    "internalType": "uint256",
                    "name": "roomId",
                    "type": "uint256"
                },
                {
                    "indexed": false,
                    "internalType": "address",
                    "name": "winner",
                    "type": "address"
                },
                {
                    "indexed": false,
                    "internalType": "uint256",
                    "name": "prize",
                    "type": "uint256"
                }
            ],
            "name": "WinnerDeclared",
            "type": "event"
        },
        {
            "inputs": [
                {
                    "internalType": "uint256",
                    "name": "_roomId",
                    "type": "uint256"
                }
            ],
            "name": "checkWinner",
            "outputs": [],
            "stateMutability": "nonpayable",
            "type": "function"
        },
        {
            "inputs": [
                {
                    "internalType": "uint256",
                    "name": "_maxNumber",
                    "type": "uint256"
                },
                {
                    "internalType": "uint256",
                    "name": "_entryFee",
                    "type": "uint256"
                },
                {
                    "internalType": "enum MultiplayerGame.GameMode",
                    "name": "_mode",
                    "type": "uint8"
                },
                {
                    "internalType": "uint256",
                    "name": "_durationOrRounds",
                    "type": "uint256"
                },
                {
                    "internalType": "uint256",
                    "name": "_turnTimeout",
                    "type": "uint256"
                }
            ],
            "name": "createGameRoom",
            "outputs": [],
            "stateMutability": "payable",
            "type": "function"
        },
        {
            "inputs": [
                {
                    "internalType": "uint256",
                    "name": "_roomId",
                    "type": "uint256"
                }
            ],
            "name": "forceAdvance",
            "outputs": [],
            "stateMutability": "nonpayable",
            "type": "function"
        },
        {
            "inputs": [
                {
                    "internalType": "uint256",
                    "name": "",
                    "type": "uint256"
                }
            ],
            "name": "gameRooms",
            "outputs": [
                {
                    "internalType": "address",
                    "name": "creator",
                    "type": "address"
                },
                {
                    "internalType": "uint256",
                    "name": "gameId",
                    "type": "uint256"
                },
                {
                    "internalType": "uint256",
                    "name": "maxNumber",
                    "type": "uint256"
                },
                {
                    "internalType": "uint256",
                    "name": "entryFee",
                    "type": "uint256"
                },
                {
                    "internalType": "bool",
                    "name": "isActive",
                    "type": "bool"
                },
                {
                    "internalType": "enum MultiplayerGame.GameStatus",
                    "name": "status",
                    "type": "uint8"
                },
                {
                    "internalType": "enum MultiplayerGame.GameMode",
                    "name": "mode",
                    "type": "uint8"
                },
                {
                    "internalType": "uint256",
                    "name": "startTime",
                    "type": "uint256"
                },
                {
                    "internalType": "uint256",
                    "name": "duration",
                    "type": "uint256"
                },
                {
                    "internalType": "uint256",
                    "name": "rounds",
                    "type": "uint256"
                },
                {
                    "internalType": "uint256",
                    "name": "currentRound",
                    "type": "uint256"
                },
                {
                    "internalType": "uint256",
                    "name": "currentPlayerIndex",
                    "type": "uint256"
                },
                {
                    "internalType": "uint256",
                    "name": "lastTurnTimestamp",
                    "type": "uint256"
                },
                {
                    "internalType": "uint256",
                    "name": "turnTimeout",
                    "type": "uint256"
                }
            ],
            "stateMutability": "view",
            "type": "function"
        },
        {
            "inputs": [],
            "name": "gameToken",
            "outputs": [
                {
                    "internalType": "contract IERC20",
                    "name": "",
                    "type": "address"
                }
            ],
            "stateMutability": "view",
            "type": "function"
        },
        {
            "inputs": [
                {
                    "internalType": "uint256",
                    "name": "_gameRoomId",
                    "type": "uint256"
                }
            ],
            "name": "getGameRoomById",
            "outputs": [
                {
                    "components": [
                        {
                            "internalType": "address",
                            "name": "creator",
                            "type": "address"
                        },
                        {
                            "internalType": "uint256",
                            "name": "gameId",
                            "type": "uint256"
                        },
                        {
                            "internalType": "uint256",
                            "name": "maxNumber",
                            "type": "uint256"
                        },
                        {
                            "internalType": "uint256",
                            "name": "entryFee",
                            "type": "uint256"
                        },
                        {
                            "internalType": "address[]",
                            "name": "players",
                            "type": "address[]"
                        },
                        {
                            "internalType": "bool",
                            "name": "isActive",
                            "type": "bool"
                        },
                        {
                            "internalType": "enum MultiplayerGame.GameStatus",
                            "name": "status",
                            "type": "uint8"
                        },
                        {
                            "internalType": "enum MultiplayerGame.GameMode",
                            "name": "mode",
                            "type": "uint8"
                        },
                        {
                            "internalType": "uint256",
                            "name": "startTime",
                            "type": "uint256"
                        },
                        {
                            "internalType": "uint256",
                            "name": "duration",
                            "type": "uint256"
                        },
                        {
                            "internalType": "uint256",
                            "name": "rounds",
                            "type": "uint256"
                        },
                        {
                            "internalType": "uint256",
                            "name": "currentRound",
                            "type": "uint256"
                        },
                        {
                            "internalType": "uint256",
                            "name": "currentPlayerIndex",
                            "type": "uint256"
                        },
                        {
                            "internalType": "uint256",
                            "name": "lastTurnTimestamp",
                            "type": "uint256"
                        },
                        {
                            "internalType": "uint256",
                            "name": "turnTimeout",
                            "type": "uint256"
                        }
                    ],
                    "internalType": "struct MultiplayerGame.GameRoom",
                    "name": "",
                    "type": "tuple"
                }
            ],
            "stateMutability": "view",
            "type": "function"
        },
        {
            "inputs": [
                {
                    "internalType": "uint256",
                    "name": "_roomId",
                    "type": "uint256"
                },
                {
                    "internalType": "address",
                    "name": "_player",
                    "type": "address"
                }
            ],
            "name": "getIsPlayerEliminatedByRoomId",
            "outputs": [
                {
                    "internalType": "bool",
                    "name": "",
                    "type": "bool"
                }
            ],
            "stateMutability": "view",
            "type": "function"
        },
        {
            "inputs": [
                {
                    "internalType": "uint256",
                    "name": "_roomId",
                    "type": "uint256"
                },
                {
                    "internalType": "address",
                    "name": "_player",
                    "type": "address"
                }
            ],
            "name": "getPlayerScoresForEachGameRoom",
            "outputs": [
                {
                    "internalType": "uint256",
                    "name": "",
                    "type": "uint256"
                }
            ],
            "stateMutability": "view",
            "type": "function"
        },
        {
            "inputs": [],
            "name": "getTotalRoomsCreated",
            "outputs": [
                {
                    "internalType": "uint256",
                    "name": "",
                    "type": "uint256"
                }
            ],
            "stateMutability": "view",
            "type": "function"
        },
        {
            "inputs": [
                {
                    "internalType": "uint256",
                    "name": "",
                    "type": "uint256"
                },
                {
                    "internalType": "address",
                    "name": "",
                    "type": "address"
                }
            ],
            "name": "isEliminated",
            "outputs": [
                {
                    "internalType": "bool",
                    "name": "",
                    "type": "bool"
                }
            ],
            "stateMutability": "view",
            "type": "function"
        },
        {
            "inputs": [
                {
                    "internalType": "uint256",
                    "name": "_roomId",
                    "type": "uint256"
                }
            ],
            "name": "joinGameRoom",
            "outputs": [],
            "stateMutability": "payable",
            "type": "function"
        },
        {
            "inputs": [],
            "name": "owner",
            "outputs": [
                {
                    "internalType": "address",
                    "name": "",
                    "type": "address"
                }
            ],
            "stateMutability": "view",
            "type": "function"
        },
        {
            "inputs": [
                {
                    "internalType": "uint256",
                    "name": "_roomId",
                    "type": "uint256"
                }
            ],
            "name": "playTurn",
            "outputs": [
                {
                    "internalType": "uint256",
                    "name": "",
                    "type": "uint256"
                },
                {
                    "internalType": "uint256",
                    "name": "",
                    "type": "uint256"
                }
            ],
            "stateMutability": "nonpayable",
            "type": "function"
        },
        {
            "inputs": [
                {
                    "internalType": "uint256",
                    "name": "",
                    "type": "uint256"
                },
                {
                    "internalType": "address",
                    "name": "",
                    "type": "address"
                }
            ],
            "name": "playerScores",
            "outputs": [
                {
                    "internalType": "uint256",
                    "name": "",
                    "type": "uint256"
                }
            ],
            "stateMutability": "view",
            "type": "function"
        },
        {
            "inputs": [],
            "name": "roomCounter",
            "outputs": [
                {
                    "internalType": "uint256",
                    "name": "",
                    "type": "uint256"
                }
            ],
            "stateMutability": "view",
            "type": "function"
        },
        {
            "inputs": [],
            "name": "skipFee",
            "outputs": [
                {
                    "internalType": "uint256",
                    "name": "",
                    "type": "uint256"
                }
            ],
            "stateMutability": "view",
            "type": "function"
        },
        {
            "inputs": [
                {
                    "internalType": "uint256",
                    "name": "_roomId",
                    "type": "uint256"
                }
            ],
            "name": "skipTurn",
            "outputs": [],
            "stateMutability": "nonpayable",
            "type": "function"
        },
        {
            "inputs": [
                {
                    "internalType": "uint256",
                    "name": "_roomId",
                    "type": "uint256"
                }
            ],
            "name": "startGame",
            "outputs": [],
            "stateMutability": "nonpayable",
            "type": "function"
        }
    ],
    "bytecode": "0x608034608357601f61173238819003918201601f19168301916001600160401b03831184841017608857808492602094604052833981010312608357516001600160a01b03811690819003608357600a600255600080546001600160a01b0319908116331790915560018054909116919091179055604051611693908161009f8239f35b600080fd5b634e487b7160e01b600052604160045260246000fdfe6080604052600436101561001257600080fd5b60003560e01c8062200e271461027f5780630e5a2ebe14610a255780631885493914610e035780631ab91215146109de5780633dc290d314610de5578063426c464114610d0857806361099b1714610a655780637e32eb9a14610a255780638da5cb5b146109fc578063921c45ca146109de5780639fe63153146108bb578063a0fc6cff14610667578063a2796f46146104bd578063c3dfdae614610494578063ce371cbd146102ba578063dbed03911461027f578063e5ed1d59146101d25763eca0a441146100e157600080fd5b60203660031901126101cd576004358060005260036020526040600020600581015460ff8116156101985760081c60ff169160038310156101825761016761017d9261014e7f87969bc7faf902221a147b95ceba76e011c5efb0339a0a8ee7a2bb82d9cfbbd695156114e3565b61015d60038201543414611460565b60043391016114a2565b6040805191825233602083015290918291820190565b0390a1005b634e487b7160e01b600052602160045260246000fd5b60405162461bcd60e51b815260206004820152600d60248201526c526f6f6d20696e61637469766560981b6044820152606490fd5b600080fd5b346101cd5760203660031901126101cd57600435600090815260036020526040902080546001600160a01b03163303610241576005810160ff815460081c1660038110156101825761022490156114e3565b805461ff0019166101001790554260068201819055600b90910155005b60405162461bcd60e51b815260206004820152601660248201527513db9b1e4818dc99585d1bdc8818d85b881cdd185c9d60521b6044820152606490fd5b346101cd5761028d36611283565b90600052600460205260406000209060018060a01b03166000526020526020604060002054604051908152f35b346101cd5760203660031901126101cd576004358060005260036020526040600020600581015460ff8160081c1690600382101561018257610300600160ff93146112c3565b60101c166002811015610182576103459161031e61032c92156113a5565b6004600a8201549101611306565b90543360039290921b1c6001600160a01b0316146113e3565b600081815260056020908152604080832033845290915290205461036c9060ff161561141f565b600154600080546002546040516323b872dd60e01b81523360048201526001600160a01b0392831660248201526044810191909152926020928492606492849291165af190811561048857600091610446575b5015610409576040805182815233602082015261040792917f78d563416c0d6c2454e9c81222ee1e58f6c3ff4dfcfa798d85d391e57023ecc99190819081015b0390a1611526565b005b60405162461bcd60e51b8152602060048201526015602482015274151bdad95b881d1c985b9cd9995c8819985a5b1959605a1b6044820152606490fd5b6020813d602011610480575b8161045f60209383611383565b8101031261047c57519081151582036104795750826103bf565b80fd5b5080fd5b3d9150610452565b6040513d6000823e3d90fd5b346101cd5760003660031901126101cd576001546040516001600160a01b039091168152602090f35b60a03660031901126101cd5760443560243560043560028310156101cd5760643581156106295782156105ec577fe46206ee37763f491432fdb2213a587a271991a7df76de6ef1fc9589b46d8dfb93836105bb6105df9361052160a0973414611460565b61052c600654611334565b806006556000526003602052604060002090336001808a1b031983541617825586600283015583600383015560058201600160ff1982541617815561ff00198154168155805462ff00008760101b169062ff0000191617905584156000146105e25760088201555b600160098201556000600a820155608435600c8201556000600b82015560043391016114a2565b600654936040519485523360208601526040850152606084015260808301906112b6565ba1005b6007820155610594565b60405162461bcd60e51b81526020600482015260156024820152740456e74727920666565206d757374206265203e203605c1b6044820152606490fd5b60405162461bcd60e51b815260206004820152601660248201527504d6178206e756d626572206d757374206265203e20360541b6044820152606490fd5b346101cd5760203660031901126101cd576004358060005260036020526040600020600581015460ff8160081c16906003821015610182576106ad600160ff93146112c3565b60101c166002811015610182576106c490156113a5565b600a8101546106d961032c8260048501611306565b60008381526005602090815260408083203384529091529020546107009060ff161561141f565b610713600b830154600c84015490611343565b421161087657610727906009830154611343565b906064604051602081019061075181610743873344428861160e565b03601f198101835282611383565b5190200691600183018093116108605760018101809111610860576064906040516107878161074360208201943344428861160e565b519020069060018201809211610860576040936107f7916107a88486611343565b6000838152600460209081528882203383529052879020805490916107cc91611343565b9055600082815260046020908152878220338352905286902054600291909101541061080357611526565b82519182526020820152f35b6000818152600560209081528682203380845290825291879020805460ff191660011790558651838152908101919091527f638a014c19f58a705adfdf3c8350f6eecbcab57edc63f1112fef5828840730eb9080604081016103ff565b634e487b7160e01b600052601160045260246000fd5b60405162461bcd60e51b815260206004820152601a60248201527f5475726e2074696d6564206f75742c20666f72636520736b69700000000000006044820152606490fd5b346101cd5760203660031901126101cd5760043580600052600360205260406000209060ff600583015460081c1660038110156101825760016108fe91146112c3565b610911600b830154600c84015490611343565b4211156109a0577e32e633d34e1ad18fdfb5054de555825496a862d3dbb13071d8b6d213bb9d716103ff610950846004600a6104079701549101611306565b9054600085815260056020908152604080832060039590951b9390931c6001600160a01b031680835293815290829020805460ff1916600117905581518681529081019290925290918291820190565b60405162461bcd60e51b8152602060048201526016602482015275151d5c9b881b9bdd081d1a5b5959081bdd5d081e595d60521b6044820152606490fd5b346101cd5760003660031901126101cd576020600654604051908152f35b346101cd5760003660031901126101cd576000546040516001600160a01b039091168152602090f35b346101cd57610a3336611283565b90600052600560205260406000209060018060a01b0316600052602052602060ff604060002054166040519015158152f35b346101cd5760203660031901126101cd5760006101c0604051610a8781611350565b828152826020820152826040820152826060820152606060808201528260a08201528260c08201528260e08201528261010082015282610120820152826101408201528261016082015282610180820152826101a0820152015260043560005260036020526040600020604051610afd81611350565b60018060a01b03825416815260018201549060208101918252600283015491604082019283526003840154936060830194855260048101906040518083602082955493848152019060005260206000209260005b818110610ce6575050610b6692500383611383565b6080840191825260058101549560a085019260ff88161515845260ff8860081c1660c087019860038210156101825760ff918a5260101c169360e087019860028610156101825787958a526006850154906101008701918252600786015492610120880193845260088701549461014089019586526009880154966101608a01978852600c600a8a0154996101808c019a8b526101a0600b8201549c019b8c5201549a6101c08d019b8c5260606040519e8f926020845261020084019f60018060a01b039051166020850152516040840152519101525160808d015251996101e060a08d01528a5180915260206102208d019b019060005b818110610cc7575050509a610c86610c92928c60c0819f5115159101525160e08d01906112a9565b516101008b01906112b6565b51610120890152516101408801525161016087015251610180860152516101a0850152516101c0840152516101e08301520390f35b82516001600160a01b03168d5260209c8d019c90920191600101610c5e565b84546001600160a01b0316835260019485019487945060209093019201610b51565b346101cd5760203660031901126101cd5760043560005260036020526101c0604060002060018060a01b03815416906001810154906002810154600382015460058301546006840154600785015490610dba600887015493600988015495600a89015497600c600b8b01549a01549a6040519c8d5260208d015260408c015260608b015260ff8116151560808b0152610daa60a08b0160ff8360081c166112a9565b60ff60c08b019160101c166112b6565b60e08801526101008701526101208601526101408501526101608401526101808301526101a0820152f35b346101cd5760003660031901126101cd576020600254604051908152f35b346101cd5760203660031901126101cd57600435806000526003602052604060002090600582019182549160ff8360081c166003811015610182576001610e4a91146112c3565b600080926000199482908396600484018054985b898110611175575050506003830154968781029781890414901517156108605760101c60ff16600281101561018257610fca575060018214908115610fb7575b5015610f1557508260008115610f0c575b6000918291829182916001600160a01b03881690f11561048857604080519182526001600160a01b039290921660208201529081019190915260008051602061163e83398151915290606090a15b805461ffff1916610200179055005b506108fc610eaf565b90929150610f795760008080808460018060a01b03825416828215610f70575bf115610488577f66a8c5b89438eb03696fbf4fae05d99dcfa81867a18c352b258b5de0aea1c2469160409182519182526020820152a1610efd565b506108fc610f35565b60405162461bcd60e51b815260206004820152601660248201527511d85b59481b9bdd081e595d0818dbdb98db1d59195960521b6044820152606490fd5b9050600860098201549101541086610e9e565b91908060076006610fe093015491015490611343565b421061113057600181036110595750508260008115611050575b6000918291829182916001600160a01b03881690f11561048857604080519182526001600160a01b0390921660208201529081019190915260008051602061163e8339815191529080606081015b0390a1610efd565b506108fc610ffa565b90925060018111156110c157508260008115611050576000918291829182916001600160a01b03881690f11561048857604080519182526001600160a01b0390921660208201529081019190915260008051602061163e833981519152908060608101611048565b90929150156110d2575b5050610efd565b60008080808460018060a01b03825416828215611127575bf115610488577f66a8c5b89438eb03696fbf4fae05d99dcfa81867a18c352b258b5de0aea1c2469160409182519182526020820152a181806110cb565b506108fc6110ea565b60405162461bcd60e51b815260206004820152601b60248201527f47616d65206475726174696f6e206e6f742079657420656e64656400000000006044820152606490fd5b87600052600560205260ff6040806000206111908486611306565b905460039190911b1c6001600160a01b03166000908152602091909152205416156111be575b600101610e5e565b9750946111ca90611334565b946111d58882611306565b60018060a01b0391549060031b1c1697876000526004602052826040806000206111ff8486611306565b905460039190911b1c6001600160a01b03166000908152602091909152205410156111b657935090508560005260046020526040806000206112418584611306565b905460039190911b1c6001600160a01b03166000908152602091909152205490600161126d8583611306565b828060a01b0391549060031b1c169490506111b6565b60409060031901126101cd57600435906024356001600160a01b03811681036101cd5790565b9060038210156101825752565b9060028210156101825752565b156112ca57565b60405162461bcd60e51b815260206004820152601460248201527347616d65206e6f7420696e2070726f677265737360601b6044820152606490fd5b805482101561131e5760005260206000200190600090565b634e487b7160e01b600052603260045260246000fd5b60001981146108605760010190565b9190820180921161086057565b6101e0810190811067ffffffffffffffff82111761136d57604052565b634e487b7160e01b600052604160045260246000fd5b90601f8019910116810190811067ffffffffffffffff82111761136d57604052565b156113ac57565b60405162461bcd60e51b815260206004820152600f60248201526e4e6f7420726f756e6473206d6f646560881b6044820152606490fd5b156113ea57565b60405162461bcd60e51b815260206004820152600d60248201526c2737ba103cb7bab9103a3ab93760991b6044820152606490fd5b1561142657565b60405162461bcd60e51b8152602060048201526012602482015271165bdd48185c9948195b1a5b5a5b985d195960721b6044820152606490fd5b1561146757565b60405162461bcd60e51b8152602060048201526013602482015272496e636f727265637420656e7472792066656560681b6044820152606490fd5b8054600160401b81101561136d576114bf91600182018155611306565b81546001600160a01b0393841660039290921b91821b9390911b1916919091179055565b156114ea57565b60405162461bcd60e51b815260206004820152601460248201527311d85b5948185b1c9958591e481cdd185c9d195960621b6044820152606490fd5b80600052600360205260406000209060048201918254600a82019283549442600b8501556001918315925b156115c5575b60008654600181018091116115b1578461159d57858991068089558015611588575b03611551575050505050505050565b600988016115968154611334565b9055611579565b634e487b7160e01b82526012600452602482fd5b634e487b7160e01b82526011600452602482fd5b80600052600560205260ff6040806000206115e1895486611306565b905460039190911b1c6001600160a01b031660009081526020919091522054166115575750505050505050565b92909160749492845260208401526bffffffffffffffffffffffff199060601b1660408301526054820152019056fe7ed5face07afb2b0e99df53523951350d2a3d4f5d105a0dd2110703efe399537a26469706673582212203543a2e355fe3106e4623bfb0f4017b25c9bbbdb1f421d42df1ef26d888d1a2364736f6c634300081b0033",
    "linkReferences": {},
    "deployedLinkReferences": {}
}