{
  "_format": "hh-sol-artifact-1",
  "contractName": "NumberJackGame",
  "sourceName": "contracts/Numberjack.sol",
  "abi": [
    {
      "inputs": [
        {
          "internalType": "address",
          "name": "gameTokenAddress",
          "type": "address"
        }
      ],
      "stateMutability": "nonpayable",
      "type": "constructor"
    },
    {
      "anonymous": false,
      "inputs": [
        {
          "indexed": false,
          "internalType": "uint256",
          "name": "roomId",
          "type": "uint256"
        },
        {
          "indexed": false,
          "internalType": "address",
          "name": "creator",
          "type": "address"
        }
      ],
      "name": "GameEnded",
      "type": "event"
    },
    {
      "anonymous": false,
      "inputs": [
        {
          "indexed": false,
          "internalType": "uint256",
          "name": "roomId",
          "type": "uint256"
        },
        {
          "indexed": false,
          "internalType": "address",
          "name": "creator",
          "type": "address"
        },
        {
          "indexed": false,
          "internalType": "uint256",
          "name": "maxNumber",
          "type": "uint256"
        },
        {
          "indexed": false,
          "internalType": "uint256",
          "name": "entryFee",
          "type": "uint256"
        },
        {
          "indexed": false,
          "internalType": "enum NumberJackGame.GameMode",
          "name": "mode",
          "type": "uint8"
        }
      ],
      "name": "GameRoomCreated",
      "type": "event"
    },
    {
      "anonymous": false,
      "inputs": [
        {
          "indexed": false,
          "internalType": "uint256",
          "name": "_roomId",
          "type": "uint256"
        }
      ],
      "name": "GameStarted",
      "type": "event"
    },
    {
      "anonymous": false,
      "inputs": [
        {
          "indexed": false,
          "internalType": "uint256",
          "name": "roomId",
          "type": "uint256"
        },
        {
          "indexed": false,
          "internalType": "uint256",
          "name": "prizeTransferredToOwner",
          "type": "uint256"
        }
      ],
      "name": "NoWinner",
      "type": "event"
    },
    {
      "anonymous": false,
      "inputs": [
        {
          "indexed": false,
          "internalType": "uint256",
          "name": "roomId",
          "type": "uint256"
        },
        {
          "indexed": false,
          "internalType": "address",
          "name": "player",
          "type": "address"
        }
      ],
      "name": "PlayerEliminated",
      "type": "event"
    },
    {
      "anonymous": false,
      "inputs": [
        {
          "indexed": false,
          "internalType": "uint256",
          "name": "roomId",
          "type": "uint256"
        },
        {
          "indexed": false,
          "internalType": "address",
          "name": "player",
          "type": "address"
        }
      ],
      "name": "PlayerJoined",
      "type": "event"
    },
    {
      "anonymous": false,
      "inputs": [
        {
          "indexed": false,
          "internalType": "uint256",
          "name": "_roomId",
          "type": "uint256"
        },
        {
          "indexed": false,
          "internalType": "address",
          "name": "player",
          "type": "address"
        }
      ],
      "name": "PlayerPlayed",
      "type": "event"
    },
    {
      "anonymous": false,
      "inputs": [
        {
          "indexed": false,
          "internalType": "uint256",
          "name": "roomId",
          "type": "uint256"
        },
        {
          "indexed": false,
          "internalType": "address",
          "name": "newPlayer",
          "type": "address"
        },
        {
          "indexed": false,
          "internalType": "uint256",
          "name": "currentRound",
          "type": "uint256"
        },
        {
          "indexed": false,
          "internalType": "uint256",
          "name": "turnStartTime",
          "type": "uint256"
        }
      ],
      "name": "TurnAdvanced",
      "type": "event"
    },
    {
      "anonymous": false,
      "inputs": [
        {
          "indexed": false,
          "internalType": "uint256",
          "name": "roomId",
          "type": "uint256"
        },
        {
          "indexed": false,
          "internalType": "address",
          "name": "player",
          "type": "address"
        }
      ],
      "name": "TurnSkipped",
      "type": "event"
    },
    {
      "anonymous": false,
      "inputs": [
        {
          "indexed": false,
          "internalType": "uint256",
          "name": "roomId",
          "type": "uint256"
        },
        {
          "indexed": false,
          "internalType": "address",
          "name": "timedOutPlayer",
          "type": "address"
        }
      ],
      "name": "TurnTimedOut",
      "type": "event"
    },
    {
      "anonymous": false,
      "inputs": [
        {
          "indexed": false,
          "internalType": "uint256",
          "name": "roomId",
          "type": "uint256"
        },
        {
          "indexed": false,
          "internalType": "address",
          "name": "winner",
          "type": "address"
        },
        {
          "indexed": false,
          "internalType": "uint256",
          "name": "prize",
          "type": "uint256"
        }
      ],
      "name": "WinnerDeclared",
      "type": "event"
    },
    {
      "inputs": [
        {
          "internalType": "uint256",
          "name": "_roomId",
          "type": "uint256"
        }
      ],
      "name": "checkWinner",
      "outputs": [],
      "stateMutability": "nonpayable",
      "type": "function"
    },
    {
      "inputs": [
        {
          "internalType": "uint256",
          "name": "_maxNumber",
          "type": "uint256"
        },
        {
          "internalType": "enum NumberJackGame.GameMode",
          "name": "_mode",
          "type": "uint8"
        },
        {
          "internalType": "uint256",
          "name": "_durationOrRounds",
          "type": "uint256"
        },
        {
          "internalType": "uint256",
          "name": "_turnTimeout",
          "type": "uint256"
        }
      ],
      "name": "createGameRoom",
      "outputs": [],
      "stateMutability": "payable",
      "type": "function"
    },
    {
      "inputs": [
        {
          "internalType": "uint256",
          "name": "_roomId",
          "type": "uint256"
        }
      ],
      "name": "endGame",
      "outputs": [],
      "stateMutability": "nonpayable",
      "type": "function"
    },
    {
      "inputs": [
        {
          "internalType": "uint256",
          "name": "_roomId",
          "type": "uint256"
        }
      ],
      "name": "forceAdvance",
      "outputs": [],
      "stateMutability": "nonpayable",
      "type": "function"
    },
    {
      "inputs": [
        {
          "internalType": "uint256",
          "name": "",
          "type": "uint256"
        }
      ],
      "name": "gameRooms",
      "outputs": [
        {
          "internalType": "address",
          "name": "creator",
          "type": "address"
        },
        {
          "internalType": "uint256",
          "name": "id",
          "type": "uint256"
        },
        {
          "internalType": "uint256",
          "name": "maxNumber",
          "type": "uint256"
        },
        {
          "internalType": "uint256",
          "name": "entryFee",
          "type": "uint256"
        },
        {
          "internalType": "bool",
          "name": "isActive",
          "type": "bool"
        },
        {
          "internalType": "enum NumberJackGame.GameStatus",
          "name": "status",
          "type": "uint8"
        },
        {
          "internalType": "enum NumberJackGame.GameMode",
          "name": "mode",
          "type": "uint8"
        },
        {
          "internalType": "uint256",
          "name": "startTime",
          "type": "uint256"
        },
        {
          "internalType": "uint256",
          "name": "duration",
          "type": "uint256"
        },
        {
          "internalType": "uint256",
          "name": "roundValue",
          "type": "uint256"
        },
        {
          "internalType": "uint256",
          "name": "roundCurrentValue",
          "type": "uint256"
        },
        {
          "internalType": "uint256",
          "name": "currentPlayerIndex",
          "type": "uint256"
        },
        {
          "internalType": "uint256",
          "name": "lastTurnTimestamp",
          "type": "uint256"
        },
        {
          "internalType": "uint256",
          "name": "turnTimeout",
          "type": "uint256"
        }
      ],
      "stateMutability": "view",
      "type": "function"
    },
    {
      "inputs": [],
      "name": "gameToken",
      "outputs": [
        {
          "internalType": "contract IERC20",
          "name": "",
          "type": "address"
        }
      ],
      "stateMutability": "view",
      "type": "function"
    },
    {
      "inputs": [],
      "name": "getAllGameRooms",
      "outputs": [
        {
          "components": [
            {
              "internalType": "address",
              "name": "creator",
              "type": "address"
            },
            {
              "internalType": "uint256",
              "name": "id",
              "type": "uint256"
            },
            {
              "internalType": "uint256",
              "name": "maxNumber",
              "type": "uint256"
            },
            {
              "internalType": "uint256",
              "name": "entryFee",
              "type": "uint256"
            },
            {
              "internalType": "address[]",
              "name": "players",
              "type": "address[]"
            },
            {
              "internalType": "bool",
              "name": "isActive",
              "type": "bool"
            },
            {
              "internalType": "enum NumberJackGame.GameStatus",
              "name": "status",
              "type": "uint8"
            },
            {
              "internalType": "enum NumberJackGame.GameMode",
              "name": "mode",
              "type": "uint8"
            },
            {
              "internalType": "uint256",
              "name": "startTime",
              "type": "uint256"
            },
            {
              "internalType": "uint256",
              "name": "duration",
              "type": "uint256"
            },
            {
              "internalType": "uint256",
              "name": "roundValue",
              "type": "uint256"
            },
            {
              "internalType": "uint256",
              "name": "roundCurrentValue",
              "type": "uint256"
            },
            {
              "internalType": "uint256",
              "name": "currentPlayerIndex",
              "type": "uint256"
            },
            {
              "internalType": "uint256",
              "name": "lastTurnTimestamp",
              "type": "uint256"
            },
            {
              "internalType": "uint256",
              "name": "turnTimeout",
              "type": "uint256"
            }
          ],
          "internalType": "struct NumberJackGame.GameRoom[]",
          "name": "",
          "type": "tuple[]"
        }
      ],
      "stateMutability": "view",
      "type": "function"
    },
    {
      "inputs": [],
      "name": "getAvailableRooms",
      "outputs": [
        {
          "components": [
            {
              "internalType": "address",
              "name": "creator",
              "type": "address"
            },
            {
              "internalType": "uint256",
              "name": "id",
              "type": "uint256"
            },
            {
              "internalType": "uint256",
              "name": "maxNumber",
              "type": "uint256"
            },
            {
              "internalType": "uint256",
              "name": "entryFee",
              "type": "uint256"
            },
            {
              "internalType": "address[]",
              "name": "players",
              "type": "address[]"
            },
            {
              "internalType": "bool",
              "name": "isActive",
              "type": "bool"
            },
            {
              "internalType": "enum NumberJackGame.GameStatus",
              "name": "status",
              "type": "uint8"
            },
            {
              "internalType": "enum NumberJackGame.GameMode",
              "name": "mode",
              "type": "uint8"
            },
            {
              "internalType": "uint256",
              "name": "startTime",
              "type": "uint256"
            },
            {
              "internalType": "uint256",
              "name": "duration",
              "type": "uint256"
            },
            {
              "internalType": "uint256",
              "name": "roundValue",
              "type": "uint256"
            },
            {
              "internalType": "uint256",
              "name": "roundCurrentValue",
              "type": "uint256"
            },
            {
              "internalType": "uint256",
              "name": "currentPlayerIndex",
              "type": "uint256"
            },
            {
              "internalType": "uint256",
              "name": "lastTurnTimestamp",
              "type": "uint256"
            },
            {
              "internalType": "uint256",
              "name": "turnTimeout",
              "type": "uint256"
            }
          ],
          "internalType": "struct NumberJackGame.GameRoom[]",
          "name": "",
          "type": "tuple[]"
        }
      ],
      "stateMutability": "view",
      "type": "function"
    },
    {
      "inputs": [
        {
          "internalType": "uint256",
          "name": "_gameRoomId",
          "type": "uint256"
        }
      ],
      "name": "getGameRoomById",
      "outputs": [
        {
          "components": [
            {
              "internalType": "address",
              "name": "creator",
              "type": "address"
            },
            {
              "internalType": "uint256",
              "name": "id",
              "type": "uint256"
            },
            {
              "internalType": "uint256",
              "name": "maxNumber",
              "type": "uint256"
            },
            {
              "internalType": "uint256",
              "name": "entryFee",
              "type": "uint256"
            },
            {
              "internalType": "address[]",
              "name": "players",
              "type": "address[]"
            },
            {
              "internalType": "bool",
              "name": "isActive",
              "type": "bool"
            },
            {
              "internalType": "enum NumberJackGame.GameStatus",
              "name": "status",
              "type": "uint8"
            },
            {
              "internalType": "enum NumberJackGame.GameMode",
              "name": "mode",
              "type": "uint8"
            },
            {
              "internalType": "uint256",
              "name": "startTime",
              "type": "uint256"
            },
            {
              "internalType": "uint256",
              "name": "duration",
              "type": "uint256"
            },
            {
              "internalType": "uint256",
              "name": "roundValue",
              "type": "uint256"
            },
            {
              "internalType": "uint256",
              "name": "roundCurrentValue",
              "type": "uint256"
            },
            {
              "internalType": "uint256",
              "name": "currentPlayerIndex",
              "type": "uint256"
            },
            {
              "internalType": "uint256",
              "name": "lastTurnTimestamp",
              "type": "uint256"
            },
            {
              "internalType": "uint256",
              "name": "turnTimeout",
              "type": "uint256"
            }
          ],
          "internalType": "struct NumberJackGame.GameRoom",
          "name": "",
          "type": "tuple"
        }
      ],
      "stateMutability": "view",
      "type": "function"
    },
    {
      "inputs": [
        {
          "internalType": "uint256",
          "name": "_roomId",
          "type": "uint256"
        },
        {
          "internalType": "address",
          "name": "_player",
          "type": "address"
        }
      ],
      "name": "getIsPlayerEliminatedByRoomId",
      "outputs": [
        {
          "internalType": "bool",
          "name": "",
          "type": "bool"
        }
      ],
      "stateMutability": "view",
      "type": "function"
    },
    {
      "inputs": [
        {
          "internalType": "uint256",
          "name": "_roomId",
          "type": "uint256"
        },
        {
          "internalType": "address",
          "name": "_player",
          "type": "address"
        }
      ],
      "name": "getPlayerDrawsForGameRoom",
      "outputs": [
        {
          "internalType": "uint256[]",
          "name": "",
          "type": "uint256[]"
        }
      ],
      "stateMutability": "view",
      "type": "function"
    },
    {
      "inputs": [],
      "name": "getTotalRoomsCreated",
      "outputs": [
        {
          "internalType": "uint256",
          "name": "",
          "type": "uint256"
        }
      ],
      "stateMutability": "view",
      "type": "function"
    },
    {
      "inputs": [
        {
          "internalType": "uint256",
          "name": "",
          "type": "uint256"
        },
        {
          "internalType": "address",
          "name": "",
          "type": "address"
        }
      ],
      "name": "isEliminated",
      "outputs": [
        {
          "internalType": "bool",
          "name": "",
          "type": "bool"
        }
      ],
      "stateMutability": "view",
      "type": "function"
    },
    {
      "inputs": [
        {
          "internalType": "uint256",
          "name": "_roomId",
          "type": "uint256"
        }
      ],
      "name": "joinGameRoom",
      "outputs": [],
      "stateMutability": "payable",
      "type": "function"
    },
    {
      "inputs": [],
      "name": "owner",
      "outputs": [
        {
          "internalType": "address",
          "name": "",
          "type": "address"
        }
      ],
      "stateMutability": "view",
      "type": "function"
    },
    {
      "inputs": [
        {
          "internalType": "uint256",
          "name": "_roomId",
          "type": "uint256"
        }
      ],
      "name": "playTurn",
      "outputs": [
        {
          "internalType": "uint256",
          "name": "",
          "type": "uint256"
        },
        {
          "internalType": "uint256",
          "name": "",
          "type": "uint256"
        }
      ],
      "stateMutability": "nonpayable",
      "type": "function"
    },
    {
      "inputs": [
        {
          "internalType": "uint256",
          "name": "",
          "type": "uint256"
        },
        {
          "internalType": "address",
          "name": "",
          "type": "address"
        },
        {
          "internalType": "uint256",
          "name": "",
          "type": "uint256"
        }
      ],
      "name": "playerDraws",
      "outputs": [
        {
          "internalType": "uint256",
          "name": "",
          "type": "uint256"
        }
      ],
      "stateMutability": "view",
      "type": "function"
    },
    {
      "inputs": [],
      "name": "roomCounter",
      "outputs": [
        {
          "internalType": "uint256",
          "name": "",
          "type": "uint256"
        }
      ],
      "stateMutability": "view",
      "type": "function"
    },
    {
      "inputs": [],
      "name": "skipFee",
      "outputs": [
        {
          "internalType": "uint256",
          "name": "",
          "type": "uint256"
        }
      ],
      "stateMutability": "view",
      "type": "function"
    },
    {
      "inputs": [
        {
          "internalType": "uint256",
          "name": "_roomId",
          "type": "uint256"
        }
      ],
      "name": "skipTurn",
      "outputs": [],
      "stateMutability": "nonpayable",
      "type": "function"
    },
    {
      "inputs": [
        {
          "internalType": "uint256",
          "name": "_roomId",
          "type": "uint256"
        }
      ],
      "name": "startGame",
      "outputs": [],
      "stateMutability": "nonpayable",
      "type": "function"
    }
  ],
  "bytecode": "0x608034608357601f611d2338819003918201601f19168301916001600160401b03831184841017608857808492602094604052833981010312608357516001600160a01b03811690819003608357600a600255600080546001600160a01b0319908116331790915560018054909116919091179055604051611c84908161009f8239f35b600080fd5b634e487b7160e01b600052604160045260246000fdfe6080604052600436101561001257600080fd5b60003560e01c80630e5a2ebe14610c6b57806318854939146110805780631ab9121514610c245780633dc290d314611062578063426c464114610f8557806361099b1714610f3c5780637098bc3d14610ed75780637ae6042c14610cb85780637e32eb9a14610c6b5780638da5cb5b14610c42578063921c45ca14610c245780639fe6315314610b0c578063a0fc6cff146108ad578063b710c5451461081f578063c3dfdae6146107f6578063c79135011461072e578063ce371cbd14610581578063d014459514610418578063d0399bb814610340578063e5ed1d59146102575763eca0a4411461010357600080fd5b6020366003190112610252576004358060005260036020526040600020600581015460ff81161561021d5760081c60ff166003811015610207576101479015611a72565b600381015434036101cc5761015f336004830161193a565b6000198201918083116101b6576101a36101b19261019d7f87969bc7faf902221a147b95ceba76e011c5efb0339a0a8ee7a2bb82d9cfbbd695611560565b9061165c565b60405191829133908361197b565b0390a1005b634e487b7160e01b600052601160045260246000fd5b60405162461bcd60e51b8152602060048201526013602482015272496e636f727265637420656e7472792066656560681b6044820152606490fd5b634e487b7160e01b600052602160045260246000fd5b60405162461bcd60e51b815260206004820152600d60248201526c526f6f6d20696e61637469766560981b6044820152606490fd5b600080fd5b3461025257602036600319011261025257600435600081815260036020526040902080546001600160a01b03163303610302576005810160ff815460081c166003811015610207576102a99015611a72565b805461ff00191661010017905542600b8201556000198201918083116101b6576102f960209261019d7f50ad08f58a27f2851d7e3a1b3a6a46b290f2ce677e99642d30ff639721e7779095611560565b604051908152a1005b60405162461bcd60e51b815260206004820152601660248201527513db9b1e4818dc99585d1bdc8818d85b881cdd185c9d60521b6044820152606490fd5b3461025257602036600319011261025257600435806000526003602052604060002090600582019160ff835460081c16600381101561020757600161038591146114ee565b600080808061039d600486015460038701549061154d565b85546001600160a01b031682821561040f575bf11561040357825461ffff19166102001790925590546040517f3d5fcd8fa3235aeb3897f25c8ea49989174981afcb01b9d03189d1056a16775b92909182916101b1916001600160a01b0316908361197b565b6040513d6000823e3d90fd5b506108fc6103b0565b34610252576000366003190112610252576007546000805b828110610525575061044181611a46565b9061044f6040519283611789565b80825261045e601f1991611a46565b0160005b81811061050e57505060009160005b81811061048a5760405180610486858261148e565b0390f35b60ff600561049783611560565b50015416806104ea575b6104ae575b600101610471565b926104e26001916104c76104c187611560565b5061181a565b6104d18287611a5e565b526104dc8186611a5e565b50611531565b9390506104a6565b5060ff60056104f883611560565b50015460081c16600381101561020757156104a1565b6020906105196117ab565b82828601015201610462565b60ff600561053283611560565b500154168061055d575b610549575b600101610430565b90610555600191611531565b919050610541565b5060ff600561056b83611560565b50015460081c166003811015610207571561053c565b3461025257602036600319011261025257600435806000526003602052604060002060ff600582015460081c166003811015610207576105f1916105ca60016105d893146114ee565b6004600a8201549101611460565b90543360039290921b1c6001600160a01b031614611994565b60008181526005602090815260408083203384529091529020546106189060ff16156119d0565b600154600080546002546040516323b872dd60e01b81523360048201526001600160a01b0392831660248201526044810191909152926020928492606492849291165af1908115610403576000916106ec575b50156106af576106ad907f78d563416c0d6c2454e9c81222ee1e58f6c3ff4dfcfa798d85d391e57023ecc9604051806106a533858361197b565b0390a1611ab5565b005b60405162461bcd60e51b8152602060048201526015602482015274151bdad95b881d1c985b9cd9995c8819985a5b1959605a1b6044820152606490fd5b6020813d602011610726575b8161070560209383611789565b81010312610722575190811515820361071f57508261066b565b80fd5b5080fd5b3d91506106f8565b3461025257604036600319011261025257610747611331565b600435600052600460205260406000209060018060a01b031660005260205260406000206040518060208354918281520190819360005260206000209060005b8181106107e0575050508161079d910382611789565b6040519182916020830190602084525180915260408301919060005b8181106107c7575050500390f35b82518452859450602093840193909201916001016107b9565b8254845260209093019260019283019201610787565b34610252576000366003190112610252576001546040516001600160a01b039091168152602090f35b346102525760003660031901126102525760075461083c81611a46565b9061084a6040519283611789565b808252600760009081527fa66cc928b5edb82af9bd49922954155ab7b0942694bea4ce44661d9a8736c688602084015b83831061088f5760405180610486878261148e565b600d602060019261089f8561181a565b81520192019201919061087a565b3461025257602036600319011261025257600435806000526003602052604060002060ff600582015460081c1660038110156102075760016108ef91146114ee565b610938600a8201546109076105d88260048601611460565b600084815260056020908152604080832033845290915290205461092e9060ff16156119d0565b6009830154611540565b9060646040516020810190610962816109548733444288611c1f565b03601f198101835282611789565b5190200691600183018093116101b657600181018091116101b65760649060405161099881610954602082019433444288611c1f565b5190200690600182018092116101b657836000526004602052604060002060018060a01b0333166000526020526109d3836040600020611a11565b836000526004602052604060002060018060a01b0333166000526020526109fe826040600020611a11565b60008481526004602090815260408083203384529091528120805491929183915b818310610ae3575050506040947f159625897a04b71f4e46d7111a412afacd7a15723596ccc828d247ee50e85d67926002610a7293015410610a81575b610a6581611ab5565b855191829133908361197b565b0390a182519182526020820152f35b8060005260056020528560002060018060a01b03331660005260205285600020600160ff198254161790557f638a014c19f58a705adfdf3c8350f6eecbcab57edc63f1112fef5828840730eb865180610adb33858361197b565b0390a1610a5c565b909193610b03600191610af68785611460565b90549060031b1c90611540565b94019190610a1f565b346102525760203660031901126102525760043580600052600360205260406000209060ff600583015460081c166003811015610207576001610b4f91146114ee565b610b62600b830154600c84015490611540565b421115610be6577e32e633d34e1ad18fdfb5054de555825496a862d3dbb13071d8b6d213bb9d716106a5610ba1846004600a6106ad9701549101611460565b9054600085815260056020908152604080832060039590951b9390931c6001600160a01b0316808352939052819020805460ff1916600117905551918291858361197b565b60405162461bcd60e51b8152602060048201526016602482015275151d5c9b881b9bdd081d1a5b5959081bdd5d081e595d60521b6044820152606490fd5b34610252576000366003190112610252576020600654604051908152f35b34610252576000366003190112610252576000546040516001600160a01b039091168152602090f35b3461025257604036600319011261025257610c84611331565b600435600052600560205260406000209060018060a01b0316600052602052602060ff604060002054166040519015158152f35b608036600319011261025257600435602435600281101561025257604435918015610e99573415610e4857610cee600654611531565b6006818155600091825260036020819052604090922080546001600160a01b03191633178155905460018083019190915560028201849055349282019290925560058101805461ffff1916909217825590610d4a90849061163b565b60009383610e3e5760088201555b6001600982015583600a820155606435600c82015583600b820155610d80336004830161193a565b600754600160401b811015610e2a5760a0610e2493610dec7f87969bc7faf902221a147b95ceba76e011c5efb0339a0a8ee7a2bb82d9cfbbd6969461019d8560017fe46206ee37763f491432fdb2213a587a271991a7df76de6ef1fc9589b46d8dfb9701600755611560565b610e15600654946040519286845233602085015260408401523460608401526080830190611354565ba160405191829133908361197b565b0390a180f35b634e487b7160e01b85526041600452602485fd5b6007820155610d58565b60405162461bcd60e51b815260206004820152602360248201527f456e74727920666565206d7573742062652067726561746572207468616e207a60448201526265726f60e81b6064820152608490fd5b60405162461bcd60e51b815260206004820152601660248201527504d6178206e756d626572206d757374206265203e20360541b6044820152606490fd5b3461025257606036600319011261025257610ef0611331565b60443590600435600052600460205260406000209060018060a01b03166000526020526040600020805482101561025257602091610f2d91611460565b90549060031b1c604051908152f35b3461025257602036600319011261025257610f556117ab565b506004356000526003602052610486610f71604060002061181a565b604051918291602083526020830190611361565b346102525760203660031901126102525760043560005260036020526101c0604060002060018060a01b03815416906001810154906002810154600382015460058301546006840154600785015490611037600887015493600988015495600a89015497600c600b8b01549a01549a6040519c8d5260208d015260408c015260608b015260ff8116151560808b015261102760a08b0160ff8360081c16611347565b60ff60c08b019160101c16611354565b60e08801526101008701526101208601526101408501526101608401526101808301526101a0820152f35b34610252576000366003190112610252576020600254604051908152f35b346102525760203660031901126102525760043580600052600360205260406000206005810160ff815460081c1660038110156102075760016110c391146114ee565b6000806000198290600486018054925b83811061123b5750505060038501546110eb9161154d565b9160018114801561122a575b1561118857506001600160a01b03169060008183811561117e575b600092839283928392f115610403577f7ed5face07afb2b0e99df53523951350d2a3d4f5d105a0dd2110703efe399537916060916040519187835260208301526040820152a15b805461ffff191661020017905560001982019182116101b65761019d6106ad92611560565b6108fc9250611112565b151590506111ec5760008080808460018060a01b038254168282156111e3575bf1156104035760407f66a8c5b89438eb03696fbf4fae05d99dcfa81867a18c352b258b5de0aea1c246918151908682526020820152a1611159565b506108fc6111a8565b60405162461bcd60e51b815260206004820152601660248201527511d85b59481b9bdd081e595d0818dbdb98db1d59195960521b6044820152606490fd5b5060098501546008860154106110f7565b88600052600560205260ff6040806000206112568486611460565b905460039190911b1c6001600160a01b0316600090815260209190915220541615611284575b6001016110d3565b93509361129090611531565b9361129b8482611460565b60018060a01b0391549060031b1c169360008981526004602052604081206112c38385611460565b905460039190911b1c6001600160a01b031682526020526040812080548291905b808310611315575050508381106112fc575b5061127c565b925060019061130b8184611460565b50909190506112f6565b909192611328600191610af68686611460565b930191906112e4565b602435906001600160a01b038216820361025257565b9060038210156102075752565b9060028210156102075752565b906101e081019160018060a01b0381511682526020810151602083015260408101516040830152606081015160608301526080810151926101e0608084015283518091526020610200840194019060005b818110611441575050506101c08160a082930151151560a08501526113df60c082015160c0860190611347565b6113f160e082015160e0860190611354565b6101008101516101008501526101208101516101208501526101408101516101408501526101608101516101608501526101808101516101808501526101a08101516101a0850152015191015290565b82516001600160a01b03168652602095860195909201916001016113b2565b80548210156114785760005260206000200190600090565b634e487b7160e01b600052603260045260246000fd5b602081016020825282518091526040820191602060408360051b8301019401926000915b8383106114c157505050505090565b90919293946020806114df600193603f198682030187528951611361565b970193019301919392906114b2565b156114f557565b60405162461bcd60e51b815260206004820152601460248201527347616d65206e6f7420696e2070726f677265737360601b6044820152606490fd5b60001981146101b65760010190565b919082018092116101b657565b818102929181159184041417156101b657565b600754811015611478576007600052600d602060002091020190600090565b8181146116375781549167ffffffffffffffff831161162157600160401b83116116215781548383558084106115f8575b5060005260206000209060005260206000208154916000925b8484106115d7575050505050565b600191820180546001600160a01b03909216848601559390910192906115c9565b8260005283602060002091820191015b81811061161557506115b0565b60008155600101611608565b634e487b7160e01b600052604160045260246000fd5b5050565b9060028110156102075762ff000082549160101b169062ff00001916179055565b91906117565780820361166d575050565b805482546001600160a01b0319166001600160a01b03919091161782556001818101549083015560028082015490830155600380820154908301556116b8600480830190840161157f565b6005820190600581019060ff825416151560ff80198554169116178355815491600360ff8460081c161015610207578360ff61171392600c969561ff00808998549285191616169061ff0019161783555460101c169061163b565b60068101546006850155600781015460078501556008810154600885015560098101546009850155600a810154600a850155600b810154600b8501550154910155565b634e487b7160e01b600052600060045260246000fd5b6101e0810190811067ffffffffffffffff82111761162157604052565b90601f8019910116810190811067ffffffffffffffff82111761162157604052565b604051906117b88261176c565b60006101c083828152826020820152826040820152826060820152606060808201528260a08201528260c08201528260e08201528261010082015282610120820152826101408201528261016082015282610180820152826101a08201520152565b906040516118278161176c565b809260018060a01b038154168252600181015460208301526002810154604083015260038101546060830152600481016040518082602082945493848152019060005260206000209260005b81811061191857505061188892500382611789565b6080830152600581015460ff8116151560a084015260ff8160081c169060038210156102075760ff9160c085015260101c166002811015610207576101c091600c9160e08501526006810154610100850152600781015461012085015260088101546101408501526009810154610160850152600a810154610180850152600b8101546101a08501520154910152565b84546001600160a01b0316835260019485019486945060209093019201611873565b8054600160401b8110156116215761195791600182018155611460565b81546001600160a01b0393841660039290921b91821b9390911b1916919091179055565b9081526001600160a01b03909116602082015260400190565b1561199b57565b60405162461bcd60e51b815260206004820152600d60248201526c2737ba103cb7bab9103a3ab93760991b6044820152606490fd5b156119d757565b60405162461bcd60e51b8152602060048201526012602482015271165bdd48185c9948195b1a5b5a5b985d195960721b6044820152606490fd5b8054600160401b81101561162157611a2e91600182018155611460565b819291549060031b91821b91600019901b1916179055565b67ffffffffffffffff81116116215760051b60200190565b80518210156114785760209160051b010190565b15611a7957565b60405162461bcd60e51b815260206004820152601460248201527311d85b5948185b1c9958591e481cdd185c9d195960621b6044820152606490fd5b80600052600360205260406000206004810191825491600a8101928354600b83019142835560018115905b15611bad575b6000875460018101809111611b995782611b855783859106808a558015611b70575b03611ae057505050506009611b437f5e29cb4c5e826275cb8cf9f76f97caadac08d231cda0b6aeade3c9de8a7ef146966080965b5490611460565b60018060a01b0391549060031b1c16920154905491604051938452602084015260408301526060820152a1565b60098801611b7e8154611531565b9055611b08565b634e487b7160e01b82526012600452602482fd5b634e487b7160e01b82526011600452602482fd5b85600052600560205260ff604080600020611bc98a548c611460565b905460039190911b1c6001600160a01b03166000908152602091909152205416611ae6575050506009611b437f5e29cb4c5e826275cb8cf9f76f97caadac08d231cda0b6aeade3c9de8a7ef14696608096611b3c565b92909160749492845260208401526bffffffffffffffffffffffff199060601b1660408301526054820152019056fea2646970667358221220c4525579edc0366a8ad4d9fe5f7411ddc67c97baf922a246aad31fa01a6ad87764736f6c634300081b0033",
  "linkReferences": {},
  "deployedLinkReferences": {}
}