{
  "_format": "hh-sol-artifact-1",
  "contractName": "MultiplayerGame",
  "sourceName": "contracts/Numberjack.sol",
  "abi": [
    {
      "inputs": [
        {
          "internalType": "address",
          "name": "_gameTokenAddress",
          "type": "address"
        }
      ],
      "stateMutability": "nonpayable",
      "type": "constructor"
    },
    {
      "anonymous": false,
      "inputs": [
        {
          "indexed": false,
          "internalType": "uint256",
          "name": "roomId",
          "type": "uint256"
        },
        {
          "indexed": false,
          "internalType": "address",
          "name": "creator",
          "type": "address"
        },
        {
          "indexed": false,
          "internalType": "uint256",
          "name": "maxNumber",
          "type": "uint256"
        },
        {
          "indexed": false,
          "internalType": "uint256",
          "name": "entryFee",
          "type": "uint256"
        },
        {
          "indexed": false,
          "internalType": "enum MultiplayerGame.GameMode",
          "name": "mode",
          "type": "uint8"
        }
      ],
      "name": "GameRoomCreated",
      "type": "event"
    },
    {
      "anonymous": false,
      "inputs": [
        {
          "indexed": false,
          "internalType": "uint256",
          "name": "_roomId",
          "type": "uint256"
        }
      ],
      "name": "GameStarted",
      "type": "event"
    },
    {
      "anonymous": false,
      "inputs": [
        {
          "indexed": false,
          "internalType": "uint256",
          "name": "roomId",
          "type": "uint256"
        },
        {
          "indexed": false,
          "internalType": "uint256",
          "name": "prizeTransferredToOwner",
          "type": "uint256"
        }
      ],
      "name": "NoWinner",
      "type": "event"
    },
    {
      "anonymous": false,
      "inputs": [
        {
          "indexed": false,
          "internalType": "uint256",
          "name": "roomId",
          "type": "uint256"
        },
        {
          "indexed": false,
          "internalType": "address",
          "name": "player",
          "type": "address"
        }
      ],
      "name": "PlayerEliminated",
      "type": "event"
    },
    {
      "anonymous": false,
      "inputs": [
        {
          "indexed": false,
          "internalType": "uint256",
          "name": "roomId",
          "type": "uint256"
        },
        {
          "indexed": false,
          "internalType": "address",
          "name": "player",
          "type": "address"
        }
      ],
      "name": "PlayerJoined",
      "type": "event"
    },
    {
      "anonymous": false,
      "inputs": [
        {
          "indexed": false,
          "internalType": "uint256",
          "name": "roomId",
          "type": "uint256"
        },
        {
          "indexed": false,
          "internalType": "address",
          "name": "player",
          "type": "address"
        }
      ],
      "name": "TurnSkipped",
      "type": "event"
    },
    {
      "anonymous": false,
      "inputs": [
        {
          "indexed": false,
          "internalType": "uint256",
          "name": "roomId",
          "type": "uint256"
        },
        {
          "indexed": false,
          "internalType": "address",
          "name": "timedOutPlayer",
          "type": "address"
        }
      ],
      "name": "TurnTimedOut",
      "type": "event"
    },
    {
      "anonymous": false,
      "inputs": [
        {
          "indexed": false,
          "internalType": "uint256",
          "name": "roomId",
          "type": "uint256"
        },
        {
          "indexed": false,
          "internalType": "address",
          "name": "winner",
          "type": "address"
        },
        {
          "indexed": false,
          "internalType": "uint256",
          "name": "prize",
          "type": "uint256"
        }
      ],
      "name": "WinnerDeclared",
      "type": "event"
    },
    {
      "inputs": [
        {
          "internalType": "uint256",
          "name": "_roomId",
          "type": "uint256"
        }
      ],
      "name": "checkWinner",
      "outputs": [],
      "stateMutability": "nonpayable",
      "type": "function"
    },
    {
      "inputs": [
        {
          "internalType": "uint256",
          "name": "_maxNumber",
          "type": "uint256"
        },
        {
          "internalType": "uint256",
          "name": "_entryFee",
          "type": "uint256"
        },
        {
          "internalType": "enum MultiplayerGame.GameMode",
          "name": "_mode",
          "type": "uint8"
        },
        {
          "internalType": "uint256",
          "name": "_durationOrRounds",
          "type": "uint256"
        },
        {
          "internalType": "uint256",
          "name": "_turnTimeout",
          "type": "uint256"
        }
      ],
      "name": "createGameRoom",
      "outputs": [],
      "stateMutability": "payable",
      "type": "function"
    },
    {
      "inputs": [
        {
          "internalType": "uint256",
          "name": "_roomId",
          "type": "uint256"
        }
      ],
      "name": "forceAdvance",
      "outputs": [],
      "stateMutability": "nonpayable",
      "type": "function"
    },
    {
      "inputs": [
        {
          "internalType": "uint256",
          "name": "",
          "type": "uint256"
        }
      ],
      "name": "gameRooms",
      "outputs": [
        {
          "internalType": "address",
          "name": "creator",
          "type": "address"
        },
        {
          "internalType": "uint256",
          "name": "gameId",
          "type": "uint256"
        },
        {
          "internalType": "uint256",
          "name": "maxNumber",
          "type": "uint256"
        },
        {
          "internalType": "uint256",
          "name": "entryFee",
          "type": "uint256"
        },
        {
          "internalType": "bool",
          "name": "isActive",
          "type": "bool"
        },
        {
          "internalType": "enum MultiplayerGame.GameStatus",
          "name": "status",
          "type": "uint8"
        },
        {
          "internalType": "enum MultiplayerGame.GameMode",
          "name": "mode",
          "type": "uint8"
        },
        {
          "internalType": "uint256",
          "name": "startTime",
          "type": "uint256"
        },
        {
          "internalType": "uint256",
          "name": "duration",
          "type": "uint256"
        },
        {
          "internalType": "uint256",
          "name": "rounds",
          "type": "uint256"
        },
        {
          "internalType": "uint256",
          "name": "currentRound",
          "type": "uint256"
        },
        {
          "internalType": "uint256",
          "name": "currentPlayerIndex",
          "type": "uint256"
        },
        {
          "internalType": "uint256",
          "name": "lastTurnTimestamp",
          "type": "uint256"
        },
        {
          "internalType": "uint256",
          "name": "turnTimeout",
          "type": "uint256"
        }
      ],
      "stateMutability": "view",
      "type": "function"
    },
    {
      "inputs": [],
      "name": "gameToken",
      "outputs": [
        {
          "internalType": "contract IERC20",
          "name": "",
          "type": "address"
        }
      ],
      "stateMutability": "view",
      "type": "function"
    },
    {
      "inputs": [],
      "name": "getALlGameRooms",
      "outputs": [
        {
          "components": [
            {
              "internalType": "address",
              "name": "creator",
              "type": "address"
            },
            {
              "internalType": "uint256",
              "name": "gameId",
              "type": "uint256"
            },
            {
              "internalType": "uint256",
              "name": "maxNumber",
              "type": "uint256"
            },
            {
              "internalType": "uint256",
              "name": "entryFee",
              "type": "uint256"
            },
            {
              "internalType": "address[]",
              "name": "players",
              "type": "address[]"
            },
            {
              "internalType": "bool",
              "name": "isActive",
              "type": "bool"
            },
            {
              "internalType": "enum MultiplayerGame.GameStatus",
              "name": "status",
              "type": "uint8"
            },
            {
              "internalType": "enum MultiplayerGame.GameMode",
              "name": "mode",
              "type": "uint8"
            },
            {
              "internalType": "uint256",
              "name": "startTime",
              "type": "uint256"
            },
            {
              "internalType": "uint256",
              "name": "duration",
              "type": "uint256"
            },
            {
              "internalType": "uint256",
              "name": "rounds",
              "type": "uint256"
            },
            {
              "internalType": "uint256",
              "name": "currentRound",
              "type": "uint256"
            },
            {
              "internalType": "uint256",
              "name": "currentPlayerIndex",
              "type": "uint256"
            },
            {
              "internalType": "uint256",
              "name": "lastTurnTimestamp",
              "type": "uint256"
            },
            {
              "internalType": "uint256",
              "name": "turnTimeout",
              "type": "uint256"
            }
          ],
          "internalType": "struct MultiplayerGame.GameRoom[]",
          "name": "",
          "type": "tuple[]"
        }
      ],
      "stateMutability": "view",
      "type": "function"
    },
    {
      "inputs": [
        {
          "internalType": "uint256",
          "name": "_gameRoomId",
          "type": "uint256"
        }
      ],
      "name": "getGameRoomById",
      "outputs": [
        {
          "components": [
            {
              "internalType": "address",
              "name": "creator",
              "type": "address"
            },
            {
              "internalType": "uint256",
              "name": "gameId",
              "type": "uint256"
            },
            {
              "internalType": "uint256",
              "name": "maxNumber",
              "type": "uint256"
            },
            {
              "internalType": "uint256",
              "name": "entryFee",
              "type": "uint256"
            },
            {
              "internalType": "address[]",
              "name": "players",
              "type": "address[]"
            },
            {
              "internalType": "bool",
              "name": "isActive",
              "type": "bool"
            },
            {
              "internalType": "enum MultiplayerGame.GameStatus",
              "name": "status",
              "type": "uint8"
            },
            {
              "internalType": "enum MultiplayerGame.GameMode",
              "name": "mode",
              "type": "uint8"
            },
            {
              "internalType": "uint256",
              "name": "startTime",
              "type": "uint256"
            },
            {
              "internalType": "uint256",
              "name": "duration",
              "type": "uint256"
            },
            {
              "internalType": "uint256",
              "name": "rounds",
              "type": "uint256"
            },
            {
              "internalType": "uint256",
              "name": "currentRound",
              "type": "uint256"
            },
            {
              "internalType": "uint256",
              "name": "currentPlayerIndex",
              "type": "uint256"
            },
            {
              "internalType": "uint256",
              "name": "lastTurnTimestamp",
              "type": "uint256"
            },
            {
              "internalType": "uint256",
              "name": "turnTimeout",
              "type": "uint256"
            }
          ],
          "internalType": "struct MultiplayerGame.GameRoom",
          "name": "",
          "type": "tuple"
        }
      ],
      "stateMutability": "view",
      "type": "function"
    },
    {
      "inputs": [
        {
          "internalType": "uint256",
          "name": "_roomId",
          "type": "uint256"
        },
        {
          "internalType": "address",
          "name": "_player",
          "type": "address"
        }
      ],
      "name": "getIsPlayerEliminatedByRoomId",
      "outputs": [
        {
          "internalType": "bool",
          "name": "",
          "type": "bool"
        }
      ],
      "stateMutability": "view",
      "type": "function"
    },
    {
      "inputs": [
        {
          "internalType": "uint256",
          "name": "_roomId",
          "type": "uint256"
        },
        {
          "internalType": "address",
          "name": "_player",
          "type": "address"
        }
      ],
      "name": "getPlayerScoresForEachGameRoom",
      "outputs": [
        {
          "internalType": "uint256",
          "name": "",
          "type": "uint256"
        }
      ],
      "stateMutability": "view",
      "type": "function"
    },
    {
      "inputs": [],
      "name": "getTotalRoomsCreated",
      "outputs": [
        {
          "internalType": "uint256",
          "name": "",
          "type": "uint256"
        }
      ],
      "stateMutability": "view",
      "type": "function"
    },
    {
      "inputs": [
        {
          "internalType": "uint256",
          "name": "",
          "type": "uint256"
        },
        {
          "internalType": "address",
          "name": "",
          "type": "address"
        }
      ],
      "name": "isEliminated",
      "outputs": [
        {
          "internalType": "bool",
          "name": "",
          "type": "bool"
        }
      ],
      "stateMutability": "view",
      "type": "function"
    },
    {
      "inputs": [
        {
          "internalType": "uint256",
          "name": "_roomId",
          "type": "uint256"
        }
      ],
      "name": "joinGameRoom",
      "outputs": [],
      "stateMutability": "payable",
      "type": "function"
    },
    {
      "inputs": [],
      "name": "owner",
      "outputs": [
        {
          "internalType": "address",
          "name": "",
          "type": "address"
        }
      ],
      "stateMutability": "view",
      "type": "function"
    },
    {
      "inputs": [
        {
          "internalType": "uint256",
          "name": "_roomId",
          "type": "uint256"
        }
      ],
      "name": "playTurn",
      "outputs": [
        {
          "internalType": "uint256",
          "name": "",
          "type": "uint256"
        },
        {
          "internalType": "uint256",
          "name": "",
          "type": "uint256"
        }
      ],
      "stateMutability": "nonpayable",
      "type": "function"
    },
    {
      "inputs": [
        {
          "internalType": "uint256",
          "name": "",
          "type": "uint256"
        },
        {
          "internalType": "address",
          "name": "",
          "type": "address"
        }
      ],
      "name": "playerScores",
      "outputs": [
        {
          "internalType": "uint256",
          "name": "",
          "type": "uint256"
        }
      ],
      "stateMutability": "view",
      "type": "function"
    },
    {
      "inputs": [],
      "name": "roomCounter",
      "outputs": [
        {
          "internalType": "uint256",
          "name": "",
          "type": "uint256"
        }
      ],
      "stateMutability": "view",
      "type": "function"
    },
    {
      "inputs": [],
      "name": "skipFee",
      "outputs": [
        {
          "internalType": "uint256",
          "name": "",
          "type": "uint256"
        }
      ],
      "stateMutability": "view",
      "type": "function"
    },
    {
      "inputs": [
        {
          "internalType": "uint256",
          "name": "_roomId",
          "type": "uint256"
        }
      ],
      "name": "skipTurn",
      "outputs": [],
      "stateMutability": "nonpayable",
      "type": "function"
    },
    {
      "inputs": [
        {
          "internalType": "uint256",
          "name": "_roomId",
          "type": "uint256"
        }
      ],
      "name": "startGame",
      "outputs": [],
      "stateMutability": "nonpayable",
      "type": "function"
    }
  ],
  "bytecode": "0x608034608357601f611a7e38819003918201601f19168301916001600160401b03831184841017608857808492602094604052833981010312608357516001600160a01b03811690819003608357600a600255600080546001600160a01b03199081163317909155600180549091169190911790556040516119df908161009f8239f35b600080fd5b634e487b7160e01b600052604160045260246000fdfe6080604052600436101561001257600080fd5b60003560e01c8062200e27146103015780630e5a2ebe14610b695780631885493914610d535780631ab9121514610b225780633dc290d314610d35578063426c464114610c5857806361099b1714610ba95780637e32eb9a14610b695780638da5cb5b14610b40578063921c45ca14610b225780639fe63153146109ff578063a0e1746f146108f3578063a0fc6cff14610714578063a2796f461461053f578063c3dfdae614610516578063ce371cbd1461033c578063dbed039114610301578063e5ed1d59146102115763eca0a441146100ec57600080fd5b602036600319011261020c576004358060005260036020526040600020600581015460ff8116156101d75760081c60ff1660038110156101c157610130901561182f565b61013f600382015434146117ac565b61014c33600483016117ee565b6000198201918083116101ab576101906101a69261018a7f87969bc7faf902221a147b95ceba76e011c5efb0339a0a8ee7a2bb82d9cfbbd69561139c565b90611482565b6040805191825233602083015290918291820190565b0390a1005b634e487b7160e01b600052601160045260246000fd5b634e487b7160e01b600052602160045260246000fd5b60405162461bcd60e51b815260206004820152600d60248201526c526f6f6d20696e61637469766560981b6044820152606490fd5b600080fd5b3461020c57602036600319011261020c57600435600081815260036020526040902080546001600160a01b031633036102c3576005810160ff815460081c1660038110156101c157610263901561182f565b805461ff0019166101001790554260068201819055600b8201556000198201918083116101ab576102ba60209261018a7f50ad08f58a27f2851d7e3a1b3a6a46b290f2ce677e99642d30ff639721e777909561139c565b604051908152a1005b60405162461bcd60e51b815260206004820152601660248201527513db9b1e4818dc99585d1bdc8818d85b881cdd185c9d60521b6044820152606490fd5b3461020c5761030f366111d0565b90600052600460205260406000209060018060a01b03166000526020526020604060002054604051908152f35b3461020c57602036600319011261020c576004358060005260036020526040600020600581015460ff8160081c169060038210156101c157610382600160ff931461130f565b60101c1660028110156101c1576103c7916103a06103ae92156116f1565b6004600a8201549101611352565b90543360039290921b1c6001600160a01b03161461172f565b60008181526005602090815260408083203384529091529020546103ee9060ff161561176b565b600154600080546002546040516323b872dd60e01b81523360048201526001600160a01b0392831660248201526044810191909152926020928492606492849291165af190811561050a576000916104c8575b501561048b576040805182815233602082015261048992917f78d563416c0d6c2454e9c81222ee1e58f6c3ff4dfcfa798d85d391e57023ecc99190819081015b0390a1611872565b005b60405162461bcd60e51b8152602060048201526015602482015274151bdad95b881d1c985b9cd9995c8819985a5b1959605a1b6044820152606490fd5b6020813d602011610502575b816104e1602093836115af565b810103126104fe57519081151582036104fb575082610441565b80fd5b5080fd5b3d91506104d4565b6040513d6000823e3d90fd5b3461020c57600036600319011261020c576001546040516001600160a01b039091168152602090f35b60a036600319011261020c57602435600435604435600281101561020c576064359282156106d6578015610699576105788134146117ac565b610583600654611380565b6006819055600090815260036020819052604090912080546001600160a01b031916331781556002810185905590810182905560058101805461ffff191660011781556105d1908490611461565b6000948361068f5760088201555b6001600982015584600a820155608435600c82015584600b82015561060733600483016117ee565b600754600160401b81101561067b57927fe46206ee37763f491432fdb2213a587a271991a7df76de6ef1fc9589b46d8dfb94926106536106779361018a87600160a0990160075561139c565b60065493604051948552336020860152604085015260608401526080830190611203565ba180f35b634e487b7160e01b86526041600452602486fd5b60078201556105df565b60405162461bcd60e51b81526020600482015260156024820152740456e74727920666565206d757374206265203e203605c1b6044820152606490fd5b60405162461bcd60e51b815260206004820152601660248201527504d6178206e756d626572206d757374206265203e20360541b6044820152606490fd5b3461020c57602036600319011261020c576004358060005260036020526040600020600581015460ff8160081c169060038210156101c15761075a600160ff931461130f565b60101c1660028110156101c15761077190156116f1565b6107ba600a8201546107896103ae8260048601611352565b60008481526005602090815260408083203384529091529020546107b09060ff161561176b565b600983015461138f565b90606460405160208101906107e4816107d6873344428861195a565b03601f1981018352826115af565b5190200691600183018093116101ab57600181018091116101ab5760649060405161081a816107d660208201943344428861195a565b5190200690600182018092116101ab5760409361088a9161083b848661138f565b60008381526004602090815288822033835290528790208054909161085f9161138f565b9055600082815260046020908152878220338352905286902054600291909101541061089657611872565b82519182526020820152f35b6000818152600560209081528682203380845290825291879020805460ff191660011790558651838152908101919091527f638a014c19f58a705adfdf3c8350f6eecbcab57edc63f1112fef5828840730eb908060408101610481565b3461020c57600036600319011261020c5760075467ffffffffffffffff81116109e9576040519061092a60208260051b01836115af565b808252600760009081526020830191907fa66cc928b5edb82af9bd49922954155ab7b0942694bea4ce44661d9a8736c688835b8383106109cb57848660405191829160208301906020845251809152604083019060408160051b85010192916000905b82821061099c57505050500390f35b919360019193955060206109bb8192603f198a82030186528851611210565b960192019201859493919261098d565b600d60206001926109db856115d1565b81520192019201919061095d565b634e487b7160e01b600052604160045260246000fd5b3461020c57602036600319011261020c5760043580600052600360205260406000209060ff600583015460081c1660038110156101c1576001610a42911461130f565b610a55600b830154600c8401549061138f565b421115610ae4577e32e633d34e1ad18fdfb5054de555825496a862d3dbb13071d8b6d213bb9d71610481610a94846004600a6104899701549101611352565b9054600085815260056020908152604080832060039590951b9390931c6001600160a01b031680835293815290829020805460ff1916600117905581518681529081019290925290918291820190565b60405162461bcd60e51b8152602060048201526016602482015275151d5c9b881b9bdd081d1a5b5959081bdd5d081e595d60521b6044820152606490fd5b3461020c57600036600319011261020c576020600654604051908152f35b3461020c57600036600319011261020c576000546040516001600160a01b039091168152602090f35b3461020c57610b77366111d0565b90600052600560205260406000209060018060a01b0316600052602052602060ff604060002054166040519015158152f35b3461020c57602036600319011261020c5760006101c0604051610bcb81611592565b828152826020820152826040820152826060820152606060808201528260a08201528260c08201528260e08201528261010082015282610120820152826101408201528261016082015282610180820152826101a082015201526004356000526003602052610c54610c4060406000206115d1565b604051918291602083526020830190611210565b0390f35b3461020c57602036600319011261020c5760043560005260036020526101c0604060002060018060a01b03815416906001810154906002810154600382015460058301546006840154600785015490610d0a600887015493600988015495600a89015497600c600b8b01549a01549a6040519c8d5260208d015260408c015260608b015260ff8116151560808b0152610cfa60a08b0160ff8360081c166111f6565b60ff60c08b019160101c16611203565b60e08801526101008701526101208601526101408501526101608401526101808301526101a0820152f35b3461020c57600036600319011261020c576020600254604051908152f35b3461020c57602036600319011261020c57600435806000526003602052604060002060058101805460ff8160081c1660038110156101c1576001610d97911461130f565b600090816000199181908293600488018054955b8681106110c2575050506003870154938481029481860414901517156101ab5760101c60ff1660028110156101c157610f245750600181148015610f13575b15610e7257508060008115610e69575b6000918291829182916001600160a01b03881690f11561050a57604080518681526001600160a01b0393909316602084015282015260008051602061198a83398151915290606090a15b805461ffff191661020017905560001982019182116101ab5761018a6104899261139c565b506108fc610dfa565b909150610ed55760008080808460018060a01b03825416828215610ecc575bf11561050a5760407f66a8c5b89438eb03696fbf4fae05d99dcfa81867a18c352b258b5de0aea1c246918151908682526020820152a1610e44565b506108fc610e91565b60405162461bcd60e51b815260206004820152601660248201527511d85b59481b9bdd081e595d0818dbdb98db1d59195960521b6044820152606490fd5b506009850154600886015410610dea565b90610f38600687015460078801549061138f565b421061107d5760018103610fad5750508060008115610fa4575b6000918291829182916001600160a01b03881690f11561050a57604080518681526001600160a01b03909316602084015282015260008051602061198a8339815191529080606081015b0390a1610e44565b506108fc610f52565b909250600181111561101157508060008115610fa4576000918291829182916001600160a01b03881690f11561050a57604080518681526001600160a01b03909316602084015282015260008051602061198a833981519152908060608101610f9c565b90915015611020575b50610e44565b60008080808460018060a01b03825416828215611074575bf11561050a5760407f66a8c5b89438eb03696fbf4fae05d99dcfa81867a18c352b258b5de0aea1c246918151908682526020820152a18361101a565b506108fc611038565b60405162461bcd60e51b815260206004820152601b60248201527f47616d65206475726174696f6e206e6f742079657420656e64656400000000006044820152606490fd5b8a600052600560205260ff6040806000206110dd8486611352565b905460039190911b1c6001600160a01b031660009081526020919091522054161561110b575b600101610dab565b96509361111790611380565b936111228782611352565b60018060a01b0391549060031b1c16968a60005260046020528260408060002061114c8486611352565b905460039190911b1c6001600160a01b0316600090815260209190915220541015611103579350905088600052600460205260408060002061118e8584611352565b905460039190911b1c6001600160a01b0316600090815260209190915220549060016111ba8583611352565b828060a01b0391549060031b1c16949050611103565b604090600319011261020c57600435906024356001600160a01b038116810361020c5790565b9060038210156101c15752565b9060028210156101c15752565b906101e081019160018060a01b0381511682526020810151602083015260408101516040830152606081015160608301526080810151926101e0608084015283518091526020610200840194019060005b8181106112f0575050506101c08160a082930151151560a085015261128e60c082015160c08601906111f6565b6112a060e082015160e0860190611203565b6101008101516101008501526101208101516101208501526101408101516101408501526101608101516101608501526101808101516101808501526101a08101516101a0850152015191015290565b82516001600160a01b0316865260209586019590920191600101611261565b1561131657565b60405162461bcd60e51b815260206004820152601460248201527347616d65206e6f7420696e2070726f677265737360601b6044820152606490fd5b805482101561136a5760005260206000200190600090565b634e487b7160e01b600052603260045260246000fd5b60001981146101ab5760010190565b919082018092116101ab57565b60075481101561136a576007600052600d602060002091020190600090565b81811461145d5781549167ffffffffffffffff83116109e957600160401b83116109e9578154838355808410611434575b5060005260206000209060005260206000208154916000925b848410611413575050505050565b600191820180546001600160a01b0390921684860155939091019290611405565b8260005283602060002091820191015b81811061145157506113ec565b60008155600101611444565b5050565b9060028110156101c15762ff000082549160101b169062ff00001916179055565b919061157c57808203611493575050565b805482546001600160a01b0319166001600160a01b03919091161782556001818101549083015560028082015490830155600380820154908301556114de60048083019084016113bb565b6005820190600581019060ff825416151560ff80198554169116178355815491600360ff8460081c1610156101c1578360ff61153992600c969561ff00808998549285191616169061ff0019161783555460101c1690611461565b60068101546006850155600781015460078501556008810154600885015560098101546009850155600a810154600a850155600b810154600b8501550154910155565b634e487b7160e01b600052600060045260246000fd5b6101e0810190811067ffffffffffffffff8211176109e957604052565b90601f8019910116810190811067ffffffffffffffff8211176109e957604052565b906040516115de81611592565b809260018060a01b038154168252600181015460208301526002810154604083015260038101546060830152600481016040518082602082945493848152019060005260206000209260005b8181106116cf57505061163f925003826115af565b6080830152600581015460ff8116151560a084015260ff8160081c169060038210156101c15760ff9160c085015260101c1660028110156101c1576101c091600c9160e08501526006810154610100850152600781015461012085015260088101546101408501526009810154610160850152600a810154610180850152600b8101546101a08501520154910152565b84546001600160a01b031683526001948501948694506020909301920161162a565b156116f857565b60405162461bcd60e51b815260206004820152600f60248201526e4e6f7420726f756e6473206d6f646560881b6044820152606490fd5b1561173657565b60405162461bcd60e51b815260206004820152600d60248201526c2737ba103cb7bab9103a3ab93760991b6044820152606490fd5b1561177257565b60405162461bcd60e51b8152602060048201526012602482015271165bdd48185c9948195b1a5b5a5b985d195960721b6044820152606490fd5b156117b357565b60405162461bcd60e51b8152602060048201526013602482015272496e636f727265637420656e7472792066656560681b6044820152606490fd5b8054600160401b8110156109e95761180b91600182018155611352565b81546001600160a01b0393841660039290921b91821b9390911b1916919091179055565b1561183657565b60405162461bcd60e51b815260206004820152601460248201527311d85b5948185b1c9958591e481cdd185c9d195960621b6044820152606490fd5b80600052600360205260406000209060048201918254600a82019283549442600b8501556001918315925b15611911575b60008654600181018091116118fd57846118e9578589910680895580156118d4575b0361189d575050505050505050565b600988016118e28154611380565b90556118c5565b634e487b7160e01b82526012600452602482fd5b634e487b7160e01b82526011600452602482fd5b80600052600560205260ff60408060002061192d895486611352565b905460039190911b1c6001600160a01b031660009081526020919091522054166118a35750505050505050565b92909160749492845260208401526bffffffffffffffffffffffff199060601b1660408301526054820152019056fe7ed5face07afb2b0e99df53523951350d2a3d4f5d105a0dd2110703efe399537a26469706673582212203dac55d18a241b315080468c9530c6fe86792be04b40804fe7a3def0ea7e23fe64736f6c634300081b0033",
  "linkReferences": {},
  "deployedLinkReferences": {}
}