{
  "_format": "hh-sol-artifact-1",
  "contractName": "NumberJackGame",
  "sourceName": "contracts/Numberjack.sol",
  "abi": [
    {
      "inputs": [
        {
          "internalType": "address",
          "name": "gameTokenAddress",
          "type": "address"
        }
      ],
      "stateMutability": "nonpayable",
      "type": "constructor"
    },
    {
      "anonymous": false,
      "inputs": [
        {
          "indexed": false,
          "internalType": "uint256",
          "name": "roomId",
          "type": "uint256"
        },
        {
          "indexed": false,
          "internalType": "address",
          "name": "creator",
          "type": "address"
        },
        {
          "indexed": false,
          "internalType": "uint256",
          "name": "maxNumber",
          "type": "uint256"
        },
        {
          "indexed": false,
          "internalType": "uint256",
          "name": "entryFee",
          "type": "uint256"
        },
        {
          "indexed": false,
          "internalType": "enum NumberJackGame.GameMode",
          "name": "mode",
          "type": "uint8"
        }
      ],
      "name": "GameRoomCreated",
      "type": "event"
    },
    {
      "anonymous": false,
      "inputs": [
        {
          "indexed": false,
          "internalType": "uint256",
          "name": "_roomId",
          "type": "uint256"
        }
      ],
      "name": "GameStarted",
      "type": "event"
    },
    {
      "anonymous": false,
      "inputs": [
        {
          "indexed": false,
          "internalType": "uint256",
          "name": "roomId",
          "type": "uint256"
        },
        {
          "indexed": false,
          "internalType": "uint256",
          "name": "prizeTransferredToOwner",
          "type": "uint256"
        }
      ],
      "name": "NoWinner",
      "type": "event"
    },
    {
      "anonymous": false,
      "inputs": [
        {
          "indexed": false,
          "internalType": "uint256",
          "name": "roomId",
          "type": "uint256"
        },
        {
          "indexed": false,
          "internalType": "address",
          "name": "player",
          "type": "address"
        }
      ],
      "name": "PlayerEliminated",
      "type": "event"
    },
    {
      "anonymous": false,
      "inputs": [
        {
          "indexed": false,
          "internalType": "uint256",
          "name": "roomId",
          "type": "uint256"
        },
        {
          "indexed": false,
          "internalType": "address",
          "name": "player",
          "type": "address"
        }
      ],
      "name": "PlayerJoined",
      "type": "event"
    },
    {
      "anonymous": false,
      "inputs": [
        {
          "indexed": false,
          "internalType": "uint256",
          "name": "_roomId",
          "type": "uint256"
        },
        {
          "indexed": false,
          "internalType": "address",
          "name": "player",
          "type": "address"
        }
      ],
      "name": "PlayerPlayed",
      "type": "event"
    },
    {
      "anonymous": false,
      "inputs": [
        {
          "indexed": false,
          "internalType": "uint256",
          "name": "roomId",
          "type": "uint256"
        },
        {
          "indexed": false,
          "internalType": "address",
          "name": "newPlayer",
          "type": "address"
        },
        {
          "indexed": false,
          "internalType": "uint256",
          "name": "currentRound",
          "type": "uint256"
        },
        {
          "indexed": false,
          "internalType": "uint256",
          "name": "turnStartTime",
          "type": "uint256"
        }
      ],
      "name": "TurnAdvanced",
      "type": "event"
    },
    {
      "anonymous": false,
      "inputs": [
        {
          "indexed": false,
          "internalType": "uint256",
          "name": "roomId",
          "type": "uint256"
        },
        {
          "indexed": false,
          "internalType": "address",
          "name": "player",
          "type": "address"
        }
      ],
      "name": "TurnSkipped",
      "type": "event"
    },
    {
      "anonymous": false,
      "inputs": [
        {
          "indexed": false,
          "internalType": "uint256",
          "name": "roomId",
          "type": "uint256"
        },
        {
          "indexed": false,
          "internalType": "address",
          "name": "timedOutPlayer",
          "type": "address"
        }
      ],
      "name": "TurnTimedOut",
      "type": "event"
    },
    {
      "anonymous": false,
      "inputs": [
        {
          "indexed": false,
          "internalType": "uint256",
          "name": "roomId",
          "type": "uint256"
        },
        {
          "indexed": false,
          "internalType": "address",
          "name": "winner",
          "type": "address"
        },
        {
          "indexed": false,
          "internalType": "uint256",
          "name": "prize",
          "type": "uint256"
        }
      ],
      "name": "WinnerDeclared",
      "type": "event"
    },
    {
      "inputs": [
        {
          "internalType": "uint256",
          "name": "_roomId",
          "type": "uint256"
        }
      ],
      "name": "checkWinner",
      "outputs": [],
      "stateMutability": "nonpayable",
      "type": "function"
    },
    {
      "inputs": [
        {
          "internalType": "uint256",
          "name": "_maxNumber",
          "type": "uint256"
        },
        {
          "internalType": "enum NumberJackGame.GameMode",
          "name": "_mode",
          "type": "uint8"
        },
        {
          "internalType": "uint256",
          "name": "_durationOrRounds",
          "type": "uint256"
        },
        {
          "internalType": "uint256",
          "name": "_turnTimeout",
          "type": "uint256"
        }
      ],
      "name": "createGameRoom",
      "outputs": [],
      "stateMutability": "payable",
      "type": "function"
    },
    {
      "inputs": [
        {
          "internalType": "uint256",
          "name": "_roomId",
          "type": "uint256"
        }
      ],
      "name": "forceAdvance",
      "outputs": [],
      "stateMutability": "nonpayable",
      "type": "function"
    },
    {
      "inputs": [
        {
          "internalType": "uint256",
          "name": "",
          "type": "uint256"
        }
      ],
      "name": "gameRooms",
      "outputs": [
        {
          "internalType": "address",
          "name": "creator",
          "type": "address"
        },
        {
          "internalType": "uint256",
          "name": "id",
          "type": "uint256"
        },
        {
          "internalType": "uint256",
          "name": "maxNumber",
          "type": "uint256"
        },
        {
          "internalType": "uint256",
          "name": "entryFee",
          "type": "uint256"
        },
        {
          "internalType": "bool",
          "name": "isActive",
          "type": "bool"
        },
        {
          "internalType": "enum NumberJackGame.GameStatus",
          "name": "status",
          "type": "uint8"
        },
        {
          "internalType": "enum NumberJackGame.GameMode",
          "name": "mode",
          "type": "uint8"
        },
        {
          "internalType": "uint256",
          "name": "startTime",
          "type": "uint256"
        },
        {
          "internalType": "uint256",
          "name": "duration",
          "type": "uint256"
        },
        {
          "internalType": "uint256",
          "name": "roundValue",
          "type": "uint256"
        },
        {
          "internalType": "uint256",
          "name": "roundCurrentValue",
          "type": "uint256"
        },
        {
          "internalType": "uint256",
          "name": "currentPlayerIndex",
          "type": "uint256"
        },
        {
          "internalType": "uint256",
          "name": "lastTurnTimestamp",
          "type": "uint256"
        },
        {
          "internalType": "uint256",
          "name": "turnTimeout",
          "type": "uint256"
        }
      ],
      "stateMutability": "view",
      "type": "function"
    },
    {
      "inputs": [],
      "name": "gameToken",
      "outputs": [
        {
          "internalType": "contract IERC20",
          "name": "",
          "type": "address"
        }
      ],
      "stateMutability": "view",
      "type": "function"
    },
    {
      "inputs": [],
      "name": "getAllGameRooms",
      "outputs": [
        {
          "components": [
            {
              "internalType": "address",
              "name": "creator",
              "type": "address"
            },
            {
              "internalType": "uint256",
              "name": "id",
              "type": "uint256"
            },
            {
              "internalType": "uint256",
              "name": "maxNumber",
              "type": "uint256"
            },
            {
              "internalType": "uint256",
              "name": "entryFee",
              "type": "uint256"
            },
            {
              "internalType": "address[]",
              "name": "players",
              "type": "address[]"
            },
            {
              "internalType": "bool",
              "name": "isActive",
              "type": "bool"
            },
            {
              "internalType": "enum NumberJackGame.GameStatus",
              "name": "status",
              "type": "uint8"
            },
            {
              "internalType": "enum NumberJackGame.GameMode",
              "name": "mode",
              "type": "uint8"
            },
            {
              "internalType": "uint256",
              "name": "startTime",
              "type": "uint256"
            },
            {
              "internalType": "uint256",
              "name": "duration",
              "type": "uint256"
            },
            {
              "internalType": "uint256",
              "name": "roundValue",
              "type": "uint256"
            },
            {
              "internalType": "uint256",
              "name": "roundCurrentValue",
              "type": "uint256"
            },
            {
              "internalType": "uint256",
              "name": "currentPlayerIndex",
              "type": "uint256"
            },
            {
              "internalType": "uint256",
              "name": "lastTurnTimestamp",
              "type": "uint256"
            },
            {
              "internalType": "uint256",
              "name": "turnTimeout",
              "type": "uint256"
            }
          ],
          "internalType": "struct NumberJackGame.GameRoom[]",
          "name": "",
          "type": "tuple[]"
        }
      ],
      "stateMutability": "view",
      "type": "function"
    },
    {
      "inputs": [],
      "name": "getAvailableRooms",
      "outputs": [
        {
          "components": [
            {
              "internalType": "address",
              "name": "creator",
              "type": "address"
            },
            {
              "internalType": "uint256",
              "name": "id",
              "type": "uint256"
            },
            {
              "internalType": "uint256",
              "name": "maxNumber",
              "type": "uint256"
            },
            {
              "internalType": "uint256",
              "name": "entryFee",
              "type": "uint256"
            },
            {
              "internalType": "address[]",
              "name": "players",
              "type": "address[]"
            },
            {
              "internalType": "bool",
              "name": "isActive",
              "type": "bool"
            },
            {
              "internalType": "enum NumberJackGame.GameStatus",
              "name": "status",
              "type": "uint8"
            },
            {
              "internalType": "enum NumberJackGame.GameMode",
              "name": "mode",
              "type": "uint8"
            },
            {
              "internalType": "uint256",
              "name": "startTime",
              "type": "uint256"
            },
            {
              "internalType": "uint256",
              "name": "duration",
              "type": "uint256"
            },
            {
              "internalType": "uint256",
              "name": "roundValue",
              "type": "uint256"
            },
            {
              "internalType": "uint256",
              "name": "roundCurrentValue",
              "type": "uint256"
            },
            {
              "internalType": "uint256",
              "name": "currentPlayerIndex",
              "type": "uint256"
            },
            {
              "internalType": "uint256",
              "name": "lastTurnTimestamp",
              "type": "uint256"
            },
            {
              "internalType": "uint256",
              "name": "turnTimeout",
              "type": "uint256"
            }
          ],
          "internalType": "struct NumberJackGame.GameRoom[]",
          "name": "",
          "type": "tuple[]"
        }
      ],
      "stateMutability": "view",
      "type": "function"
    },
    {
      "inputs": [
        {
          "internalType": "uint256",
          "name": "_gameRoomId",
          "type": "uint256"
        }
      ],
      "name": "getGameRoomById",
      "outputs": [
        {
          "components": [
            {
              "internalType": "address",
              "name": "creator",
              "type": "address"
            },
            {
              "internalType": "uint256",
              "name": "id",
              "type": "uint256"
            },
            {
              "internalType": "uint256",
              "name": "maxNumber",
              "type": "uint256"
            },
            {
              "internalType": "uint256",
              "name": "entryFee",
              "type": "uint256"
            },
            {
              "internalType": "address[]",
              "name": "players",
              "type": "address[]"
            },
            {
              "internalType": "bool",
              "name": "isActive",
              "type": "bool"
            },
            {
              "internalType": "enum NumberJackGame.GameStatus",
              "name": "status",
              "type": "uint8"
            },
            {
              "internalType": "enum NumberJackGame.GameMode",
              "name": "mode",
              "type": "uint8"
            },
            {
              "internalType": "uint256",
              "name": "startTime",
              "type": "uint256"
            },
            {
              "internalType": "uint256",
              "name": "duration",
              "type": "uint256"
            },
            {
              "internalType": "uint256",
              "name": "roundValue",
              "type": "uint256"
            },
            {
              "internalType": "uint256",
              "name": "roundCurrentValue",
              "type": "uint256"
            },
            {
              "internalType": "uint256",
              "name": "currentPlayerIndex",
              "type": "uint256"
            },
            {
              "internalType": "uint256",
              "name": "lastTurnTimestamp",
              "type": "uint256"
            },
            {
              "internalType": "uint256",
              "name": "turnTimeout",
              "type": "uint256"
            }
          ],
          "internalType": "struct NumberJackGame.GameRoom",
          "name": "",
          "type": "tuple"
        }
      ],
      "stateMutability": "view",
      "type": "function"
    },
    {
      "inputs": [
        {
          "internalType": "uint256",
          "name": "_roomId",
          "type": "uint256"
        },
        {
          "internalType": "address",
          "name": "_player",
          "type": "address"
        }
      ],
      "name": "getIsPlayerEliminatedByRoomId",
      "outputs": [
        {
          "internalType": "bool",
          "name": "",
          "type": "bool"
        }
      ],
      "stateMutability": "view",
      "type": "function"
    },
    {
      "inputs": [
        {
          "internalType": "uint256",
          "name": "_roomId",
          "type": "uint256"
        },
        {
          "internalType": "address",
          "name": "_player",
          "type": "address"
        }
      ],
      "name": "getPlayerDrawsForGameRoom",
      "outputs": [
        {
          "internalType": "uint256[]",
          "name": "",
          "type": "uint256[]"
        }
      ],
      "stateMutability": "view",
      "type": "function"
    },
    {
      "inputs": [],
      "name": "getTotalRoomsCreated",
      "outputs": [
        {
          "internalType": "uint256",
          "name": "",
          "type": "uint256"
        }
      ],
      "stateMutability": "view",
      "type": "function"
    },
    {
      "inputs": [
        {
          "internalType": "uint256",
          "name": "",
          "type": "uint256"
        },
        {
          "internalType": "address",
          "name": "",
          "type": "address"
        }
      ],
      "name": "isEliminated",
      "outputs": [
        {
          "internalType": "bool",
          "name": "",
          "type": "bool"
        }
      ],
      "stateMutability": "view",
      "type": "function"
    },
    {
      "inputs": [
        {
          "internalType": "uint256",
          "name": "_roomId",
          "type": "uint256"
        }
      ],
      "name": "joinGameRoom",
      "outputs": [],
      "stateMutability": "payable",
      "type": "function"
    },
    {
      "inputs": [],
      "name": "owner",
      "outputs": [
        {
          "internalType": "address",
          "name": "",
          "type": "address"
        }
      ],
      "stateMutability": "view",
      "type": "function"
    },
    {
      "inputs": [
        {
          "internalType": "uint256",
          "name": "_roomId",
          "type": "uint256"
        }
      ],
      "name": "playTurn",
      "outputs": [
        {
          "internalType": "uint256",
          "name": "",
          "type": "uint256"
        },
        {
          "internalType": "uint256",
          "name": "",
          "type": "uint256"
        }
      ],
      "stateMutability": "nonpayable",
      "type": "function"
    },
    {
      "inputs": [
        {
          "internalType": "uint256",
          "name": "",
          "type": "uint256"
        },
        {
          "internalType": "address",
          "name": "",
          "type": "address"
        },
        {
          "internalType": "uint256",
          "name": "",
          "type": "uint256"
        }
      ],
      "name": "playerDraws",
      "outputs": [
        {
          "internalType": "uint256",
          "name": "",
          "type": "uint256"
        }
      ],
      "stateMutability": "view",
      "type": "function"
    },
    {
      "inputs": [],
      "name": "roomCounter",
      "outputs": [
        {
          "internalType": "uint256",
          "name": "",
          "type": "uint256"
        }
      ],
      "stateMutability": "view",
      "type": "function"
    },
    {
      "inputs": [],
      "name": "skipFee",
      "outputs": [
        {
          "internalType": "uint256",
          "name": "",
          "type": "uint256"
        }
      ],
      "stateMutability": "view",
      "type": "function"
    },
    {
      "inputs": [
        {
          "internalType": "uint256",
          "name": "_roomId",
          "type": "uint256"
        }
      ],
      "name": "skipTurn",
      "outputs": [],
      "stateMutability": "nonpayable",
      "type": "function"
    },
    {
      "inputs": [
        {
          "internalType": "uint256",
          "name": "_roomId",
          "type": "uint256"
        }
      ],
      "name": "startGame",
      "outputs": [],
      "stateMutability": "nonpayable",
      "type": "function"
    }
  ],
  "bytecode": "0x608034608357601f611c4138819003918201601f19168301916001600160401b03831184841017608857808492602094604052833981010312608357516001600160a01b03811690819003608357600a600255600080546001600160a01b0319908116331790915560018054909116919091179055604051611ba2908161009f8239f35b600080fd5b634e487b7160e01b600052604160045260246000fdfe6080604052600436101561001257600080fd5b60003560e01c80630e5a2ebe14610b945780631885493914610fa95780631ab9121514610b4d5780633dc290d314610f8b578063426c464114610eae57806361099b1714610e655780637098bc3d14610e005780637ae6042c14610be15780637e32eb9a14610b945780638da5cb5b14610b6b578063921c45ca14610b4d5780639fe6315314610a35578063a0fc6cff146107d6578063b710c54514610748578063c3dfdae61461071f578063c791350114610657578063ce371cbd1461049e578063d014459514610335578063e5ed1d591461024c5763eca0a441146100f857600080fd5b6020366003190112610247576004358060005260036020526040600020600581015460ff8116156102125760081c60ff1660038110156101fc5761013c9015611990565b600381015434036101c1576101543360048301611858565b6000198201918083116101ab576101986101a6926101927f87969bc7faf902221a147b95ceba76e011c5efb0339a0a8ee7a2bb82d9cfbbd69561147e565b9061157a565b604051918291339083611899565b0390a1005b634e487b7160e01b600052601160045260246000fd5b60405162461bcd60e51b8152602060048201526013602482015272496e636f727265637420656e7472792066656560681b6044820152606490fd5b634e487b7160e01b600052602160045260246000fd5b60405162461bcd60e51b815260206004820152600d60248201526c526f6f6d20696e61637469766560981b6044820152606490fd5b600080fd5b3461024757602036600319011261024757600435600081815260036020526040902080546001600160a01b031633036102f7576005810160ff815460081c1660038110156101fc5761029e9015611990565b805461ff00191661010017905542600b8201556000198201918083116101ab576102ee6020926101927f50ad08f58a27f2851d7e3a1b3a6a46b290f2ce677e99642d30ff639721e777909561147e565b604051908152a1005b60405162461bcd60e51b815260206004820152601660248201527513db9b1e4818dc99585d1bdc8818d85b881cdd185c9d60521b6044820152606490fd5b34610247576000366003190112610247576007546000805b828110610442575061035e81611964565b9061036c60405192836116a7565b80825261037b601f1991611964565b0160005b81811061042b57505060009160005b8181106103a757604051806103a385826113bf565b0390f35b60ff60056103b48361147e565b5001541680610407575b6103cb575b60010161038e565b926103ff6001916103e46103de8761147e565b50611738565b6103ee828761197c565b526103f9818661197c565b50611462565b9390506103c3565b5060ff60056104158361147e565b50015460081c1660038110156101fc57156103be565b6020906104366116c9565b8282860101520161037f565b60ff600561044f8361147e565b500154168061047a575b610466575b60010161034d565b90610472600191611462565b91905061045e565b5060ff60056104888361147e565b50015460081c1660038110156101fc5715610459565b3461024757602036600319011261024757600435806000526003602052604060002060ff600582015460081c1660038110156101fc5761050e916104e760016104f5931461141f565b6004600a8201549101611391565b90543360039290921b1c6001600160a01b0316146118b2565b60008181526005602090815260408083203384529091529020546105359060ff16156118ee565b600154600080546002546040516323b872dd60e01b81523360048201526001600160a01b0392831660248201526044810191909152926020928492606492849291165af190811561064b57600091610609575b50156105cc576105ca907f78d563416c0d6c2454e9c81222ee1e58f6c3ff4dfcfa798d85d391e57023ecc9604051806105c2338583611899565b0390a16119d3565b005b60405162461bcd60e51b8152602060048201526015602482015274151bdad95b881d1c985b9cd9995c8819985a5b1959605a1b6044820152606490fd5b6020813d602011610643575b81610622602093836116a7565b8101031261063f575190811515820361063c575082610588565b80fd5b5080fd5b3d9150610615565b6040513d6000823e3d90fd5b3461024757604036600319011261024757610670611262565b600435600052600460205260406000209060018060a01b031660005260205260406000206040518060208354918281520190819360005260206000209060005b81811061070957505050816106c69103826116a7565b6040519182916020830190602084525180915260408301919060005b8181106106f0575050500390f35b82518452859450602093840193909201916001016106e2565b82548452602090930192600192830192016106b0565b34610247576000366003190112610247576001546040516001600160a01b039091168152602090f35b346102475760003660031901126102475760075461076581611964565b9061077360405192836116a7565b808252600760009081527fa66cc928b5edb82af9bd49922954155ab7b0942694bea4ce44661d9a8736c688602084015b8383106107b857604051806103a387826113bf565b600d60206001926107c885611738565b8152019201920191906107a3565b3461024757602036600319011261024757600435806000526003602052604060002060ff600582015460081c1660038110156101fc576001610818911461141f565b610861600a8201546108306104f58260048601611391565b60008481526005602090815260408083203384529091529020546108579060ff16156118ee565b6009830154611471565b906064604051602081019061088b8161087d8733444288611b3d565b03601f1981018352826116a7565b5190200691600183018093116101ab57600181018091116101ab576064906040516108c18161087d602082019433444288611b3d565b5190200690600182018092116101ab57836000526004602052604060002060018060a01b0333166000526020526108fc83604060002061192f565b836000526004602052604060002060018060a01b03331660005260205261092782604060002061192f565b60008481526004602090815260408083203384529091528120805491929183915b818310610a0c575050506040947f159625897a04b71f4e46d7111a412afacd7a15723596ccc828d247ee50e85d6792600261099b930154106109aa575b61098e816119d3565b8551918291339083611899565b0390a182519182526020820152f35b8060005260056020528560002060018060a01b03331660005260205285600020600160ff198254161790557f638a014c19f58a705adfdf3c8350f6eecbcab57edc63f1112fef5828840730eb865180610a04338583611899565b0390a1610985565b909193610a2c600191610a1f8785611391565b90549060031b1c90611471565b94019190610948565b346102475760203660031901126102475760043580600052600360205260406000209060ff600583015460081c1660038110156101fc576001610a78911461141f565b610a8b600b830154600c84015490611471565b421115610b0f577e32e633d34e1ad18fdfb5054de555825496a862d3dbb13071d8b6d213bb9d716105c2610aca846004600a6105ca9701549101611391565b9054600085815260056020908152604080832060039590951b9390931c6001600160a01b0316808352939052819020805460ff19166001179055519182918583611899565b60405162461bcd60e51b8152602060048201526016602482015275151d5c9b881b9bdd081d1a5b5959081bdd5d081e595d60521b6044820152606490fd5b34610247576000366003190112610247576020600654604051908152f35b34610247576000366003190112610247576000546040516001600160a01b039091168152602090f35b3461024757604036600319011261024757610bad611262565b600435600052600560205260406000209060018060a01b0316600052602052602060ff604060002054166040519015158152f35b608036600319011261024757600435602435600281101561024757604435918015610dc2573415610d7157610c17600654611462565b6006818155600091825260036020819052604090922080546001600160a01b03191633178155905460018083019190915560028201849055349282019290925560058101805461ffff1916909217825590610c73908490611559565b60009383610d675760088201555b6001600982015583600a820155606435600c82015583600b820155610ca93360048301611858565b600754600160401b811015610d535760a0610d4d93610d157f87969bc7faf902221a147b95ceba76e011c5efb0339a0a8ee7a2bb82d9cfbbd696946101928560017fe46206ee37763f491432fdb2213a587a271991a7df76de6ef1fc9589b46d8dfb970160075561147e565b610d3e600654946040519286845233602085015260408401523460608401526080830190611285565ba1604051918291339083611899565b0390a180f35b634e487b7160e01b85526041600452602485fd5b6007820155610c81565b60405162461bcd60e51b815260206004820152602360248201527f456e74727920666565206d7573742062652067726561746572207468616e207a60448201526265726f60e81b6064820152608490fd5b60405162461bcd60e51b815260206004820152601660248201527504d6178206e756d626572206d757374206265203e20360541b6044820152606490fd5b3461024757606036600319011261024757610e19611262565b60443590600435600052600460205260406000209060018060a01b03166000526020526040600020805482101561024757602091610e5691611391565b90549060031b1c604051908152f35b3461024757602036600319011261024757610e7e6116c9565b5060043560005260036020526103a3610e9a6040600020611738565b604051918291602083526020830190611292565b346102475760203660031901126102475760043560005260036020526101c0604060002060018060a01b03815416906001810154906002810154600382015460058301546006840154600785015490610f60600887015493600988015495600a89015497600c600b8b01549a01549a6040519c8d5260208d015260408c015260608b015260ff8116151560808b0152610f5060a08b0160ff8360081c16611278565b60ff60c08b019160101c16611285565b60e08801526101008701526101208601526101408501526101608401526101808301526101a0820152f35b34610247576000366003190112610247576020600254604051908152f35b346102475760203660031901126102475760043580600052600360205260406000206005810160ff815460081c1660038110156101fc576001610fec911461141f565b600080600019918092600486018054945b85811061116c575050506003850154928381029381850414901517156101ab5760018114801561115b575b156110b957506001600160a01b0316906000818381156110af575b600092839283928392f11561064b577f7ed5face07afb2b0e99df53523951350d2a3d4f5d105a0dd2110703efe399537916060916040519187835260208301526040820152a15b805461ffff191661020017905560001982019182116101ab576101926105ca9261147e565b6108fc9250611043565b1515905061111d5760008080808460018060a01b03825416828215611114575bf11561064b5760407f66a8c5b89438eb03696fbf4fae05d99dcfa81867a18c352b258b5de0aea1c246918151908682526020820152a161108a565b506108fc6110d9565b60405162461bcd60e51b815260206004820152601660248201527511d85b59481b9bdd081e595d0818dbdb98db1d59195960521b6044820152606490fd5b506009850154600886015410611028565b88600052600560205260ff6040806000206111878486611391565b905460039190911b1c6001600160a01b03166000908152602091909152205416156111b5575b600101610ffd565b9350916111c190611462565b916111cc8482611391565b60018060a01b0391549060031b1c169360008981526004602052604081206111f48385611391565b905460039190911b1c6001600160a01b031682526020526040812080548291905b8083106112465750505083811061122d575b506111ad565b925060019061123c8184611391565b5090919050611227565b909192611259600191610a1f8686611391565b93019190611215565b602435906001600160a01b038216820361024757565b9060038210156101fc5752565b9060028210156101fc5752565b906101e081019160018060a01b0381511682526020810151602083015260408101516040830152606081015160608301526080810151926101e0608084015283518091526020610200840194019060005b818110611372575050506101c08160a082930151151560a085015261131060c082015160c0860190611278565b61132260e082015160e0860190611285565b6101008101516101008501526101208101516101208501526101408101516101408501526101608101516101608501526101808101516101808501526101a08101516101a0850152015191015290565b82516001600160a01b03168652602095860195909201916001016112e3565b80548210156113a95760005260206000200190600090565b634e487b7160e01b600052603260045260246000fd5b602081016020825282518091526040820191602060408360051b8301019401926000915b8383106113f257505050505090565b9091929394602080611410600193603f198682030187528951611292565b970193019301919392906113e3565b1561142657565b60405162461bcd60e51b815260206004820152601460248201527347616d65206e6f7420696e2070726f677265737360601b6044820152606490fd5b60001981146101ab5760010190565b919082018092116101ab57565b6007548110156113a9576007600052600d602060002091020190600090565b8181146115555781549167ffffffffffffffff831161153f57600160401b831161153f578154838355808410611516575b5060005260206000209060005260206000208154916000925b8484106114f5575050505050565b600191820180546001600160a01b03909216848601559390910192906114e7565b8260005283602060002091820191015b81811061153357506114ce565b60008155600101611526565b634e487b7160e01b600052604160045260246000fd5b5050565b9060028110156101fc5762ff000082549160101b169062ff00001916179055565b91906116745780820361158b575050565b805482546001600160a01b0319166001600160a01b03919091161782556001818101549083015560028082015490830155600380820154908301556115d6600480830190840161149d565b6005820190600581019060ff825416151560ff80198554169116178355815491600360ff8460081c1610156101fc578360ff61163192600c969561ff00808998549285191616169061ff0019161783555460101c1690611559565b60068101546006850155600781015460078501556008810154600885015560098101546009850155600a810154600a850155600b810154600b8501550154910155565b634e487b7160e01b600052600060045260246000fd5b6101e0810190811067ffffffffffffffff82111761153f57604052565b90601f8019910116810190811067ffffffffffffffff82111761153f57604052565b604051906116d68261168a565b60006101c083828152826020820152826040820152826060820152606060808201528260a08201528260c08201528260e08201528261010082015282610120820152826101408201528261016082015282610180820152826101a08201520152565b906040516117458161168a565b809260018060a01b038154168252600181015460208301526002810154604083015260038101546060830152600481016040518082602082945493848152019060005260206000209260005b8181106118365750506117a6925003826116a7565b6080830152600581015460ff8116151560a084015260ff8160081c169060038210156101fc5760ff9160c085015260101c1660028110156101fc576101c091600c9160e08501526006810154610100850152600781015461012085015260088101546101408501526009810154610160850152600a810154610180850152600b8101546101a08501520154910152565b84546001600160a01b0316835260019485019486945060209093019201611791565b8054600160401b81101561153f5761187591600182018155611391565b81546001600160a01b0393841660039290921b91821b9390911b1916919091179055565b9081526001600160a01b03909116602082015260400190565b156118b957565b60405162461bcd60e51b815260206004820152600d60248201526c2737ba103cb7bab9103a3ab93760991b6044820152606490fd5b156118f557565b60405162461bcd60e51b8152602060048201526012602482015271165bdd48185c9948195b1a5b5a5b985d195960721b6044820152606490fd5b8054600160401b81101561153f5761194c91600182018155611391565b819291549060031b91821b91600019901b1916179055565b67ffffffffffffffff811161153f5760051b60200190565b80518210156113a95760209160051b010190565b1561199757565b60405162461bcd60e51b815260206004820152601460248201527311d85b5948185b1c9958591e481cdd185c9d195960621b6044820152606490fd5b80600052600360205260406000206004810191825491600a8101928354600b83019142835560018115905b15611acb575b6000875460018101809111611ab75782611aa35783859106808a558015611a8e575b036119fe57505050506009611a617f5e29cb4c5e826275cb8cf9f76f97caadac08d231cda0b6aeade3c9de8a7ef146966080965b5490611391565b60018060a01b0391549060031b1c16920154905491604051938452602084015260408301526060820152a1565b60098801611a9c8154611462565b9055611a26565b634e487b7160e01b82526012600452602482fd5b634e487b7160e01b82526011600452602482fd5b85600052600560205260ff604080600020611ae78a548c611391565b905460039190911b1c6001600160a01b03166000908152602091909152205416611a04575050506009611a617f5e29cb4c5e826275cb8cf9f76f97caadac08d231cda0b6aeade3c9de8a7ef14696608096611a5a565b92909160749492845260208401526bffffffffffffffffffffffff199060601b1660408301526054820152019056fea26469706673582212209b2c37b5968f7ae64bbc61efa779edaa85ec73751a8cbacc213c74c4fbd4f09f64736f6c634300081b0033",
  "linkReferences": {},
  "deployedLinkReferences": {}
}