{
  "contracts/MultiSig.sol": {
    "MultiSig": {
      "abi": [
        {
          "inputs": [],
          "stateMutability": "nonpayable",
          "type": "constructor"
        },
        {
          "inputs": [],
          "name": "MultiSig__AlreadyConfirmed",
          "type": "error"
        },
        {
          "inputs": [],
          "name": "MultiSig__AlreadyExecuted",
          "type": "error"
        },
        {
          "inputs": [],
          "name": "MultiSig__InvalidAddress",
          "type": "error"
        },
        {
          "inputs": [],
          "name": "MultiSig__NotConfirmed",
          "type": "error"
        },
        {
          "inputs": [],
          "name": "MultiSig__NotEnoughConfirmations",
          "type": "error"
        },
        {
          "inputs": [],
          "name": "MultiSig__NotOwner",
          "type": "error"
        },
        {
          "inputs": [],
          "name": "MultiSig__OwnersRequired",
          "type": "error"
        },
        {
          "inputs": [],
          "name": "MultiSig__ProposalNotExists",
          "type": "error"
        },
        {
          "inputs": [],
          "name": "MultiSig__TransferFailed",
          "type": "error"
        },
        {
          "inputs": [
            {
              "internalType": "uint256",
              "name": "_proposalIndex",
              "type": "uint256"
            }
          ],
          "name": "confirmProposal",
          "outputs": [
            {
              "internalType": "bool",
              "name": "",
              "type": "bool"
            }
          ],
          "stateMutability": "nonpayable",
          "type": "function"
        },
        {
          "inputs": [
            {
              "internalType": "uint256",
              "name": "_proposalIndex",
              "type": "uint256"
            }
          ],
          "name": "executeProposal",
          "outputs": [
            {
              "internalType": "bool",
              "name": "",
              "type": "bool"
            }
          ],
          "stateMutability": "nonpayable",
          "type": "function"
        },
        {
          "inputs": [],
          "name": "fundWallet",
          "outputs": [],
          "stateMutability": "payable",
          "type": "function"
        },
        {
          "inputs": [],
          "name": "getAllProposals",
          "outputs": [
            {
              "components": [
                {
                  "internalType": "address",
                  "name": "proposer",
                  "type": "address"
                },
                {
                  "internalType": "address",
                  "name": "to",
                  "type": "address"
                },
                {
                  "internalType": "uint256",
                  "name": "value",
                  "type": "uint256"
                },
                {
                  "internalType": "string",
                  "name": "description",
                  "type": "string"
                },
                {
                  "internalType": "uint256",
                  "name": "noOfConfirmations",
                  "type": "uint256"
                },
                {
                  "internalType": "bool",
                  "name": "status",
                  "type": "bool"
                }
              ],
              "internalType": "struct MultiSig.Transaction[]",
              "name": "",
              "type": "tuple[]"
            }
          ],
          "stateMutability": "view",
          "type": "function"
        },
        {
          "inputs": [],
          "name": "getDeployer",
          "outputs": [
            {
              "internalType": "address",
              "name": "",
              "type": "address"
            }
          ],
          "stateMutability": "view",
          "type": "function"
        },
        {
          "inputs": [],
          "name": "getOwners",
          "outputs": [
            {
              "internalType": "address[]",
              "name": "",
              "type": "address[]"
            }
          ],
          "stateMutability": "view",
          "type": "function"
        },
        {
          "inputs": [],
          "name": "getTimeCreated",
          "outputs": [
            {
              "internalType": "uint256",
              "name": "",
              "type": "uint256"
            }
          ],
          "stateMutability": "view",
          "type": "function"
        },
        {
          "inputs": [
            {
              "internalType": "address[]",
              "name": "_owners",
              "type": "address[]"
            },
            {
              "internalType": "uint256",
              "name": "_noOfConfirmationsNeeded",
              "type": "uint256"
            }
          ],
          "name": "init",
          "outputs": [],
          "stateMutability": "nonpayable",
          "type": "function"
        },
        {
          "inputs": [
            {
              "internalType": "uint256",
              "name": "",
              "type": "uint256"
            }
          ],
          "name": "proposalByIndex",
          "outputs": [
            {
              "internalType": "address",
              "name": "proposer",
              "type": "address"
            },
            {
              "internalType": "address",
              "name": "to",
              "type": "address"
            },
            {
              "internalType": "uint256",
              "name": "value",
              "type": "uint256"
            },
            {
              "internalType": "string",
              "name": "description",
              "type": "string"
            },
            {
              "internalType": "uint256",
              "name": "noOfConfirmations",
              "type": "uint256"
            },
            {
              "internalType": "bool",
              "name": "status",
              "type": "bool"
            }
          ],
          "stateMutability": "view",
          "type": "function"
        },
        {
          "inputs": [],
          "name": "proposalIndex",
          "outputs": [
            {
              "internalType": "uint256",
              "name": "",
              "type": "uint256"
            }
          ],
          "stateMutability": "view",
          "type": "function"
        },
        {
          "inputs": [
            {
              "internalType": "uint256",
              "name": "_proposalIndex",
              "type": "uint256"
            }
          ],
          "name": "revokeConfirmedProposal",
          "outputs": [
            {
              "internalType": "bool",
              "name": "",
              "type": "bool"
            }
          ],
          "stateMutability": "nonpayable",
          "type": "function"
        },
        {
          "inputs": [
            {
              "internalType": "address",
              "name": "_to",
              "type": "address"
            },
            {
              "internalType": "uint256",
              "name": "_value",
              "type": "uint256"
            },
            {
              "internalType": "string",
              "name": "_description",
              "type": "string"
            }
          ],
          "name": "submitProposal",
          "outputs": [
            {
              "internalType": "bool",
              "name": "",
              "type": "bool"
            }
          ],
          "stateMutability": "nonpayable",
          "type": "function"
        },
        {
          "inputs": [
            {
              "internalType": "uint256",
              "name": "",
              "type": "uint256"
            }
          ],
          "name": "transactions",
          "outputs": [
            {
              "internalType": "address",
              "name": "proposer",
              "type": "address"
            },
            {
              "internalType": "address",
              "name": "to",
              "type": "address"
            },
            {
              "internalType": "uint256",
              "name": "value",
              "type": "uint256"
            },
            {
              "internalType": "string",
              "name": "description",
              "type": "string"
            },
            {
              "internalType": "uint256",
              "name": "noOfConfirmations",
              "type": "uint256"
            },
            {
              "internalType": "bool",
              "name": "status",
              "type": "bool"
            }
          ],
          "stateMutability": "view",
          "type": "function"
        }
      ],
      "evm": {
        "bytecode": {
          "linkReferences": {},
          "object": "60a08060405234602757600060045533608052610d81908161002d8239608051816107750152f35b600080fdfe6080604052600436101561001257600080fd5b60003560e01c80630d61b519146108fa5780633e1a771d146107045780634cf74358146105c55780635977e0f2146105a7578063664a1ad61461059957806372630531146105705780639ace38c21461051b578063a0e67e2b1461046b578063b22c36d51461044d578063cceb68f5146102c9578063dfa3aa8f1461025d578063e222a3ee146101b15763f4a4f4d2146100ab57600080fd5b346101ac5760203660031901126101ac5760043560085481101561019b5733600052600760205260406000208160005260205260ff6040600020541661018a57806000526005602052604060002060ff60058201541661017957600401805490600182018092116101635755600461012282610a36565b50018054906001820180921161016357553360005260076020526040600020906000526020526040600020600160ff19825416179055602060405160008152f35b634e487b7160e01b600052601160045260246000fd5b63325fffed60e21b60005260046000fd5b630951ce7160e31b60005260046000fd5b635a0719dd60e01b60005260046000fd5b600080fd5b346101ac5760203660031901126101ac5760043560085481101561019b5733600052600760205260406000208160005260205260ff604060002054161561024c57806000526005602052604060002060ff6005820154166101795760040180546000198101919082116101635755336000526007602052604060002090600052602052604060002060ff198154169055602060405160008152f35b637c365f4760e01b60005260046000fd5b346101ac5760203660031901126101ac576004356000526005602052604060002060018060a01b038154166102c560018060a01b03600184015416926002810154906102ab60038201610a8f565b60ff60056004840154930154169260405196879687610b74565b0390f35b346101ac5760003660031901126101ac576008546102e681610a04565b906102f460405192836109e3565b808252600860009081526020830191907ff3f7a9fe364faab93b216da50a3214154f22a0a2b415b23a84c8169e8b636ee3835b8383106103e057848660405191829160208301906020845251809152604083019060408160051b85010192916000905b82821061036657505050500390f35b919360019193955060208091603f19898203018552875190848060a01b038251168152848060a01b038383015116838201526040820151604082015260a0806103be606085015160c0606086015260c0850190610b33565b9360808101516080850152015115159101529601920192018594939192610357565b600660206001926040516103f3816109c8565b855460a086901b86900390811682528686015416838201526002860154604082015261042160038701610a8f565b60608201526004860154608082015260ff600587015416151560a0820152815201920192019190610327565b346101ac5760003660031901126101ac576020600054604051908152f35b346101ac5760003660031901126101ac5760405180602060025492838152018092600260005260206000209060005b8181106104fc57505050816104b09103826109e3565b6040519182916020830190602084525180915260408301919060005b8181106104da575050500390f35b82516001600160a01b03168452859450602093840193909201916001016104cc565b82546001600160a01b031684526020909301926001928301920161049a565b346101ac5760203660031901126101ac576004356008548110156101ac5761054290610a36565b508054600182015460028301546001600160a01b039182169391909216916102c5916102ab60038201610a8f565b346101ac5760003660031901126101ac576001546040516001600160a01b039091168152602090f35b60003660031901126101ac57005b346101ac5760003660031901126101ac576020600454604051908152f35b346101ac5760603660031901126101ac576004356001600160a01b038116908190036101ac576044356001600160401b0381116101ac57366023820112156101ac57806004013561061581610a1b565b9161062360405193846109e3565b81835236602483830101116101ac5781600092602460209301838601378301015260405191610651836109c8565b33835260208301526024356040830152606082015260006080820181905260a0820152600854600160401b8110156106ee578060016106939201600855610a36565b9190916106d8576106a7816106bc93610bce565b60045460005260056020526040600020610bce565b6004546001810180911161016357600455602060405160018152f35b634e487b7160e01b600052600060045260246000fd5b634e487b7160e01b600052604160045260246000fd5b346101ac5760403660031901126101ac576004356001600160401b0381116101ac57366023820112156101ac57806004013561073f81610a04565b9161074d60405193846109e3565b8183526024602084019260051b820101903682116101ac57602401915b8183106108da5783337f00000000000000000000000000000000000000000000000000000000000000006001600160a01b0316036108c95760018151106108b857426000908155600180546001600160a01b031916331790556024356003555b81518110156108b6576001600160a01b036107e58284610bba565b5116156108a5576001600160a01b036107fe8284610bba565b51600254929116600160401b8310156106ee57600183018060025583101561088f5760026000527f405787fa12a823e0f2b7631cc41b3ba8828b3321ca811111fa75cd3aa3bb5ace90920180546001600160a01b0319169092179091556001906001600160a01b036108708285610bba565b5116600052600660205260406000208260ff19825416179055016107ca565b634e487b7160e01b600052603260045260246000fd5b63e7b8efaf60e01b60005260046000fd5b005b6358362f3b60e11b60005260046000fd5b631b753fdf60e31b60005260046000fd5b82356001600160a01b03811681036101ac5781526020928301920161076a565b346101ac5760203660031901126101ac5760043560085481101561019b57600052600560205260406000206004810154600354116109b757600581019081549160ff8316610179576000808093819360018760ff1916179055600260018060a01b03600183015416910154905af13d156109b2573d61097881610a1b565b9061098660405192836109e3565b8152600060203d92013e5b156109a157602060405160008152f35b6314792b9160e01b60005260046000fd5b610991565b639003176360e01b60005260046000fd5b60c081019081106001600160401b038211176106ee57604052565b90601f801991011681019081106001600160401b038211176106ee57604052565b6001600160401b0381116106ee5760051b60200190565b6001600160401b0381116106ee57601f01601f191660200190565b60085481101561088f5760086000526006602060002091020190600090565b90600182811c92168015610a85575b6020831014610a6f57565b634e487b7160e01b600052602260045260246000fd5b91607f1691610a64565b9060405191826000825492610aa384610a55565b8084529360018116908115610b115750600114610aca575b50610ac8925003836109e3565b565b90506000929192526020600020906000915b818310610af5575050906020610ac89282010138610abb565b6020919350806001915483858901015201910190918492610adc565b905060209250610ac894915060ff191682840152151560051b82010138610abb565b919082519283825260005b848110610b5f575050826000602080949584010152601f8019910116010190565b80602080928401015182828601015201610b3e565b6001600160a01b03918216815291166020820152604081019190915260c060608201819052929493909260a092610bad91850190610b33565b9460808401521515910152565b805182101561088f5760209160051b010190565b815181546001600160a01b039182166001600160a01b03199182161783556020840151600184018054919093169116179055604082015160028201556060820151805160038301916001600160401b0382116106ee57610c2e8354610a55565b601f8111610d03575b50602090601f8311600114610c965791806005949260a09694600092610c8b575b50508160011b916000199060031b1c19161790555b6080840151600482015501910151151560ff80198354169116179055565b015190503880610c58565b90601f1983169184600052816000209260005b818110610ceb575092600192859260a098966005989610610cd2575b505050811b019055610c6d565b015160001960f88460031b161c19169055388080610cc5565b92936020600181928786015181550195019301610ca9565b836000526020600020601f840160051c81019160208510610d41575b601f0160051c01905b818110610d355750610c37565b60008155600101610d28565b9091508190610d1f56fea2646970667358221220e5cea9e52265a18fea174df25776dbd91c20c0c0b1e32f7c3c7c36a20a3bdf3c64736f6c634300081b0033",
          "opcodes": "PUSH1 0xA0 DUP1 PUSH1 0x40 MSTORE CALLVALUE PUSH1 0x27 JUMPI PUSH1 0x0 PUSH1 0x4 SSTORE CALLER PUSH1 0x80 MSTORE PUSH2 0xD81 SWAP1 DUP2 PUSH2 0x2D DUP3 CODECOPY PUSH1 0x80 MLOAD DUP2 PUSH2 0x775 ADD MSTORE RETURN JUMPDEST PUSH1 0x0 DUP1 REVERT INVALID PUSH1 0x80 PUSH1 0x40 MSTORE PUSH1 0x4 CALLDATASIZE LT ISZERO PUSH2 0x12 JUMPI PUSH1 0x0 DUP1 REVERT JUMPDEST PUSH1 0x0 CALLDATALOAD PUSH1 0xE0 SHR DUP1 PUSH4 0xD61B519 EQ PUSH2 0x8FA JUMPI DUP1 PUSH4 0x3E1A771D EQ PUSH2 0x704 JUMPI DUP1 PUSH4 0x4CF74358 EQ PUSH2 0x5C5 JUMPI DUP1 PUSH4 0x5977E0F2 EQ PUSH2 0x5A7 JUMPI DUP1 PUSH4 0x664A1AD6 EQ PUSH2 0x599 JUMPI DUP1 PUSH4 0x72630531 EQ PUSH2 0x570 JUMPI DUP1 PUSH4 0x9ACE38C2 EQ PUSH2 0x51B JUMPI DUP1 PUSH4 0xA0E67E2B EQ PUSH2 0x46B JUMPI DUP1 PUSH4 0xB22C36D5 EQ PUSH2 0x44D JUMPI DUP1 PUSH4 0xCCEB68F5 EQ PUSH2 0x2C9 JUMPI DUP1 PUSH4 0xDFA3AA8F EQ PUSH2 0x25D JUMPI DUP1 PUSH4 0xE222A3EE EQ PUSH2 0x1B1 JUMPI PUSH4 0xF4A4F4D2 EQ PUSH2 0xAB JUMPI PUSH1 0x0 DUP1 REVERT JUMPDEST CALLVALUE PUSH2 0x1AC JUMPI PUSH1 0x20 CALLDATASIZE PUSH1 0x3 NOT ADD SLT PUSH2 0x1AC JUMPI PUSH1 0x4 CALLDATALOAD PUSH1 0x8 SLOAD DUP2 LT ISZERO PUSH2 0x19B JUMPI CALLER PUSH1 0x0 MSTORE PUSH1 0x7 PUSH1 0x20 MSTORE PUSH1 0x40 PUSH1 0x0 KECCAK256 DUP2 PUSH1 0x0 MSTORE PUSH1 0x20 MSTORE PUSH1 0xFF PUSH1 0x40 PUSH1 0x0 KECCAK256 SLOAD AND PUSH2 0x18A JUMPI DUP1 PUSH1 0x0 MSTORE PUSH1 0x5 PUSH1 0x20 MSTORE PUSH1 0x40 PUSH1 0x0 KECCAK256 PUSH1 0xFF PUSH1 0x5 DUP3 ADD SLOAD AND PUSH2 0x179 JUMPI PUSH1 0x4 ADD DUP1 SLOAD SWAP1 PUSH1 0x1 DUP3 ADD DUP1 SWAP3 GT PUSH2 0x163 JUMPI SSTORE PUSH1 0x4 PUSH2 0x122 DUP3 PUSH2 0xA36 JUMP JUMPDEST POP ADD DUP1 SLOAD SWAP1 PUSH1 0x1 DUP3 ADD DUP1 SWAP3 GT PUSH2 0x163 JUMPI SSTORE CALLER PUSH1 0x0 MSTORE PUSH1 0x7 PUSH1 0x20 MSTORE PUSH1 0x40 PUSH1 0x0 KECCAK256 SWAP1 PUSH1 0x0 MSTORE PUSH1 0x20 MSTORE PUSH1 0x40 PUSH1 0x0 KECCAK256 PUSH1 0x1 PUSH1 0xFF NOT DUP3 SLOAD AND OR SWAP1 SSTORE PUSH1 0x20 PUSH1 0x40 MLOAD PUSH1 0x0 DUP2 MSTORE RETURN JUMPDEST PUSH4 0x4E487B71 PUSH1 0xE0 SHL PUSH1 0x0 MSTORE PUSH1 0x11 PUSH1 0x4 MSTORE PUSH1 0x24 PUSH1 0x0 REVERT JUMPDEST PUSH4 0x325FFFED PUSH1 0xE2 SHL PUSH1 0x0 MSTORE PUSH1 0x4 PUSH1 0x0 REVERT JUMPDEST PUSH4 0x951CE71 PUSH1 0xE3 SHL PUSH1 0x0 MSTORE PUSH1 0x4 PUSH1 0x0 REVERT JUMPDEST PUSH4 0x5A0719DD PUSH1 0xE0 SHL PUSH1 0x0 MSTORE PUSH1 0x4 PUSH1 0x0 REVERT JUMPDEST PUSH1 0x0 DUP1 REVERT JUMPDEST CALLVALUE PUSH2 0x1AC JUMPI PUSH1 0x20 CALLDATASIZE PUSH1 0x3 NOT ADD SLT PUSH2 0x1AC JUMPI PUSH1 0x4 CALLDATALOAD PUSH1 0x8 SLOAD DUP2 LT ISZERO PUSH2 0x19B JUMPI CALLER PUSH1 0x0 MSTORE PUSH1 0x7 PUSH1 0x20 MSTORE PUSH1 0x40 PUSH1 0x0 KECCAK256 DUP2 PUSH1 0x0 MSTORE PUSH1 0x20 MSTORE PUSH1 0xFF PUSH1 0x40 PUSH1 0x0 KECCAK256 SLOAD AND ISZERO PUSH2 0x24C JUMPI DUP1 PUSH1 0x0 MSTORE PUSH1 0x5 PUSH1 0x20 MSTORE PUSH1 0x40 PUSH1 0x0 KECCAK256 PUSH1 0xFF PUSH1 0x5 DUP3 ADD SLOAD AND PUSH2 0x179 JUMPI PUSH1 0x4 ADD DUP1 SLOAD PUSH1 0x0 NOT DUP2 ADD SWAP2 SWAP1 DUP3 GT PUSH2 0x163 JUMPI SSTORE CALLER PUSH1 0x0 MSTORE PUSH1 0x7 PUSH1 0x20 MSTORE PUSH1 0x40 PUSH1 0x0 KECCAK256 SWAP1 PUSH1 0x0 MSTORE PUSH1 0x20 MSTORE PUSH1 0x40 PUSH1 0x0 KECCAK256 PUSH1 0xFF NOT DUP2 SLOAD AND SWAP1 SSTORE PUSH1 0x20 PUSH1 0x40 MLOAD PUSH1 0x0 DUP2 MSTORE RETURN JUMPDEST PUSH4 0x7C365F47 PUSH1 0xE0 SHL PUSH1 0x0 MSTORE PUSH1 0x4 PUSH1 0x0 REVERT JUMPDEST CALLVALUE PUSH2 0x1AC JUMPI PUSH1 0x20 CALLDATASIZE PUSH1 0x3 NOT ADD SLT PUSH2 0x1AC JUMPI PUSH1 0x4 CALLDATALOAD PUSH1 0x0 MSTORE PUSH1 0x5 PUSH1 0x20 MSTORE PUSH1 0x40 PUSH1 0x0 KECCAK256 PUSH1 0x1 DUP1 PUSH1 0xA0 SHL SUB DUP2 SLOAD AND PUSH2 0x2C5 PUSH1 0x1 DUP1 PUSH1 0xA0 SHL SUB PUSH1 0x1 DUP5 ADD SLOAD AND SWAP3 PUSH1 0x2 DUP2 ADD SLOAD SWAP1 PUSH2 0x2AB PUSH1 0x3 DUP3 ADD PUSH2 0xA8F JUMP JUMPDEST PUSH1 0xFF PUSH1 0x5 PUSH1 0x4 DUP5 ADD SLOAD SWAP4 ADD SLOAD AND SWAP3 PUSH1 0x40 MLOAD SWAP7 DUP8 SWAP7 DUP8 PUSH2 0xB74 JUMP JUMPDEST SUB SWAP1 RETURN JUMPDEST CALLVALUE PUSH2 0x1AC JUMPI PUSH1 0x0 CALLDATASIZE PUSH1 0x3 NOT ADD SLT PUSH2 0x1AC JUMPI PUSH1 0x8 SLOAD PUSH2 0x2E6 DUP2 PUSH2 0xA04 JUMP JUMPDEST SWAP1 PUSH2 0x2F4 PUSH1 0x40 MLOAD SWAP3 DUP4 PUSH2 0x9E3 JUMP JUMPDEST DUP1 DUP3 MSTORE PUSH1 0x8 PUSH1 0x0 SWAP1 DUP2 MSTORE PUSH1 0x20 DUP4 ADD SWAP2 SWAP1 PUSH32 0xF3F7A9FE364FAAB93B216DA50A3214154F22A0A2B415B23A84C8169E8B636EE3 DUP4 JUMPDEST DUP4 DUP4 LT PUSH2 0x3E0 JUMPI DUP5 DUP7 PUSH1 0x40 MLOAD SWAP2 DUP3 SWAP2 PUSH1 0x20 DUP4 ADD SWAP1 PUSH1 0x20 DUP5 MSTORE MLOAD DUP1 SWAP2 MSTORE PUSH1 0x40 DUP4 ADD SWAP1 PUSH1 0x40 DUP2 PUSH1 0x5 SHL DUP6 ADD ADD SWAP3 SWAP2 PUSH1 0x0 SWAP1 JUMPDEST DUP3 DUP3 LT PUSH2 0x366 JUMPI POP POP POP POP SUB SWAP1 RETURN JUMPDEST SWAP2 SWAP4 PUSH1 0x1 SWAP2 SWAP4 SWAP6 POP PUSH1 0x20 DUP1 SWAP2 PUSH1 0x3F NOT DUP10 DUP3 SUB ADD DUP6 MSTORE DUP8 MLOAD SWAP1 DUP5 DUP1 PUSH1 0xA0 SHL SUB DUP3 MLOAD AND DUP2 MSTORE DUP5 DUP1 PUSH1 0xA0 SHL SUB DUP4 DUP4 ADD MLOAD AND DUP4 DUP3 ADD MSTORE PUSH1 0x40 DUP3 ADD MLOAD PUSH1 0x40 DUP3 ADD MSTORE PUSH1 0xA0 DUP1 PUSH2 0x3BE PUSH1 0x60 DUP6 ADD MLOAD PUSH1 0xC0 PUSH1 0x60 DUP7 ADD MSTORE PUSH1 0xC0 DUP6 ADD SWAP1 PUSH2 0xB33 JUMP JUMPDEST SWAP4 PUSH1 0x80 DUP2 ADD MLOAD PUSH1 0x80 DUP6 ADD MSTORE ADD MLOAD ISZERO ISZERO SWAP2 ADD MSTORE SWAP7 ADD SWAP3 ADD SWAP3 ADD DUP6 SWAP5 SWAP4 SWAP2 SWAP3 PUSH2 0x357 JUMP JUMPDEST PUSH1 0x6 PUSH1 0x20 PUSH1 0x1 SWAP3 PUSH1 0x40 MLOAD PUSH2 0x3F3 DUP2 PUSH2 0x9C8 JUMP JUMPDEST DUP6 SLOAD PUSH1 0xA0 DUP7 SWAP1 SHL DUP7 SWAP1 SUB SWAP1 DUP2 AND DUP3 MSTORE DUP7 DUP7 ADD SLOAD AND DUP4 DUP3 ADD MSTORE PUSH1 0x2 DUP7 ADD SLOAD PUSH1 0x40 DUP3 ADD MSTORE PUSH2 0x421 PUSH1 0x3 DUP8 ADD PUSH2 0xA8F JUMP JUMPDEST PUSH1 0x60 DUP3 ADD MSTORE PUSH1 0x4 DUP7 ADD SLOAD PUSH1 0x80 DUP3 ADD MSTORE PUSH1 0xFF PUSH1 0x5 DUP8 ADD SLOAD AND ISZERO ISZERO PUSH1 0xA0 DUP3 ADD MSTORE DUP2 MSTORE ADD SWAP3 ADD SWAP3 ADD SWAP2 SWAP1 PUSH2 0x327 JUMP JUMPDEST CALLVALUE PUSH2 0x1AC JUMPI PUSH1 0x0 CALLDATASIZE PUSH1 0x3 NOT ADD SLT PUSH2 0x1AC JUMPI PUSH1 0x20 PUSH1 0x0 SLOAD PUSH1 0x40 MLOAD SWAP1 DUP2 MSTORE RETURN JUMPDEST CALLVALUE PUSH2 0x1AC JUMPI PUSH1 0x0 CALLDATASIZE PUSH1 0x3 NOT ADD SLT PUSH2 0x1AC JUMPI PUSH1 0x40 MLOAD DUP1 PUSH1 0x20 PUSH1 0x2 SLOAD SWAP3 DUP4 DUP2 MSTORE ADD DUP1 SWAP3 PUSH1 0x2 PUSH1 0x0 MSTORE PUSH1 0x20 PUSH1 0x0 KECCAK256 SWAP1 PUSH1 0x0 JUMPDEST DUP2 DUP2 LT PUSH2 0x4FC JUMPI POP POP POP DUP2 PUSH2 0x4B0 SWAP2 SUB DUP3 PUSH2 0x9E3 JUMP JUMPDEST PUSH1 0x40 MLOAD SWAP2 DUP3 SWAP2 PUSH1 0x20 DUP4 ADD SWAP1 PUSH1 0x20 DUP5 MSTORE MLOAD DUP1 SWAP2 MSTORE PUSH1 0x40 DUP4 ADD SWAP2 SWAP1 PUSH1 0x0 JUMPDEST DUP2 DUP2 LT PUSH2 0x4DA JUMPI POP POP POP SUB SWAP1 RETURN JUMPDEST DUP3 MLOAD PUSH1 0x1 PUSH1 0x1 PUSH1 0xA0 SHL SUB AND DUP5 MSTORE DUP6 SWAP5 POP PUSH1 0x20 SWAP4 DUP5 ADD SWAP4 SWAP1 SWAP3 ADD SWAP2 PUSH1 0x1 ADD PUSH2 0x4CC JUMP JUMPDEST DUP3 SLOAD PUSH1 0x1 PUSH1 0x1 PUSH1 0xA0 SHL SUB AND DUP5 MSTORE PUSH1 0x20 SWAP1 SWAP4 ADD SWAP3 PUSH1 0x1 SWAP3 DUP4 ADD SWAP3 ADD PUSH2 0x49A JUMP JUMPDEST CALLVALUE PUSH2 0x1AC JUMPI PUSH1 0x20 CALLDATASIZE PUSH1 0x3 NOT ADD SLT PUSH2 0x1AC JUMPI PUSH1 0x4 CALLDATALOAD PUSH1 0x8 SLOAD DUP2 LT ISZERO PUSH2 0x1AC JUMPI PUSH2 0x542 SWAP1 PUSH2 0xA36 JUMP JUMPDEST POP DUP1 SLOAD PUSH1 0x1 DUP3 ADD SLOAD PUSH1 0x2 DUP4 ADD SLOAD PUSH1 0x1 PUSH1 0x1 PUSH1 0xA0 SHL SUB SWAP2 DUP3 AND SWAP4 SWAP2 SWAP1 SWAP3 AND SWAP2 PUSH2 0x2C5 SWAP2 PUSH2 0x2AB PUSH1 0x3 DUP3 ADD PUSH2 0xA8F JUMP JUMPDEST CALLVALUE PUSH2 0x1AC JUMPI PUSH1 0x0 CALLDATASIZE PUSH1 0x3 NOT ADD SLT PUSH2 0x1AC JUMPI PUSH1 0x1 SLOAD PUSH1 0x40 MLOAD PUSH1 0x1 PUSH1 0x1 PUSH1 0xA0 SHL SUB SWAP1 SWAP2 AND DUP2 MSTORE PUSH1 0x20 SWAP1 RETURN JUMPDEST PUSH1 0x0 CALLDATASIZE PUSH1 0x3 NOT ADD SLT PUSH2 0x1AC JUMPI STOP JUMPDEST CALLVALUE PUSH2 0x1AC JUMPI PUSH1 0x0 CALLDATASIZE PUSH1 0x3 NOT ADD SLT PUSH2 0x1AC JUMPI PUSH1 0x20 PUSH1 0x4 SLOAD PUSH1 0x40 MLOAD SWAP1 DUP2 MSTORE RETURN JUMPDEST CALLVALUE PUSH2 0x1AC JUMPI PUSH1 0x60 CALLDATASIZE PUSH1 0x3 NOT ADD SLT PUSH2 0x1AC JUMPI PUSH1 0x4 CALLDATALOAD PUSH1 0x1 PUSH1 0x1 PUSH1 0xA0 SHL SUB DUP2 AND SWAP1 DUP2 SWAP1 SUB PUSH2 0x1AC JUMPI PUSH1 0x44 CALLDATALOAD PUSH1 0x1 PUSH1 0x1 PUSH1 0x40 SHL SUB DUP2 GT PUSH2 0x1AC JUMPI CALLDATASIZE PUSH1 0x23 DUP3 ADD SLT ISZERO PUSH2 0x1AC JUMPI DUP1 PUSH1 0x4 ADD CALLDATALOAD PUSH2 0x615 DUP2 PUSH2 0xA1B JUMP JUMPDEST SWAP2 PUSH2 0x623 PUSH1 0x40 MLOAD SWAP4 DUP5 PUSH2 0x9E3 JUMP JUMPDEST DUP2 DUP4 MSTORE CALLDATASIZE PUSH1 0x24 DUP4 DUP4 ADD ADD GT PUSH2 0x1AC JUMPI DUP2 PUSH1 0x0 SWAP3 PUSH1 0x24 PUSH1 0x20 SWAP4 ADD DUP4 DUP7 ADD CALLDATACOPY DUP4 ADD ADD MSTORE PUSH1 0x40 MLOAD SWAP2 PUSH2 0x651 DUP4 PUSH2 0x9C8 JUMP JUMPDEST CALLER DUP4 MSTORE PUSH1 0x20 DUP4 ADD MSTORE PUSH1 0x24 CALLDATALOAD PUSH1 0x40 DUP4 ADD MSTORE PUSH1 0x60 DUP3 ADD MSTORE PUSH1 0x0 PUSH1 0x80 DUP3 ADD DUP2 SWAP1 MSTORE PUSH1 0xA0 DUP3 ADD MSTORE PUSH1 0x8 SLOAD PUSH1 0x1 PUSH1 0x40 SHL DUP2 LT ISZERO PUSH2 0x6EE JUMPI DUP1 PUSH1 0x1 PUSH2 0x693 SWAP3 ADD PUSH1 0x8 SSTORE PUSH2 0xA36 JUMP JUMPDEST SWAP2 SWAP1 SWAP2 PUSH2 0x6D8 JUMPI PUSH2 0x6A7 DUP2 PUSH2 0x6BC SWAP4 PUSH2 0xBCE JUMP JUMPDEST PUSH1 0x4 SLOAD PUSH1 0x0 MSTORE PUSH1 0x5 PUSH1 0x20 MSTORE PUSH1 0x40 PUSH1 0x0 KECCAK256 PUSH2 0xBCE JUMP JUMPDEST PUSH1 0x4 SLOAD PUSH1 0x1 DUP2 ADD DUP1 SWAP2 GT PUSH2 0x163 JUMPI PUSH1 0x4 SSTORE PUSH1 0x20 PUSH1 0x40 MLOAD PUSH1 0x1 DUP2 MSTORE RETURN JUMPDEST PUSH4 0x4E487B71 PUSH1 0xE0 SHL PUSH1 0x0 MSTORE PUSH1 0x0 PUSH1 0x4 MSTORE PUSH1 0x24 PUSH1 0x0 REVERT JUMPDEST PUSH4 0x4E487B71 PUSH1 0xE0 SHL PUSH1 0x0 MSTORE PUSH1 0x41 PUSH1 0x4 MSTORE PUSH1 0x24 PUSH1 0x0 REVERT JUMPDEST CALLVALUE PUSH2 0x1AC JUMPI PUSH1 0x40 CALLDATASIZE PUSH1 0x3 NOT ADD SLT PUSH2 0x1AC JUMPI PUSH1 0x4 CALLDATALOAD PUSH1 0x1 PUSH1 0x1 PUSH1 0x40 SHL SUB DUP2 GT PUSH2 0x1AC JUMPI CALLDATASIZE PUSH1 0x23 DUP3 ADD SLT ISZERO PUSH2 0x1AC JUMPI DUP1 PUSH1 0x4 ADD CALLDATALOAD PUSH2 0x73F DUP2 PUSH2 0xA04 JUMP JUMPDEST SWAP2 PUSH2 0x74D PUSH1 0x40 MLOAD SWAP4 DUP5 PUSH2 0x9E3 JUMP JUMPDEST DUP2 DUP4 MSTORE PUSH1 0x24 PUSH1 0x20 DUP5 ADD SWAP3 PUSH1 0x5 SHL DUP3 ADD ADD SWAP1 CALLDATASIZE DUP3 GT PUSH2 0x1AC JUMPI PUSH1 0x24 ADD SWAP2 JUMPDEST DUP2 DUP4 LT PUSH2 0x8DA JUMPI DUP4 CALLER PUSH32 0x0 PUSH1 0x1 PUSH1 0x1 PUSH1 0xA0 SHL SUB AND SUB PUSH2 0x8C9 JUMPI PUSH1 0x1 DUP2 MLOAD LT PUSH2 0x8B8 JUMPI TIMESTAMP PUSH1 0x0 SWAP1 DUP2 SSTORE PUSH1 0x1 DUP1 SLOAD PUSH1 0x1 PUSH1 0x1 PUSH1 0xA0 SHL SUB NOT AND CALLER OR SWAP1 SSTORE PUSH1 0x24 CALLDATALOAD PUSH1 0x3 SSTORE JUMPDEST DUP2 MLOAD DUP2 LT ISZERO PUSH2 0x8B6 JUMPI PUSH1 0x1 PUSH1 0x1 PUSH1 0xA0 SHL SUB PUSH2 0x7E5 DUP3 DUP5 PUSH2 0xBBA JUMP JUMPDEST MLOAD AND ISZERO PUSH2 0x8A5 JUMPI PUSH1 0x1 PUSH1 0x1 PUSH1 0xA0 SHL SUB PUSH2 0x7FE DUP3 DUP5 PUSH2 0xBBA JUMP JUMPDEST MLOAD PUSH1 0x2 SLOAD SWAP3 SWAP2 AND PUSH1 0x1 PUSH1 0x40 SHL DUP4 LT ISZERO PUSH2 0x6EE JUMPI PUSH1 0x1 DUP4 ADD DUP1 PUSH1 0x2 SSTORE DUP4 LT ISZERO PUSH2 0x88F JUMPI PUSH1 0x2 PUSH1 0x0 MSTORE PUSH32 0x405787FA12A823E0F2B7631CC41B3BA8828B3321CA811111FA75CD3AA3BB5ACE SWAP1 SWAP3 ADD DUP1 SLOAD PUSH1 0x1 PUSH1 0x1 PUSH1 0xA0 SHL SUB NOT AND SWAP1 SWAP3 OR SWAP1 SWAP2 SSTORE PUSH1 0x1 SWAP1 PUSH1 0x1 PUSH1 0x1 PUSH1 0xA0 SHL SUB PUSH2 0x870 DUP3 DUP6 PUSH2 0xBBA JUMP JUMPDEST MLOAD AND PUSH1 0x0 MSTORE PUSH1 0x6 PUSH1 0x20 MSTORE PUSH1 0x40 PUSH1 0x0 KECCAK256 DUP3 PUSH1 0xFF NOT DUP3 SLOAD AND OR SWAP1 SSTORE ADD PUSH2 0x7CA JUMP JUMPDEST PUSH4 0x4E487B71 PUSH1 0xE0 SHL PUSH1 0x0 MSTORE PUSH1 0x32 PUSH1 0x4 MSTORE PUSH1 0x24 PUSH1 0x0 REVERT JUMPDEST PUSH4 0xE7B8EFAF PUSH1 0xE0 SHL PUSH1 0x0 MSTORE PUSH1 0x4 PUSH1 0x0 REVERT JUMPDEST STOP JUMPDEST PUSH4 0x58362F3B PUSH1 0xE1 SHL PUSH1 0x0 MSTORE PUSH1 0x4 PUSH1 0x0 REVERT JUMPDEST PUSH4 0x1B753FDF PUSH1 0xE3 SHL PUSH1 0x0 MSTORE PUSH1 0x4 PUSH1 0x0 REVERT JUMPDEST DUP3 CALLDATALOAD PUSH1 0x1 PUSH1 0x1 PUSH1 0xA0 SHL SUB DUP2 AND DUP2 SUB PUSH2 0x1AC JUMPI DUP2 MSTORE PUSH1 0x20 SWAP3 DUP4 ADD SWAP3 ADD PUSH2 0x76A JUMP JUMPDEST CALLVALUE PUSH2 0x1AC JUMPI PUSH1 0x20 CALLDATASIZE PUSH1 0x3 NOT ADD SLT PUSH2 0x1AC JUMPI PUSH1 0x4 CALLDATALOAD PUSH1 0x8 SLOAD DUP2 LT ISZERO PUSH2 0x19B JUMPI PUSH1 0x0 MSTORE PUSH1 0x5 PUSH1 0x20 MSTORE PUSH1 0x40 PUSH1 0x0 KECCAK256 PUSH1 0x4 DUP2 ADD SLOAD PUSH1 0x3 SLOAD GT PUSH2 0x9B7 JUMPI PUSH1 0x5 DUP2 ADD SWAP1 DUP2 SLOAD SWAP2 PUSH1 0xFF DUP4 AND PUSH2 0x179 JUMPI PUSH1 0x0 DUP1 DUP1 SWAP4 DUP2 SWAP4 PUSH1 0x1 DUP8 PUSH1 0xFF NOT AND OR SWAP1 SSTORE PUSH1 0x2 PUSH1 0x1 DUP1 PUSH1 0xA0 SHL SUB PUSH1 0x1 DUP4 ADD SLOAD AND SWAP2 ADD SLOAD SWAP1 GAS CALL RETURNDATASIZE ISZERO PUSH2 0x9B2 JUMPI RETURNDATASIZE PUSH2 0x978 DUP2 PUSH2 0xA1B JUMP JUMPDEST SWAP1 PUSH2 0x986 PUSH1 0x40 MLOAD SWAP3 DUP4 PUSH2 0x9E3 JUMP JUMPDEST DUP2 MSTORE PUSH1 0x0 PUSH1 0x20 RETURNDATASIZE SWAP3 ADD RETURNDATACOPY JUMPDEST ISZERO PUSH2 0x9A1 JUMPI PUSH1 0x20 PUSH1 0x40 MLOAD PUSH1 0x0 DUP2 MSTORE RETURN JUMPDEST PUSH4 0x14792B91 PUSH1 0xE0 SHL PUSH1 0x0 MSTORE PUSH1 0x4 PUSH1 0x0 REVERT JUMPDEST PUSH2 0x991 JUMP JUMPDEST PUSH4 0x90031763 PUSH1 0xE0 SHL PUSH1 0x0 MSTORE PUSH1 0x4 PUSH1 0x0 REVERT JUMPDEST PUSH1 0xC0 DUP2 ADD SWAP1 DUP2 LT PUSH1 0x1 PUSH1 0x1 PUSH1 0x40 SHL SUB DUP3 GT OR PUSH2 0x6EE JUMPI PUSH1 0x40 MSTORE JUMP JUMPDEST SWAP1 PUSH1 0x1F DUP1 NOT SWAP2 ADD AND DUP2 ADD SWAP1 DUP2 LT PUSH1 0x1 PUSH1 0x1 PUSH1 0x40 SHL SUB DUP3 GT OR PUSH2 0x6EE JUMPI PUSH1 0x40 MSTORE JUMP JUMPDEST PUSH1 0x1 PUSH1 0x1 PUSH1 0x40 SHL SUB DUP2 GT PUSH2 0x6EE JUMPI PUSH1 0x5 SHL PUSH1 0x20 ADD SWAP1 JUMP JUMPDEST PUSH1 0x1 PUSH1 0x1 PUSH1 0x40 SHL SUB DUP2 GT PUSH2 0x6EE JUMPI PUSH1 0x1F ADD PUSH1 0x1F NOT AND PUSH1 0x20 ADD SWAP1 JUMP JUMPDEST PUSH1 0x8 SLOAD DUP2 LT ISZERO PUSH2 0x88F JUMPI PUSH1 0x8 PUSH1 0x0 MSTORE PUSH1 0x6 PUSH1 0x20 PUSH1 0x0 KECCAK256 SWAP2 MUL ADD SWAP1 PUSH1 0x0 SWAP1 JUMP JUMPDEST SWAP1 PUSH1 0x1 DUP3 DUP2 SHR SWAP3 AND DUP1 ISZERO PUSH2 0xA85 JUMPI JUMPDEST PUSH1 0x20 DUP4 LT EQ PUSH2 0xA6F JUMPI JUMP JUMPDEST PUSH4 0x4E487B71 PUSH1 0xE0 SHL PUSH1 0x0 MSTORE PUSH1 0x22 PUSH1 0x4 MSTORE PUSH1 0x24 PUSH1 0x0 REVERT JUMPDEST SWAP2 PUSH1 0x7F AND SWAP2 PUSH2 0xA64 JUMP JUMPDEST SWAP1 PUSH1 0x40 MLOAD SWAP2 DUP3 PUSH1 0x0 DUP3 SLOAD SWAP3 PUSH2 0xAA3 DUP5 PUSH2 0xA55 JUMP JUMPDEST DUP1 DUP5 MSTORE SWAP4 PUSH1 0x1 DUP2 AND SWAP1 DUP2 ISZERO PUSH2 0xB11 JUMPI POP PUSH1 0x1 EQ PUSH2 0xACA JUMPI JUMPDEST POP PUSH2 0xAC8 SWAP3 POP SUB DUP4 PUSH2 0x9E3 JUMP JUMPDEST JUMP JUMPDEST SWAP1 POP PUSH1 0x0 SWAP3 SWAP2 SWAP3 MSTORE PUSH1 0x20 PUSH1 0x0 KECCAK256 SWAP1 PUSH1 0x0 SWAP2 JUMPDEST DUP2 DUP4 LT PUSH2 0xAF5 JUMPI POP POP SWAP1 PUSH1 0x20 PUSH2 0xAC8 SWAP3 DUP3 ADD ADD CODESIZE PUSH2 0xABB JUMP JUMPDEST PUSH1 0x20 SWAP2 SWAP4 POP DUP1 PUSH1 0x1 SWAP2 SLOAD DUP4 DUP6 DUP10 ADD ADD MSTORE ADD SWAP2 ADD SWAP1 SWAP2 DUP5 SWAP3 PUSH2 0xADC JUMP JUMPDEST SWAP1 POP PUSH1 0x20 SWAP3 POP PUSH2 0xAC8 SWAP5 SWAP2 POP PUSH1 0xFF NOT AND DUP3 DUP5 ADD MSTORE ISZERO ISZERO PUSH1 0x5 SHL DUP3 ADD ADD CODESIZE PUSH2 0xABB JUMP JUMPDEST SWAP2 SWAP1 DUP3 MLOAD SWAP3 DUP4 DUP3 MSTORE PUSH1 0x0 JUMPDEST DUP5 DUP2 LT PUSH2 0xB5F JUMPI POP POP DUP3 PUSH1 0x0 PUSH1 0x20 DUP1 SWAP5 SWAP6 DUP5 ADD ADD MSTORE PUSH1 0x1F DUP1 NOT SWAP2 ADD AND ADD ADD SWAP1 JUMP JUMPDEST DUP1 PUSH1 0x20 DUP1 SWAP3 DUP5 ADD ADD MLOAD DUP3 DUP3 DUP7 ADD ADD MSTORE ADD PUSH2 0xB3E JUMP JUMPDEST PUSH1 0x1 PUSH1 0x1 PUSH1 0xA0 SHL SUB SWAP2 DUP3 AND DUP2 MSTORE SWAP2 AND PUSH1 0x20 DUP3 ADD MSTORE PUSH1 0x40 DUP2 ADD SWAP2 SWAP1 SWAP2 MSTORE PUSH1 0xC0 PUSH1 0x60 DUP3 ADD DUP2 SWAP1 MSTORE SWAP3 SWAP5 SWAP4 SWAP1 SWAP3 PUSH1 0xA0 SWAP3 PUSH2 0xBAD SWAP2 DUP6 ADD SWAP1 PUSH2 0xB33 JUMP JUMPDEST SWAP5 PUSH1 0x80 DUP5 ADD MSTORE ISZERO ISZERO SWAP2 ADD MSTORE JUMP JUMPDEST DUP1 MLOAD DUP3 LT ISZERO PUSH2 0x88F JUMPI PUSH1 0x20 SWAP2 PUSH1 0x5 SHL ADD ADD SWAP1 JUMP JUMPDEST DUP2 MLOAD DUP2 SLOAD PUSH1 0x1 PUSH1 0x1 PUSH1 0xA0 SHL SUB SWAP2 DUP3 AND PUSH1 0x1 PUSH1 0x1 PUSH1 0xA0 SHL SUB NOT SWAP2 DUP3 AND OR DUP4 SSTORE PUSH1 0x20 DUP5 ADD MLOAD PUSH1 0x1 DUP5 ADD DUP1 SLOAD SWAP2 SWAP1 SWAP4 AND SWAP2 AND OR SWAP1 SSTORE PUSH1 0x40 DUP3 ADD MLOAD PUSH1 0x2 DUP3 ADD SSTORE PUSH1 0x60 DUP3 ADD MLOAD DUP1 MLOAD PUSH1 0x3 DUP4 ADD SWAP2 PUSH1 0x1 PUSH1 0x1 PUSH1 0x40 SHL SUB DUP3 GT PUSH2 0x6EE JUMPI PUSH2 0xC2E DUP4 SLOAD PUSH2 0xA55 JUMP JUMPDEST PUSH1 0x1F DUP2 GT PUSH2 0xD03 JUMPI JUMPDEST POP PUSH1 0x20 SWAP1 PUSH1 0x1F DUP4 GT PUSH1 0x1 EQ PUSH2 0xC96 JUMPI SWAP2 DUP1 PUSH1 0x5 SWAP5 SWAP3 PUSH1 0xA0 SWAP7 SWAP5 PUSH1 0x0 SWAP3 PUSH2 0xC8B JUMPI JUMPDEST POP POP DUP2 PUSH1 0x1 SHL SWAP2 PUSH1 0x0 NOT SWAP1 PUSH1 0x3 SHL SHR NOT AND OR SWAP1 SSTORE JUMPDEST PUSH1 0x80 DUP5 ADD MLOAD PUSH1 0x4 DUP3 ADD SSTORE ADD SWAP2 ADD MLOAD ISZERO ISZERO PUSH1 0xFF DUP1 NOT DUP4 SLOAD AND SWAP2 AND OR SWAP1 SSTORE JUMP JUMPDEST ADD MLOAD SWAP1 POP CODESIZE DUP1 PUSH2 0xC58 JUMP JUMPDEST SWAP1 PUSH1 0x1F NOT DUP4 AND SWAP2 DUP5 PUSH1 0x0 MSTORE DUP2 PUSH1 0x0 KECCAK256 SWAP3 PUSH1 0x0 JUMPDEST DUP2 DUP2 LT PUSH2 0xCEB JUMPI POP SWAP3 PUSH1 0x1 SWAP3 DUP6 SWAP3 PUSH1 0xA0 SWAP9 SWAP7 PUSH1 0x5 SWAP9 SWAP7 LT PUSH2 0xCD2 JUMPI JUMPDEST POP POP POP DUP2 SHL ADD SWAP1 SSTORE PUSH2 0xC6D JUMP JUMPDEST ADD MLOAD PUSH1 0x0 NOT PUSH1 0xF8 DUP5 PUSH1 0x3 SHL AND SHR NOT AND SWAP1 SSTORE CODESIZE DUP1 DUP1 PUSH2 0xCC5 JUMP JUMPDEST SWAP3 SWAP4 PUSH1 0x20 PUSH1 0x1 DUP2 SWAP3 DUP8 DUP7 ADD MLOAD DUP2 SSTORE ADD SWAP6 ADD SWAP4 ADD PUSH2 0xCA9 JUMP JUMPDEST DUP4 PUSH1 0x0 MSTORE PUSH1 0x20 PUSH1 0x0 KECCAK256 PUSH1 0x1F DUP5 ADD PUSH1 0x5 SHR DUP2 ADD SWAP2 PUSH1 0x20 DUP6 LT PUSH2 0xD41 JUMPI JUMPDEST PUSH1 0x1F ADD PUSH1 0x5 SHR ADD SWAP1 JUMPDEST DUP2 DUP2 LT PUSH2 0xD35 JUMPI POP PUSH2 0xC37 JUMP JUMPDEST PUSH1 0x0 DUP2 SSTORE PUSH1 0x1 ADD PUSH2 0xD28 JUMP JUMPDEST SWAP1 SWAP2 POP DUP2 SWAP1 PUSH2 0xD1F JUMP INVALID LOG2 PUSH5 0x6970667358 0x22 SLT KECCAK256 0xE5 0xCE 0xA9 0xE5 0x22 PUSH6 0xA18FEA174DF2 JUMPI PUSH23 0xDBD91C20C0C0B1E32F7C3C7C36A20A3BDF3C64736F6C63 NUMBER STOP ADDMOD SHL STOP CALLER "
        },
        "methodIdentifiers": {
          "confirmProposal(uint256)": "f4a4f4d2",
          "executeProposal(uint256)": "0d61b519",
          "fundWallet()": "664a1ad6",
          "getAllProposals()": "cceb68f5",
          "getDeployer()": "72630531",
          "getOwners()": "a0e67e2b",
          "getTimeCreated()": "b22c36d5",
          "init(address[],uint256)": "3e1a771d",
          "proposalByIndex(uint256)": "dfa3aa8f",
          "proposalIndex()": "5977e0f2",
          "revokeConfirmedProposal(uint256)": "e222a3ee",
          "submitProposal(address,uint256,string)": "4cf74358",
          "transactions(uint256)": "9ace38c2"
        }
      }
    }
  }
}