{
  "contracts/Time-based-implementation.sol": {
    "MultiplayerGame": {
      "abi": [
        {
          "inputs": [
            {
              "internalType": "address",
              "name": "_gameTokenAddress",
              "type": "address"
            }
          ],
          "stateMutability": "nonpayable",
          "type": "constructor"
        },
        {
          "anonymous": false,
          "inputs": [
            {
              "indexed": false,
              "internalType": "uint256",
              "name": "roomId",
              "type": "uint256"
            },
            {
              "indexed": false,
              "internalType": "address",
              "name": "creator",
              "type": "address"
            },
            {
              "indexed": false,
              "internalType": "uint256",
              "name": "maxNumber",
              "type": "uint256"
            },
            {
              "indexed": false,
              "internalType": "uint256",
              "name": "entryFee",
              "type": "uint256"
            },
            {
              "indexed": false,
              "internalType": "enum MultiplayerGame.GameMode",
              "name": "mode",
              "type": "uint8"
            }
          ],
          "name": "GameRoomCreated",
          "type": "event"
        },
        {
          "anonymous": false,
          "inputs": [
            {
              "indexed": false,
              "internalType": "uint256",
              "name": "_roomId",
              "type": "uint256"
            }
          ],
          "name": "GameStarted",
          "type": "event"
        },
        {
          "anonymous": false,
          "inputs": [
            {
              "indexed": false,
              "internalType": "uint256",
              "name": "roomId",
              "type": "uint256"
            },
            {
              "indexed": false,
              "internalType": "uint256",
              "name": "prizeTransferredToOwner",
              "type": "uint256"
            }
          ],
          "name": "NoWinner",
          "type": "event"
        },
        {
          "anonymous": false,
          "inputs": [
            {
              "indexed": false,
              "internalType": "uint256",
              "name": "roomId",
              "type": "uint256"
            },
            {
              "indexed": false,
              "internalType": "address",
              "name": "player",
              "type": "address"
            }
          ],
          "name": "PlayerEliminated",
          "type": "event"
        },
        {
          "anonymous": false,
          "inputs": [
            {
              "indexed": false,
              "internalType": "uint256",
              "name": "roomId",
              "type": "uint256"
            },
            {
              "indexed": false,
              "internalType": "address",
              "name": "player",
              "type": "address"
            }
          ],
          "name": "PlayerJoined",
          "type": "event"
        },
        {
          "anonymous": false,
          "inputs": [
            {
              "indexed": false,
              "internalType": "uint256",
              "name": "roomId",
              "type": "uint256"
            },
            {
              "indexed": false,
              "internalType": "address",
              "name": "player",
              "type": "address"
            }
          ],
          "name": "TurnSkipped",
          "type": "event"
        },
        {
          "anonymous": false,
          "inputs": [
            {
              "indexed": false,
              "internalType": "uint256",
              "name": "roomId",
              "type": "uint256"
            },
            {
              "indexed": false,
              "internalType": "address",
              "name": "timedOutPlayer",
              "type": "address"
            }
          ],
          "name": "TurnTimedOut",
          "type": "event"
        },
        {
          "anonymous": false,
          "inputs": [
            {
              "indexed": false,
              "internalType": "uint256",
              "name": "roomId",
              "type": "uint256"
            },
            {
              "indexed": false,
              "internalType": "address",
              "name": "winner",
              "type": "address"
            },
            {
              "indexed": false,
              "internalType": "uint256",
              "name": "prize",
              "type": "uint256"
            }
          ],
          "name": "WinnerDeclared",
          "type": "event"
        },
        {
          "inputs": [
            {
              "internalType": "uint256",
              "name": "_roomId",
              "type": "uint256"
            }
          ],
          "name": "checkWinner",
          "outputs": [],
          "stateMutability": "nonpayable",
          "type": "function"
        },
        {
          "inputs": [
            {
              "internalType": "uint256",
              "name": "_maxNumber",
              "type": "uint256"
            },
            {
              "internalType": "uint256",
              "name": "_entryFee",
              "type": "uint256"
            },
            {
              "internalType": "enum MultiplayerGame.GameMode",
              "name": "_mode",
              "type": "uint8"
            },
            {
              "internalType": "uint256",
              "name": "_durationOrRounds",
              "type": "uint256"
            },
            {
              "internalType": "uint256",
              "name": "_turnTimeout",
              "type": "uint256"
            }
          ],
          "name": "createGameRoom",
          "outputs": [],
          "stateMutability": "payable",
          "type": "function"
        },
        {
          "inputs": [
            {
              "internalType": "uint256",
              "name": "_roomId",
              "type": "uint256"
            }
          ],
          "name": "forceAdvance",
          "outputs": [],
          "stateMutability": "nonpayable",
          "type": "function"
        },
        {
          "inputs": [
            {
              "internalType": "uint256",
              "name": "",
              "type": "uint256"
            }
          ],
          "name": "gameRooms",
          "outputs": [
            {
              "internalType": "address",
              "name": "creator",
              "type": "address"
            },
            {
              "internalType": "uint256",
              "name": "gameId",
              "type": "uint256"
            },
            {
              "internalType": "uint256",
              "name": "maxNumber",
              "type": "uint256"
            },
            {
              "internalType": "uint256",
              "name": "entryFee",
              "type": "uint256"
            },
            {
              "internalType": "bool",
              "name": "isActive",
              "type": "bool"
            },
            {
              "internalType": "enum MultiplayerGame.GameStatus",
              "name": "status",
              "type": "uint8"
            },
            {
              "internalType": "enum MultiplayerGame.GameMode",
              "name": "mode",
              "type": "uint8"
            },
            {
              "internalType": "uint256",
              "name": "startTime",
              "type": "uint256"
            },
            {
              "internalType": "uint256",
              "name": "duration",
              "type": "uint256"
            },
            {
              "internalType": "uint256",
              "name": "rounds",
              "type": "uint256"
            },
            {
              "internalType": "uint256",
              "name": "currentRound",
              "type": "uint256"
            },
            {
              "internalType": "uint256",
              "name": "currentPlayerIndex",
              "type": "uint256"
            },
            {
              "internalType": "uint256",
              "name": "lastTurnTimestamp",
              "type": "uint256"
            },
            {
              "internalType": "uint256",
              "name": "turnTimeout",
              "type": "uint256"
            }
          ],
          "stateMutability": "view",
          "type": "function"
        },
        {
          "inputs": [],
          "name": "gameToken",
          "outputs": [
            {
              "internalType": "contract IERC20",
              "name": "",
              "type": "address"
            }
          ],
          "stateMutability": "view",
          "type": "function"
        },
        {
          "inputs": [],
          "name": "getALlGameRooms",
          "outputs": [
            {
              "components": [
                {
                  "internalType": "address",
                  "name": "creator",
                  "type": "address"
                },
                {
                  "internalType": "uint256",
                  "name": "gameId",
                  "type": "uint256"
                },
                {
                  "internalType": "uint256",
                  "name": "maxNumber",
                  "type": "uint256"
                },
                {
                  "internalType": "uint256",
                  "name": "entryFee",
                  "type": "uint256"
                },
                {
                  "internalType": "address[]",
                  "name": "players",
                  "type": "address[]"
                },
                {
                  "internalType": "bool",
                  "name": "isActive",
                  "type": "bool"
                },
                {
                  "internalType": "enum MultiplayerGame.GameStatus",
                  "name": "status",
                  "type": "uint8"
                },
                {
                  "internalType": "enum MultiplayerGame.GameMode",
                  "name": "mode",
                  "type": "uint8"
                },
                {
                  "internalType": "uint256",
                  "name": "startTime",
                  "type": "uint256"
                },
                {
                  "internalType": "uint256",
                  "name": "duration",
                  "type": "uint256"
                },
                {
                  "internalType": "uint256",
                  "name": "rounds",
                  "type": "uint256"
                },
                {
                  "internalType": "uint256",
                  "name": "currentRound",
                  "type": "uint256"
                },
                {
                  "internalType": "uint256",
                  "name": "currentPlayerIndex",
                  "type": "uint256"
                },
                {
                  "internalType": "uint256",
                  "name": "lastTurnTimestamp",
                  "type": "uint256"
                },
                {
                  "internalType": "uint256",
                  "name": "turnTimeout",
                  "type": "uint256"
                }
              ],
              "internalType": "struct MultiplayerGame.GameRoom[]",
              "name": "",
              "type": "tuple[]"
            }
          ],
          "stateMutability": "view",
          "type": "function"
        },
        {
          "inputs": [
            {
              "internalType": "uint256",
              "name": "_gameRoomId",
              "type": "uint256"
            }
          ],
          "name": "getGameRoomById",
          "outputs": [
            {
              "components": [
                {
                  "internalType": "address",
                  "name": "creator",
                  "type": "address"
                },
                {
                  "internalType": "uint256",
                  "name": "gameId",
                  "type": "uint256"
                },
                {
                  "internalType": "uint256",
                  "name": "maxNumber",
                  "type": "uint256"
                },
                {
                  "internalType": "uint256",
                  "name": "entryFee",
                  "type": "uint256"
                },
                {
                  "internalType": "address[]",
                  "name": "players",
                  "type": "address[]"
                },
                {
                  "internalType": "bool",
                  "name": "isActive",
                  "type": "bool"
                },
                {
                  "internalType": "enum MultiplayerGame.GameStatus",
                  "name": "status",
                  "type": "uint8"
                },
                {
                  "internalType": "enum MultiplayerGame.GameMode",
                  "name": "mode",
                  "type": "uint8"
                },
                {
                  "internalType": "uint256",
                  "name": "startTime",
                  "type": "uint256"
                },
                {
                  "internalType": "uint256",
                  "name": "duration",
                  "type": "uint256"
                },
                {
                  "internalType": "uint256",
                  "name": "rounds",
                  "type": "uint256"
                },
                {
                  "internalType": "uint256",
                  "name": "currentRound",
                  "type": "uint256"
                },
                {
                  "internalType": "uint256",
                  "name": "currentPlayerIndex",
                  "type": "uint256"
                },
                {
                  "internalType": "uint256",
                  "name": "lastTurnTimestamp",
                  "type": "uint256"
                },
                {
                  "internalType": "uint256",
                  "name": "turnTimeout",
                  "type": "uint256"
                }
              ],
              "internalType": "struct MultiplayerGame.GameRoom",
              "name": "",
              "type": "tuple"
            }
          ],
          "stateMutability": "view",
          "type": "function"
        },
        {
          "inputs": [
            {
              "internalType": "uint256",
              "name": "_roomId",
              "type": "uint256"
            },
            {
              "internalType": "address",
              "name": "_player",
              "type": "address"
            }
          ],
          "name": "getIsPlayerEliminatedByRoomId",
          "outputs": [
            {
              "internalType": "bool",
              "name": "",
              "type": "bool"
            }
          ],
          "stateMutability": "view",
          "type": "function"
        },
        {
          "inputs": [
            {
              "internalType": "uint256",
              "name": "_roomId",
              "type": "uint256"
            },
            {
              "internalType": "address",
              "name": "_player",
              "type": "address"
            }
          ],
          "name": "getPlayerScoresForEachGameRoom",
          "outputs": [
            {
              "internalType": "uint256",
              "name": "",
              "type": "uint256"
            }
          ],
          "stateMutability": "view",
          "type": "function"
        },
        {
          "inputs": [],
          "name": "getTotalRoomsCreated",
          "outputs": [
            {
              "internalType": "uint256",
              "name": "",
              "type": "uint256"
            }
          ],
          "stateMutability": "view",
          "type": "function"
        },
        {
          "inputs": [
            {
              "internalType": "uint256",
              "name": "",
              "type": "uint256"
            },
            {
              "internalType": "address",
              "name": "",
              "type": "address"
            }
          ],
          "name": "isEliminated",
          "outputs": [
            {
              "internalType": "bool",
              "name": "",
              "type": "bool"
            }
          ],
          "stateMutability": "view",
          "type": "function"
        },
        {
          "inputs": [
            {
              "internalType": "uint256",
              "name": "_roomId",
              "type": "uint256"
            }
          ],
          "name": "joinGameRoom",
          "outputs": [],
          "stateMutability": "payable",
          "type": "function"
        },
        {
          "inputs": [],
          "name": "owner",
          "outputs": [
            {
              "internalType": "address",
              "name": "",
              "type": "address"
            }
          ],
          "stateMutability": "view",
          "type": "function"
        },
        {
          "inputs": [
            {
              "internalType": "uint256",
              "name": "_roomId",
              "type": "uint256"
            }
          ],
          "name": "playTurn",
          "outputs": [
            {
              "internalType": "uint256",
              "name": "",
              "type": "uint256"
            },
            {
              "internalType": "uint256",
              "name": "",
              "type": "uint256"
            }
          ],
          "stateMutability": "nonpayable",
          "type": "function"
        },
        {
          "inputs": [
            {
              "internalType": "uint256",
              "name": "",
              "type": "uint256"
            },
            {
              "internalType": "address",
              "name": "",
              "type": "address"
            }
          ],
          "name": "playerScores",
          "outputs": [
            {
              "internalType": "uint256",
              "name": "",
              "type": "uint256"
            }
          ],
          "stateMutability": "view",
          "type": "function"
        },
        {
          "inputs": [],
          "name": "roomCounter",
          "outputs": [
            {
              "internalType": "uint256",
              "name": "",
              "type": "uint256"
            }
          ],
          "stateMutability": "view",
          "type": "function"
        },
        {
          "inputs": [],
          "name": "skipFee",
          "outputs": [
            {
              "internalType": "uint256",
              "name": "",
              "type": "uint256"
            }
          ],
          "stateMutability": "view",
          "type": "function"
        },
        {
          "inputs": [
            {
              "internalType": "uint256",
              "name": "_roomId",
              "type": "uint256"
            }
          ],
          "name": "skipTurn",
          "outputs": [],
          "stateMutability": "nonpayable",
          "type": "function"
        },
        {
          "inputs": [
            {
              "internalType": "uint256",
              "name": "_roomId",
              "type": "uint256"
            }
          ],
          "name": "startGame",
          "outputs": [],
          "stateMutability": "nonpayable",
          "type": "function"
        }
      ],
      "evm": {
        "bytecode": {
          "linkReferences": {},
          "object": "608034608357601f611abc38819003918201601f19168301916001600160401b03831184841017608857808492602094604052833981010312608357516001600160a01b03811690819003608357600a600255600080546001600160a01b0319908116331790915560018054909116919091179055604051611a1d908161009f8239f35b600080fd5b634e487b7160e01b600052604160045260246000fdfe6080604052600436101561001257600080fd5b60003560e01c8062200e27146103015780630e5a2ebe14610ba75780631885493914610d915780631ab9121514610b605780633dc290d314610d73578063426c464114610c9657806361099b1714610be75780637e32eb9a14610ba75780638da5cb5b14610b7e578063921c45ca14610b605780639fe6315314610a3d578063a0e1746f14610931578063a0fc6cff14610752578063a2796f461461053f578063c3dfdae614610516578063ce371cbd1461033c578063dbed039114610301578063e5ed1d59146102115763eca0a441146100ec57600080fd5b602036600319011261020c576004358060005260036020526040600020600581015460ff8116156101d75760081c60ff1660038110156101c157610130901561186d565b61013f600382015434146117ea565b61014c336004830161182c565b6000198201918083116101ab576101906101a69261018a7f87969bc7faf902221a147b95ceba76e011c5efb0339a0a8ee7a2bb82d9cfbbd6956113da565b906114c0565b6040805191825233602083015290918291820190565b0390a1005b634e487b7160e01b600052601160045260246000fd5b634e487b7160e01b600052602160045260246000fd5b60405162461bcd60e51b815260206004820152600d60248201526c526f6f6d20696e61637469766560981b6044820152606490fd5b600080fd5b3461020c57602036600319011261020c57600435600081815260036020526040902080546001600160a01b031633036102c3576005810160ff815460081c1660038110156101c157610263901561186d565b805461ff0019166101001790554260068201819055600b8201556000198201918083116101ab576102ba60209261018a7f50ad08f58a27f2851d7e3a1b3a6a46b290f2ce677e99642d30ff639721e77790956113da565b604051908152a1005b60405162461bcd60e51b815260206004820152601660248201527513db9b1e4818dc99585d1bdc8818d85b881cdd185c9d60521b6044820152606490fd5b3461020c5761030f3661120e565b90600052600460205260406000209060018060a01b03166000526020526020604060002054604051908152f35b3461020c57602036600319011261020c576004358060005260036020526040600020600581015460ff8160081c169060038210156101c157610382600160ff931461134d565b60101c1660028110156101c1576103c7916103a06103ae921561172f565b6004600a8201549101611390565b90543360039290921b1c6001600160a01b03161461176d565b60008181526005602090815260408083203384529091529020546103ee9060ff16156117a9565b600154600080546002546040516323b872dd60e01b81523360048201526001600160a01b0392831660248201526044810191909152926020928492606492849291165af190811561050a576000916104c8575b501561048b576040805182815233602082015261048992917f78d563416c0d6c2454e9c81222ee1e58f6c3ff4dfcfa798d85d391e57023ecc99190819081015b0390a16118b0565b005b60405162461bcd60e51b8152602060048201526015602482015274151bdad95b881d1c985b9cd9995c8819985a5b1959605a1b6044820152606490fd5b6020813d602011610502575b816104e1602093836115ed565b810103126104fe57519081151582036104fb575082610441565b80fd5b5080fd5b3d91506104d4565b6040513d6000823e3d90fd5b3461020c57600036600319011261020c576001546040516001600160a01b039091168152602090f35b60a036600319011261020c57604435602435600435600283101561020c576064359281156107145782156106d7576105788334146117ea565b6105836006546113be565b6006819055600090815260036020819052604090912080546001600160a01b031916331781556002810184905590810184905560058101805461ffff191660011781556105d190839061149f565b600094826106cd5760088201555b6001600982015584600a820155608435600c82015584600b820155610607336004830161182c565b600754600160401b8110156106b9576106b39361069c7f87969bc7faf902221a147b95ceba76e011c5efb0339a0a8ee7a2bb82d9cfbbd696946106777fe46206ee37763f491432fdb2213a587a271991a7df76de6ef1fc9589b46d8dfb9561018a86600160a098016007556113da565b6006549560405193878552336020860152604085015260608401526080830190611241565ba16040805191825233602083015290918291820190565b0390a180f35b634e487b7160e01b86526041600452602486fd5b60078201556105df565b60405162461bcd60e51b81526020600482015260156024820152740456e74727920666565206d757374206265203e203605c1b6044820152606490fd5b60405162461bcd60e51b815260206004820152601660248201527504d6178206e756d626572206d757374206265203e20360541b6044820152606490fd5b3461020c57602036600319011261020c576004358060005260036020526040600020600581015460ff8160081c169060038210156101c157610798600160ff931461134d565b60101c1660028110156101c1576107af901561172f565b6107f8600a8201546107c76103ae8260048601611390565b60008481526005602090815260408083203384529091529020546107ee9060ff16156117a9565b60098301546113cd565b9060646040516020810190610822816108148733444288611998565b03601f1981018352826115ed565b5190200691600183018093116101ab57600181018091116101ab5760649060405161085881610814602082019433444288611998565b5190200690600182018092116101ab576040936108c89161087984866113cd565b60008381526004602090815288822033835290528790208054909161089d916113cd565b905560008281526004602090815287822033835290528690205460029190910154106108d4576118b0565b82519182526020820152f35b6000818152600560209081528682203380845290825291879020805460ff191660011790558651838152908101919091527f638a014c19f58a705adfdf3c8350f6eecbcab57edc63f1112fef5828840730eb908060408101610481565b3461020c57600036600319011261020c5760075467ffffffffffffffff8111610a27576040519061096860208260051b01836115ed565b808252600760009081526020830191907fa66cc928b5edb82af9bd49922954155ab7b0942694bea4ce44661d9a8736c688835b838310610a0957848660405191829160208301906020845251809152604083019060408160051b85010192916000905b8282106109da57505050500390f35b919360019193955060206109f98192603f198a8203018652885161124e565b96019201920185949391926109cb565b600d6020600192610a198561160f565b81520192019201919061099b565b634e487b7160e01b600052604160045260246000fd5b3461020c57602036600319011261020c5760043580600052600360205260406000209060ff600583015460081c1660038110156101c1576001610a80911461134d565b610a93600b830154600c840154906113cd565b421115610b22577e32e633d34e1ad18fdfb5054de555825496a862d3dbb13071d8b6d213bb9d71610481610ad2846004600a6104899701549101611390565b9054600085815260056020908152604080832060039590951b9390931c6001600160a01b031680835293815290829020805460ff1916600117905581518681529081019290925290918291820190565b60405162461bcd60e51b8152602060048201526016602482015275151d5c9b881b9bdd081d1a5b5959081bdd5d081e595d60521b6044820152606490fd5b3461020c57600036600319011261020c576020600654604051908152f35b3461020c57600036600319011261020c576000546040516001600160a01b039091168152602090f35b3461020c57610bb53661120e565b90600052600560205260406000209060018060a01b0316600052602052602060ff604060002054166040519015158152f35b3461020c57602036600319011261020c5760006101c0604051610c09816115d0565b828152826020820152826040820152826060820152606060808201528260a08201528260c08201528260e08201528261010082015282610120820152826101408201528261016082015282610180820152826101a082015201526004356000526003602052610c92610c7e604060002061160f565b60405191829160208352602083019061124e565b0390f35b3461020c57602036600319011261020c5760043560005260036020526101c0604060002060018060a01b03815416906001810154906002810154600382015460058301546006840154600785015490610d48600887015493600988015495600a89015497600c600b8b01549a01549a6040519c8d5260208d015260408c015260608b015260ff8116151560808b0152610d3860a08b0160ff8360081c16611234565b60ff60c08b019160101c16611241565b60e08801526101008701526101208601526101408501526101608401526101808301526101a0820152f35b3461020c57600036600319011261020c576020600254604051908152f35b3461020c57602036600319011261020c57600435806000526003602052604060002060058101805460ff8160081c1660038110156101c1576001610dd5911461134d565b600090816000199181908293600488018054955b868110611100575050506003870154938481029481860414901517156101ab5760101c60ff1660028110156101c157610f625750600181148015610f51575b15610eb057508060008115610ea7575b6000918291829182916001600160a01b03881690f11561050a57604080518681526001600160a01b039390931660208401528201526000805160206119c883398151915290606090a15b805461ffff191661020017905560001982019182116101ab5761018a610489926113da565b506108fc610e38565b909150610f135760008080808460018060a01b03825416828215610f0a575bf11561050a5760407f66a8c5b89438eb03696fbf4fae05d99dcfa81867a18c352b258b5de0aea1c246918151908682526020820152a1610e82565b506108fc610ecf565b60405162461bcd60e51b815260206004820152601660248201527511d85b59481b9bdd081e595d0818dbdb98db1d59195960521b6044820152606490fd5b506009850154600886015410610e28565b90610f7660068701546007880154906113cd565b42106110bb5760018103610feb5750508060008115610fe2575b6000918291829182916001600160a01b03881690f11561050a57604080518681526001600160a01b0390931660208401528201526000805160206119c88339815191529080606081015b0390a1610e82565b506108fc610f90565b909250600181111561104f57508060008115610fe2576000918291829182916001600160a01b03881690f11561050a57604080518681526001600160a01b0390931660208401528201526000805160206119c8833981519152908060608101610fda565b9091501561105e575b50610e82565b60008080808460018060a01b038254168282156110b2575bf11561050a5760407f66a8c5b89438eb03696fbf4fae05d99dcfa81867a18c352b258b5de0aea1c246918151908682526020820152a183611058565b506108fc611076565b60405162461bcd60e51b815260206004820152601b60248201527f47616d65206475726174696f6e206e6f742079657420656e64656400000000006044820152606490fd5b8a600052600560205260ff60408060002061111b8486611390565b905460039190911b1c6001600160a01b0316600090815260209190915220541615611149575b600101610de9565b965093611155906113be565b936111608782611390565b60018060a01b0391549060031b1c16968a60005260046020528260408060002061118a8486611390565b905460039190911b1c6001600160a01b031660009081526020919091522054101561114157935090508860005260046020526040806000206111cc8584611390565b905460039190911b1c6001600160a01b0316600090815260209190915220549060016111f88583611390565b828060a01b0391549060031b1c16949050611141565b604090600319011261020c57600435906024356001600160a01b038116810361020c5790565b9060038210156101c15752565b9060028210156101c15752565b906101e081019160018060a01b0381511682526020810151602083015260408101516040830152606081015160608301526080810151926101e0608084015283518091526020610200840194019060005b81811061132e575050506101c08160a082930151151560a08501526112cc60c082015160c0860190611234565b6112de60e082015160e0860190611241565b6101008101516101008501526101208101516101208501526101408101516101408501526101608101516101608501526101808101516101808501526101a08101516101a0850152015191015290565b82516001600160a01b031686526020958601959092019160010161129f565b1561135457565b60405162461bcd60e51b815260206004820152601460248201527347616d65206e6f7420696e2070726f677265737360601b6044820152606490fd5b80548210156113a85760005260206000200190600090565b634e487b7160e01b600052603260045260246000fd5b60001981146101ab5760010190565b919082018092116101ab57565b6007548110156113a8576007600052600d602060002091020190600090565b81811461149b5781549167ffffffffffffffff8311610a2757600160401b8311610a27578154838355808410611472575b5060005260206000209060005260206000208154916000925b848410611451575050505050565b600191820180546001600160a01b0390921684860155939091019290611443565b8260005283602060002091820191015b81811061148f575061142a565b60008155600101611482565b5050565b9060028110156101c15762ff000082549160101b169062ff00001916179055565b91906115ba578082036114d1575050565b805482546001600160a01b0319166001600160a01b039190911617825560018181015490830155600280820154908301556003808201549083015561151c60048083019084016113f9565b6005820190600581019060ff825416151560ff80198554169116178355815491600360ff8460081c1610156101c1578360ff61157792600c969561ff00808998549285191616169061ff0019161783555460101c169061149f565b60068101546006850155600781015460078501556008810154600885015560098101546009850155600a810154600a850155600b810154600b8501550154910155565b634e487b7160e01b600052600060045260246000fd5b6101e0810190811067ffffffffffffffff821117610a2757604052565b90601f8019910116810190811067ffffffffffffffff821117610a2757604052565b9060405161161c816115d0565b809260018060a01b038154168252600181015460208301526002810154604083015260038101546060830152600481016040518082602082945493848152019060005260206000209260005b81811061170d57505061167d925003826115ed565b6080830152600581015460ff8116151560a084015260ff8160081c169060038210156101c15760ff9160c085015260101c1660028110156101c1576101c091600c9160e08501526006810154610100850152600781015461012085015260088101546101408501526009810154610160850152600a810154610180850152600b8101546101a08501520154910152565b84546001600160a01b0316835260019485019486945060209093019201611668565b1561173657565b60405162461bcd60e51b815260206004820152600f60248201526e4e6f7420726f756e6473206d6f646560881b6044820152606490fd5b1561177457565b60405162461bcd60e51b815260206004820152600d60248201526c2737ba103cb7bab9103a3ab93760991b6044820152606490fd5b156117b057565b60405162461bcd60e51b8152602060048201526012602482015271165bdd48185c9948195b1a5b5a5b985d195960721b6044820152606490fd5b156117f157565b60405162461bcd60e51b8152602060048201526013602482015272496e636f727265637420656e7472792066656560681b6044820152606490fd5b8054600160401b811015610a275761184991600182018155611390565b81546001600160a01b0393841660039290921b91821b9390911b1916919091179055565b1561187457565b60405162461bcd60e51b815260206004820152601460248201527311d85b5948185b1c9958591e481cdd185c9d195960621b6044820152606490fd5b80600052600360205260406000209060048201918254600a82019283549442600b8501556001918315925b1561194f575b600086546001810180911161193b578461192757858991068089558015611912575b036118db575050505050505050565b6009880161192081546113be565b9055611903565b634e487b7160e01b82526012600452602482fd5b634e487b7160e01b82526011600452602482fd5b80600052600560205260ff60408060002061196b895486611390565b905460039190911b1c6001600160a01b031660009081526020919091522054166118e15750505050505050565b92909160749492845260208401526bffffffffffffffffffffffff199060601b1660408301526054820152019056fe7ed5face07afb2b0e99df53523951350d2a3d4f5d105a0dd2110703efe399537a264697066735822122002a529216440a19dd6fb166dd23f0b816409ff8e1fb73c9c9037282513019ec364736f6c634300081b0033",
          "opcodes": "PUSH1 0x80 CALLVALUE PUSH1 0x83 JUMPI PUSH1 0x1F PUSH2 0x1ABC CODESIZE DUP2 SWAP1 SUB SWAP2 DUP3 ADD PUSH1 0x1F NOT AND DUP4 ADD SWAP2 PUSH1 0x1 PUSH1 0x1 PUSH1 0x40 SHL SUB DUP4 GT DUP5 DUP5 LT OR PUSH1 0x88 JUMPI DUP1 DUP5 SWAP3 PUSH1 0x20 SWAP5 PUSH1 0x40 MSTORE DUP4 CODECOPY DUP2 ADD SUB SLT PUSH1 0x83 JUMPI MLOAD PUSH1 0x1 PUSH1 0x1 PUSH1 0xA0 SHL SUB DUP2 AND SWAP1 DUP2 SWAP1 SUB PUSH1 0x83 JUMPI PUSH1 0xA PUSH1 0x2 SSTORE PUSH1 0x0 DUP1 SLOAD PUSH1 0x1 PUSH1 0x1 PUSH1 0xA0 SHL SUB NOT SWAP1 DUP2 AND CALLER OR SWAP1 SWAP2 SSTORE PUSH1 0x1 DUP1 SLOAD SWAP1 SWAP2 AND SWAP2 SWAP1 SWAP2 OR SWAP1 SSTORE PUSH1 0x40 MLOAD PUSH2 0x1A1D SWAP1 DUP2 PUSH2 0x9F DUP3 CODECOPY RETURN JUMPDEST PUSH1 0x0 DUP1 REVERT JUMPDEST PUSH4 0x4E487B71 PUSH1 0xE0 SHL PUSH1 0x0 MSTORE PUSH1 0x41 PUSH1 0x4 MSTORE PUSH1 0x24 PUSH1 0x0 REVERT INVALID PUSH1 0x80 PUSH1 0x40 MSTORE PUSH1 0x4 CALLDATASIZE LT ISZERO PUSH2 0x12 JUMPI PUSH1 0x0 DUP1 REVERT JUMPDEST PUSH1 0x0 CALLDATALOAD PUSH1 0xE0 SHR DUP1 PUSH3 0x200E27 EQ PUSH2 0x301 JUMPI DUP1 PUSH4 0xE5A2EBE EQ PUSH2 0xBA7 JUMPI DUP1 PUSH4 0x18854939 EQ PUSH2 0xD91 JUMPI DUP1 PUSH4 0x1AB91215 EQ PUSH2 0xB60 JUMPI DUP1 PUSH4 0x3DC290D3 EQ PUSH2 0xD73 JUMPI DUP1 PUSH4 0x426C4641 EQ PUSH2 0xC96 JUMPI DUP1 PUSH4 0x61099B17 EQ PUSH2 0xBE7 JUMPI DUP1 PUSH4 0x7E32EB9A EQ PUSH2 0xBA7 JUMPI DUP1 PUSH4 0x8DA5CB5B EQ PUSH2 0xB7E JUMPI DUP1 PUSH4 0x921C45CA EQ PUSH2 0xB60 JUMPI DUP1 PUSH4 0x9FE63153 EQ PUSH2 0xA3D JUMPI DUP1 PUSH4 0xA0E1746F EQ PUSH2 0x931 JUMPI DUP1 PUSH4 0xA0FC6CFF EQ PUSH2 0x752 JUMPI DUP1 PUSH4 0xA2796F46 EQ PUSH2 0x53F JUMPI DUP1 PUSH4 0xC3DFDAE6 EQ PUSH2 0x516 JUMPI DUP1 PUSH4 0xCE371CBD EQ PUSH2 0x33C JUMPI DUP1 PUSH4 0xDBED0391 EQ PUSH2 0x301 JUMPI DUP1 PUSH4 0xE5ED1D59 EQ PUSH2 0x211 JUMPI PUSH4 0xECA0A441 EQ PUSH2 0xEC JUMPI PUSH1 0x0 DUP1 REVERT JUMPDEST PUSH1 0x20 CALLDATASIZE PUSH1 0x3 NOT ADD SLT PUSH2 0x20C JUMPI PUSH1 0x4 CALLDATALOAD DUP1 PUSH1 0x0 MSTORE PUSH1 0x3 PUSH1 0x20 MSTORE PUSH1 0x40 PUSH1 0x0 KECCAK256 PUSH1 0x5 DUP2 ADD SLOAD PUSH1 0xFF DUP2 AND ISZERO PUSH2 0x1D7 JUMPI PUSH1 0x8 SHR PUSH1 0xFF AND PUSH1 0x3 DUP2 LT ISZERO PUSH2 0x1C1 JUMPI PUSH2 0x130 SWAP1 ISZERO PUSH2 0x186D JUMP JUMPDEST PUSH2 0x13F PUSH1 0x3 DUP3 ADD SLOAD CALLVALUE EQ PUSH2 0x17EA JUMP JUMPDEST PUSH2 0x14C CALLER PUSH1 0x4 DUP4 ADD PUSH2 0x182C JUMP JUMPDEST PUSH1 0x0 NOT DUP3 ADD SWAP2 DUP1 DUP4 GT PUSH2 0x1AB JUMPI PUSH2 0x190 PUSH2 0x1A6 SWAP3 PUSH2 0x18A PUSH32 0x87969BC7FAF902221A147B95CEBA76E011C5EFB0339A0A8EE7A2BB82D9CFBBD6 SWAP6 PUSH2 0x13DA JUMP JUMPDEST SWAP1 PUSH2 0x14C0 JUMP JUMPDEST PUSH1 0x40 DUP1 MLOAD SWAP2 DUP3 MSTORE CALLER PUSH1 0x20 DUP4 ADD MSTORE SWAP1 SWAP2 DUP3 SWAP2 DUP3 ADD SWAP1 JUMP JUMPDEST SUB SWAP1 LOG1 STOP JUMPDEST PUSH4 0x4E487B71 PUSH1 0xE0 SHL PUSH1 0x0 MSTORE PUSH1 0x11 PUSH1 0x4 MSTORE PUSH1 0x24 PUSH1 0x0 REVERT JUMPDEST PUSH4 0x4E487B71 PUSH1 0xE0 SHL PUSH1 0x0 MSTORE PUSH1 0x21 PUSH1 0x4 MSTORE PUSH1 0x24 PUSH1 0x0 REVERT JUMPDEST PUSH1 0x40 MLOAD PUSH3 0x461BCD PUSH1 0xE5 SHL DUP2 MSTORE PUSH1 0x20 PUSH1 0x4 DUP3 ADD MSTORE PUSH1 0xD PUSH1 0x24 DUP3 ADD MSTORE PUSH13 0x526F6F6D20696E616374697665 PUSH1 0x98 SHL PUSH1 0x44 DUP3 ADD MSTORE PUSH1 0x64 SWAP1 REVERT JUMPDEST PUSH1 0x0 DUP1 REVERT JUMPDEST CALLVALUE PUSH2 0x20C JUMPI PUSH1 0x20 CALLDATASIZE PUSH1 0x3 NOT ADD SLT PUSH2 0x20C JUMPI PUSH1 0x4 CALLDATALOAD PUSH1 0x0 DUP2 DUP2 MSTORE PUSH1 0x3 PUSH1 0x20 MSTORE PUSH1 0x40 SWAP1 KECCAK256 DUP1 SLOAD PUSH1 0x1 PUSH1 0x1 PUSH1 0xA0 SHL SUB AND CALLER SUB PUSH2 0x2C3 JUMPI PUSH1 0x5 DUP2 ADD PUSH1 0xFF DUP2 SLOAD PUSH1 0x8 SHR AND PUSH1 0x3 DUP2 LT ISZERO PUSH2 0x1C1 JUMPI PUSH2 0x263 SWAP1 ISZERO PUSH2 0x186D JUMP JUMPDEST DUP1 SLOAD PUSH2 0xFF00 NOT AND PUSH2 0x100 OR SWAP1 SSTORE TIMESTAMP PUSH1 0x6 DUP3 ADD DUP2 SWAP1 SSTORE PUSH1 0xB DUP3 ADD SSTORE PUSH1 0x0 NOT DUP3 ADD SWAP2 DUP1 DUP4 GT PUSH2 0x1AB JUMPI PUSH2 0x2BA PUSH1 0x20 SWAP3 PUSH2 0x18A PUSH32 0x50AD08F58A27F2851D7E3A1B3A6A46B290F2CE677E99642D30FF639721E77790 SWAP6 PUSH2 0x13DA JUMP JUMPDEST PUSH1 0x40 MLOAD SWAP1 DUP2 MSTORE LOG1 STOP JUMPDEST PUSH1 0x40 MLOAD PUSH3 0x461BCD PUSH1 0xE5 SHL DUP2 MSTORE PUSH1 0x20 PUSH1 0x4 DUP3 ADD MSTORE PUSH1 0x16 PUSH1 0x24 DUP3 ADD MSTORE PUSH22 0x13DB9B1E4818DC99585D1BDC8818D85B881CDD185C9D PUSH1 0x52 SHL PUSH1 0x44 DUP3 ADD MSTORE PUSH1 0x64 SWAP1 REVERT JUMPDEST CALLVALUE PUSH2 0x20C JUMPI PUSH2 0x30F CALLDATASIZE PUSH2 0x120E JUMP JUMPDEST SWAP1 PUSH1 0x0 MSTORE PUSH1 0x4 PUSH1 0x20 MSTORE PUSH1 0x40 PUSH1 0x0 KECCAK256 SWAP1 PUSH1 0x1 DUP1 PUSH1 0xA0 SHL SUB AND PUSH1 0x0 MSTORE PUSH1 0x20 MSTORE PUSH1 0x20 PUSH1 0x40 PUSH1 0x0 KECCAK256 SLOAD PUSH1 0x40 MLOAD SWAP1 DUP2 MSTORE RETURN JUMPDEST CALLVALUE PUSH2 0x20C JUMPI PUSH1 0x20 CALLDATASIZE PUSH1 0x3 NOT ADD SLT PUSH2 0x20C JUMPI PUSH1 0x4 CALLDATALOAD DUP1 PUSH1 0x0 MSTORE PUSH1 0x3 PUSH1 0x20 MSTORE PUSH1 0x40 PUSH1 0x0 KECCAK256 PUSH1 0x5 DUP2 ADD SLOAD PUSH1 0xFF DUP2 PUSH1 0x8 SHR AND SWAP1 PUSH1 0x3 DUP3 LT ISZERO PUSH2 0x1C1 JUMPI PUSH2 0x382 PUSH1 0x1 PUSH1 0xFF SWAP4 EQ PUSH2 0x134D JUMP JUMPDEST PUSH1 0x10 SHR AND PUSH1 0x2 DUP2 LT ISZERO PUSH2 0x1C1 JUMPI PUSH2 0x3C7 SWAP2 PUSH2 0x3A0 PUSH2 0x3AE SWAP3 ISZERO PUSH2 0x172F JUMP JUMPDEST PUSH1 0x4 PUSH1 0xA DUP3 ADD SLOAD SWAP2 ADD PUSH2 0x1390 JUMP JUMPDEST SWAP1 SLOAD CALLER PUSH1 0x3 SWAP3 SWAP1 SWAP3 SHL SHR PUSH1 0x1 PUSH1 0x1 PUSH1 0xA0 SHL SUB AND EQ PUSH2 0x176D JUMP JUMPDEST PUSH1 0x0 DUP2 DUP2 MSTORE PUSH1 0x5 PUSH1 0x20 SWAP1 DUP2 MSTORE PUSH1 0x40 DUP1 DUP4 KECCAK256 CALLER DUP5 MSTORE SWAP1 SWAP2 MSTORE SWAP1 KECCAK256 SLOAD PUSH2 0x3EE SWAP1 PUSH1 0xFF AND ISZERO PUSH2 0x17A9 JUMP JUMPDEST PUSH1 0x1 SLOAD PUSH1 0x0 DUP1 SLOAD PUSH1 0x2 SLOAD PUSH1 0x40 MLOAD PUSH4 0x23B872DD PUSH1 0xE0 SHL DUP2 MSTORE CALLER PUSH1 0x4 DUP3 ADD MSTORE PUSH1 0x1 PUSH1 0x1 PUSH1 0xA0 SHL SUB SWAP3 DUP4 AND PUSH1 0x24 DUP3 ADD MSTORE PUSH1 0x44 DUP2 ADD SWAP2 SWAP1 SWAP2 MSTORE SWAP3 PUSH1 0x20 SWAP3 DUP5 SWAP3 PUSH1 0x64 SWAP3 DUP5 SWAP3 SWAP2 AND GAS CALL SWAP1 DUP2 ISZERO PUSH2 0x50A JUMPI PUSH1 0x0 SWAP2 PUSH2 0x4C8 JUMPI JUMPDEST POP ISZERO PUSH2 0x48B JUMPI PUSH1 0x40 DUP1 MLOAD DUP3 DUP2 MSTORE CALLER PUSH1 0x20 DUP3 ADD MSTORE PUSH2 0x489 SWAP3 SWAP2 PUSH32 0x78D563416C0D6C2454E9C81222EE1E58F6C3FF4DFCFA798D85D391E57023ECC9 SWAP2 SWAP1 DUP2 SWAP1 DUP2 ADD JUMPDEST SUB SWAP1 LOG1 PUSH2 0x18B0 JUMP JUMPDEST STOP JUMPDEST PUSH1 0x40 MLOAD PUSH3 0x461BCD PUSH1 0xE5 SHL DUP2 MSTORE PUSH1 0x20 PUSH1 0x4 DUP3 ADD MSTORE PUSH1 0x15 PUSH1 0x24 DUP3 ADD MSTORE PUSH21 0x151BDAD95B881D1C985B9CD9995C8819985A5B1959 PUSH1 0x5A SHL PUSH1 0x44 DUP3 ADD MSTORE PUSH1 0x64 SWAP1 REVERT JUMPDEST PUSH1 0x20 DUP2 RETURNDATASIZE PUSH1 0x20 GT PUSH2 0x502 JUMPI JUMPDEST DUP2 PUSH2 0x4E1 PUSH1 0x20 SWAP4 DUP4 PUSH2 0x15ED JUMP JUMPDEST DUP2 ADD SUB SLT PUSH2 0x4FE JUMPI MLOAD SWAP1 DUP2 ISZERO ISZERO DUP3 SUB PUSH2 0x4FB JUMPI POP DUP3 PUSH2 0x441 JUMP JUMPDEST DUP1 REVERT JUMPDEST POP DUP1 REVERT JUMPDEST RETURNDATASIZE SWAP2 POP PUSH2 0x4D4 JUMP JUMPDEST PUSH1 0x40 MLOAD RETURNDATASIZE PUSH1 0x0 DUP3 RETURNDATACOPY RETURNDATASIZE SWAP1 REVERT JUMPDEST CALLVALUE PUSH2 0x20C JUMPI PUSH1 0x0 CALLDATASIZE PUSH1 0x3 NOT ADD SLT PUSH2 0x20C JUMPI PUSH1 0x1 SLOAD PUSH1 0x40 MLOAD PUSH1 0x1 PUSH1 0x1 PUSH1 0xA0 SHL SUB SWAP1 SWAP2 AND DUP2 MSTORE PUSH1 0x20 SWAP1 RETURN JUMPDEST PUSH1 0xA0 CALLDATASIZE PUSH1 0x3 NOT ADD SLT PUSH2 0x20C JUMPI PUSH1 0x44 CALLDATALOAD PUSH1 0x24 CALLDATALOAD PUSH1 0x4 CALLDATALOAD PUSH1 0x2 DUP4 LT ISZERO PUSH2 0x20C JUMPI PUSH1 0x64 CALLDATALOAD SWAP3 DUP2 ISZERO PUSH2 0x714 JUMPI DUP3 ISZERO PUSH2 0x6D7 JUMPI PUSH2 0x578 DUP4 CALLVALUE EQ PUSH2 0x17EA JUMP JUMPDEST PUSH2 0x583 PUSH1 0x6 SLOAD PUSH2 0x13BE JUMP JUMPDEST PUSH1 0x6 DUP2 SWAP1 SSTORE PUSH1 0x0 SWAP1 DUP2 MSTORE PUSH1 0x3 PUSH1 0x20 DUP2 SWAP1 MSTORE PUSH1 0x40 SWAP1 SWAP2 KECCAK256 DUP1 SLOAD PUSH1 0x1 PUSH1 0x1 PUSH1 0xA0 SHL SUB NOT AND CALLER OR DUP2 SSTORE PUSH1 0x2 DUP2 ADD DUP5 SWAP1 SSTORE SWAP1 DUP2 ADD DUP5 SWAP1 SSTORE PUSH1 0x5 DUP2 ADD DUP1 SLOAD PUSH2 0xFFFF NOT AND PUSH1 0x1 OR DUP2 SSTORE PUSH2 0x5D1 SWAP1 DUP4 SWAP1 PUSH2 0x149F JUMP JUMPDEST PUSH1 0x0 SWAP5 DUP3 PUSH2 0x6CD JUMPI PUSH1 0x8 DUP3 ADD SSTORE JUMPDEST PUSH1 0x1 PUSH1 0x9 DUP3 ADD SSTORE DUP5 PUSH1 0xA DUP3 ADD SSTORE PUSH1 0x84 CALLDATALOAD PUSH1 0xC DUP3 ADD SSTORE DUP5 PUSH1 0xB DUP3 ADD SSTORE PUSH2 0x607 CALLER PUSH1 0x4 DUP4 ADD PUSH2 0x182C JUMP JUMPDEST PUSH1 0x7 SLOAD PUSH1 0x1 PUSH1 0x40 SHL DUP2 LT ISZERO PUSH2 0x6B9 JUMPI PUSH2 0x6B3 SWAP4 PUSH2 0x69C PUSH32 0x87969BC7FAF902221A147B95CEBA76E011C5EFB0339A0A8EE7A2BB82D9CFBBD6 SWAP7 SWAP5 PUSH2 0x677 PUSH32 0xE46206EE37763F491432FDB2213A587A271991A7DF76DE6EF1FC9589B46D8DFB SWAP6 PUSH2 0x18A DUP7 PUSH1 0x1 PUSH1 0xA0 SWAP9 ADD PUSH1 0x7 SSTORE PUSH2 0x13DA JUMP JUMPDEST PUSH1 0x6 SLOAD SWAP6 PUSH1 0x40 MLOAD SWAP4 DUP8 DUP6 MSTORE CALLER PUSH1 0x20 DUP7 ADD MSTORE PUSH1 0x40 DUP6 ADD MSTORE PUSH1 0x60 DUP5 ADD MSTORE PUSH1 0x80 DUP4 ADD SWAP1 PUSH2 0x1241 JUMP JUMPDEST LOG1 PUSH1 0x40 DUP1 MLOAD SWAP2 DUP3 MSTORE CALLER PUSH1 0x20 DUP4 ADD MSTORE SWAP1 SWAP2 DUP3 SWAP2 DUP3 ADD SWAP1 JUMP JUMPDEST SUB SWAP1 LOG1 DUP1 RETURN JUMPDEST PUSH4 0x4E487B71 PUSH1 0xE0 SHL DUP7 MSTORE PUSH1 0x41 PUSH1 0x4 MSTORE PUSH1 0x24 DUP7 REVERT JUMPDEST PUSH1 0x7 DUP3 ADD SSTORE PUSH2 0x5DF JUMP JUMPDEST PUSH1 0x40 MLOAD PUSH3 0x461BCD PUSH1 0xE5 SHL DUP2 MSTORE PUSH1 0x20 PUSH1 0x4 DUP3 ADD MSTORE PUSH1 0x15 PUSH1 0x24 DUP3 ADD MSTORE PUSH21 0x456E74727920666565206D757374206265203E203 PUSH1 0x5C SHL PUSH1 0x44 DUP3 ADD MSTORE PUSH1 0x64 SWAP1 REVERT JUMPDEST PUSH1 0x40 MLOAD PUSH3 0x461BCD PUSH1 0xE5 SHL DUP2 MSTORE PUSH1 0x20 PUSH1 0x4 DUP3 ADD MSTORE PUSH1 0x16 PUSH1 0x24 DUP3 ADD MSTORE PUSH22 0x4D6178206E756D626572206D757374206265203E203 PUSH1 0x54 SHL PUSH1 0x44 DUP3 ADD MSTORE PUSH1 0x64 SWAP1 REVERT JUMPDEST CALLVALUE PUSH2 0x20C JUMPI PUSH1 0x20 CALLDATASIZE PUSH1 0x3 NOT ADD SLT PUSH2 0x20C JUMPI PUSH1 0x4 CALLDATALOAD DUP1 PUSH1 0x0 MSTORE PUSH1 0x3 PUSH1 0x20 MSTORE PUSH1 0x40 PUSH1 0x0 KECCAK256 PUSH1 0x5 DUP2 ADD SLOAD PUSH1 0xFF DUP2 PUSH1 0x8 SHR AND SWAP1 PUSH1 0x3 DUP3 LT ISZERO PUSH2 0x1C1 JUMPI PUSH2 0x798 PUSH1 0x1 PUSH1 0xFF SWAP4 EQ PUSH2 0x134D JUMP JUMPDEST PUSH1 0x10 SHR AND PUSH1 0x2 DUP2 LT ISZERO PUSH2 0x1C1 JUMPI PUSH2 0x7AF SWAP1 ISZERO PUSH2 0x172F JUMP JUMPDEST PUSH2 0x7F8 PUSH1 0xA DUP3 ADD SLOAD PUSH2 0x7C7 PUSH2 0x3AE DUP3 PUSH1 0x4 DUP7 ADD PUSH2 0x1390 JUMP JUMPDEST PUSH1 0x0 DUP5 DUP2 MSTORE PUSH1 0x5 PUSH1 0x20 SWAP1 DUP2 MSTORE PUSH1 0x40 DUP1 DUP4 KECCAK256 CALLER DUP5 MSTORE SWAP1 SWAP2 MSTORE SWAP1 KECCAK256 SLOAD PUSH2 0x7EE SWAP1 PUSH1 0xFF AND ISZERO PUSH2 0x17A9 JUMP JUMPDEST PUSH1 0x9 DUP4 ADD SLOAD PUSH2 0x13CD JUMP JUMPDEST SWAP1 PUSH1 0x64 PUSH1 0x40 MLOAD PUSH1 0x20 DUP2 ADD SWAP1 PUSH2 0x822 DUP2 PUSH2 0x814 DUP8 CALLER PREVRANDAO TIMESTAMP DUP9 PUSH2 0x1998 JUMP JUMPDEST SUB PUSH1 0x1F NOT DUP2 ADD DUP4 MSTORE DUP3 PUSH2 0x15ED JUMP JUMPDEST MLOAD SWAP1 KECCAK256 MOD SWAP2 PUSH1 0x1 DUP4 ADD DUP1 SWAP4 GT PUSH2 0x1AB JUMPI PUSH1 0x1 DUP2 ADD DUP1 SWAP2 GT PUSH2 0x1AB JUMPI PUSH1 0x64 SWAP1 PUSH1 0x40 MLOAD PUSH2 0x858 DUP2 PUSH2 0x814 PUSH1 0x20 DUP3 ADD SWAP5 CALLER PREVRANDAO TIMESTAMP DUP9 PUSH2 0x1998 JUMP JUMPDEST MLOAD SWAP1 KECCAK256 MOD SWAP1 PUSH1 0x1 DUP3 ADD DUP1 SWAP3 GT PUSH2 0x1AB JUMPI PUSH1 0x40 SWAP4 PUSH2 0x8C8 SWAP2 PUSH2 0x879 DUP5 DUP7 PUSH2 0x13CD JUMP JUMPDEST PUSH1 0x0 DUP4 DUP2 MSTORE PUSH1 0x4 PUSH1 0x20 SWAP1 DUP2 MSTORE DUP9 DUP3 KECCAK256 CALLER DUP4 MSTORE SWAP1 MSTORE DUP8 SWAP1 KECCAK256 DUP1 SLOAD SWAP1 SWAP2 PUSH2 0x89D SWAP2 PUSH2 0x13CD JUMP JUMPDEST SWAP1 SSTORE PUSH1 0x0 DUP3 DUP2 MSTORE PUSH1 0x4 PUSH1 0x20 SWAP1 DUP2 MSTORE DUP8 DUP3 KECCAK256 CALLER DUP4 MSTORE SWAP1 MSTORE DUP7 SWAP1 KECCAK256 SLOAD PUSH1 0x2 SWAP2 SWAP1 SWAP2 ADD SLOAD LT PUSH2 0x8D4 JUMPI PUSH2 0x18B0 JUMP JUMPDEST DUP3 MLOAD SWAP2 DUP3 MSTORE PUSH1 0x20 DUP3 ADD MSTORE RETURN JUMPDEST PUSH1 0x0 DUP2 DUP2 MSTORE PUSH1 0x5 PUSH1 0x20 SWAP1 DUP2 MSTORE DUP7 DUP3 KECCAK256 CALLER DUP1 DUP5 MSTORE SWAP1 DUP3 MSTORE SWAP2 DUP8 SWAP1 KECCAK256 DUP1 SLOAD PUSH1 0xFF NOT AND PUSH1 0x1 OR SWAP1 SSTORE DUP7 MLOAD DUP4 DUP2 MSTORE SWAP1 DUP2 ADD SWAP2 SWAP1 SWAP2 MSTORE PUSH32 0x638A014C19F58A705ADFDF3C8350F6EECBCAB57EDC63F1112FEF5828840730EB SWAP1 DUP1 PUSH1 0x40 DUP2 ADD PUSH2 0x481 JUMP JUMPDEST CALLVALUE PUSH2 0x20C JUMPI PUSH1 0x0 CALLDATASIZE PUSH1 0x3 NOT ADD SLT PUSH2 0x20C JUMPI PUSH1 0x7 SLOAD PUSH8 0xFFFFFFFFFFFFFFFF DUP2 GT PUSH2 0xA27 JUMPI PUSH1 0x40 MLOAD SWAP1 PUSH2 0x968 PUSH1 0x20 DUP3 PUSH1 0x5 SHL ADD DUP4 PUSH2 0x15ED JUMP JUMPDEST DUP1 DUP3 MSTORE PUSH1 0x7 PUSH1 0x0 SWAP1 DUP2 MSTORE PUSH1 0x20 DUP4 ADD SWAP2 SWAP1 PUSH32 0xA66CC928B5EDB82AF9BD49922954155AB7B0942694BEA4CE44661D9A8736C688 DUP4 JUMPDEST DUP4 DUP4 LT PUSH2 0xA09 JUMPI DUP5 DUP7 PUSH1 0x40 MLOAD SWAP2 DUP3 SWAP2 PUSH1 0x20 DUP4 ADD SWAP1 PUSH1 0x20 DUP5 MSTORE MLOAD DUP1 SWAP2 MSTORE PUSH1 0x40 DUP4 ADD SWAP1 PUSH1 0x40 DUP2 PUSH1 0x5 SHL DUP6 ADD ADD SWAP3 SWAP2 PUSH1 0x0 SWAP1 JUMPDEST DUP3 DUP3 LT PUSH2 0x9DA JUMPI POP POP POP POP SUB SWAP1 RETURN JUMPDEST SWAP2 SWAP4 PUSH1 0x1 SWAP2 SWAP4 SWAP6 POP PUSH1 0x20 PUSH2 0x9F9 DUP2 SWAP3 PUSH1 0x3F NOT DUP11 DUP3 SUB ADD DUP7 MSTORE DUP9 MLOAD PUSH2 0x124E JUMP JUMPDEST SWAP7 ADD SWAP3 ADD SWAP3 ADD DUP6 SWAP5 SWAP4 SWAP2 SWAP3 PUSH2 0x9CB JUMP JUMPDEST PUSH1 0xD PUSH1 0x20 PUSH1 0x1 SWAP3 PUSH2 0xA19 DUP6 PUSH2 0x160F JUMP JUMPDEST DUP2 MSTORE ADD SWAP3 ADD SWAP3 ADD SWAP2 SWAP1 PUSH2 0x99B JUMP JUMPDEST PUSH4 0x4E487B71 PUSH1 0xE0 SHL PUSH1 0x0 MSTORE PUSH1 0x41 PUSH1 0x4 MSTORE PUSH1 0x24 PUSH1 0x0 REVERT JUMPDEST CALLVALUE PUSH2 0x20C JUMPI PUSH1 0x20 CALLDATASIZE PUSH1 0x3 NOT ADD SLT PUSH2 0x20C JUMPI PUSH1 0x4 CALLDATALOAD DUP1 PUSH1 0x0 MSTORE PUSH1 0x3 PUSH1 0x20 MSTORE PUSH1 0x40 PUSH1 0x0 KECCAK256 SWAP1 PUSH1 0xFF PUSH1 0x5 DUP4 ADD SLOAD PUSH1 0x8 SHR AND PUSH1 0x3 DUP2 LT ISZERO PUSH2 0x1C1 JUMPI PUSH1 0x1 PUSH2 0xA80 SWAP2 EQ PUSH2 0x134D JUMP JUMPDEST PUSH2 0xA93 PUSH1 0xB DUP4 ADD SLOAD PUSH1 0xC DUP5 ADD SLOAD SWAP1 PUSH2 0x13CD JUMP JUMPDEST TIMESTAMP GT ISZERO PUSH2 0xB22 JUMPI PUSH31 0x32E633D34E1AD18FDFB5054DE555825496A862D3DBB13071D8B6D213BB9D71 PUSH2 0x481 PUSH2 0xAD2 DUP5 PUSH1 0x4 PUSH1 0xA PUSH2 0x489 SWAP8 ADD SLOAD SWAP2 ADD PUSH2 0x1390 JUMP JUMPDEST SWAP1 SLOAD PUSH1 0x0 DUP6 DUP2 MSTORE PUSH1 0x5 PUSH1 0x20 SWAP1 DUP2 MSTORE PUSH1 0x40 DUP1 DUP4 KECCAK256 PUSH1 0x3 SWAP6 SWAP1 SWAP6 SHL SWAP4 SWAP1 SWAP4 SHR PUSH1 0x1 PUSH1 0x1 PUSH1 0xA0 SHL SUB AND DUP1 DUP4 MSTORE SWAP4 DUP2 MSTORE SWAP1 DUP3 SWAP1 KECCAK256 DUP1 SLOAD PUSH1 0xFF NOT AND PUSH1 0x1 OR SWAP1 SSTORE DUP2 MLOAD DUP7 DUP2 MSTORE SWAP1 DUP2 ADD SWAP3 SWAP1 SWAP3 MSTORE SWAP1 SWAP2 DUP3 SWAP2 DUP3 ADD SWAP1 JUMP JUMPDEST PUSH1 0x40 MLOAD PUSH3 0x461BCD PUSH1 0xE5 SHL DUP2 MSTORE PUSH1 0x20 PUSH1 0x4 DUP3 ADD MSTORE PUSH1 0x16 PUSH1 0x24 DUP3 ADD MSTORE PUSH22 0x151D5C9B881B9BDD081D1A5B5959081BDD5D081E595D PUSH1 0x52 SHL PUSH1 0x44 DUP3 ADD MSTORE PUSH1 0x64 SWAP1 REVERT JUMPDEST CALLVALUE PUSH2 0x20C JUMPI PUSH1 0x0 CALLDATASIZE PUSH1 0x3 NOT ADD SLT PUSH2 0x20C JUMPI PUSH1 0x20 PUSH1 0x6 SLOAD PUSH1 0x40 MLOAD SWAP1 DUP2 MSTORE RETURN JUMPDEST CALLVALUE PUSH2 0x20C JUMPI PUSH1 0x0 CALLDATASIZE PUSH1 0x3 NOT ADD SLT PUSH2 0x20C JUMPI PUSH1 0x0 SLOAD PUSH1 0x40 MLOAD PUSH1 0x1 PUSH1 0x1 PUSH1 0xA0 SHL SUB SWAP1 SWAP2 AND DUP2 MSTORE PUSH1 0x20 SWAP1 RETURN JUMPDEST CALLVALUE PUSH2 0x20C JUMPI PUSH2 0xBB5 CALLDATASIZE PUSH2 0x120E JUMP JUMPDEST SWAP1 PUSH1 0x0 MSTORE PUSH1 0x5 PUSH1 0x20 MSTORE PUSH1 0x40 PUSH1 0x0 KECCAK256 SWAP1 PUSH1 0x1 DUP1 PUSH1 0xA0 SHL SUB AND PUSH1 0x0 MSTORE PUSH1 0x20 MSTORE PUSH1 0x20 PUSH1 0xFF PUSH1 0x40 PUSH1 0x0 KECCAK256 SLOAD AND PUSH1 0x40 MLOAD SWAP1 ISZERO ISZERO DUP2 MSTORE RETURN JUMPDEST CALLVALUE PUSH2 0x20C JUMPI PUSH1 0x20 CALLDATASIZE PUSH1 0x3 NOT ADD SLT PUSH2 0x20C JUMPI PUSH1 0x0 PUSH2 0x1C0 PUSH1 0x40 MLOAD PUSH2 0xC09 DUP2 PUSH2 0x15D0 JUMP JUMPDEST DUP3 DUP2 MSTORE DUP3 PUSH1 0x20 DUP3 ADD MSTORE DUP3 PUSH1 0x40 DUP3 ADD MSTORE DUP3 PUSH1 0x60 DUP3 ADD MSTORE PUSH1 0x60 PUSH1 0x80 DUP3 ADD MSTORE DUP3 PUSH1 0xA0 DUP3 ADD MSTORE DUP3 PUSH1 0xC0 DUP3 ADD MSTORE DUP3 PUSH1 0xE0 DUP3 ADD MSTORE DUP3 PUSH2 0x100 DUP3 ADD MSTORE DUP3 PUSH2 0x120 DUP3 ADD MSTORE DUP3 PUSH2 0x140 DUP3 ADD MSTORE DUP3 PUSH2 0x160 DUP3 ADD MSTORE DUP3 PUSH2 0x180 DUP3 ADD MSTORE DUP3 PUSH2 0x1A0 DUP3 ADD MSTORE ADD MSTORE PUSH1 0x4 CALLDATALOAD PUSH1 0x0 MSTORE PUSH1 0x3 PUSH1 0x20 MSTORE PUSH2 0xC92 PUSH2 0xC7E PUSH1 0x40 PUSH1 0x0 KECCAK256 PUSH2 0x160F JUMP JUMPDEST PUSH1 0x40 MLOAD SWAP2 DUP3 SWAP2 PUSH1 0x20 DUP4 MSTORE PUSH1 0x20 DUP4 ADD SWAP1 PUSH2 0x124E JUMP JUMPDEST SUB SWAP1 RETURN JUMPDEST CALLVALUE PUSH2 0x20C JUMPI PUSH1 0x20 CALLDATASIZE PUSH1 0x3 NOT ADD SLT PUSH2 0x20C JUMPI PUSH1 0x4 CALLDATALOAD PUSH1 0x0 MSTORE PUSH1 0x3 PUSH1 0x20 MSTORE PUSH2 0x1C0 PUSH1 0x40 PUSH1 0x0 KECCAK256 PUSH1 0x1 DUP1 PUSH1 0xA0 SHL SUB DUP2 SLOAD AND SWAP1 PUSH1 0x1 DUP2 ADD SLOAD SWAP1 PUSH1 0x2 DUP2 ADD SLOAD PUSH1 0x3 DUP3 ADD SLOAD PUSH1 0x5 DUP4 ADD SLOAD PUSH1 0x6 DUP5 ADD SLOAD PUSH1 0x7 DUP6 ADD SLOAD SWAP1 PUSH2 0xD48 PUSH1 0x8 DUP8 ADD SLOAD SWAP4 PUSH1 0x9 DUP9 ADD SLOAD SWAP6 PUSH1 0xA DUP10 ADD SLOAD SWAP8 PUSH1 0xC PUSH1 0xB DUP12 ADD SLOAD SWAP11 ADD SLOAD SWAP11 PUSH1 0x40 MLOAD SWAP13 DUP14 MSTORE PUSH1 0x20 DUP14 ADD MSTORE PUSH1 0x40 DUP13 ADD MSTORE PUSH1 0x60 DUP12 ADD MSTORE PUSH1 0xFF DUP2 AND ISZERO ISZERO PUSH1 0x80 DUP12 ADD MSTORE PUSH2 0xD38 PUSH1 0xA0 DUP12 ADD PUSH1 0xFF DUP4 PUSH1 0x8 SHR AND PUSH2 0x1234 JUMP JUMPDEST PUSH1 0xFF PUSH1 0xC0 DUP12 ADD SWAP2 PUSH1 0x10 SHR AND PUSH2 0x1241 JUMP JUMPDEST PUSH1 0xE0 DUP9 ADD MSTORE PUSH2 0x100 DUP8 ADD MSTORE PUSH2 0x120 DUP7 ADD MSTORE PUSH2 0x140 DUP6 ADD MSTORE PUSH2 0x160 DUP5 ADD MSTORE PUSH2 0x180 DUP4 ADD MSTORE PUSH2 0x1A0 DUP3 ADD MSTORE RETURN JUMPDEST CALLVALUE PUSH2 0x20C JUMPI PUSH1 0x0 CALLDATASIZE PUSH1 0x3 NOT ADD SLT PUSH2 0x20C JUMPI PUSH1 0x20 PUSH1 0x2 SLOAD PUSH1 0x40 MLOAD SWAP1 DUP2 MSTORE RETURN JUMPDEST CALLVALUE PUSH2 0x20C JUMPI PUSH1 0x20 CALLDATASIZE PUSH1 0x3 NOT ADD SLT PUSH2 0x20C JUMPI PUSH1 0x4 CALLDATALOAD DUP1 PUSH1 0x0 MSTORE PUSH1 0x3 PUSH1 0x20 MSTORE PUSH1 0x40 PUSH1 0x0 KECCAK256 PUSH1 0x5 DUP2 ADD DUP1 SLOAD PUSH1 0xFF DUP2 PUSH1 0x8 SHR AND PUSH1 0x3 DUP2 LT ISZERO PUSH2 0x1C1 JUMPI PUSH1 0x1 PUSH2 0xDD5 SWAP2 EQ PUSH2 0x134D JUMP JUMPDEST PUSH1 0x0 SWAP1 DUP2 PUSH1 0x0 NOT SWAP2 DUP2 SWAP1 DUP3 SWAP4 PUSH1 0x4 DUP9 ADD DUP1 SLOAD SWAP6 JUMPDEST DUP7 DUP2 LT PUSH2 0x1100 JUMPI POP POP POP PUSH1 0x3 DUP8 ADD SLOAD SWAP4 DUP5 DUP2 MUL SWAP5 DUP2 DUP7 DIV EQ SWAP1 ISZERO OR ISZERO PUSH2 0x1AB JUMPI PUSH1 0x10 SHR PUSH1 0xFF AND PUSH1 0x2 DUP2 LT ISZERO PUSH2 0x1C1 JUMPI PUSH2 0xF62 JUMPI POP PUSH1 0x1 DUP2 EQ DUP1 ISZERO PUSH2 0xF51 JUMPI JUMPDEST ISZERO PUSH2 0xEB0 JUMPI POP DUP1 PUSH1 0x0 DUP2 ISZERO PUSH2 0xEA7 JUMPI JUMPDEST PUSH1 0x0 SWAP2 DUP3 SWAP2 DUP3 SWAP2 DUP3 SWAP2 PUSH1 0x1 PUSH1 0x1 PUSH1 0xA0 SHL SUB DUP9 AND SWAP1 CALL ISZERO PUSH2 0x50A JUMPI PUSH1 0x40 DUP1 MLOAD DUP7 DUP2 MSTORE PUSH1 0x1 PUSH1 0x1 PUSH1 0xA0 SHL SUB SWAP4 SWAP1 SWAP4 AND PUSH1 0x20 DUP5 ADD MSTORE DUP3 ADD MSTORE PUSH1 0x0 DUP1 MLOAD PUSH1 0x20 PUSH2 0x19C8 DUP4 CODECOPY DUP2 MLOAD SWAP2 MSTORE SWAP1 PUSH1 0x60 SWAP1 LOG1 JUMPDEST DUP1 SLOAD PUSH2 0xFFFF NOT AND PUSH2 0x200 OR SWAP1 SSTORE PUSH1 0x0 NOT DUP3 ADD SWAP2 DUP3 GT PUSH2 0x1AB JUMPI PUSH2 0x18A PUSH2 0x489 SWAP3 PUSH2 0x13DA JUMP JUMPDEST POP PUSH2 0x8FC PUSH2 0xE38 JUMP JUMPDEST SWAP1 SWAP2 POP PUSH2 0xF13 JUMPI PUSH1 0x0 DUP1 DUP1 DUP1 DUP5 PUSH1 0x1 DUP1 PUSH1 0xA0 SHL SUB DUP3 SLOAD AND DUP3 DUP3 ISZERO PUSH2 0xF0A JUMPI JUMPDEST CALL ISZERO PUSH2 0x50A JUMPI PUSH1 0x40 PUSH32 0x66A8C5B89438EB03696FBF4FAE05D99DCFA81867A18C352B258B5DE0AEA1C246 SWAP2 DUP2 MLOAD SWAP1 DUP7 DUP3 MSTORE PUSH1 0x20 DUP3 ADD MSTORE LOG1 PUSH2 0xE82 JUMP JUMPDEST POP PUSH2 0x8FC PUSH2 0xECF JUMP JUMPDEST PUSH1 0x40 MLOAD PUSH3 0x461BCD PUSH1 0xE5 SHL DUP2 MSTORE PUSH1 0x20 PUSH1 0x4 DUP3 ADD MSTORE PUSH1 0x16 PUSH1 0x24 DUP3 ADD MSTORE PUSH22 0x11D85B59481B9BDD081E595D0818DBDB98DB1D591959 PUSH1 0x52 SHL PUSH1 0x44 DUP3 ADD MSTORE PUSH1 0x64 SWAP1 REVERT JUMPDEST POP PUSH1 0x9 DUP6 ADD SLOAD PUSH1 0x8 DUP7 ADD SLOAD LT PUSH2 0xE28 JUMP JUMPDEST SWAP1 PUSH2 0xF76 PUSH1 0x6 DUP8 ADD SLOAD PUSH1 0x7 DUP9 ADD SLOAD SWAP1 PUSH2 0x13CD JUMP JUMPDEST TIMESTAMP LT PUSH2 0x10BB JUMPI PUSH1 0x1 DUP2 SUB PUSH2 0xFEB JUMPI POP POP DUP1 PUSH1 0x0 DUP2 ISZERO PUSH2 0xFE2 JUMPI JUMPDEST PUSH1 0x0 SWAP2 DUP3 SWAP2 DUP3 SWAP2 DUP3 SWAP2 PUSH1 0x1 PUSH1 0x1 PUSH1 0xA0 SHL SUB DUP9 AND SWAP1 CALL ISZERO PUSH2 0x50A JUMPI PUSH1 0x40 DUP1 MLOAD DUP7 DUP2 MSTORE PUSH1 0x1 PUSH1 0x1 PUSH1 0xA0 SHL SUB SWAP1 SWAP4 AND PUSH1 0x20 DUP5 ADD MSTORE DUP3 ADD MSTORE PUSH1 0x0 DUP1 MLOAD PUSH1 0x20 PUSH2 0x19C8 DUP4 CODECOPY DUP2 MLOAD SWAP2 MSTORE SWAP1 DUP1 PUSH1 0x60 DUP2 ADD JUMPDEST SUB SWAP1 LOG1 PUSH2 0xE82 JUMP JUMPDEST POP PUSH2 0x8FC PUSH2 0xF90 JUMP JUMPDEST SWAP1 SWAP3 POP PUSH1 0x1 DUP2 GT ISZERO PUSH2 0x104F JUMPI POP DUP1 PUSH1 0x0 DUP2 ISZERO PUSH2 0xFE2 JUMPI PUSH1 0x0 SWAP2 DUP3 SWAP2 DUP3 SWAP2 DUP3 SWAP2 PUSH1 0x1 PUSH1 0x1 PUSH1 0xA0 SHL SUB DUP9 AND SWAP1 CALL ISZERO PUSH2 0x50A JUMPI PUSH1 0x40 DUP1 MLOAD DUP7 DUP2 MSTORE PUSH1 0x1 PUSH1 0x1 PUSH1 0xA0 SHL SUB SWAP1 SWAP4 AND PUSH1 0x20 DUP5 ADD MSTORE DUP3 ADD MSTORE PUSH1 0x0 DUP1 MLOAD PUSH1 0x20 PUSH2 0x19C8 DUP4 CODECOPY DUP2 MLOAD SWAP2 MSTORE SWAP1 DUP1 PUSH1 0x60 DUP2 ADD PUSH2 0xFDA JUMP JUMPDEST SWAP1 SWAP2 POP ISZERO PUSH2 0x105E JUMPI JUMPDEST POP PUSH2 0xE82 JUMP JUMPDEST PUSH1 0x0 DUP1 DUP1 DUP1 DUP5 PUSH1 0x1 DUP1 PUSH1 0xA0 SHL SUB DUP3 SLOAD AND DUP3 DUP3 ISZERO PUSH2 0x10B2 JUMPI JUMPDEST CALL ISZERO PUSH2 0x50A JUMPI PUSH1 0x40 PUSH32 0x66A8C5B89438EB03696FBF4FAE05D99DCFA81867A18C352B258B5DE0AEA1C246 SWAP2 DUP2 MLOAD SWAP1 DUP7 DUP3 MSTORE PUSH1 0x20 DUP3 ADD MSTORE LOG1 DUP4 PUSH2 0x1058 JUMP JUMPDEST POP PUSH2 0x8FC PUSH2 0x1076 JUMP JUMPDEST PUSH1 0x40 MLOAD PUSH3 0x461BCD PUSH1 0xE5 SHL DUP2 MSTORE PUSH1 0x20 PUSH1 0x4 DUP3 ADD MSTORE PUSH1 0x1B PUSH1 0x24 DUP3 ADD MSTORE PUSH32 0x47616D65206475726174696F6E206E6F742079657420656E6465640000000000 PUSH1 0x44 DUP3 ADD MSTORE PUSH1 0x64 SWAP1 REVERT JUMPDEST DUP11 PUSH1 0x0 MSTORE PUSH1 0x5 PUSH1 0x20 MSTORE PUSH1 0xFF PUSH1 0x40 DUP1 PUSH1 0x0 KECCAK256 PUSH2 0x111B DUP5 DUP7 PUSH2 0x1390 JUMP JUMPDEST SWAP1 SLOAD PUSH1 0x3 SWAP2 SWAP1 SWAP2 SHL SHR PUSH1 0x1 PUSH1 0x1 PUSH1 0xA0 SHL SUB AND PUSH1 0x0 SWAP1 DUP2 MSTORE PUSH1 0x20 SWAP2 SWAP1 SWAP2 MSTORE KECCAK256 SLOAD AND ISZERO PUSH2 0x1149 JUMPI JUMPDEST PUSH1 0x1 ADD PUSH2 0xDE9 JUMP JUMPDEST SWAP7 POP SWAP4 PUSH2 0x1155 SWAP1 PUSH2 0x13BE JUMP JUMPDEST SWAP4 PUSH2 0x1160 DUP8 DUP3 PUSH2 0x1390 JUMP JUMPDEST PUSH1 0x1 DUP1 PUSH1 0xA0 SHL SUB SWAP2 SLOAD SWAP1 PUSH1 0x3 SHL SHR AND SWAP7 DUP11 PUSH1 0x0 MSTORE PUSH1 0x4 PUSH1 0x20 MSTORE DUP3 PUSH1 0x40 DUP1 PUSH1 0x0 KECCAK256 PUSH2 0x118A DUP5 DUP7 PUSH2 0x1390 JUMP JUMPDEST SWAP1 SLOAD PUSH1 0x3 SWAP2 SWAP1 SWAP2 SHL SHR PUSH1 0x1 PUSH1 0x1 PUSH1 0xA0 SHL SUB AND PUSH1 0x0 SWAP1 DUP2 MSTORE PUSH1 0x20 SWAP2 SWAP1 SWAP2 MSTORE KECCAK256 SLOAD LT ISZERO PUSH2 0x1141 JUMPI SWAP4 POP SWAP1 POP DUP9 PUSH1 0x0 MSTORE PUSH1 0x4 PUSH1 0x20 MSTORE PUSH1 0x40 DUP1 PUSH1 0x0 KECCAK256 PUSH2 0x11CC DUP6 DUP5 PUSH2 0x1390 JUMP JUMPDEST SWAP1 SLOAD PUSH1 0x3 SWAP2 SWAP1 SWAP2 SHL SHR PUSH1 0x1 PUSH1 0x1 PUSH1 0xA0 SHL SUB AND PUSH1 0x0 SWAP1 DUP2 MSTORE PUSH1 0x20 SWAP2 SWAP1 SWAP2 MSTORE KECCAK256 SLOAD SWAP1 PUSH1 0x1 PUSH2 0x11F8 DUP6 DUP4 PUSH2 0x1390 JUMP JUMPDEST DUP3 DUP1 PUSH1 0xA0 SHL SUB SWAP2 SLOAD SWAP1 PUSH1 0x3 SHL SHR AND SWAP5 SWAP1 POP PUSH2 0x1141 JUMP JUMPDEST PUSH1 0x40 SWAP1 PUSH1 0x3 NOT ADD SLT PUSH2 0x20C JUMPI PUSH1 0x4 CALLDATALOAD SWAP1 PUSH1 0x24 CALLDATALOAD PUSH1 0x1 PUSH1 0x1 PUSH1 0xA0 SHL SUB DUP2 AND DUP2 SUB PUSH2 0x20C JUMPI SWAP1 JUMP JUMPDEST SWAP1 PUSH1 0x3 DUP3 LT ISZERO PUSH2 0x1C1 JUMPI MSTORE JUMP JUMPDEST SWAP1 PUSH1 0x2 DUP3 LT ISZERO PUSH2 0x1C1 JUMPI MSTORE JUMP JUMPDEST SWAP1 PUSH2 0x1E0 DUP2 ADD SWAP2 PUSH1 0x1 DUP1 PUSH1 0xA0 SHL SUB DUP2 MLOAD AND DUP3 MSTORE PUSH1 0x20 DUP2 ADD MLOAD PUSH1 0x20 DUP4 ADD MSTORE PUSH1 0x40 DUP2 ADD MLOAD PUSH1 0x40 DUP4 ADD MSTORE PUSH1 0x60 DUP2 ADD MLOAD PUSH1 0x60 DUP4 ADD MSTORE PUSH1 0x80 DUP2 ADD MLOAD SWAP3 PUSH2 0x1E0 PUSH1 0x80 DUP5 ADD MSTORE DUP4 MLOAD DUP1 SWAP2 MSTORE PUSH1 0x20 PUSH2 0x200 DUP5 ADD SWAP5 ADD SWAP1 PUSH1 0x0 JUMPDEST DUP2 DUP2 LT PUSH2 0x132E JUMPI POP POP POP PUSH2 0x1C0 DUP2 PUSH1 0xA0 DUP3 SWAP4 ADD MLOAD ISZERO ISZERO PUSH1 0xA0 DUP6 ADD MSTORE PUSH2 0x12CC PUSH1 0xC0 DUP3 ADD MLOAD PUSH1 0xC0 DUP7 ADD SWAP1 PUSH2 0x1234 JUMP JUMPDEST PUSH2 0x12DE PUSH1 0xE0 DUP3 ADD MLOAD PUSH1 0xE0 DUP7 ADD SWAP1 PUSH2 0x1241 JUMP JUMPDEST PUSH2 0x100 DUP2 ADD MLOAD PUSH2 0x100 DUP6 ADD MSTORE PUSH2 0x120 DUP2 ADD MLOAD PUSH2 0x120 DUP6 ADD MSTORE PUSH2 0x140 DUP2 ADD MLOAD PUSH2 0x140 DUP6 ADD MSTORE PUSH2 0x160 DUP2 ADD MLOAD PUSH2 0x160 DUP6 ADD MSTORE PUSH2 0x180 DUP2 ADD MLOAD PUSH2 0x180 DUP6 ADD MSTORE PUSH2 0x1A0 DUP2 ADD MLOAD PUSH2 0x1A0 DUP6 ADD MSTORE ADD MLOAD SWAP2 ADD MSTORE SWAP1 JUMP JUMPDEST DUP3 MLOAD PUSH1 0x1 PUSH1 0x1 PUSH1 0xA0 SHL SUB AND DUP7 MSTORE PUSH1 0x20 SWAP6 DUP7 ADD SWAP6 SWAP1 SWAP3 ADD SWAP2 PUSH1 0x1 ADD PUSH2 0x129F JUMP JUMPDEST ISZERO PUSH2 0x1354 JUMPI JUMP JUMPDEST PUSH1 0x40 MLOAD PUSH3 0x461BCD PUSH1 0xE5 SHL DUP2 MSTORE PUSH1 0x20 PUSH1 0x4 DUP3 ADD MSTORE PUSH1 0x14 PUSH1 0x24 DUP3 ADD MSTORE PUSH20 0x47616D65206E6F7420696E2070726F6772657373 PUSH1 0x60 SHL PUSH1 0x44 DUP3 ADD MSTORE PUSH1 0x64 SWAP1 REVERT JUMPDEST DUP1 SLOAD DUP3 LT ISZERO PUSH2 0x13A8 JUMPI PUSH1 0x0 MSTORE PUSH1 0x20 PUSH1 0x0 KECCAK256 ADD SWAP1 PUSH1 0x0 SWAP1 JUMP JUMPDEST PUSH4 0x4E487B71 PUSH1 0xE0 SHL PUSH1 0x0 MSTORE PUSH1 0x32 PUSH1 0x4 MSTORE PUSH1 0x24 PUSH1 0x0 REVERT JUMPDEST PUSH1 0x0 NOT DUP2 EQ PUSH2 0x1AB JUMPI PUSH1 0x1 ADD SWAP1 JUMP JUMPDEST SWAP2 SWAP1 DUP3 ADD DUP1 SWAP3 GT PUSH2 0x1AB JUMPI JUMP JUMPDEST PUSH1 0x7 SLOAD DUP2 LT ISZERO PUSH2 0x13A8 JUMPI PUSH1 0x7 PUSH1 0x0 MSTORE PUSH1 0xD PUSH1 0x20 PUSH1 0x0 KECCAK256 SWAP2 MUL ADD SWAP1 PUSH1 0x0 SWAP1 JUMP JUMPDEST DUP2 DUP2 EQ PUSH2 0x149B JUMPI DUP2 SLOAD SWAP2 PUSH8 0xFFFFFFFFFFFFFFFF DUP4 GT PUSH2 0xA27 JUMPI PUSH1 0x1 PUSH1 0x40 SHL DUP4 GT PUSH2 0xA27 JUMPI DUP2 SLOAD DUP4 DUP4 SSTORE DUP1 DUP5 LT PUSH2 0x1472 JUMPI JUMPDEST POP PUSH1 0x0 MSTORE PUSH1 0x20 PUSH1 0x0 KECCAK256 SWAP1 PUSH1 0x0 MSTORE PUSH1 0x20 PUSH1 0x0 KECCAK256 DUP2 SLOAD SWAP2 PUSH1 0x0 SWAP3 JUMPDEST DUP5 DUP5 LT PUSH2 0x1451 JUMPI POP POP POP POP POP JUMP JUMPDEST PUSH1 0x1 SWAP2 DUP3 ADD DUP1 SLOAD PUSH1 0x1 PUSH1 0x1 PUSH1 0xA0 SHL SUB SWAP1 SWAP3 AND DUP5 DUP7 ADD SSTORE SWAP4 SWAP1 SWAP2 ADD SWAP3 SWAP1 PUSH2 0x1443 JUMP JUMPDEST DUP3 PUSH1 0x0 MSTORE DUP4 PUSH1 0x20 PUSH1 0x0 KECCAK256 SWAP2 DUP3 ADD SWAP2 ADD JUMPDEST DUP2 DUP2 LT PUSH2 0x148F JUMPI POP PUSH2 0x142A JUMP JUMPDEST PUSH1 0x0 DUP2 SSTORE PUSH1 0x1 ADD PUSH2 0x1482 JUMP JUMPDEST POP POP JUMP JUMPDEST SWAP1 PUSH1 0x2 DUP2 LT ISZERO PUSH2 0x1C1 JUMPI PUSH3 0xFF0000 DUP3 SLOAD SWAP2 PUSH1 0x10 SHL AND SWAP1 PUSH3 0xFF0000 NOT AND OR SWAP1 SSTORE JUMP JUMPDEST SWAP2 SWAP1 PUSH2 0x15BA JUMPI DUP1 DUP3 SUB PUSH2 0x14D1 JUMPI POP POP JUMP JUMPDEST DUP1 SLOAD DUP3 SLOAD PUSH1 0x1 PUSH1 0x1 PUSH1 0xA0 SHL SUB NOT AND PUSH1 0x1 PUSH1 0x1 PUSH1 0xA0 SHL SUB SWAP2 SWAP1 SWAP2 AND OR DUP3 SSTORE PUSH1 0x1 DUP2 DUP2 ADD SLOAD SWAP1 DUP4 ADD SSTORE PUSH1 0x2 DUP1 DUP3 ADD SLOAD SWAP1 DUP4 ADD SSTORE PUSH1 0x3 DUP1 DUP3 ADD SLOAD SWAP1 DUP4 ADD SSTORE PUSH2 0x151C PUSH1 0x4 DUP1 DUP4 ADD SWAP1 DUP5 ADD PUSH2 0x13F9 JUMP JUMPDEST PUSH1 0x5 DUP3 ADD SWAP1 PUSH1 0x5 DUP2 ADD SWAP1 PUSH1 0xFF DUP3 SLOAD AND ISZERO ISZERO PUSH1 0xFF DUP1 NOT DUP6 SLOAD AND SWAP2 AND OR DUP4 SSTORE DUP2 SLOAD SWAP2 PUSH1 0x3 PUSH1 0xFF DUP5 PUSH1 0x8 SHR AND LT ISZERO PUSH2 0x1C1 JUMPI DUP4 PUSH1 0xFF PUSH2 0x1577 SWAP3 PUSH1 0xC SWAP7 SWAP6 PUSH2 0xFF00 DUP1 DUP10 SWAP9 SLOAD SWAP3 DUP6 NOT AND AND AND SWAP1 PUSH2 0xFF00 NOT AND OR DUP4 SSTORE SLOAD PUSH1 0x10 SHR AND SWAP1 PUSH2 0x149F JUMP JUMPDEST PUSH1 0x6 DUP2 ADD SLOAD PUSH1 0x6 DUP6 ADD SSTORE PUSH1 0x7 DUP2 ADD SLOAD PUSH1 0x7 DUP6 ADD SSTORE PUSH1 0x8 DUP2 ADD SLOAD PUSH1 0x8 DUP6 ADD SSTORE PUSH1 0x9 DUP2 ADD SLOAD PUSH1 0x9 DUP6 ADD SSTORE PUSH1 0xA DUP2 ADD SLOAD PUSH1 0xA DUP6 ADD SSTORE PUSH1 0xB DUP2 ADD SLOAD PUSH1 0xB DUP6 ADD SSTORE ADD SLOAD SWAP2 ADD SSTORE JUMP JUMPDEST PUSH4 0x4E487B71 PUSH1 0xE0 SHL PUSH1 0x0 MSTORE PUSH1 0x0 PUSH1 0x4 MSTORE PUSH1 0x24 PUSH1 0x0 REVERT JUMPDEST PUSH2 0x1E0 DUP2 ADD SWAP1 DUP2 LT PUSH8 0xFFFFFFFFFFFFFFFF DUP3 GT OR PUSH2 0xA27 JUMPI PUSH1 0x40 MSTORE JUMP JUMPDEST SWAP1 PUSH1 0x1F DUP1 NOT SWAP2 ADD AND DUP2 ADD SWAP1 DUP2 LT PUSH8 0xFFFFFFFFFFFFFFFF DUP3 GT OR PUSH2 0xA27 JUMPI PUSH1 0x40 MSTORE JUMP JUMPDEST SWAP1 PUSH1 0x40 MLOAD PUSH2 0x161C DUP2 PUSH2 0x15D0 JUMP JUMPDEST DUP1 SWAP3 PUSH1 0x1 DUP1 PUSH1 0xA0 SHL SUB DUP2 SLOAD AND DUP3 MSTORE PUSH1 0x1 DUP2 ADD SLOAD PUSH1 0x20 DUP4 ADD MSTORE PUSH1 0x2 DUP2 ADD SLOAD PUSH1 0x40 DUP4 ADD MSTORE PUSH1 0x3 DUP2 ADD SLOAD PUSH1 0x60 DUP4 ADD MSTORE PUSH1 0x4 DUP2 ADD PUSH1 0x40 MLOAD DUP1 DUP3 PUSH1 0x20 DUP3 SWAP5 SLOAD SWAP4 DUP5 DUP2 MSTORE ADD SWAP1 PUSH1 0x0 MSTORE PUSH1 0x20 PUSH1 0x0 KECCAK256 SWAP3 PUSH1 0x0 JUMPDEST DUP2 DUP2 LT PUSH2 0x170D JUMPI POP POP PUSH2 0x167D SWAP3 POP SUB DUP3 PUSH2 0x15ED JUMP JUMPDEST PUSH1 0x80 DUP4 ADD MSTORE PUSH1 0x5 DUP2 ADD SLOAD PUSH1 0xFF DUP2 AND ISZERO ISZERO PUSH1 0xA0 DUP5 ADD MSTORE PUSH1 0xFF DUP2 PUSH1 0x8 SHR AND SWAP1 PUSH1 0x3 DUP3 LT ISZERO PUSH2 0x1C1 JUMPI PUSH1 0xFF SWAP2 PUSH1 0xC0 DUP6 ADD MSTORE PUSH1 0x10 SHR AND PUSH1 0x2 DUP2 LT ISZERO PUSH2 0x1C1 JUMPI PUSH2 0x1C0 SWAP2 PUSH1 0xC SWAP2 PUSH1 0xE0 DUP6 ADD MSTORE PUSH1 0x6 DUP2 ADD SLOAD PUSH2 0x100 DUP6 ADD MSTORE PUSH1 0x7 DUP2 ADD SLOAD PUSH2 0x120 DUP6 ADD MSTORE PUSH1 0x8 DUP2 ADD SLOAD PUSH2 0x140 DUP6 ADD MSTORE PUSH1 0x9 DUP2 ADD SLOAD PUSH2 0x160 DUP6 ADD MSTORE PUSH1 0xA DUP2 ADD SLOAD PUSH2 0x180 DUP6 ADD MSTORE PUSH1 0xB DUP2 ADD SLOAD PUSH2 0x1A0 DUP6 ADD MSTORE ADD SLOAD SWAP2 ADD MSTORE JUMP JUMPDEST DUP5 SLOAD PUSH1 0x1 PUSH1 0x1 PUSH1 0xA0 SHL SUB AND DUP4 MSTORE PUSH1 0x1 SWAP5 DUP6 ADD SWAP5 DUP7 SWAP5 POP PUSH1 0x20 SWAP1 SWAP4 ADD SWAP3 ADD PUSH2 0x1668 JUMP JUMPDEST ISZERO PUSH2 0x1736 JUMPI JUMP JUMPDEST PUSH1 0x40 MLOAD PUSH3 0x461BCD PUSH1 0xE5 SHL DUP2 MSTORE PUSH1 0x20 PUSH1 0x4 DUP3 ADD MSTORE PUSH1 0xF PUSH1 0x24 DUP3 ADD MSTORE PUSH15 0x4E6F7420726F756E6473206D6F6465 PUSH1 0x88 SHL PUSH1 0x44 DUP3 ADD MSTORE PUSH1 0x64 SWAP1 REVERT JUMPDEST ISZERO PUSH2 0x1774 JUMPI JUMP JUMPDEST PUSH1 0x40 MLOAD PUSH3 0x461BCD PUSH1 0xE5 SHL DUP2 MSTORE PUSH1 0x20 PUSH1 0x4 DUP3 ADD MSTORE PUSH1 0xD PUSH1 0x24 DUP3 ADD MSTORE PUSH13 0x2737BA103CB7BAB9103A3AB937 PUSH1 0x99 SHL PUSH1 0x44 DUP3 ADD MSTORE PUSH1 0x64 SWAP1 REVERT JUMPDEST ISZERO PUSH2 0x17B0 JUMPI JUMP JUMPDEST PUSH1 0x40 MLOAD PUSH3 0x461BCD PUSH1 0xE5 SHL DUP2 MSTORE PUSH1 0x20 PUSH1 0x4 DUP3 ADD MSTORE PUSH1 0x12 PUSH1 0x24 DUP3 ADD MSTORE PUSH18 0x165BDD48185C9948195B1A5B5A5B985D1959 PUSH1 0x72 SHL PUSH1 0x44 DUP3 ADD MSTORE PUSH1 0x64 SWAP1 REVERT JUMPDEST ISZERO PUSH2 0x17F1 JUMPI JUMP JUMPDEST PUSH1 0x40 MLOAD PUSH3 0x461BCD PUSH1 0xE5 SHL DUP2 MSTORE PUSH1 0x20 PUSH1 0x4 DUP3 ADD MSTORE PUSH1 0x13 PUSH1 0x24 DUP3 ADD MSTORE PUSH19 0x496E636F727265637420656E74727920666565 PUSH1 0x68 SHL PUSH1 0x44 DUP3 ADD MSTORE PUSH1 0x64 SWAP1 REVERT JUMPDEST DUP1 SLOAD PUSH1 0x1 PUSH1 0x40 SHL DUP2 LT ISZERO PUSH2 0xA27 JUMPI PUSH2 0x1849 SWAP2 PUSH1 0x1 DUP3 ADD DUP2 SSTORE PUSH2 0x1390 JUMP JUMPDEST DUP2 SLOAD PUSH1 0x1 PUSH1 0x1 PUSH1 0xA0 SHL SUB SWAP4 DUP5 AND PUSH1 0x3 SWAP3 SWAP1 SWAP3 SHL SWAP2 DUP3 SHL SWAP4 SWAP1 SWAP2 SHL NOT AND SWAP2 SWAP1 SWAP2 OR SWAP1 SSTORE JUMP JUMPDEST ISZERO PUSH2 0x1874 JUMPI JUMP JUMPDEST PUSH1 0x40 MLOAD PUSH3 0x461BCD PUSH1 0xE5 SHL DUP2 MSTORE PUSH1 0x20 PUSH1 0x4 DUP3 ADD MSTORE PUSH1 0x14 PUSH1 0x24 DUP3 ADD MSTORE PUSH20 0x11D85B5948185B1C9958591E481CDD185C9D1959 PUSH1 0x62 SHL PUSH1 0x44 DUP3 ADD MSTORE PUSH1 0x64 SWAP1 REVERT JUMPDEST DUP1 PUSH1 0x0 MSTORE PUSH1 0x3 PUSH1 0x20 MSTORE PUSH1 0x40 PUSH1 0x0 KECCAK256 SWAP1 PUSH1 0x4 DUP3 ADD SWAP2 DUP3 SLOAD PUSH1 0xA DUP3 ADD SWAP3 DUP4 SLOAD SWAP5 TIMESTAMP PUSH1 0xB DUP6 ADD SSTORE PUSH1 0x1 SWAP2 DUP4 ISZERO SWAP3 JUMPDEST ISZERO PUSH2 0x194F JUMPI JUMPDEST PUSH1 0x0 DUP7 SLOAD PUSH1 0x1 DUP2 ADD DUP1 SWAP2 GT PUSH2 0x193B JUMPI DUP5 PUSH2 0x1927 JUMPI DUP6 DUP10 SWAP2 MOD DUP1 DUP10 SSTORE DUP1 ISZERO PUSH2 0x1912 JUMPI JUMPDEST SUB PUSH2 0x18DB JUMPI POP POP POP POP POP POP POP POP JUMP JUMPDEST PUSH1 0x9 DUP9 ADD PUSH2 0x1920 DUP2 SLOAD PUSH2 0x13BE JUMP JUMPDEST SWAP1 SSTORE PUSH2 0x1903 JUMP JUMPDEST PUSH4 0x4E487B71 PUSH1 0xE0 SHL DUP3 MSTORE PUSH1 0x12 PUSH1 0x4 MSTORE PUSH1 0x24 DUP3 REVERT JUMPDEST PUSH4 0x4E487B71 PUSH1 0xE0 SHL DUP3 MSTORE PUSH1 0x11 PUSH1 0x4 MSTORE PUSH1 0x24 DUP3 REVERT JUMPDEST DUP1 PUSH1 0x0 MSTORE PUSH1 0x5 PUSH1 0x20 MSTORE PUSH1 0xFF PUSH1 0x40 DUP1 PUSH1 0x0 KECCAK256 PUSH2 0x196B DUP10 SLOAD DUP7 PUSH2 0x1390 JUMP JUMPDEST SWAP1 SLOAD PUSH1 0x3 SWAP2 SWAP1 SWAP2 SHL SHR PUSH1 0x1 PUSH1 0x1 PUSH1 0xA0 SHL SUB AND PUSH1 0x0 SWAP1 DUP2 MSTORE PUSH1 0x20 SWAP2 SWAP1 SWAP2 MSTORE KECCAK256 SLOAD AND PUSH2 0x18E1 JUMPI POP POP POP POP POP POP POP JUMP JUMPDEST SWAP3 SWAP1 SWAP2 PUSH1 0x74 SWAP5 SWAP3 DUP5 MSTORE PUSH1 0x20 DUP5 ADD MSTORE PUSH12 0xFFFFFFFFFFFFFFFFFFFFFFFF NOT SWAP1 PUSH1 0x60 SHL AND PUSH1 0x40 DUP4 ADD MSTORE PUSH1 0x54 DUP3 ADD MSTORE ADD SWAP1 JUMP INVALID PUSH31 0xD5FACE07AFB2B0E99DF53523951350D2A3D4F5D105A0DD2110703EFE399537 LOG2 PUSH5 0x6970667358 0x22 SLT KECCAK256 MUL 0xA5 0x29 0x21 PUSH5 0x40A19DD6FB AND PUSH14 0xD23F0B816409FF8E1FB73C9C9037 0x28 0x25 SGT ADD SWAP15 0xC3 PUSH5 0x736F6C6343 STOP ADDMOD SHL STOP CALLER "
        },
        "methodIdentifiers": {
          "checkWinner(uint256)": "18854939",
          "createGameRoom(uint256,uint256,uint8,uint256,uint256)": "a2796f46",
          "forceAdvance(uint256)": "9fe63153",
          "gameRooms(uint256)": "426c4641",
          "gameToken()": "c3dfdae6",
          "getALlGameRooms()": "a0e1746f",
          "getGameRoomById(uint256)": "61099b17",
          "getIsPlayerEliminatedByRoomId(uint256,address)": "0e5a2ebe",
          "getPlayerScoresForEachGameRoom(uint256,address)": "dbed0391",
          "getTotalRoomsCreated()": "1ab91215",
          "isEliminated(uint256,address)": "7e32eb9a",
          "joinGameRoom(uint256)": "eca0a441",
          "owner()": "8da5cb5b",
          "playTurn(uint256)": "a0fc6cff",
          "playerScores(uint256,address)": "00200e27",
          "roomCounter()": "921c45ca",
          "skipFee()": "3dc290d3",
          "skipTurn(uint256)": "ce371cbd",
          "startGame(uint256)": "e5ed1d59"
        }
      }
    }
  }
}