{
  "contracts/Numberjack.sol": {
    "NumberJackGame": {
      "abi": [
        {
          "inputs": [
            {
              "internalType": "address",
              "name": "gameTokenAddress",
              "type": "address"
            }
          ],
          "stateMutability": "nonpayable",
          "type": "constructor"
        },
        {
          "anonymous": false,
          "inputs": [
            {
              "indexed": false,
              "internalType": "uint256",
              "name": "roomId",
              "type": "uint256"
            },
            {
              "indexed": false,
              "internalType": "address",
              "name": "creator",
              "type": "address"
            },
            {
              "indexed": false,
              "internalType": "uint256",
              "name": "maxNumber",
              "type": "uint256"
            },
            {
              "indexed": false,
              "internalType": "uint256",
              "name": "entryFee",
              "type": "uint256"
            },
            {
              "indexed": false,
              "internalType": "uint256",
              "name": "rounds",
              "type": "uint256"
            }
          ],
          "name": "GameRoomCreated",
          "type": "event"
        },
        {
          "anonymous": false,
          "inputs": [
            {
              "indexed": false,
              "internalType": "uint256",
              "name": "_roomId",
              "type": "uint256"
            }
          ],
          "name": "GameStarted",
          "type": "event"
        },
        {
          "anonymous": false,
          "inputs": [
            {
              "indexed": false,
              "internalType": "uint256",
              "name": "roomId",
              "type": "uint256"
            },
            {
              "indexed": false,
              "internalType": "uint256",
              "name": "prizeTransferredToOwner",
              "type": "uint256"
            }
          ],
          "name": "NoWinner",
          "type": "event"
        },
        {
          "anonymous": false,
          "inputs": [
            {
              "indexed": false,
              "internalType": "uint256",
              "name": "roomId",
              "type": "uint256"
            },
            {
              "indexed": false,
              "internalType": "address",
              "name": "player",
              "type": "address"
            }
          ],
          "name": "PlayerEliminated",
          "type": "event"
        },
        {
          "anonymous": false,
          "inputs": [
            {
              "indexed": false,
              "internalType": "uint256",
              "name": "roomId",
              "type": "uint256"
            },
            {
              "indexed": false,
              "internalType": "address",
              "name": "player",
              "type": "address"
            }
          ],
          "name": "PlayerJoined",
          "type": "event"
        },
        {
          "anonymous": false,
          "inputs": [
            {
              "indexed": false,
              "internalType": "uint256",
              "name": "_roomId",
              "type": "uint256"
            },
            {
              "indexed": false,
              "internalType": "address",
              "name": "player",
              "type": "address"
            }
          ],
          "name": "PlayerPlayed",
          "type": "event"
        },
        {
          "anonymous": false,
          "inputs": [
            {
              "indexed": false,
              "internalType": "uint256",
              "name": "roomId",
              "type": "uint256"
            },
            {
              "indexed": false,
              "internalType": "address",
              "name": "newPlayer",
              "type": "address"
            },
            {
              "indexed": false,
              "internalType": "uint256",
              "name": "currentRound",
              "type": "uint256"
            },
            {
              "indexed": false,
              "internalType": "uint256",
              "name": "turnStartTime",
              "type": "uint256"
            }
          ],
          "name": "TurnAdvanced",
          "type": "event"
        },
        {
          "anonymous": false,
          "inputs": [
            {
              "indexed": false,
              "internalType": "uint256",
              "name": "roomId",
              "type": "uint256"
            },
            {
              "indexed": false,
              "internalType": "address",
              "name": "player",
              "type": "address"
            }
          ],
          "name": "TurnSkipped",
          "type": "event"
        },
        {
          "anonymous": false,
          "inputs": [
            {
              "indexed": false,
              "internalType": "uint256",
              "name": "roomId",
              "type": "uint256"
            },
            {
              "indexed": false,
              "internalType": "address",
              "name": "timedOutPlayer",
              "type": "address"
            }
          ],
          "name": "TurnTimedOut",
          "type": "event"
        },
        {
          "anonymous": false,
          "inputs": [
            {
              "indexed": false,
              "internalType": "uint256",
              "name": "roomId",
              "type": "uint256"
            },
            {
              "indexed": false,
              "internalType": "address",
              "name": "winner",
              "type": "address"
            },
            {
              "indexed": false,
              "internalType": "uint256",
              "name": "prize",
              "type": "uint256"
            }
          ],
          "name": "WinnerDeclared",
          "type": "event"
        },
        {
          "inputs": [
            {
              "internalType": "uint256",
              "name": "_roomId",
              "type": "uint256"
            }
          ],
          "name": "checkWinner",
          "outputs": [],
          "stateMutability": "nonpayable",
          "type": "function"
        },
        {
          "inputs": [
            {
              "internalType": "uint256",
              "name": "_maxNumber",
              "type": "uint256"
            },
            {
              "internalType": "uint256",
              "name": "_entryFee",
              "type": "uint256"
            },
            {
              "internalType": "uint256",
              "name": "_rounds",
              "type": "uint256"
            },
            {
              "internalType": "uint256",
              "name": "_turnTimeout",
              "type": "uint256"
            }
          ],
          "name": "createGameRoom",
          "outputs": [],
          "stateMutability": "payable",
          "type": "function"
        },
        {
          "inputs": [
            {
              "internalType": "uint256",
              "name": "_roomId",
              "type": "uint256"
            }
          ],
          "name": "forceAdvance",
          "outputs": [],
          "stateMutability": "nonpayable",
          "type": "function"
        },
        {
          "inputs": [
            {
              "internalType": "uint256",
              "name": "",
              "type": "uint256"
            }
          ],
          "name": "gameRooms",
          "outputs": [
            {
              "internalType": "address",
              "name": "creator",
              "type": "address"
            },
            {
              "internalType": "uint256",
              "name": "gameId",
              "type": "uint256"
            },
            {
              "internalType": "uint256",
              "name": "maxNumber",
              "type": "uint256"
            },
            {
              "internalType": "uint256",
              "name": "entryFee",
              "type": "uint256"
            },
            {
              "internalType": "bool",
              "name": "isActive",
              "type": "bool"
            },
            {
              "internalType": "enum NumberJackGame.GameStatus",
              "name": "status",
              "type": "uint8"
            },
            {
              "internalType": "uint256",
              "name": "rounds",
              "type": "uint256"
            },
            {
              "internalType": "uint256",
              "name": "currentRound",
              "type": "uint256"
            },
            {
              "internalType": "uint256",
              "name": "currentPlayerIndex",
              "type": "uint256"
            },
            {
              "internalType": "uint256",
              "name": "lastTurnTimestamp",
              "type": "uint256"
            },
            {
              "internalType": "uint256",
              "name": "turnTimeout",
              "type": "uint256"
            }
          ],
          "stateMutability": "view",
          "type": "function"
        },
        {
          "inputs": [],
          "name": "gameToken",
          "outputs": [
            {
              "internalType": "contract IERC20",
              "name": "",
              "type": "address"
            }
          ],
          "stateMutability": "view",
          "type": "function"
        },
        {
          "inputs": [],
          "name": "getALlGameRooms",
          "outputs": [
            {
              "components": [
                {
                  "internalType": "address",
                  "name": "creator",
                  "type": "address"
                },
                {
                  "internalType": "uint256",
                  "name": "gameId",
                  "type": "uint256"
                },
                {
                  "internalType": "uint256",
                  "name": "maxNumber",
                  "type": "uint256"
                },
                {
                  "internalType": "uint256",
                  "name": "entryFee",
                  "type": "uint256"
                },
                {
                  "internalType": "address[]",
                  "name": "players",
                  "type": "address[]"
                },
                {
                  "internalType": "bool",
                  "name": "isActive",
                  "type": "bool"
                },
                {
                  "internalType": "enum NumberJackGame.GameStatus",
                  "name": "status",
                  "type": "uint8"
                },
                {
                  "internalType": "uint256",
                  "name": "rounds",
                  "type": "uint256"
                },
                {
                  "internalType": "uint256",
                  "name": "currentRound",
                  "type": "uint256"
                },
                {
                  "internalType": "uint256",
                  "name": "currentPlayerIndex",
                  "type": "uint256"
                },
                {
                  "internalType": "uint256",
                  "name": "lastTurnTimestamp",
                  "type": "uint256"
                },
                {
                  "internalType": "uint256",
                  "name": "turnTimeout",
                  "type": "uint256"
                }
              ],
              "internalType": "struct NumberJackGame.GameRoom[]",
              "name": "",
              "type": "tuple[]"
            }
          ],
          "stateMutability": "view",
          "type": "function"
        },
        {
          "inputs": [
            {
              "internalType": "uint256",
              "name": "_gameRoomId",
              "type": "uint256"
            }
          ],
          "name": "getGameRoomById",
          "outputs": [
            {
              "components": [
                {
                  "internalType": "address",
                  "name": "creator",
                  "type": "address"
                },
                {
                  "internalType": "uint256",
                  "name": "gameId",
                  "type": "uint256"
                },
                {
                  "internalType": "uint256",
                  "name": "maxNumber",
                  "type": "uint256"
                },
                {
                  "internalType": "uint256",
                  "name": "entryFee",
                  "type": "uint256"
                },
                {
                  "internalType": "address[]",
                  "name": "players",
                  "type": "address[]"
                },
                {
                  "internalType": "bool",
                  "name": "isActive",
                  "type": "bool"
                },
                {
                  "internalType": "enum NumberJackGame.GameStatus",
                  "name": "status",
                  "type": "uint8"
                },
                {
                  "internalType": "uint256",
                  "name": "rounds",
                  "type": "uint256"
                },
                {
                  "internalType": "uint256",
                  "name": "currentRound",
                  "type": "uint256"
                },
                {
                  "internalType": "uint256",
                  "name": "currentPlayerIndex",
                  "type": "uint256"
                },
                {
                  "internalType": "uint256",
                  "name": "lastTurnTimestamp",
                  "type": "uint256"
                },
                {
                  "internalType": "uint256",
                  "name": "turnTimeout",
                  "type": "uint256"
                }
              ],
              "internalType": "struct NumberJackGame.GameRoom",
              "name": "",
              "type": "tuple"
            }
          ],
          "stateMutability": "view",
          "type": "function"
        },
        {
          "inputs": [
            {
              "internalType": "uint256",
              "name": "_roomId",
              "type": "uint256"
            },
            {
              "internalType": "address",
              "name": "_player",
              "type": "address"
            }
          ],
          "name": "getIsPlayerEliminatedByRoomId",
          "outputs": [
            {
              "internalType": "bool",
              "name": "",
              "type": "bool"
            }
          ],
          "stateMutability": "view",
          "type": "function"
        },
        {
          "inputs": [
            {
              "internalType": "uint256",
              "name": "_roomId",
              "type": "uint256"
            },
            {
              "internalType": "address",
              "name": "_player",
              "type": "address"
            }
          ],
          "name": "getPlayerScoresForEachGameRoom",
          "outputs": [
            {
              "internalType": "uint256",
              "name": "",
              "type": "uint256"
            }
          ],
          "stateMutability": "view",
          "type": "function"
        },
        {
          "inputs": [],
          "name": "getTotalRoomsCreated",
          "outputs": [
            {
              "internalType": "uint256",
              "name": "",
              "type": "uint256"
            }
          ],
          "stateMutability": "view",
          "type": "function"
        },
        {
          "inputs": [
            {
              "internalType": "uint256",
              "name": "",
              "type": "uint256"
            },
            {
              "internalType": "address",
              "name": "",
              "type": "address"
            }
          ],
          "name": "isEliminated",
          "outputs": [
            {
              "internalType": "bool",
              "name": "",
              "type": "bool"
            }
          ],
          "stateMutability": "view",
          "type": "function"
        },
        {
          "inputs": [
            {
              "internalType": "uint256",
              "name": "_roomId",
              "type": "uint256"
            }
          ],
          "name": "joinGameRoom",
          "outputs": [],
          "stateMutability": "payable",
          "type": "function"
        },
        {
          "inputs": [],
          "name": "owner",
          "outputs": [
            {
              "internalType": "address",
              "name": "",
              "type": "address"
            }
          ],
          "stateMutability": "view",
          "type": "function"
        },
        {
          "inputs": [
            {
              "internalType": "uint256",
              "name": "_roomId",
              "type": "uint256"
            }
          ],
          "name": "playTurn",
          "outputs": [
            {
              "internalType": "uint256",
              "name": "",
              "type": "uint256"
            },
            {
              "internalType": "uint256",
              "name": "",
              "type": "uint256"
            }
          ],
          "stateMutability": "nonpayable",
          "type": "function"
        },
        {
          "inputs": [
            {
              "internalType": "uint256",
              "name": "",
              "type": "uint256"
            },
            {
              "internalType": "address",
              "name": "",
              "type": "address"
            }
          ],
          "name": "playerScores",
          "outputs": [
            {
              "internalType": "uint256",
              "name": "",
              "type": "uint256"
            }
          ],
          "stateMutability": "view",
          "type": "function"
        },
        {
          "inputs": [],
          "name": "roomCounter",
          "outputs": [
            {
              "internalType": "uint256",
              "name": "",
              "type": "uint256"
            }
          ],
          "stateMutability": "view",
          "type": "function"
        },
        {
          "inputs": [],
          "name": "skipFee",
          "outputs": [
            {
              "internalType": "uint256",
              "name": "",
              "type": "uint256"
            }
          ],
          "stateMutability": "view",
          "type": "function"
        },
        {
          "inputs": [
            {
              "internalType": "uint256",
              "name": "_roomId",
              "type": "uint256"
            }
          ],
          "name": "skipTurn",
          "outputs": [],
          "stateMutability": "nonpayable",
          "type": "function"
        },
        {
          "inputs": [
            {
              "internalType": "uint256",
              "name": "_roomId",
              "type": "uint256"
            }
          ],
          "name": "startGame",
          "outputs": [],
          "stateMutability": "nonpayable",
          "type": "function"
        }
      ],
      "evm": {
        "bytecode": {
          "linkReferences": {},
          "object": "608034608357601f6117ef38819003918201601f19168301916001600160401b03831184841017608857808492602094604052833981010312608357516001600160a01b03811690819003608357600a600255600080546001600160a01b0319908116331790915560018054909116919091179055604051611750908161009f8239f35b600080fd5b634e487b7160e01b600052604160045260246000fdfe6080604052600436101561001257600080fd5b60003560e01c8062200e27146102f25780630e5a2ebe14610b445780631885493914610cee5780631ab9121514610afd5780633dc290d314610cd0578063426c464114610c1e57806361099b1714610b845780637e32eb9a14610b445780638da5cb5b14610b1b578063921c45ca14610afd5780639e43d97d146109335780639fe631531461081b578063a0e1746f1461070f578063a0fc6cff1461050f578063c3dfdae6146104e6578063ce371cbd1461032d578063dbed0391146102f2578063e5ed1d59146102095763eca0a441146100ec57600080fd5b6020366003190112610204576004358060005260036020526040600020600581015460ff8116156101cf5760081c60ff1660038110156101b957610130901561153e565b61013f60038201543414611418565b61014c336004830161145a565b6000198201918083116101a35761019061019e9261018a7f87969bc7faf902221a147b95ceba76e011c5efb0339a0a8ee7a2bb82d9cfbbd695611139565b906111fe565b60405191829133908361149b565b0390a1005b634e487b7160e01b600052601160045260246000fd5b634e487b7160e01b600052602160045260246000fd5b60405162461bcd60e51b815260206004820152600d60248201526c526f6f6d20696e61637469766560981b6044820152606490fd5b600080fd5b3461020457602036600319011261020457600435600081815260036020526040902080546001600160a01b031633036102b4576005810160ff815460081c1660038110156101b95761025b901561153e565b805461ff0019166101001790554260098201556000198201918083116101a3576102ab60209261018a7f50ad08f58a27f2851d7e3a1b3a6a46b290f2ce677e99642d30ff639721e7779095611139565b604051908152a1005b60405162461bcd60e51b815260206004820152601660248201527513db9b1e4818dc99585d1bdc8818d85b881cdd185c9d60521b6044820152606490fd5b346102045761030036610fb3565b90600052600460205260406000209060018060a01b03166000526020526020604060002054604051908152f35b3461020457602036600319011261020457600435806000526003602052604060002060ff600582015460081c1660038110156101b95761039d91610376600161038493146110b9565b6004600882015491016110fc565b90543360039290921b1c6001600160a01b0316146114c1565b60008181526005602090815260408083203384529091529020546103c49060ff16156114fd565b600154600080546002546040516323b872dd60e01b81523360048201526001600160a01b0392831660248201526044810191909152926020928492606492849291165af19081156104da57600091610498575b501561045b57610459907f78d563416c0d6c2454e9c81222ee1e58f6c3ff4dfcfa798d85d391e57023ecc96040518061045133858361149b565b0390a1611581565b005b60405162461bcd60e51b8152602060048201526015602482015274151bdad95b881d1c985b9cd9995c8819985a5b1959605a1b6044820152606490fd5b6020813d6020116104d2575b816104b160209383611305565b810103126104ce57519081151582036104cb575082610417565b80fd5b5080fd5b3d91506104a4565b6040513d6000823e3d90fd5b34610204576000366003190112610204576001546040516001600160a01b039091168152602090f35b346102045760203660031901126102045760043580600052600360205260406000209060ff600583015460081c1660038110156101b957600161055291146110b9565b61059b600883015461056a61038482600487016110fc565b60008381526005602090815260408083203384529091529020546105919060ff16156114fd565b60078401546114b4565b90606460405160208101906105c5816105b787334442886116eb565b03601f198101835282611305565b5190200691600183018093116101a357600181018091116101a3576064906040516105fb816105b76020820194334442886116eb565b5190200690600182018092116101a35761069e7f159625897a04b71f4e46d7111a412afacd7a15723596ccc828d247ee50e85d679160409561063d85876114b4565b600083815260046020908152898220338352905288902080549091610661916114b4565b905560008281526004602090815288822033835290528790205460029190910154106106ad575b61069181611581565b855191829133908361149b565b0390a182519182526020820152f35b8060005260056020528560002060018060a01b03331660005260205285600020600160ff198254161790557f638a014c19f58a705adfdf3c8350f6eecbcab57edc63f1112fef5828840730eb86518061070733858361149b565b0390a1610688565b346102045760003660031901126102045760075467ffffffffffffffff8111610805576040519061074660208260051b0183611305565b808252600760009081526020830191907fa66cc928b5edb82af9bd49922954155ab7b0942694bea4ce44661d9a8736c688835b8383106107e757848660405191829160208301906020845251809152604083019060408160051b85010192916000905b8282106107b857505050500390f35b919360019193955060206107d78192603f198a82030186528851610fe6565b96019201920185949391926107a9565b600b60206001926107f785611327565b815201920192019190610779565b634e487b7160e01b600052604160045260246000fd5b346102045760203660031901126102045760043580600052600360205260406000209060ff600583015460081c1660038110156101b957600161085e91146110b9565b6108716009830154600a840154906114b4565b4211156108f5577e32e633d34e1ad18fdfb5054de555825496a862d3dbb13071d8b6d213bb9d716104516108b0846004600861045997015491016110fc565b9054600085815260056020908152604080832060039590951b9390931c6001600160a01b0316808352939052819020805460ff1916600117905551918291858361149b565b60405162461bcd60e51b8152602060048201526016602482015275151d5c9b881b9bdd081d1a5b5959081bdd5d081e595d60521b6044820152606490fd5b6080366003190112610204576004356044356024358215610abf578015610a825761095f813414611418565b61096a60065461112a565b806006556000526003602052604060002060018060a01b03331660018060a01b031982541617815583600282015581600382015560058101600160ff1982541617815561ff001981541690558260068201556001600782015560006008820155606435600a820155600060098201556109e6336004830161145a565b60075490600160401b821015610805577f87969bc7faf902221a147b95ceba76e011c5efb0339a0a8ee7a2bb82d9cfbbd69461019e94610a5360a09361018a8660017f1edf9a86c33fed6210d8c78ee787814f0977b94d4e47167aa29231d4f7a565cb9801600755611139565b6006549460405192868452336020850152604084015260608301526080820152a160405191829133908361149b565b60405162461bcd60e51b81526020600482015260156024820152740456e74727920666565206d757374206265203e203605c1b6044820152606490fd5b60405162461bcd60e51b815260206004820152601660248201527504d6178206e756d626572206d757374206265203e20360541b6044820152606490fd5b34610204576000366003190112610204576020600654604051908152f35b34610204576000366003190112610204576000546040516001600160a01b039091168152602090f35b3461020457610b5236610fb3565b90600052600560205260406000209060018060a01b0316600052602052602060ff604060002054166040519015158152f35b34610204576020366003190112610204576000610160604051610ba6816112e8565b828152826020820152826040820152826060820152606060808201528260a08201528260c08201528260e082015282610100820152826101208201528261014082015201526004356000526003602052610c1a610c066040600020611327565b604051918291602083526020830190610fe6565b0390f35b34610204576020366003190112610204576004356000526003602052610160604060002060018060a01b0381541690600181015490600281015460038201546005830154610cb2600685015491600786015493600887015495600a6009890154980154986040519a8b5260208b015260408a0152606089015260ff81161515608089015260ff60a089019160081c16610fd9565b60c086015260e0850152610100840152610120830152610140820152f35b34610204576000366003190112610204576020600254604051908152f35b346102045760203660031901126102045760043580600052600360205260406000206005810160ff815460081c1660038110156101b9576001610d3191146110b9565b600080600019918092600486018054945b858110610eb1575050506003850154928381029381850414901517156101a357600181148015610ea0575b15610dfe57506001600160a01b031690600081838115610df4575b600092839283928392f1156104da577f7ed5face07afb2b0e99df53523951350d2a3d4f5d105a0dd2110703efe399537916060916040519187835260208301526040820152a15b805461ffff191661020017905560001982019182116101a35761018a61045992611139565b6108fc9250610d88565b15159050610e625760008080808460018060a01b03825416828215610e59575bf1156104da5760407f66a8c5b89438eb03696fbf4fae05d99dcfa81867a18c352b258b5de0aea1c246918151908682526020820152a1610dcf565b506108fc610e1e565b60405162461bcd60e51b815260206004820152601660248201527511d85b59481b9bdd081e595d0818dbdb98db1d59195960521b6044820152606490fd5b506007850154600686015410610d6d565b88600052600560205260ff604080600020610ecc84866110fc565b905460039190911b1c6001600160a01b0316600090815260209190915220541615610efa575b600101610d42565b935091610f069061112a565b91610f1184826110fc565b60018060a01b0391549060031b1c169388600052600460205282604080600020610f3b84866110fc565b905460039190911b1c6001600160a01b0316600090815260209190915220541015610ef25791508760005260046020526001604080600020610f7d85856110fc565b848060a01b0391549060031b1c1690600091848060a01b03168252602052205492610fa881846110fc565b50909150610ef29050565b604090600319011261020457600435906024356001600160a01b03811681036102045790565b9060038210156101b95752565b9061018081019160018060a01b0381511682526020810151602083015260408101516040830152606081015160608301526080810151926101806080840152835180915260206101a0840194019060005b81811061109a575050506101608160a082930151151560a085015261106460c082015160c0860190610fd9565b60e081015160e0850152610100810151610100850152610120810151610120850152610140810151610140850152015191015290565b82516001600160a01b0316865260209586019590920191600101611037565b156110c057565b60405162461bcd60e51b815260206004820152601460248201527347616d65206e6f7420696e2070726f677265737360601b6044820152606490fd5b80548210156111145760005260206000200190600090565b634e487b7160e01b600052603260045260246000fd5b60001981146101a35760010190565b600754811015611114576007600052600b602060002091020190600090565b8181146111fa5781549167ffffffffffffffff831161080557600160401b83116108055781548383558084106111d1575b5060005260206000209060005260206000208154916000925b8484106111b0575050505050565b600191820180546001600160a01b03909216848601559390910192906111a2565b8260005283602060002091820191015b8181106111ee5750611189565b600081556001016111e1565b5050565b91906112d25780820361120f575050565b805482546001600160a01b0319166001600160a01b039190911617825560018181015490830155600280820154908301556003808201549083015561125a6004808301908401611158565b60058201906005810160ff815416151560ff801985541691161783555490600360ff8360081c1610156101b95782600a939261ff00808695549260ff191616169061ff001916179055600681015460068501556007810154600785015560088101546008850155600981015460098501550154910155565b634e487b7160e01b600052600060045260246000fd5b610180810190811067ffffffffffffffff82111761080557604052565b90601f8019910116810190811067ffffffffffffffff82111761080557604052565b90604051611334816112e8565b809260018060a01b038154168252600181015460208301526002810154604083015260038101546060830152600481016040518082602082945493848152019060005260206000209260005b8181106113f657505061139592500382611305565b608083015260ff6005820154818116151560a085015260081c1660038110156101b95761016091600a9160c0850152600681015460e08501526007810154610100850152600881015461012085015260098101546101408501520154910152565b84546001600160a01b0316835260019485019486945060209093019201611380565b1561141f57565b60405162461bcd60e51b8152602060048201526013602482015272496e636f727265637420656e7472792066656560681b6044820152606490fd5b8054600160401b81101561080557611477916001820181556110fc565b81546001600160a01b0393841660039290921b91821b9390911b1916919091179055565b9081526001600160a01b03909116602082015260400190565b919082018092116101a357565b156114c857565b60405162461bcd60e51b815260206004820152600d60248201526c2737ba103cb7bab9103a3ab93760991b6044820152606490fd5b1561150457565b60405162461bcd60e51b8152602060048201526012602482015271165bdd48185c9948195b1a5b5a5b985d195960721b6044820152606490fd5b1561154557565b60405162461bcd60e51b815260206004820152601460248201527311d85b5948185b1c9958591e481cdd185c9d195960621b6044820152606490fd5b8060005260036020526040600020600481019182549160088101928354600983019142835560018115905b15611679575b600087546001810180911161166557826116515783859106808a55801561163c575b036115ac5750505050600761160f7f5e29cb4c5e826275cb8cf9f76f97caadac08d231cda0b6aeade3c9de8a7ef146966080965b54906110fc565b60018060a01b0391549060031b1c16920154905491604051938452602084015260408301526060820152a1565b6007880161164a815461112a565b90556115d4565b634e487b7160e01b82526012600452602482fd5b634e487b7160e01b82526011600452602482fd5b85600052600560205260ff6040806000206116958a548c6110fc565b905460039190911b1c6001600160a01b031660009081526020919091522054166115b257505050600761160f7f5e29cb4c5e826275cb8cf9f76f97caadac08d231cda0b6aeade3c9de8a7ef14696608096611608565b92909160749492845260208401526bffffffffffffffffffffffff199060601b1660408301526054820152019056fea264697066735822122082c79e40ed1475f35efca6abe42bf2ccb2d11496c91a1991d9a9ccd15049d01464736f6c634300081b0033",
          "opcodes": "PUSH1 0x80 CALLVALUE PUSH1 0x83 JUMPI PUSH1 0x1F PUSH2 0x17EF CODESIZE DUP2 SWAP1 SUB SWAP2 DUP3 ADD PUSH1 0x1F NOT AND DUP4 ADD SWAP2 PUSH1 0x1 PUSH1 0x1 PUSH1 0x40 SHL SUB DUP4 GT DUP5 DUP5 LT OR PUSH1 0x88 JUMPI DUP1 DUP5 SWAP3 PUSH1 0x20 SWAP5 PUSH1 0x40 MSTORE DUP4 CODECOPY DUP2 ADD SUB SLT PUSH1 0x83 JUMPI MLOAD PUSH1 0x1 PUSH1 0x1 PUSH1 0xA0 SHL SUB DUP2 AND SWAP1 DUP2 SWAP1 SUB PUSH1 0x83 JUMPI PUSH1 0xA PUSH1 0x2 SSTORE PUSH1 0x0 DUP1 SLOAD PUSH1 0x1 PUSH1 0x1 PUSH1 0xA0 SHL SUB NOT SWAP1 DUP2 AND CALLER OR SWAP1 SWAP2 SSTORE PUSH1 0x1 DUP1 SLOAD SWAP1 SWAP2 AND SWAP2 SWAP1 SWAP2 OR SWAP1 SSTORE PUSH1 0x40 MLOAD PUSH2 0x1750 SWAP1 DUP2 PUSH2 0x9F DUP3 CODECOPY RETURN JUMPDEST PUSH1 0x0 DUP1 REVERT JUMPDEST PUSH4 0x4E487B71 PUSH1 0xE0 SHL PUSH1 0x0 MSTORE PUSH1 0x41 PUSH1 0x4 MSTORE PUSH1 0x24 PUSH1 0x0 REVERT INVALID PUSH1 0x80 PUSH1 0x40 MSTORE PUSH1 0x4 CALLDATASIZE LT ISZERO PUSH2 0x12 JUMPI PUSH1 0x0 DUP1 REVERT JUMPDEST PUSH1 0x0 CALLDATALOAD PUSH1 0xE0 SHR DUP1 PUSH3 0x200E27 EQ PUSH2 0x2F2 JUMPI DUP1 PUSH4 0xE5A2EBE EQ PUSH2 0xB44 JUMPI DUP1 PUSH4 0x18854939 EQ PUSH2 0xCEE JUMPI DUP1 PUSH4 0x1AB91215 EQ PUSH2 0xAFD JUMPI DUP1 PUSH4 0x3DC290D3 EQ PUSH2 0xCD0 JUMPI DUP1 PUSH4 0x426C4641 EQ PUSH2 0xC1E JUMPI DUP1 PUSH4 0x61099B17 EQ PUSH2 0xB84 JUMPI DUP1 PUSH4 0x7E32EB9A EQ PUSH2 0xB44 JUMPI DUP1 PUSH4 0x8DA5CB5B EQ PUSH2 0xB1B JUMPI DUP1 PUSH4 0x921C45CA EQ PUSH2 0xAFD JUMPI DUP1 PUSH4 0x9E43D97D EQ PUSH2 0x933 JUMPI DUP1 PUSH4 0x9FE63153 EQ PUSH2 0x81B JUMPI DUP1 PUSH4 0xA0E1746F EQ PUSH2 0x70F JUMPI DUP1 PUSH4 0xA0FC6CFF EQ PUSH2 0x50F JUMPI DUP1 PUSH4 0xC3DFDAE6 EQ PUSH2 0x4E6 JUMPI DUP1 PUSH4 0xCE371CBD EQ PUSH2 0x32D JUMPI DUP1 PUSH4 0xDBED0391 EQ PUSH2 0x2F2 JUMPI DUP1 PUSH4 0xE5ED1D59 EQ PUSH2 0x209 JUMPI PUSH4 0xECA0A441 EQ PUSH2 0xEC JUMPI PUSH1 0x0 DUP1 REVERT JUMPDEST PUSH1 0x20 CALLDATASIZE PUSH1 0x3 NOT ADD SLT PUSH2 0x204 JUMPI PUSH1 0x4 CALLDATALOAD DUP1 PUSH1 0x0 MSTORE PUSH1 0x3 PUSH1 0x20 MSTORE PUSH1 0x40 PUSH1 0x0 KECCAK256 PUSH1 0x5 DUP2 ADD SLOAD PUSH1 0xFF DUP2 AND ISZERO PUSH2 0x1CF JUMPI PUSH1 0x8 SHR PUSH1 0xFF AND PUSH1 0x3 DUP2 LT ISZERO PUSH2 0x1B9 JUMPI PUSH2 0x130 SWAP1 ISZERO PUSH2 0x153E JUMP JUMPDEST PUSH2 0x13F PUSH1 0x3 DUP3 ADD SLOAD CALLVALUE EQ PUSH2 0x1418 JUMP JUMPDEST PUSH2 0x14C CALLER PUSH1 0x4 DUP4 ADD PUSH2 0x145A JUMP JUMPDEST PUSH1 0x0 NOT DUP3 ADD SWAP2 DUP1 DUP4 GT PUSH2 0x1A3 JUMPI PUSH2 0x190 PUSH2 0x19E SWAP3 PUSH2 0x18A PUSH32 0x87969BC7FAF902221A147B95CEBA76E011C5EFB0339A0A8EE7A2BB82D9CFBBD6 SWAP6 PUSH2 0x1139 JUMP JUMPDEST SWAP1 PUSH2 0x11FE JUMP JUMPDEST PUSH1 0x40 MLOAD SWAP2 DUP3 SWAP2 CALLER SWAP1 DUP4 PUSH2 0x149B JUMP JUMPDEST SUB SWAP1 LOG1 STOP JUMPDEST PUSH4 0x4E487B71 PUSH1 0xE0 SHL PUSH1 0x0 MSTORE PUSH1 0x11 PUSH1 0x4 MSTORE PUSH1 0x24 PUSH1 0x0 REVERT JUMPDEST PUSH4 0x4E487B71 PUSH1 0xE0 SHL PUSH1 0x0 MSTORE PUSH1 0x21 PUSH1 0x4 MSTORE PUSH1 0x24 PUSH1 0x0 REVERT JUMPDEST PUSH1 0x40 MLOAD PUSH3 0x461BCD PUSH1 0xE5 SHL DUP2 MSTORE PUSH1 0x20 PUSH1 0x4 DUP3 ADD MSTORE PUSH1 0xD PUSH1 0x24 DUP3 ADD MSTORE PUSH13 0x526F6F6D20696E616374697665 PUSH1 0x98 SHL PUSH1 0x44 DUP3 ADD MSTORE PUSH1 0x64 SWAP1 REVERT JUMPDEST PUSH1 0x0 DUP1 REVERT JUMPDEST CALLVALUE PUSH2 0x204 JUMPI PUSH1 0x20 CALLDATASIZE PUSH1 0x3 NOT ADD SLT PUSH2 0x204 JUMPI PUSH1 0x4 CALLDATALOAD PUSH1 0x0 DUP2 DUP2 MSTORE PUSH1 0x3 PUSH1 0x20 MSTORE PUSH1 0x40 SWAP1 KECCAK256 DUP1 SLOAD PUSH1 0x1 PUSH1 0x1 PUSH1 0xA0 SHL SUB AND CALLER SUB PUSH2 0x2B4 JUMPI PUSH1 0x5 DUP2 ADD PUSH1 0xFF DUP2 SLOAD PUSH1 0x8 SHR AND PUSH1 0x3 DUP2 LT ISZERO PUSH2 0x1B9 JUMPI PUSH2 0x25B SWAP1 ISZERO PUSH2 0x153E JUMP JUMPDEST DUP1 SLOAD PUSH2 0xFF00 NOT AND PUSH2 0x100 OR SWAP1 SSTORE TIMESTAMP PUSH1 0x9 DUP3 ADD SSTORE PUSH1 0x0 NOT DUP3 ADD SWAP2 DUP1 DUP4 GT PUSH2 0x1A3 JUMPI PUSH2 0x2AB PUSH1 0x20 SWAP3 PUSH2 0x18A PUSH32 0x50AD08F58A27F2851D7E3A1B3A6A46B290F2CE677E99642D30FF639721E77790 SWAP6 PUSH2 0x1139 JUMP JUMPDEST PUSH1 0x40 MLOAD SWAP1 DUP2 MSTORE LOG1 STOP JUMPDEST PUSH1 0x40 MLOAD PUSH3 0x461BCD PUSH1 0xE5 SHL DUP2 MSTORE PUSH1 0x20 PUSH1 0x4 DUP3 ADD MSTORE PUSH1 0x16 PUSH1 0x24 DUP3 ADD MSTORE PUSH22 0x13DB9B1E4818DC99585D1BDC8818D85B881CDD185C9D PUSH1 0x52 SHL PUSH1 0x44 DUP3 ADD MSTORE PUSH1 0x64 SWAP1 REVERT JUMPDEST CALLVALUE PUSH2 0x204 JUMPI PUSH2 0x300 CALLDATASIZE PUSH2 0xFB3 JUMP JUMPDEST SWAP1 PUSH1 0x0 MSTORE PUSH1 0x4 PUSH1 0x20 MSTORE PUSH1 0x40 PUSH1 0x0 KECCAK256 SWAP1 PUSH1 0x1 DUP1 PUSH1 0xA0 SHL SUB AND PUSH1 0x0 MSTORE PUSH1 0x20 MSTORE PUSH1 0x20 PUSH1 0x40 PUSH1 0x0 KECCAK256 SLOAD PUSH1 0x40 MLOAD SWAP1 DUP2 MSTORE RETURN JUMPDEST CALLVALUE PUSH2 0x204 JUMPI PUSH1 0x20 CALLDATASIZE PUSH1 0x3 NOT ADD SLT PUSH2 0x204 JUMPI PUSH1 0x4 CALLDATALOAD DUP1 PUSH1 0x0 MSTORE PUSH1 0x3 PUSH1 0x20 MSTORE PUSH1 0x40 PUSH1 0x0 KECCAK256 PUSH1 0xFF PUSH1 0x5 DUP3 ADD SLOAD PUSH1 0x8 SHR AND PUSH1 0x3 DUP2 LT ISZERO PUSH2 0x1B9 JUMPI PUSH2 0x39D SWAP2 PUSH2 0x376 PUSH1 0x1 PUSH2 0x384 SWAP4 EQ PUSH2 0x10B9 JUMP JUMPDEST PUSH1 0x4 PUSH1 0x8 DUP3 ADD SLOAD SWAP2 ADD PUSH2 0x10FC JUMP JUMPDEST SWAP1 SLOAD CALLER PUSH1 0x3 SWAP3 SWAP1 SWAP3 SHL SHR PUSH1 0x1 PUSH1 0x1 PUSH1 0xA0 SHL SUB AND EQ PUSH2 0x14C1 JUMP JUMPDEST PUSH1 0x0 DUP2 DUP2 MSTORE PUSH1 0x5 PUSH1 0x20 SWAP1 DUP2 MSTORE PUSH1 0x40 DUP1 DUP4 KECCAK256 CALLER DUP5 MSTORE SWAP1 SWAP2 MSTORE SWAP1 KECCAK256 SLOAD PUSH2 0x3C4 SWAP1 PUSH1 0xFF AND ISZERO PUSH2 0x14FD JUMP JUMPDEST PUSH1 0x1 SLOAD PUSH1 0x0 DUP1 SLOAD PUSH1 0x2 SLOAD PUSH1 0x40 MLOAD PUSH4 0x23B872DD PUSH1 0xE0 SHL DUP2 MSTORE CALLER PUSH1 0x4 DUP3 ADD MSTORE PUSH1 0x1 PUSH1 0x1 PUSH1 0xA0 SHL SUB SWAP3 DUP4 AND PUSH1 0x24 DUP3 ADD MSTORE PUSH1 0x44 DUP2 ADD SWAP2 SWAP1 SWAP2 MSTORE SWAP3 PUSH1 0x20 SWAP3 DUP5 SWAP3 PUSH1 0x64 SWAP3 DUP5 SWAP3 SWAP2 AND GAS CALL SWAP1 DUP2 ISZERO PUSH2 0x4DA JUMPI PUSH1 0x0 SWAP2 PUSH2 0x498 JUMPI JUMPDEST POP ISZERO PUSH2 0x45B JUMPI PUSH2 0x459 SWAP1 PUSH32 0x78D563416C0D6C2454E9C81222EE1E58F6C3FF4DFCFA798D85D391E57023ECC9 PUSH1 0x40 MLOAD DUP1 PUSH2 0x451 CALLER DUP6 DUP4 PUSH2 0x149B JUMP JUMPDEST SUB SWAP1 LOG1 PUSH2 0x1581 JUMP JUMPDEST STOP JUMPDEST PUSH1 0x40 MLOAD PUSH3 0x461BCD PUSH1 0xE5 SHL DUP2 MSTORE PUSH1 0x20 PUSH1 0x4 DUP3 ADD MSTORE PUSH1 0x15 PUSH1 0x24 DUP3 ADD MSTORE PUSH21 0x151BDAD95B881D1C985B9CD9995C8819985A5B1959 PUSH1 0x5A SHL PUSH1 0x44 DUP3 ADD MSTORE PUSH1 0x64 SWAP1 REVERT JUMPDEST PUSH1 0x20 DUP2 RETURNDATASIZE PUSH1 0x20 GT PUSH2 0x4D2 JUMPI JUMPDEST DUP2 PUSH2 0x4B1 PUSH1 0x20 SWAP4 DUP4 PUSH2 0x1305 JUMP JUMPDEST DUP2 ADD SUB SLT PUSH2 0x4CE JUMPI MLOAD SWAP1 DUP2 ISZERO ISZERO DUP3 SUB PUSH2 0x4CB JUMPI POP DUP3 PUSH2 0x417 JUMP JUMPDEST DUP1 REVERT JUMPDEST POP DUP1 REVERT JUMPDEST RETURNDATASIZE SWAP2 POP PUSH2 0x4A4 JUMP JUMPDEST PUSH1 0x40 MLOAD RETURNDATASIZE PUSH1 0x0 DUP3 RETURNDATACOPY RETURNDATASIZE SWAP1 REVERT JUMPDEST CALLVALUE PUSH2 0x204 JUMPI PUSH1 0x0 CALLDATASIZE PUSH1 0x3 NOT ADD SLT PUSH2 0x204 JUMPI PUSH1 0x1 SLOAD PUSH1 0x40 MLOAD PUSH1 0x1 PUSH1 0x1 PUSH1 0xA0 SHL SUB SWAP1 SWAP2 AND DUP2 MSTORE PUSH1 0x20 SWAP1 RETURN JUMPDEST CALLVALUE PUSH2 0x204 JUMPI PUSH1 0x20 CALLDATASIZE PUSH1 0x3 NOT ADD SLT PUSH2 0x204 JUMPI PUSH1 0x4 CALLDATALOAD DUP1 PUSH1 0x0 MSTORE PUSH1 0x3 PUSH1 0x20 MSTORE PUSH1 0x40 PUSH1 0x0 KECCAK256 SWAP1 PUSH1 0xFF PUSH1 0x5 DUP4 ADD SLOAD PUSH1 0x8 SHR AND PUSH1 0x3 DUP2 LT ISZERO PUSH2 0x1B9 JUMPI PUSH1 0x1 PUSH2 0x552 SWAP2 EQ PUSH2 0x10B9 JUMP JUMPDEST PUSH2 0x59B PUSH1 0x8 DUP4 ADD SLOAD PUSH2 0x56A PUSH2 0x384 DUP3 PUSH1 0x4 DUP8 ADD PUSH2 0x10FC JUMP JUMPDEST PUSH1 0x0 DUP4 DUP2 MSTORE PUSH1 0x5 PUSH1 0x20 SWAP1 DUP2 MSTORE PUSH1 0x40 DUP1 DUP4 KECCAK256 CALLER DUP5 MSTORE SWAP1 SWAP2 MSTORE SWAP1 KECCAK256 SLOAD PUSH2 0x591 SWAP1 PUSH1 0xFF AND ISZERO PUSH2 0x14FD JUMP JUMPDEST PUSH1 0x7 DUP5 ADD SLOAD PUSH2 0x14B4 JUMP JUMPDEST SWAP1 PUSH1 0x64 PUSH1 0x40 MLOAD PUSH1 0x20 DUP2 ADD SWAP1 PUSH2 0x5C5 DUP2 PUSH2 0x5B7 DUP8 CALLER PREVRANDAO TIMESTAMP DUP9 PUSH2 0x16EB JUMP JUMPDEST SUB PUSH1 0x1F NOT DUP2 ADD DUP4 MSTORE DUP3 PUSH2 0x1305 JUMP JUMPDEST MLOAD SWAP1 KECCAK256 MOD SWAP2 PUSH1 0x1 DUP4 ADD DUP1 SWAP4 GT PUSH2 0x1A3 JUMPI PUSH1 0x1 DUP2 ADD DUP1 SWAP2 GT PUSH2 0x1A3 JUMPI PUSH1 0x64 SWAP1 PUSH1 0x40 MLOAD PUSH2 0x5FB DUP2 PUSH2 0x5B7 PUSH1 0x20 DUP3 ADD SWAP5 CALLER PREVRANDAO TIMESTAMP DUP9 PUSH2 0x16EB JUMP JUMPDEST MLOAD SWAP1 KECCAK256 MOD SWAP1 PUSH1 0x1 DUP3 ADD DUP1 SWAP3 GT PUSH2 0x1A3 JUMPI PUSH2 0x69E PUSH32 0x159625897A04B71F4E46D7111A412AFACD7A15723596CCC828D247EE50E85D67 SWAP2 PUSH1 0x40 SWAP6 PUSH2 0x63D DUP6 DUP8 PUSH2 0x14B4 JUMP JUMPDEST PUSH1 0x0 DUP4 DUP2 MSTORE PUSH1 0x4 PUSH1 0x20 SWAP1 DUP2 MSTORE DUP10 DUP3 KECCAK256 CALLER DUP4 MSTORE SWAP1 MSTORE DUP9 SWAP1 KECCAK256 DUP1 SLOAD SWAP1 SWAP2 PUSH2 0x661 SWAP2 PUSH2 0x14B4 JUMP JUMPDEST SWAP1 SSTORE PUSH1 0x0 DUP3 DUP2 MSTORE PUSH1 0x4 PUSH1 0x20 SWAP1 DUP2 MSTORE DUP9 DUP3 KECCAK256 CALLER DUP4 MSTORE SWAP1 MSTORE DUP8 SWAP1 KECCAK256 SLOAD PUSH1 0x2 SWAP2 SWAP1 SWAP2 ADD SLOAD LT PUSH2 0x6AD JUMPI JUMPDEST PUSH2 0x691 DUP2 PUSH2 0x1581 JUMP JUMPDEST DUP6 MLOAD SWAP2 DUP3 SWAP2 CALLER SWAP1 DUP4 PUSH2 0x149B JUMP JUMPDEST SUB SWAP1 LOG1 DUP3 MLOAD SWAP2 DUP3 MSTORE PUSH1 0x20 DUP3 ADD MSTORE RETURN JUMPDEST DUP1 PUSH1 0x0 MSTORE PUSH1 0x5 PUSH1 0x20 MSTORE DUP6 PUSH1 0x0 KECCAK256 PUSH1 0x1 DUP1 PUSH1 0xA0 SHL SUB CALLER AND PUSH1 0x0 MSTORE PUSH1 0x20 MSTORE DUP6 PUSH1 0x0 KECCAK256 PUSH1 0x1 PUSH1 0xFF NOT DUP3 SLOAD AND OR SWAP1 SSTORE PUSH32 0x638A014C19F58A705ADFDF3C8350F6EECBCAB57EDC63F1112FEF5828840730EB DUP7 MLOAD DUP1 PUSH2 0x707 CALLER DUP6 DUP4 PUSH2 0x149B JUMP JUMPDEST SUB SWAP1 LOG1 PUSH2 0x688 JUMP JUMPDEST CALLVALUE PUSH2 0x204 JUMPI PUSH1 0x0 CALLDATASIZE PUSH1 0x3 NOT ADD SLT PUSH2 0x204 JUMPI PUSH1 0x7 SLOAD PUSH8 0xFFFFFFFFFFFFFFFF DUP2 GT PUSH2 0x805 JUMPI PUSH1 0x40 MLOAD SWAP1 PUSH2 0x746 PUSH1 0x20 DUP3 PUSH1 0x5 SHL ADD DUP4 PUSH2 0x1305 JUMP JUMPDEST DUP1 DUP3 MSTORE PUSH1 0x7 PUSH1 0x0 SWAP1 DUP2 MSTORE PUSH1 0x20 DUP4 ADD SWAP2 SWAP1 PUSH32 0xA66CC928B5EDB82AF9BD49922954155AB7B0942694BEA4CE44661D9A8736C688 DUP4 JUMPDEST DUP4 DUP4 LT PUSH2 0x7E7 JUMPI DUP5 DUP7 PUSH1 0x40 MLOAD SWAP2 DUP3 SWAP2 PUSH1 0x20 DUP4 ADD SWAP1 PUSH1 0x20 DUP5 MSTORE MLOAD DUP1 SWAP2 MSTORE PUSH1 0x40 DUP4 ADD SWAP1 PUSH1 0x40 DUP2 PUSH1 0x5 SHL DUP6 ADD ADD SWAP3 SWAP2 PUSH1 0x0 SWAP1 JUMPDEST DUP3 DUP3 LT PUSH2 0x7B8 JUMPI POP POP POP POP SUB SWAP1 RETURN JUMPDEST SWAP2 SWAP4 PUSH1 0x1 SWAP2 SWAP4 SWAP6 POP PUSH1 0x20 PUSH2 0x7D7 DUP2 SWAP3 PUSH1 0x3F NOT DUP11 DUP3 SUB ADD DUP7 MSTORE DUP9 MLOAD PUSH2 0xFE6 JUMP JUMPDEST SWAP7 ADD SWAP3 ADD SWAP3 ADD DUP6 SWAP5 SWAP4 SWAP2 SWAP3 PUSH2 0x7A9 JUMP JUMPDEST PUSH1 0xB PUSH1 0x20 PUSH1 0x1 SWAP3 PUSH2 0x7F7 DUP6 PUSH2 0x1327 JUMP JUMPDEST DUP2 MSTORE ADD SWAP3 ADD SWAP3 ADD SWAP2 SWAP1 PUSH2 0x779 JUMP JUMPDEST PUSH4 0x4E487B71 PUSH1 0xE0 SHL PUSH1 0x0 MSTORE PUSH1 0x41 PUSH1 0x4 MSTORE PUSH1 0x24 PUSH1 0x0 REVERT JUMPDEST CALLVALUE PUSH2 0x204 JUMPI PUSH1 0x20 CALLDATASIZE PUSH1 0x3 NOT ADD SLT PUSH2 0x204 JUMPI PUSH1 0x4 CALLDATALOAD DUP1 PUSH1 0x0 MSTORE PUSH1 0x3 PUSH1 0x20 MSTORE PUSH1 0x40 PUSH1 0x0 KECCAK256 SWAP1 PUSH1 0xFF PUSH1 0x5 DUP4 ADD SLOAD PUSH1 0x8 SHR AND PUSH1 0x3 DUP2 LT ISZERO PUSH2 0x1B9 JUMPI PUSH1 0x1 PUSH2 0x85E SWAP2 EQ PUSH2 0x10B9 JUMP JUMPDEST PUSH2 0x871 PUSH1 0x9 DUP4 ADD SLOAD PUSH1 0xA DUP5 ADD SLOAD SWAP1 PUSH2 0x14B4 JUMP JUMPDEST TIMESTAMP GT ISZERO PUSH2 0x8F5 JUMPI PUSH31 0x32E633D34E1AD18FDFB5054DE555825496A862D3DBB13071D8B6D213BB9D71 PUSH2 0x451 PUSH2 0x8B0 DUP5 PUSH1 0x4 PUSH1 0x8 PUSH2 0x459 SWAP8 ADD SLOAD SWAP2 ADD PUSH2 0x10FC JUMP JUMPDEST SWAP1 SLOAD PUSH1 0x0 DUP6 DUP2 MSTORE PUSH1 0x5 PUSH1 0x20 SWAP1 DUP2 MSTORE PUSH1 0x40 DUP1 DUP4 KECCAK256 PUSH1 0x3 SWAP6 SWAP1 SWAP6 SHL SWAP4 SWAP1 SWAP4 SHR PUSH1 0x1 PUSH1 0x1 PUSH1 0xA0 SHL SUB AND DUP1 DUP4 MSTORE SWAP4 SWAP1 MSTORE DUP2 SWAP1 KECCAK256 DUP1 SLOAD PUSH1 0xFF NOT AND PUSH1 0x1 OR SWAP1 SSTORE MLOAD SWAP2 DUP3 SWAP2 DUP6 DUP4 PUSH2 0x149B JUMP JUMPDEST PUSH1 0x40 MLOAD PUSH3 0x461BCD PUSH1 0xE5 SHL DUP2 MSTORE PUSH1 0x20 PUSH1 0x4 DUP3 ADD MSTORE PUSH1 0x16 PUSH1 0x24 DUP3 ADD MSTORE PUSH22 0x151D5C9B881B9BDD081D1A5B5959081BDD5D081E595D PUSH1 0x52 SHL PUSH1 0x44 DUP3 ADD MSTORE PUSH1 0x64 SWAP1 REVERT JUMPDEST PUSH1 0x80 CALLDATASIZE PUSH1 0x3 NOT ADD SLT PUSH2 0x204 JUMPI PUSH1 0x4 CALLDATALOAD PUSH1 0x44 CALLDATALOAD PUSH1 0x24 CALLDATALOAD DUP3 ISZERO PUSH2 0xABF JUMPI DUP1 ISZERO PUSH2 0xA82 JUMPI PUSH2 0x95F DUP2 CALLVALUE EQ PUSH2 0x1418 JUMP JUMPDEST PUSH2 0x96A PUSH1 0x6 SLOAD PUSH2 0x112A JUMP JUMPDEST DUP1 PUSH1 0x6 SSTORE PUSH1 0x0 MSTORE PUSH1 0x3 PUSH1 0x20 MSTORE PUSH1 0x40 PUSH1 0x0 KECCAK256 PUSH1 0x1 DUP1 PUSH1 0xA0 SHL SUB CALLER AND PUSH1 0x1 DUP1 PUSH1 0xA0 SHL SUB NOT DUP3 SLOAD AND OR DUP2 SSTORE DUP4 PUSH1 0x2 DUP3 ADD SSTORE DUP2 PUSH1 0x3 DUP3 ADD SSTORE PUSH1 0x5 DUP2 ADD PUSH1 0x1 PUSH1 0xFF NOT DUP3 SLOAD AND OR DUP2 SSTORE PUSH2 0xFF00 NOT DUP2 SLOAD AND SWAP1 SSTORE DUP3 PUSH1 0x6 DUP3 ADD SSTORE PUSH1 0x1 PUSH1 0x7 DUP3 ADD SSTORE PUSH1 0x0 PUSH1 0x8 DUP3 ADD SSTORE PUSH1 0x64 CALLDATALOAD PUSH1 0xA DUP3 ADD SSTORE PUSH1 0x0 PUSH1 0x9 DUP3 ADD SSTORE PUSH2 0x9E6 CALLER PUSH1 0x4 DUP4 ADD PUSH2 0x145A JUMP JUMPDEST PUSH1 0x7 SLOAD SWAP1 PUSH1 0x1 PUSH1 0x40 SHL DUP3 LT ISZERO PUSH2 0x805 JUMPI PUSH32 0x87969BC7FAF902221A147B95CEBA76E011C5EFB0339A0A8EE7A2BB82D9CFBBD6 SWAP5 PUSH2 0x19E SWAP5 PUSH2 0xA53 PUSH1 0xA0 SWAP4 PUSH2 0x18A DUP7 PUSH1 0x1 PUSH32 0x1EDF9A86C33FED6210D8C78EE787814F0977B94D4E47167AA29231D4F7A565CB SWAP9 ADD PUSH1 0x7 SSTORE PUSH2 0x1139 JUMP JUMPDEST PUSH1 0x6 SLOAD SWAP5 PUSH1 0x40 MLOAD SWAP3 DUP7 DUP5 MSTORE CALLER PUSH1 0x20 DUP6 ADD MSTORE PUSH1 0x40 DUP5 ADD MSTORE PUSH1 0x60 DUP4 ADD MSTORE PUSH1 0x80 DUP3 ADD MSTORE LOG1 PUSH1 0x40 MLOAD SWAP2 DUP3 SWAP2 CALLER SWAP1 DUP4 PUSH2 0x149B JUMP JUMPDEST PUSH1 0x40 MLOAD PUSH3 0x461BCD PUSH1 0xE5 SHL DUP2 MSTORE PUSH1 0x20 PUSH1 0x4 DUP3 ADD MSTORE PUSH1 0x15 PUSH1 0x24 DUP3 ADD MSTORE PUSH21 0x456E74727920666565206D757374206265203E203 PUSH1 0x5C SHL PUSH1 0x44 DUP3 ADD MSTORE PUSH1 0x64 SWAP1 REVERT JUMPDEST PUSH1 0x40 MLOAD PUSH3 0x461BCD PUSH1 0xE5 SHL DUP2 MSTORE PUSH1 0x20 PUSH1 0x4 DUP3 ADD MSTORE PUSH1 0x16 PUSH1 0x24 DUP3 ADD MSTORE PUSH22 0x4D6178206E756D626572206D757374206265203E203 PUSH1 0x54 SHL PUSH1 0x44 DUP3 ADD MSTORE PUSH1 0x64 SWAP1 REVERT JUMPDEST CALLVALUE PUSH2 0x204 JUMPI PUSH1 0x0 CALLDATASIZE PUSH1 0x3 NOT ADD SLT PUSH2 0x204 JUMPI PUSH1 0x20 PUSH1 0x6 SLOAD PUSH1 0x40 MLOAD SWAP1 DUP2 MSTORE RETURN JUMPDEST CALLVALUE PUSH2 0x204 JUMPI PUSH1 0x0 CALLDATASIZE PUSH1 0x3 NOT ADD SLT PUSH2 0x204 JUMPI PUSH1 0x0 SLOAD PUSH1 0x40 MLOAD PUSH1 0x1 PUSH1 0x1 PUSH1 0xA0 SHL SUB SWAP1 SWAP2 AND DUP2 MSTORE PUSH1 0x20 SWAP1 RETURN JUMPDEST CALLVALUE PUSH2 0x204 JUMPI PUSH2 0xB52 CALLDATASIZE PUSH2 0xFB3 JUMP JUMPDEST SWAP1 PUSH1 0x0 MSTORE PUSH1 0x5 PUSH1 0x20 MSTORE PUSH1 0x40 PUSH1 0x0 KECCAK256 SWAP1 PUSH1 0x1 DUP1 PUSH1 0xA0 SHL SUB AND PUSH1 0x0 MSTORE PUSH1 0x20 MSTORE PUSH1 0x20 PUSH1 0xFF PUSH1 0x40 PUSH1 0x0 KECCAK256 SLOAD AND PUSH1 0x40 MLOAD SWAP1 ISZERO ISZERO DUP2 MSTORE RETURN JUMPDEST CALLVALUE PUSH2 0x204 JUMPI PUSH1 0x20 CALLDATASIZE PUSH1 0x3 NOT ADD SLT PUSH2 0x204 JUMPI PUSH1 0x0 PUSH2 0x160 PUSH1 0x40 MLOAD PUSH2 0xBA6 DUP2 PUSH2 0x12E8 JUMP JUMPDEST DUP3 DUP2 MSTORE DUP3 PUSH1 0x20 DUP3 ADD MSTORE DUP3 PUSH1 0x40 DUP3 ADD MSTORE DUP3 PUSH1 0x60 DUP3 ADD MSTORE PUSH1 0x60 PUSH1 0x80 DUP3 ADD MSTORE DUP3 PUSH1 0xA0 DUP3 ADD MSTORE DUP3 PUSH1 0xC0 DUP3 ADD MSTORE DUP3 PUSH1 0xE0 DUP3 ADD MSTORE DUP3 PUSH2 0x100 DUP3 ADD MSTORE DUP3 PUSH2 0x120 DUP3 ADD MSTORE DUP3 PUSH2 0x140 DUP3 ADD MSTORE ADD MSTORE PUSH1 0x4 CALLDATALOAD PUSH1 0x0 MSTORE PUSH1 0x3 PUSH1 0x20 MSTORE PUSH2 0xC1A PUSH2 0xC06 PUSH1 0x40 PUSH1 0x0 KECCAK256 PUSH2 0x1327 JUMP JUMPDEST PUSH1 0x40 MLOAD SWAP2 DUP3 SWAP2 PUSH1 0x20 DUP4 MSTORE PUSH1 0x20 DUP4 ADD SWAP1 PUSH2 0xFE6 JUMP JUMPDEST SUB SWAP1 RETURN JUMPDEST CALLVALUE PUSH2 0x204 JUMPI PUSH1 0x20 CALLDATASIZE PUSH1 0x3 NOT ADD SLT PUSH2 0x204 JUMPI PUSH1 0x4 CALLDATALOAD PUSH1 0x0 MSTORE PUSH1 0x3 PUSH1 0x20 MSTORE PUSH2 0x160 PUSH1 0x40 PUSH1 0x0 KECCAK256 PUSH1 0x1 DUP1 PUSH1 0xA0 SHL SUB DUP2 SLOAD AND SWAP1 PUSH1 0x1 DUP2 ADD SLOAD SWAP1 PUSH1 0x2 DUP2 ADD SLOAD PUSH1 0x3 DUP3 ADD SLOAD PUSH1 0x5 DUP4 ADD SLOAD PUSH2 0xCB2 PUSH1 0x6 DUP6 ADD SLOAD SWAP2 PUSH1 0x7 DUP7 ADD SLOAD SWAP4 PUSH1 0x8 DUP8 ADD SLOAD SWAP6 PUSH1 0xA PUSH1 0x9 DUP10 ADD SLOAD SWAP9 ADD SLOAD SWAP9 PUSH1 0x40 MLOAD SWAP11 DUP12 MSTORE PUSH1 0x20 DUP12 ADD MSTORE PUSH1 0x40 DUP11 ADD MSTORE PUSH1 0x60 DUP10 ADD MSTORE PUSH1 0xFF DUP2 AND ISZERO ISZERO PUSH1 0x80 DUP10 ADD MSTORE PUSH1 0xFF PUSH1 0xA0 DUP10 ADD SWAP2 PUSH1 0x8 SHR AND PUSH2 0xFD9 JUMP JUMPDEST PUSH1 0xC0 DUP7 ADD MSTORE PUSH1 0xE0 DUP6 ADD MSTORE PUSH2 0x100 DUP5 ADD MSTORE PUSH2 0x120 DUP4 ADD MSTORE PUSH2 0x140 DUP3 ADD MSTORE RETURN JUMPDEST CALLVALUE PUSH2 0x204 JUMPI PUSH1 0x0 CALLDATASIZE PUSH1 0x3 NOT ADD SLT PUSH2 0x204 JUMPI PUSH1 0x20 PUSH1 0x2 SLOAD PUSH1 0x40 MLOAD SWAP1 DUP2 MSTORE RETURN JUMPDEST CALLVALUE PUSH2 0x204 JUMPI PUSH1 0x20 CALLDATASIZE PUSH1 0x3 NOT ADD SLT PUSH2 0x204 JUMPI PUSH1 0x4 CALLDATALOAD DUP1 PUSH1 0x0 MSTORE PUSH1 0x3 PUSH1 0x20 MSTORE PUSH1 0x40 PUSH1 0x0 KECCAK256 PUSH1 0x5 DUP2 ADD PUSH1 0xFF DUP2 SLOAD PUSH1 0x8 SHR AND PUSH1 0x3 DUP2 LT ISZERO PUSH2 0x1B9 JUMPI PUSH1 0x1 PUSH2 0xD31 SWAP2 EQ PUSH2 0x10B9 JUMP JUMPDEST PUSH1 0x0 DUP1 PUSH1 0x0 NOT SWAP2 DUP1 SWAP3 PUSH1 0x4 DUP7 ADD DUP1 SLOAD SWAP5 JUMPDEST DUP6 DUP2 LT PUSH2 0xEB1 JUMPI POP POP POP PUSH1 0x3 DUP6 ADD SLOAD SWAP3 DUP4 DUP2 MUL SWAP4 DUP2 DUP6 DIV EQ SWAP1 ISZERO OR ISZERO PUSH2 0x1A3 JUMPI PUSH1 0x1 DUP2 EQ DUP1 ISZERO PUSH2 0xEA0 JUMPI JUMPDEST ISZERO PUSH2 0xDFE JUMPI POP PUSH1 0x1 PUSH1 0x1 PUSH1 0xA0 SHL SUB AND SWAP1 PUSH1 0x0 DUP2 DUP4 DUP2 ISZERO PUSH2 0xDF4 JUMPI JUMPDEST PUSH1 0x0 SWAP3 DUP4 SWAP3 DUP4 SWAP3 DUP4 SWAP3 CALL ISZERO PUSH2 0x4DA JUMPI PUSH32 0x7ED5FACE07AFB2B0E99DF53523951350D2A3D4F5D105A0DD2110703EFE399537 SWAP2 PUSH1 0x60 SWAP2 PUSH1 0x40 MLOAD SWAP2 DUP8 DUP4 MSTORE PUSH1 0x20 DUP4 ADD MSTORE PUSH1 0x40 DUP3 ADD MSTORE LOG1 JUMPDEST DUP1 SLOAD PUSH2 0xFFFF NOT AND PUSH2 0x200 OR SWAP1 SSTORE PUSH1 0x0 NOT DUP3 ADD SWAP2 DUP3 GT PUSH2 0x1A3 JUMPI PUSH2 0x18A PUSH2 0x459 SWAP3 PUSH2 0x1139 JUMP JUMPDEST PUSH2 0x8FC SWAP3 POP PUSH2 0xD88 JUMP JUMPDEST ISZERO ISZERO SWAP1 POP PUSH2 0xE62 JUMPI PUSH1 0x0 DUP1 DUP1 DUP1 DUP5 PUSH1 0x1 DUP1 PUSH1 0xA0 SHL SUB DUP3 SLOAD AND DUP3 DUP3 ISZERO PUSH2 0xE59 JUMPI JUMPDEST CALL ISZERO PUSH2 0x4DA JUMPI PUSH1 0x40 PUSH32 0x66A8C5B89438EB03696FBF4FAE05D99DCFA81867A18C352B258B5DE0AEA1C246 SWAP2 DUP2 MLOAD SWAP1 DUP7 DUP3 MSTORE PUSH1 0x20 DUP3 ADD MSTORE LOG1 PUSH2 0xDCF JUMP JUMPDEST POP PUSH2 0x8FC PUSH2 0xE1E JUMP JUMPDEST PUSH1 0x40 MLOAD PUSH3 0x461BCD PUSH1 0xE5 SHL DUP2 MSTORE PUSH1 0x20 PUSH1 0x4 DUP3 ADD MSTORE PUSH1 0x16 PUSH1 0x24 DUP3 ADD MSTORE PUSH22 0x11D85B59481B9BDD081E595D0818DBDB98DB1D591959 PUSH1 0x52 SHL PUSH1 0x44 DUP3 ADD MSTORE PUSH1 0x64 SWAP1 REVERT JUMPDEST POP PUSH1 0x7 DUP6 ADD SLOAD PUSH1 0x6 DUP7 ADD SLOAD LT PUSH2 0xD6D JUMP JUMPDEST DUP9 PUSH1 0x0 MSTORE PUSH1 0x5 PUSH1 0x20 MSTORE PUSH1 0xFF PUSH1 0x40 DUP1 PUSH1 0x0 KECCAK256 PUSH2 0xECC DUP5 DUP7 PUSH2 0x10FC JUMP JUMPDEST SWAP1 SLOAD PUSH1 0x3 SWAP2 SWAP1 SWAP2 SHL SHR PUSH1 0x1 PUSH1 0x1 PUSH1 0xA0 SHL SUB AND PUSH1 0x0 SWAP1 DUP2 MSTORE PUSH1 0x20 SWAP2 SWAP1 SWAP2 MSTORE KECCAK256 SLOAD AND ISZERO PUSH2 0xEFA JUMPI JUMPDEST PUSH1 0x1 ADD PUSH2 0xD42 JUMP JUMPDEST SWAP4 POP SWAP2 PUSH2 0xF06 SWAP1 PUSH2 0x112A JUMP JUMPDEST SWAP2 PUSH2 0xF11 DUP5 DUP3 PUSH2 0x10FC JUMP JUMPDEST PUSH1 0x1 DUP1 PUSH1 0xA0 SHL SUB SWAP2 SLOAD SWAP1 PUSH1 0x3 SHL SHR AND SWAP4 DUP9 PUSH1 0x0 MSTORE PUSH1 0x4 PUSH1 0x20 MSTORE DUP3 PUSH1 0x40 DUP1 PUSH1 0x0 KECCAK256 PUSH2 0xF3B DUP5 DUP7 PUSH2 0x10FC JUMP JUMPDEST SWAP1 SLOAD PUSH1 0x3 SWAP2 SWAP1 SWAP2 SHL SHR PUSH1 0x1 PUSH1 0x1 PUSH1 0xA0 SHL SUB AND PUSH1 0x0 SWAP1 DUP2 MSTORE PUSH1 0x20 SWAP2 SWAP1 SWAP2 MSTORE KECCAK256 SLOAD LT ISZERO PUSH2 0xEF2 JUMPI SWAP2 POP DUP8 PUSH1 0x0 MSTORE PUSH1 0x4 PUSH1 0x20 MSTORE PUSH1 0x1 PUSH1 0x40 DUP1 PUSH1 0x0 KECCAK256 PUSH2 0xF7D DUP6 DUP6 PUSH2 0x10FC JUMP JUMPDEST DUP5 DUP1 PUSH1 0xA0 SHL SUB SWAP2 SLOAD SWAP1 PUSH1 0x3 SHL SHR AND SWAP1 PUSH1 0x0 SWAP2 DUP5 DUP1 PUSH1 0xA0 SHL SUB AND DUP3 MSTORE PUSH1 0x20 MSTORE KECCAK256 SLOAD SWAP3 PUSH2 0xFA8 DUP2 DUP5 PUSH2 0x10FC JUMP JUMPDEST POP SWAP1 SWAP2 POP PUSH2 0xEF2 SWAP1 POP JUMP JUMPDEST PUSH1 0x40 SWAP1 PUSH1 0x3 NOT ADD SLT PUSH2 0x204 JUMPI PUSH1 0x4 CALLDATALOAD SWAP1 PUSH1 0x24 CALLDATALOAD PUSH1 0x1 PUSH1 0x1 PUSH1 0xA0 SHL SUB DUP2 AND DUP2 SUB PUSH2 0x204 JUMPI SWAP1 JUMP JUMPDEST SWAP1 PUSH1 0x3 DUP3 LT ISZERO PUSH2 0x1B9 JUMPI MSTORE JUMP JUMPDEST SWAP1 PUSH2 0x180 DUP2 ADD SWAP2 PUSH1 0x1 DUP1 PUSH1 0xA0 SHL SUB DUP2 MLOAD AND DUP3 MSTORE PUSH1 0x20 DUP2 ADD MLOAD PUSH1 0x20 DUP4 ADD MSTORE PUSH1 0x40 DUP2 ADD MLOAD PUSH1 0x40 DUP4 ADD MSTORE PUSH1 0x60 DUP2 ADD MLOAD PUSH1 0x60 DUP4 ADD MSTORE PUSH1 0x80 DUP2 ADD MLOAD SWAP3 PUSH2 0x180 PUSH1 0x80 DUP5 ADD MSTORE DUP4 MLOAD DUP1 SWAP2 MSTORE PUSH1 0x20 PUSH2 0x1A0 DUP5 ADD SWAP5 ADD SWAP1 PUSH1 0x0 JUMPDEST DUP2 DUP2 LT PUSH2 0x109A JUMPI POP POP POP PUSH2 0x160 DUP2 PUSH1 0xA0 DUP3 SWAP4 ADD MLOAD ISZERO ISZERO PUSH1 0xA0 DUP6 ADD MSTORE PUSH2 0x1064 PUSH1 0xC0 DUP3 ADD MLOAD PUSH1 0xC0 DUP7 ADD SWAP1 PUSH2 0xFD9 JUMP JUMPDEST PUSH1 0xE0 DUP2 ADD MLOAD PUSH1 0xE0 DUP6 ADD MSTORE PUSH2 0x100 DUP2 ADD MLOAD PUSH2 0x100 DUP6 ADD MSTORE PUSH2 0x120 DUP2 ADD MLOAD PUSH2 0x120 DUP6 ADD MSTORE PUSH2 0x140 DUP2 ADD MLOAD PUSH2 0x140 DUP6 ADD MSTORE ADD MLOAD SWAP2 ADD MSTORE SWAP1 JUMP JUMPDEST DUP3 MLOAD PUSH1 0x1 PUSH1 0x1 PUSH1 0xA0 SHL SUB AND DUP7 MSTORE PUSH1 0x20 SWAP6 DUP7 ADD SWAP6 SWAP1 SWAP3 ADD SWAP2 PUSH1 0x1 ADD PUSH2 0x1037 JUMP JUMPDEST ISZERO PUSH2 0x10C0 JUMPI JUMP JUMPDEST PUSH1 0x40 MLOAD PUSH3 0x461BCD PUSH1 0xE5 SHL DUP2 MSTORE PUSH1 0x20 PUSH1 0x4 DUP3 ADD MSTORE PUSH1 0x14 PUSH1 0x24 DUP3 ADD MSTORE PUSH20 0x47616D65206E6F7420696E2070726F6772657373 PUSH1 0x60 SHL PUSH1 0x44 DUP3 ADD MSTORE PUSH1 0x64 SWAP1 REVERT JUMPDEST DUP1 SLOAD DUP3 LT ISZERO PUSH2 0x1114 JUMPI PUSH1 0x0 MSTORE PUSH1 0x20 PUSH1 0x0 KECCAK256 ADD SWAP1 PUSH1 0x0 SWAP1 JUMP JUMPDEST PUSH4 0x4E487B71 PUSH1 0xE0 SHL PUSH1 0x0 MSTORE PUSH1 0x32 PUSH1 0x4 MSTORE PUSH1 0x24 PUSH1 0x0 REVERT JUMPDEST PUSH1 0x0 NOT DUP2 EQ PUSH2 0x1A3 JUMPI PUSH1 0x1 ADD SWAP1 JUMP JUMPDEST PUSH1 0x7 SLOAD DUP2 LT ISZERO PUSH2 0x1114 JUMPI PUSH1 0x7 PUSH1 0x0 MSTORE PUSH1 0xB PUSH1 0x20 PUSH1 0x0 KECCAK256 SWAP2 MUL ADD SWAP1 PUSH1 0x0 SWAP1 JUMP JUMPDEST DUP2 DUP2 EQ PUSH2 0x11FA JUMPI DUP2 SLOAD SWAP2 PUSH8 0xFFFFFFFFFFFFFFFF DUP4 GT PUSH2 0x805 JUMPI PUSH1 0x1 PUSH1 0x40 SHL DUP4 GT PUSH2 0x805 JUMPI DUP2 SLOAD DUP4 DUP4 SSTORE DUP1 DUP5 LT PUSH2 0x11D1 JUMPI JUMPDEST POP PUSH1 0x0 MSTORE PUSH1 0x20 PUSH1 0x0 KECCAK256 SWAP1 PUSH1 0x0 MSTORE PUSH1 0x20 PUSH1 0x0 KECCAK256 DUP2 SLOAD SWAP2 PUSH1 0x0 SWAP3 JUMPDEST DUP5 DUP5 LT PUSH2 0x11B0 JUMPI POP POP POP POP POP JUMP JUMPDEST PUSH1 0x1 SWAP2 DUP3 ADD DUP1 SLOAD PUSH1 0x1 PUSH1 0x1 PUSH1 0xA0 SHL SUB SWAP1 SWAP3 AND DUP5 DUP7 ADD SSTORE SWAP4 SWAP1 SWAP2 ADD SWAP3 SWAP1 PUSH2 0x11A2 JUMP JUMPDEST DUP3 PUSH1 0x0 MSTORE DUP4 PUSH1 0x20 PUSH1 0x0 KECCAK256 SWAP2 DUP3 ADD SWAP2 ADD JUMPDEST DUP2 DUP2 LT PUSH2 0x11EE JUMPI POP PUSH2 0x1189 JUMP JUMPDEST PUSH1 0x0 DUP2 SSTORE PUSH1 0x1 ADD PUSH2 0x11E1 JUMP JUMPDEST POP POP JUMP JUMPDEST SWAP2 SWAP1 PUSH2 0x12D2 JUMPI DUP1 DUP3 SUB PUSH2 0x120F JUMPI POP POP JUMP JUMPDEST DUP1 SLOAD DUP3 SLOAD PUSH1 0x1 PUSH1 0x1 PUSH1 0xA0 SHL SUB NOT AND PUSH1 0x1 PUSH1 0x1 PUSH1 0xA0 SHL SUB SWAP2 SWAP1 SWAP2 AND OR DUP3 SSTORE PUSH1 0x1 DUP2 DUP2 ADD SLOAD SWAP1 DUP4 ADD SSTORE PUSH1 0x2 DUP1 DUP3 ADD SLOAD SWAP1 DUP4 ADD SSTORE PUSH1 0x3 DUP1 DUP3 ADD SLOAD SWAP1 DUP4 ADD SSTORE PUSH2 0x125A PUSH1 0x4 DUP1 DUP4 ADD SWAP1 DUP5 ADD PUSH2 0x1158 JUMP JUMPDEST PUSH1 0x5 DUP3 ADD SWAP1 PUSH1 0x5 DUP2 ADD PUSH1 0xFF DUP2 SLOAD AND ISZERO ISZERO PUSH1 0xFF DUP1 NOT DUP6 SLOAD AND SWAP2 AND OR DUP4 SSTORE SLOAD SWAP1 PUSH1 0x3 PUSH1 0xFF DUP4 PUSH1 0x8 SHR AND LT ISZERO PUSH2 0x1B9 JUMPI DUP3 PUSH1 0xA SWAP4 SWAP3 PUSH2 0xFF00 DUP1 DUP7 SWAP6 SLOAD SWAP3 PUSH1 0xFF NOT AND AND AND SWAP1 PUSH2 0xFF00 NOT AND OR SWAP1 SSTORE PUSH1 0x6 DUP2 ADD SLOAD PUSH1 0x6 DUP6 ADD SSTORE PUSH1 0x7 DUP2 ADD SLOAD PUSH1 0x7 DUP6 ADD SSTORE PUSH1 0x8 DUP2 ADD SLOAD PUSH1 0x8 DUP6 ADD SSTORE PUSH1 0x9 DUP2 ADD SLOAD PUSH1 0x9 DUP6 ADD SSTORE ADD SLOAD SWAP2 ADD SSTORE JUMP JUMPDEST PUSH4 0x4E487B71 PUSH1 0xE0 SHL PUSH1 0x0 MSTORE PUSH1 0x0 PUSH1 0x4 MSTORE PUSH1 0x24 PUSH1 0x0 REVERT JUMPDEST PUSH2 0x180 DUP2 ADD SWAP1 DUP2 LT PUSH8 0xFFFFFFFFFFFFFFFF DUP3 GT OR PUSH2 0x805 JUMPI PUSH1 0x40 MSTORE JUMP JUMPDEST SWAP1 PUSH1 0x1F DUP1 NOT SWAP2 ADD AND DUP2 ADD SWAP1 DUP2 LT PUSH8 0xFFFFFFFFFFFFFFFF DUP3 GT OR PUSH2 0x805 JUMPI PUSH1 0x40 MSTORE JUMP JUMPDEST SWAP1 PUSH1 0x40 MLOAD PUSH2 0x1334 DUP2 PUSH2 0x12E8 JUMP JUMPDEST DUP1 SWAP3 PUSH1 0x1 DUP1 PUSH1 0xA0 SHL SUB DUP2 SLOAD AND DUP3 MSTORE PUSH1 0x1 DUP2 ADD SLOAD PUSH1 0x20 DUP4 ADD MSTORE PUSH1 0x2 DUP2 ADD SLOAD PUSH1 0x40 DUP4 ADD MSTORE PUSH1 0x3 DUP2 ADD SLOAD PUSH1 0x60 DUP4 ADD MSTORE PUSH1 0x4 DUP2 ADD PUSH1 0x40 MLOAD DUP1 DUP3 PUSH1 0x20 DUP3 SWAP5 SLOAD SWAP4 DUP5 DUP2 MSTORE ADD SWAP1 PUSH1 0x0 MSTORE PUSH1 0x20 PUSH1 0x0 KECCAK256 SWAP3 PUSH1 0x0 JUMPDEST DUP2 DUP2 LT PUSH2 0x13F6 JUMPI POP POP PUSH2 0x1395 SWAP3 POP SUB DUP3 PUSH2 0x1305 JUMP JUMPDEST PUSH1 0x80 DUP4 ADD MSTORE PUSH1 0xFF PUSH1 0x5 DUP3 ADD SLOAD DUP2 DUP2 AND ISZERO ISZERO PUSH1 0xA0 DUP6 ADD MSTORE PUSH1 0x8 SHR AND PUSH1 0x3 DUP2 LT ISZERO PUSH2 0x1B9 JUMPI PUSH2 0x160 SWAP2 PUSH1 0xA SWAP2 PUSH1 0xC0 DUP6 ADD MSTORE PUSH1 0x6 DUP2 ADD SLOAD PUSH1 0xE0 DUP6 ADD MSTORE PUSH1 0x7 DUP2 ADD SLOAD PUSH2 0x100 DUP6 ADD MSTORE PUSH1 0x8 DUP2 ADD SLOAD PUSH2 0x120 DUP6 ADD MSTORE PUSH1 0x9 DUP2 ADD SLOAD PUSH2 0x140 DUP6 ADD MSTORE ADD SLOAD SWAP2 ADD MSTORE JUMP JUMPDEST DUP5 SLOAD PUSH1 0x1 PUSH1 0x1 PUSH1 0xA0 SHL SUB AND DUP4 MSTORE PUSH1 0x1 SWAP5 DUP6 ADD SWAP5 DUP7 SWAP5 POP PUSH1 0x20 SWAP1 SWAP4 ADD SWAP3 ADD PUSH2 0x1380 JUMP JUMPDEST ISZERO PUSH2 0x141F JUMPI JUMP JUMPDEST PUSH1 0x40 MLOAD PUSH3 0x461BCD PUSH1 0xE5 SHL DUP2 MSTORE PUSH1 0x20 PUSH1 0x4 DUP3 ADD MSTORE PUSH1 0x13 PUSH1 0x24 DUP3 ADD MSTORE PUSH19 0x496E636F727265637420656E74727920666565 PUSH1 0x68 SHL PUSH1 0x44 DUP3 ADD MSTORE PUSH1 0x64 SWAP1 REVERT JUMPDEST DUP1 SLOAD PUSH1 0x1 PUSH1 0x40 SHL DUP2 LT ISZERO PUSH2 0x805 JUMPI PUSH2 0x1477 SWAP2 PUSH1 0x1 DUP3 ADD DUP2 SSTORE PUSH2 0x10FC JUMP JUMPDEST DUP2 SLOAD PUSH1 0x1 PUSH1 0x1 PUSH1 0xA0 SHL SUB SWAP4 DUP5 AND PUSH1 0x3 SWAP3 SWAP1 SWAP3 SHL SWAP2 DUP3 SHL SWAP4 SWAP1 SWAP2 SHL NOT AND SWAP2 SWAP1 SWAP2 OR SWAP1 SSTORE JUMP JUMPDEST SWAP1 DUP2 MSTORE PUSH1 0x1 PUSH1 0x1 PUSH1 0xA0 SHL SUB SWAP1 SWAP2 AND PUSH1 0x20 DUP3 ADD MSTORE PUSH1 0x40 ADD SWAP1 JUMP JUMPDEST SWAP2 SWAP1 DUP3 ADD DUP1 SWAP3 GT PUSH2 0x1A3 JUMPI JUMP JUMPDEST ISZERO PUSH2 0x14C8 JUMPI JUMP JUMPDEST PUSH1 0x40 MLOAD PUSH3 0x461BCD PUSH1 0xE5 SHL DUP2 MSTORE PUSH1 0x20 PUSH1 0x4 DUP3 ADD MSTORE PUSH1 0xD PUSH1 0x24 DUP3 ADD MSTORE PUSH13 0x2737BA103CB7BAB9103A3AB937 PUSH1 0x99 SHL PUSH1 0x44 DUP3 ADD MSTORE PUSH1 0x64 SWAP1 REVERT JUMPDEST ISZERO PUSH2 0x1504 JUMPI JUMP JUMPDEST PUSH1 0x40 MLOAD PUSH3 0x461BCD PUSH1 0xE5 SHL DUP2 MSTORE PUSH1 0x20 PUSH1 0x4 DUP3 ADD MSTORE PUSH1 0x12 PUSH1 0x24 DUP3 ADD MSTORE PUSH18 0x165BDD48185C9948195B1A5B5A5B985D1959 PUSH1 0x72 SHL PUSH1 0x44 DUP3 ADD MSTORE PUSH1 0x64 SWAP1 REVERT JUMPDEST ISZERO PUSH2 0x1545 JUMPI JUMP JUMPDEST PUSH1 0x40 MLOAD PUSH3 0x461BCD PUSH1 0xE5 SHL DUP2 MSTORE PUSH1 0x20 PUSH1 0x4 DUP3 ADD MSTORE PUSH1 0x14 PUSH1 0x24 DUP3 ADD MSTORE PUSH20 0x11D85B5948185B1C9958591E481CDD185C9D1959 PUSH1 0x62 SHL PUSH1 0x44 DUP3 ADD MSTORE PUSH1 0x64 SWAP1 REVERT JUMPDEST DUP1 PUSH1 0x0 MSTORE PUSH1 0x3 PUSH1 0x20 MSTORE PUSH1 0x40 PUSH1 0x0 KECCAK256 PUSH1 0x4 DUP2 ADD SWAP2 DUP3 SLOAD SWAP2 PUSH1 0x8 DUP2 ADD SWAP3 DUP4 SLOAD PUSH1 0x9 DUP4 ADD SWAP2 TIMESTAMP DUP4 SSTORE PUSH1 0x1 DUP2 ISZERO SWAP1 JUMPDEST ISZERO PUSH2 0x1679 JUMPI JUMPDEST PUSH1 0x0 DUP8 SLOAD PUSH1 0x1 DUP2 ADD DUP1 SWAP2 GT PUSH2 0x1665 JUMPI DUP3 PUSH2 0x1651 JUMPI DUP4 DUP6 SWAP2 MOD DUP1 DUP11 SSTORE DUP1 ISZERO PUSH2 0x163C JUMPI JUMPDEST SUB PUSH2 0x15AC JUMPI POP POP POP POP PUSH1 0x7 PUSH2 0x160F PUSH32 0x5E29CB4C5E826275CB8CF9F76F97CAADAC08D231CDA0B6AEADE3C9DE8A7EF146 SWAP7 PUSH1 0x80 SWAP7 JUMPDEST SLOAD SWAP1 PUSH2 0x10FC JUMP JUMPDEST PUSH1 0x1 DUP1 PUSH1 0xA0 SHL SUB SWAP2 SLOAD SWAP1 PUSH1 0x3 SHL SHR AND SWAP3 ADD SLOAD SWAP1 SLOAD SWAP2 PUSH1 0x40 MLOAD SWAP4 DUP5 MSTORE PUSH1 0x20 DUP5 ADD MSTORE PUSH1 0x40 DUP4 ADD MSTORE PUSH1 0x60 DUP3 ADD MSTORE LOG1 JUMP JUMPDEST PUSH1 0x7 DUP9 ADD PUSH2 0x164A DUP2 SLOAD PUSH2 0x112A JUMP JUMPDEST SWAP1 SSTORE PUSH2 0x15D4 JUMP JUMPDEST PUSH4 0x4E487B71 PUSH1 0xE0 SHL DUP3 MSTORE PUSH1 0x12 PUSH1 0x4 MSTORE PUSH1 0x24 DUP3 REVERT JUMPDEST PUSH4 0x4E487B71 PUSH1 0xE0 SHL DUP3 MSTORE PUSH1 0x11 PUSH1 0x4 MSTORE PUSH1 0x24 DUP3 REVERT JUMPDEST DUP6 PUSH1 0x0 MSTORE PUSH1 0x5 PUSH1 0x20 MSTORE PUSH1 0xFF PUSH1 0x40 DUP1 PUSH1 0x0 KECCAK256 PUSH2 0x1695 DUP11 SLOAD DUP13 PUSH2 0x10FC JUMP JUMPDEST SWAP1 SLOAD PUSH1 0x3 SWAP2 SWAP1 SWAP2 SHL SHR PUSH1 0x1 PUSH1 0x1 PUSH1 0xA0 SHL SUB AND PUSH1 0x0 SWAP1 DUP2 MSTORE PUSH1 0x20 SWAP2 SWAP1 SWAP2 MSTORE KECCAK256 SLOAD AND PUSH2 0x15B2 JUMPI POP POP POP PUSH1 0x7 PUSH2 0x160F PUSH32 0x5E29CB4C5E826275CB8CF9F76F97CAADAC08D231CDA0B6AEADE3C9DE8A7EF146 SWAP7 PUSH1 0x80 SWAP7 PUSH2 0x1608 JUMP JUMPDEST SWAP3 SWAP1 SWAP2 PUSH1 0x74 SWAP5 SWAP3 DUP5 MSTORE PUSH1 0x20 DUP5 ADD MSTORE PUSH12 0xFFFFFFFFFFFFFFFFFFFFFFFF NOT SWAP1 PUSH1 0x60 SHL AND PUSH1 0x40 DUP4 ADD MSTORE PUSH1 0x54 DUP3 ADD MSTORE ADD SWAP1 JUMP INVALID LOG2 PUSH5 0x6970667358 0x22 SLT KECCAK256 DUP3 0xC7 SWAP15 BLOCKHASH 0xED EQ PUSH22 0xF35EFCA6ABE42BF2CCB2D11496C91A1991D9A9CCD150 BLOBHASH 0xD0 EQ PUSH5 0x736F6C6343 STOP ADDMOD SHL STOP CALLER "
        },
        "methodIdentifiers": {
          "checkWinner(uint256)": "18854939",
          "createGameRoom(uint256,uint256,uint256,uint256)": "9e43d97d",
          "forceAdvance(uint256)": "9fe63153",
          "gameRooms(uint256)": "426c4641",
          "gameToken()": "c3dfdae6",
          "getALlGameRooms()": "a0e1746f",
          "getGameRoomById(uint256)": "61099b17",
          "getIsPlayerEliminatedByRoomId(uint256,address)": "0e5a2ebe",
          "getPlayerScoresForEachGameRoom(uint256,address)": "dbed0391",
          "getTotalRoomsCreated()": "1ab91215",
          "isEliminated(uint256,address)": "7e32eb9a",
          "joinGameRoom(uint256)": "eca0a441",
          "owner()": "8da5cb5b",
          "playTurn(uint256)": "a0fc6cff",
          "playerScores(uint256,address)": "00200e27",
          "roomCounter()": "921c45ca",
          "skipFee()": "3dc290d3",
          "skipTurn(uint256)": "ce371cbd",
          "startGame(uint256)": "e5ed1d59"
        }
      }
    }
  }
}